:020000040800F2
:1000000098F80020A10100089D4A0008A7440008B4
:10001000994A00082509000817650008000000003B
:10002000000000000000000000000000695B000804
:100030005B0C000800000000C14C00086D60000867
:10004000BB010008BB010008BB010008BB010008A0
:10005000BB010008BB010008BB010008BB01000890
:10006000BB010008D10C0008BB010008BB0100085F
:10007000BB010008BB010008BB010008BB01000870
:10008000BB010008BB010008BB010008BB01000860
:10009000BB010008BB010008BB010008BB01000850
:1000A000BB010008BB010008BB010008BB01000840
:1000B000BB010008BB010008BB010008BB01000830
:1000C000BB010008BB010008BB010008BB01000820
:1000D000BB010008BB010008BB010008BB01000810
:1000E000BB010008BB010008BB010008BB01000800
:1000F000BB010008BB010008BB010008BB010008F0
:10010000BB010008BB010008BB010008BB010008DF
:10011000BB010008BB010008BB0100084D610008DD
:10012000BB010008210B0008BB010008BB0100084F
:10013000BB010008BB010008BB010008BB010008AF
:10014000BB010008BB010008BB010008BB0100089F
:10015000BB010008BB010008BB010008BB0100088F
:10016000BB010008BB010008BB010008BB0100087F
:10017000BB010008BB010008BB0100080000000033
:10018000BB010008BB010008DFF810D000F00CFB39
:10019000004800479D5D0308AFF3008098F80020F9
:1001A0000648804706480047FEE7FEE7FEE7FEE711
:1001B000FEE7FEE7FEE7FEE7FEE7FEE7396100083F
:1001C000890100082DE9F05F0546002092469B4614
:1001D00088460646814640241BE02846414647465D
:1001E000224600F027F953465A46C01A914110D3CF
:1001F00011461846224600F00EF92D1A67EB010849
:100200004F4622460120002100F005F917EB0009B6
:100210004E41201EA4F10104DFDC484631462A4647
:100220004346BDE8F09F10B5431A934209D28318A4
:10023000881803E010F8011D03F8011D521EF9D2C1
:1002400010BD40EA01039B0703D009E008C9121F53
:1002500008C0042AFAD203E011F8013B00F8013B80
:10026000521EF9D210BDD2B201E000F8012B491E96
:10027000FBD270470022F6E710B513460A46044643
:100280001946FFF7F0FF204610BD421C10F8011B75
:100290000029FBD1801A704710B5002200E0521CE3
:1002A000835C8C5CA34201D1002BF8D1D8B2E1B2BF
:1002B000401A10BD034611F8012B00F8012B002A4B
:1002C000F9D1184670470022CBB20178994200D18B
:1002D0000246401C0029F8D1104670472DE9F04134
:1002E0000E460546002400E0641C285D00F0B2F8CC
:1002F0000746305D00F0AEF8381A02D1295D0029BA
:10030000F2D1BDE8F0812DE9FE4F81EA030404F04B
:10031000004421F0004100944FF0000B23F0004313
:1003200050EA01045ED052EA03045BD0C3F30A54DE
:10033000C1F30A552C44A4F2F3340194A0FB0254F7
:10034000C1F3130141F48011C3F3130343F4801389
:1003500001FB024400FB034E840A970A44EA8154DD
:1003600047EA8357A4FB076802958D0A05FB0785BA
:100370004FEA932C04FB0C542705029D4FEA0658C4
:1003800047EA1637B5EB08056EEB070C870E920EA1
:1003900047EA811742EA8312A7FB0201B6EB0B0181
:1003A00064EB00042B0D43EA0C335E1844EB1C5045
:1003B000DA465146E7FB0201C5F313044FEA0B335B
:1003C00043EA14534FEA0432019C43EA0603A4F1C2
:1003D0000C040294009CCDE900B400F050F803B086
:1003E000BDE8F08F00200146F9E730B50B46014625
:1003F00000202022012409E021FA02F59D4205D3C4
:1004000003FA02F5491B04FA02F52844151EA2F16D
:100410000102F1DC30BD202A04DB203A00FA02F1AF
:10042000002070479140C2F1200320FA03F31943E2
:1004300090407047202A04DB203A21FA02F0002184
:10044000704721FA02F3D040C2F1200291400843E4
:1004500019467047A0F14101192900D82030704792
:1004600010B5141E73F1000408DA401C41F10001BC
:1004700092185B411A4301D120F0010010BD2DE913
:10048000F04D92469B4611B1B1FA81F202E0B0FA0A
:1004900080F220329046FFF7BEFF04460F4640EA46
:1004A0000A0041EA0B0153465A46084313D011464D
:1004B00053EA010019D0C8F140025046FFF7BAFFD5
:1004C00005460E46504659464246FFF7A4FF0843EC
:1004D00005D0012004E020463946BDE8F08D00201B
:1004E000054346EAE0762C4337430A986305E40A5D
:1004F000A0EB08000022FD0A44EA47540A3002D566
:1005000000200146E9E7010510196941DDE90845C8
:1005100000196941BDE8F04DA2E72DE9FE4F804684
:1005200081EA0300C00F0C46009021F0004123F047
:100530000045B8EB0200A94105D24046214690464D
:100540001C460B46024623F00040104347D0270DBF
:10055000C7F30A00C3F30A510290401A01904028E1
:100560006BDAC3F3130040F4801B0098924620B16D
:100570000023D2EB030A63EB0B0B01985946C0F141
:1005800040025046FFF747FF06460D465046594683
:10059000019A00F01BF910EB08006141002487EA82
:1005A000115284EAE7731A4340D0009A62B3019A69
:1005B000012A4FEA075215DC001B61EB02014FF0E4
:1005C000004202EA0752CDE90042001C41F58011C9
:1005D00032462B46FFF753FF03B0BDE8F08F40468D
:1005E0002146F9E7001B61EB0201001C41F5801375
:1005F00000185B412018A2F5001747EB030140EA01
:10060000D570B6196D4111E06D084FEA360645EA1E
:10061000C0754FEA0752001B61EB0201001C41F557
:10062000801149084FEA30000019514132462B46EB
:1006300003B0BDE8F04FFFF713BF00980122400060
:100640000023D0EB020263EBE073009821464FEAEF
:10065000E074B8EB000061EB0401E9E783F00043CC
:100660005BE781F0004158E72DE9F04D81EA030492
:1006700004F0004B21F0004514464FF0000A23F02F
:10068000004150EA050220D054EA01021DD0C5F312
:100690000A570246C5F31303C1F31300C1F30A5608
:1006A00040F4801543F48013A7EB0608101BD646D0
:1006B00008F2FD3873EB050002D308F1010801E0F0
:1006C00092185B41B8F1000F03DA00200146BDE843
:1006D000F08D00204FF48011064684460EE0171B73
:1006E00073EB050705D3121B63EB050306434CEAC6
:1006F000010C49084FEA300092185B4150EA0107AB
:10070000EDD152EA030012D082EA040083EA050127
:10071000084305D0101BAB4106D20122002306E09E
:1007200000224FF0004302E06FF0010253101AEB79
:1007300006004CEB085110EB0A0041EB0B01BDE841
:10074000F04DFFF78DBEC1F30A52C1F3130140F221
:10075000FF3341F480119A4202DA002001467047CB
:1007600040F233439A42A2F2334202DC5242FFF794
:1007700061BEFFF750BE000030B5041E71F10004E9
:1007800004DB4FF00044404264EB0101141E73F19E
:10079000000405DB1C464FF00043524263EB0403A8
:1007A000994208BF904230BD064C074D06E0E06814
:1007B00040F0010394E8070098471034AC42F6D3A8
:1007C000FFF7E6FC0851040828510408202A06DB3C
:1007D000CB17203A41FA02F043EAE07306E041FA0F
:1007E00002F3D040C2F120029140084319467047FD
:1007F00070B58C1810F8015B15F0070301D110F8E3
:10080000013B2A1106D110F8012B03E010F8016B0F
:1008100001F8016B5B1EF9D12B0705D40023521E92
:100820000DD401F8013BFAE710F8013BCB1A921CFA
:1008300003E013F8015B01F8015B521EF9D5A142F8
:10084000D8D3002070BD000010B50124E103034897
:1008500002F086F800B10024204610BD00000240DE
:1008600010B504462146024802F00EFE10BD0000FD
:100870004005002010B5044802F019FE042801D0FC
:10088000012010BD0020FCE74005002010B5002429
:1008900000F00CF8012801D0012010BD024802F040
:1008A00018FE04462046F8E74005002008B5012060
:1008B0000090FFF7C9FF08B9002000909DF80000E4
:1008C00008BD00002DE9F84304460D4616461F46B4
:1008D0004FF0000833462A4621460548009702F0AB
:1008E000D3FE08B14FF001084046BDE8F883000090
:1008F000400500202DE9F84304460D4616461F46E4
:100900004FF0000833462A4621460548009703F079
:1009100007F808B14FF001084046BDE8F883000031
:100920004005002000BFFEE77CB51248007800BB00
:100930001E2035F0FBFB054628460BF017F829462C
:100940000DA005F0EBFD00210F484088CDE9000126
:100950000D4803880A4628460AF06AFA044614B18C
:100960000AA005F0DBFD01200249087029F052FCC5
:1009700000BF7CBD00020020493AD0C2BDA8CDBC5A
:10098000C6AC3A25730A0000F8060020453AD5D5D2
:10099000C6ACB1A3B4E6CAA7B0DC0A0070B5044681
:1009A0000D46002605F08AF9204605F037F9642047
:1009B00000F05EF9E8B205F031F9642000F058F972
:1009C00005F0A0F9642000F053F905F077F944F040
:1009D000010005F023F9642000F04AF905F0F6F86B
:1009E000064605F0CBF805F08DF9304670BD2DE9CF
:1009F000F04106460C461546002705F05FF96420D5
:100A000000F036F9304605F009F900B101276420FD
:100A100000F02EF9E0B205F001F900B101276420E1
:100A200000F026F9284605F0F9F800B10127642006
:100A300000F01EF905F066F93846BDE8F08170B5A2
:100A40000546AC6BA06B406D022802D0012084F8F3
:100A50002500204600F000FA70BD70B5064600255E
:100A6000B46BA06A68B3A06B0068006800F400254E
:100A7000A06A00F0010078B975B1A06B0068C56884
:100A8000E26A082303FB02510022A06B00F0B6FBD0
:100A9000A06A401EA0622FE0A06B0068006800F40E
:100AA000002048BBA06B00680569E26A082303FBCD
:100AB00002510122A06B00F0A1FBA06A401EA062BF
:100AC0001AE0A06B0068006800F4002020B1D4E9AF
:100AD0000D010968C8600FE0A06B0068006800F4B1
:100AE000002048B9656BE06A042101FB0050A16B4E
:100AF00009680861206BA062A06A216B88420ED150
:100B00002068C06840F001002168C8602068006863
:100B100000F00200022802D1012084F8250070BDF7
:100B200010B5024801F0B6FB10BD00009004002093
:100B30000146087810381823B0FBF3F20848805CAF
:100B4000C865032A05D908686FF30900001D886588
:100B500003E008686FF309008865886D704700003E
:100B600014C40308014600208A6A8B69CBB932B1EC
:100B7000012A0DD0022A03D0032A10D10EE000BFB3
:100B8000CB6A03F08073B3F1807F00D1012007E0CE
:100B9000CB6AB3F1C07F00D1012001E000E000BFCB
:100BA00034E08B69B3F5005F1AD132B1012A07D066
:100BB000022A03D0032A11D10AE000BF01200EE06F
:100BC000CB6A03F08073B3F1807F00D1012006E08F
:100BD000CB6AB3F1C07F00D1012000E000BF15E077
:100BE00032B1012A05D0022A04D0032A0CD103E035
:100BF00000BF00BF012008E0CB6A03F08073B3F1AF
:100C0000807F00D1012000E000BF00BF704710B519
:100C1000046863608468402C04D10468A26004689E
:100C2000E16003E00468A1600468E26010BD30B5D3
:100C30000468246824F4802405682C6004686360D8
:100C40008468402C04D10468A2600468E16003E079
:100C50000468A1600468E26030BD704710B50446C6
:100C60004FF47A7104FB01F000F002F810BD0000AF
:100C700070B5034600224FF0E02675690D4E3668C8
:100C800003FB06F44FF0E026B16910E04FF0E026D8
:100C9000B06988420BD0884202D20E1A324402E078
:100CA0002E1A0E4432440146A24200D300E0EDE782
:100CB00000BF70BD1800002070B50546284623F01F
:100CC00085FF0446072C00D001D103F073FF70BDEF
:100CD00010B5082001F03CFDFFF726FE10BD72B6EE
:100CE00000BFFEE730B504460D46002229462046E7
:100CF00000F002F830BD0000F0B5034601250024E5
:100D00001148407A01281CDA00200F4E767A0E4FE7
:100D1000B8553846467A001D40F82630001F467AFE
:100D2000083082553E46707A461C7E72044604F1B5
:100D3000300008703A2048702F2088700020C8705A
:100D400000252846F0BD00008CE6002070B5044662
:100D5000B3F5804F13D1D1E9000540EA05108D6845
:100D600040EA05208D6928438D8940EA054054F802
:100D70002250064E3540284344F8220003E06FF02D
:100D8000704044F82200002070BD00000000F0CF49
:100D900070B50246086852F8200020F001000E6885
:100DA00042F826008868082801D1402300E000238B
:100DB000486818438E683043CE6830430E6930432C
:100DC0004E693043CE6930430E6A30434E6A304339
:100DD0008E6A3043CE6A30430E6B40EA060488695F
:100DE0000443C86B0443074D45F4806545F4E02592
:100DF000086852F82000A84320430E6842F82600F5
:100E0000002070BD7FFB080010B50346D1E9000447
:100E100040EA04108C6840EA04208C8940EA0444CB
:100E2000088A401E44EA0054087D801E44EA00609F
:100E30008C692043541C53F8244004F04044204360
:100E4000541C43F82400002010BD02468A4201DAF7
:100E5000012070470020FCE7704710B504460CB92C
:100E6000012010BD94F8250040B9002084F824002A
:100E7000204600F03BF8204600F038F8022084F8C5
:100E800025002068006840F6F871884321680860F2
:100E9000616960680843E168084321690843A16803
:100EA0000843A1690843216A084321680968084387
:100EB00021680860606810280BD1217F607F41EABB
:100EC0000021A07F41EA0041E07F41EA0060216803
:100ED00088612068C06840F01E002168C86000205A
:100EE000E063012084F825000020BAE710B586B041
:100EF0000446142101A8FFF7BDF95A492068884229
:100F00007ED100BF002000905748006840F00100EB
:100F1000554908600846006800F00100009000BFD5
:100F200000BF00BF00200090081F006840F01000C4
:100F3000091F08600846006800F01000009000BF1C
:100F400000BF00BF002000900846006840F001008C
:100F500008600846006800F00100009000BF00BF74
:100F600000BF002000900846006840F004000860C0
:100F70000846006800F00400009000BF00BF00BFFA
:100F8000002000900846006840F002000860084613
:100F9000006800F00200009000BF00BF73200190C5
:100FA0000220029001200390032004900D20059060
:100FB00001A92E4801F0DAFB502001900220029096
:100FC00001200390032004900D20059001A92848DA
:100FD00001F0CCFBC0200190022002900120039080
:100FE000032004900D20059001A9224801F0BEFBCA
:100FF000C02001900220029001200390032000E015
:101000002DE004900D20059001A91B4801F0AEFBD6
:101010001A481B4908604FF00070486000211848CA
:101020008160C1604FF48061016189004161890084
:1010300081618911C1614FF4403101620421416233
:10104000032181620021C162016301F043FA08B10A
:10105000FFF745FE00BF0A48A063846300BF06B0E7
:1010600010BD00000000055034380240001002405E
:1010700000000240000802400004024028640240D0
:10108000900400202DE9F84304460F4615461E46FD
:101090004FF0000800BF94F82400012802D102207C
:1010A000BDE8F883012084F8240000BF022084F802
:1010B00025002068006840F48040216808602068AE
:1010C000006820F00200216808602068006838434A
:1010D000216808602448A16BC8632448A16BC864D8
:1010E0000020A16B0865A0622063B6F5803F08D29E
:1010F000226802F1280133462A46A06B01F060FA0B
:1011000024E01948A16B48640120A062E66265638F
:1011100005E0E06A4008E062A06A4000A062E06A80
:10112000B0F5803FF5D2A06A801EA062A06A20635D
:10113000E06A042101FB0058E06A0090226802F195
:10114000280143462A46A06B00F062F82068006838
:1011500040F001002168086000BF002084F82400EE
:1011600000BF00BF9CE700005B0A00083F0A0008C0
:1011700038B50446204800680E21B0FBF1F000901D
:10118000002500BF94F82400012801D1022038BDB9
:10119000012084F8240000BF022084F82500206884
:1011A000006820F001002168086000BF0098411E1F
:1011B000009128B9E06B40F02000E063032505E0D2
:1011C0002068006800F001000028EFD100BF20680F
:1011D000006820F4804021680860A06B01F004F8EA
:1011E000E06BE063012084F8250000BF002084F854
:1011F000240000BF2846CAE714000020034612B9A5
:101200001868C16001E018680161002070470000A3
:101210002DE9F04704460E4617461D46DDF82080AE
:101220004FF00009A068802804D1400060650120CB
:10123000BDE8F087E06B18B1606C08B1E06C18B9DC
:10124000402060650120F3E700BF94F834000128D6
:1012500001D10220ECE7012084F8340000BF94F8AB
:101260003500012873D1022084F835000020606524
:101270002068006840F480202168086020680561CB
:1012800043463A4631462046FFF7C1FCFA492068FA
:1012900088425DD9F9492068884201D1202052E076
:1012A000F54948392068884201D120204BE0F349B4
:1012B00060312068884201D1202044E0EE49183195
:1012C0002068884201D120203DE0EC491831206897
:1012D000884201D1C01436E0E7493039206888429D
:1012E00001D1C0142FE0E54978312068884201D14E
:1012F000C01428E0E04930312068884201D1C01490
:1013000021E0DE4930312068884202D14FF40010DC
:1013100019E0D94918392068884202D14FF40010E9
:1013200011E0D64990312068884202D14FF4001074
:1013300009E0D14948312068884202D14FF40010B9
:1013400001E04FF00060CC494C39086020E1EFE348
:10135000CA49A831206888425CD9C84920688842B7
:1013600001D1202052E0C44948392068884201D187
:1013700020204BE0C14960312068884201D1202003
:1013800044E0BD4918312068884201D120203DE069
:10139000BA4918312068884201D1C01436E0B649F4
:1013A00030392068884201D1C0142FE0B349783128
:1013B0002068884201D1C01428E0AF49303120684C
:1013C000884201D1C01421E0AC4930312068884204
:1013D00002D14FF4001019E0A7491839206888425B
:1013E00002D14FF4001011E0A449903120688842E6
:1013F00002D14FF4001009E09F494831206888422B
:1014000002D14FF4001001E04FF000609A495039CA
:101410000860BDE099494831206888425CD9974905
:101420002068884201D1202052E093494839206841
:10143000884201D120204BE09049603120688842E9
:1014400001D1202044E08C4918312068884201D124
:1014500020203DE0894918312068884201D1C0141C
:1014600036E0854930392068884201D1C0142FE028
:10147000824978312068884201D1C01428E07E4931
:1014800030312068884201D1C01421E07B493031DD
:101490002068884202D14FF4001019E076491839CB
:1014A0002068884202D14FF4001011E07349903156
:1014B0002068884202D14FF4001009E06E4948319B
:1014C0002068884202D14FF4001001E04FF0006024
:1014D0006A491039C8605BE068492068884201D1D8
:1014E000202052E0644948392068884201D12020F8
:1014F0004BE0624960312068884201D1202044E0FD
:101500005D4918312068884201D120203DE05B49C7
:1015100018312068884201D1C01436E0564930396C
:101520002068884201D1C0142FE0544978312068E6
:10153000884201D1C01428E04F49303120688842E8
:1015400001D1C01421E04D4930312068884202D1D8
:101550004FF4001019E0484918392068884202D138
:101560004FF4001011E0454990312068884202D1C3
:101570004FF4001009E0404948312068884202D108
:101580004FF4001001E04FF000603C4910398860D2
:101590003949206888425CD938492068884201D19D
:1015A000102052E0344948392068884201D1102087
:1015B0004BE0324960312068884201D1102044E07C
:1015C0002D4918312068884201D110203DE02B4977
:1015D00018312068884201D1001536E0264930399B
:1015E0002068884201D100152FE024497831206815
:1015F000884201D1001528E01F4930312068884217
:1016000001D1001521E01D4930312068884202D106
:101610004FF4801019E0184918392068884202D127
:101620004FF4801011E0154990312068884202D1B2
:101630004FF4801009E0104948312068884202D1F7
:101640004FF4801001E04FF080600B494C39086086
:1016500020E10A49A831206888425FD907492068FB
:10166000884201D1102055E003494839206888425A
:1016700006D110204EE00000586402401060024085
:10168000F8492068884201D1102043E0F6492068DB
:10169000884201D110203DE0F24948392068884253
:1016A00001D1001536E0F04948392068884201D15F
:1016B00000152FE0EB4918312068884201D1001550
:1016C00028E0E94918312068884201D1001521E05D
:1016D000E44930392068884202D14FF4801019E083
:1016E000E14930392068884202D14FF4801011E07E
:1016F000DC4930312068884202D14FF4801009E083
:10170000D94930312068884202D14FF4801001E07D
:101710004FF08060D44968390860BBE0D14918397E
:10172000206888425BD9CF4960392068884201D15E
:10173000102050E0CC4960392068884201D1102047
:1017400049E0C8492068884201D1102043E0C649D9
:101750002068884201D110203DE0C2494839206804
:10176000884201D1001536E0BF49483920688842D7
:1017700001D100152FE0BB4918312068884201D102
:10178000001528E0B84918312068884201D10015B9
:1017900021E0B44930392068884202D14FF48010EA
:1017A00019E0B14930392068884202D14FF48010E5
:1017B00011E0AC4930312068884202D14FF48010EA
:1017C00009E0A94930312068884202D14FF48010E5
:1017D00001E04FF08060A3497039C8605AE0A14928
:1017E00060392068884201D1102050E09E4960395C
:1017F0002068884201D1102049E09A492068884237
:1018000001D1102043E098492068884201D110207E
:101810003DE0944948392068884201D1001536E0FE
:10182000914948392068884201D100152FE08D493F
:1018300018312068884201D1001528E08A49183102
:101840002068884201D1001521E08649303920689E
:10185000884202D14FF4801019E083493039206862
:10186000884202D14FF4801011E07E493031206867
:10187000884202D14FF4801009E07B493031206862
:10188000884202D14FF4801001E04FF0806075492A
:101890007039886074491839206888425BD9714969
:1018A00060392068884201D1082050E06E496039D3
:1018B0002068884201D1082049E06A4920688842AE
:1018C00001D1082043E068492068884201D10820FE
:1018D0003DE0644948392068884201D1401536E02E
:1018E000614948392068884201D140152FE05D499F
:1018F00018312068884201D1401528E05A49183132
:101900002068884201D1401521E0564930392068CD
:10191000884202D14FF4002019E053493039206841
:10192000884202D14FF4002011E04E493031206846
:10193000884202D14FF4002009E04B493031206841
:10194000884202D14FF4002001E04FF00070464978
:10195000643908601FE143494831206888425BD9F7
:10196000404960392068884201D1082050E03E4952
:1019700060392068884201D1082049E0394920684F
:10198000884201D1082043E037492068884201D1CC
:1019900008203DE0334948392068884201D140158C
:1019A00036E0314948392068884201D140152FE09E
:1019B0002C4918312068884201D1401528E02A4975
:1019C00018312068884201D1401521E0254930397D
:1019D0002068884202D14FF4002019E022493039B2
:1019E0002068884202D14FF4002011E01D493031B7
:1019F0002068884202D14FF4002009E01A493031B2
:101A00002068884202D14FF4002001E04FF00070BE
:101A1000154968390860BEE01249183920688842C3
:101A20005DD9104960392068884201D1082052E010
:101A30000D4960392068884201D108204BE00949EE
:101A40002068884201D1082045E007492068884283
:101A500001D108203FE0034948392068884205D178
:101A6000401538E07060024070640240FA49206816
:101A7000884201D140152EE0F8492068884201D102
:101A8000401528E0F44960312068884201D14015B2
:101A900021E0F24948392068884202D14FF4002001
:101AA00019E0ED4918312068884202D14FF4002036
:101AB00011E0EA4918312068884202D14FF4002031
:101AC00009E0E54978312068884202D14FF40020CE
:101AD00001E04FF00070E1498839C8605BE0DF4900
:101AE00078392068884201D1082051E0DA49183954
:101AF0002068884201D108204AE0D8491839206876
:101B0000884201D1082043E0D34948312068884207
:101B100001D108203CE0D14960392068884201D1D8
:101B2000401535E0CC492068884202D140152FE0AD
:101B30004CE3CA492068884201D1401528E0C649D3
:101B400060312068884201D1401521E0C3494839FD
:101B50002068884202D14FF4002019E0BE491831B4
:101B60002068884202D14FF4002011E0BB491831AF
:101B70002068884202D14FF4002009E0B64978314C
:101B80002068884202D14FF4002001E04FF000703D
:101B9000B24988398860B0493031206888425BD9C1
:101BA000AE4978392068884201D1042050E0AA4922
:101BB00018392068884201D1042049E0A749183922
:101BC0002068884201D1042042E0A34948312068BE
:101BD000884201D104203BE0A04960392068884256
:101BE00001D1801534E09C492068884201D18015DC
:101BF0002EE09A492068884201D1801528E0964954
:101C000060312068884201D1801521E0934948392C
:101C10002068884202D14FF4802019E08E491831A3
:101C20002068884202D14FF4802011E08B4918319E
:101C30002068884202D14FF4802009E0864978313B
:101C40002068884202D14FF4802001E04FF080707C
:101C500081491C3908601EE1804930312068884282
:101C60005BD97E4978392068884201D1042050E050
:101C7000794918392068884201D1042049E0774920
:101C800018392068884201D1042042E07249483165
:101C90002068884201D104203BE070496039206807
:101CA000884201D1801534E06B492068884201D117
:101CB00080152EE069492068884201D1801528E00E
:101CC000654960312068884201D1801521E063496F
:101CD00048392068884202D14FF4802019E05E49DB
:101CE00018312068884202D14FF4802011E05B490E
:101CF00018312068884202D14FF4802009E056490B
:101D000078312068884202D14FF4802001E04FF002
:101D10008070514920390860BDE050493039206851
:101D200088425BD94D4978392068884201D1042026
:101D300050E0494918392068884201D1042049E01F
:101D4000464918392068884201D1042042E04249BE
:101D500048312068884201D104203BE03F49603986
:101D60002068884201D1801534E03B4920688842D0
:101D700001D180152EE039492068884201D18015B3
:101D800028E0354960312068884201D1801521E082
:101D9000324948392068884202D14FF4802019E046
:101DA0002D4918312068884202D14FF4802011E07B
:101DB0002A4918312068884202D14FF4802009E076
:101DC000254978312068884202D14FF4802001E013
:101DD0004FF0807021498839C8605CE01F4978392C
:101DE0002068884201D1042052E01B49183920683C
:101DF000884201D104204BE01849183920688842F4
:101E000001D1042044E0144948312068884201D1BE
:101E100004203DE0114960392068884201D18015D5
:101E200036E00D492068884201D1801530E00B4929
:101E30002068884201D180152AE007496031206876
:101E4000884201D1801523E004494839206888423E
:101E500006D14FF480201BE02864024088600240D5
:101E6000DF492068884202D14FF4802010E0DD492C
:101E70002068884202D14FF4802009E0D8496031BF
:101E80002068884202D14FF4802001E04FF080703A
:101E9000D449A0398860D2491831206888425BD97A
:101EA000D04990392068884201D1012050E0CC49C6
:101EB00030392068884201D1012049E0C9493039D0
:101EC0002068884201D1012042E0C54930312068B4
:101ED000884201D101203BE0C2497839206888421C
:101EE00001D1402034E0BE4918392068884201D130
:101EF00040202DE0BB4918392068884201D140209C
:101F000026E0B74948312068884201D140201FE0CF
:101F1000B44960392068884202D14FF4803017E01C
:101F2000AF492068884202D14FF4803010E0AD49BB
:101F30002068884202D14FF4803009E0A84960311E
:101F40002068884202D14FF4803001E04FF48000D5
:101F5000A349343908601CE1A2491831206888423D
:101F60005BD9A04990392068884201D1012050E016
:101F70009B4930392068884201D1012049E09949C4
:101F800030392068884201D1012042E09449303143
:101F90002068884201D101203BE0924978392068CD
:101FA000884201D1402034E08D49183920688842A8
:101FB00001D140202DE08B4918392068884201D199
:101FC000402026E0864948312068884201D14020DF
:101FD0001FE0844960392068884202D14FF4803084
:101FE00017E07F492068884202D14FF4803010E02A
:101FF0007C492068884202D14FF4803009E078495A
:1020000060312068884202D14FF4803001E04FF403
:102010008000734938390860BBE07249483920684C
:1020200088425BD96F4990392068884201D10120EC
:1020300050E06B4930392068884201D1012049E0E5
:10204000684930392068884201D1012042E0644962
:1020500030312068884201D101203BE06149783964
:102060002068884201D1402034E05D491839206859
:10207000884201D140202DE05A4918392068884211
:1020800001D1402026E0564948312068884201D1DC
:1020900040201FE0534960392068884202D14FF444
:1020A000803017E04E492068884202D14FF48030DA
:1020B00010E04C492068884202D14FF4803009E09A
:1020C000474960312068884202D14FF4803001E0F6
:1020D0004FF480004349A039C8605AE04149903923
:1020E0002068884201D1012050E03D493039206804
:1020F000884201D1012049E03A49303920688842BC
:1021000001D1012042E0364930312068884201D1B6
:1021100001203BE0334978392068884201D14020D2
:1021200034E02F4918392068884201D140202DE041
:102130002C4918392068884201D1402026E02849DE
:1021400048312068884201D140201FE0254960398C
:102150002068884202D14FF4803017E0204920687F
:10216000884202D14FF4803010E01E492068884236
:1021700002D14FF4803009E019496031206888426B
:1021800002D14FF4803001E04FF480001549A039AE
:1021900088602068006840F01600216808602068A8
:1021A000406940F0800021684861206C08B9A06C4B
:1021B00028B12068006840F00800216808602068A5
:1021C000006840F001002168086006E000BF0020C0
:1021D00084F8340000BF4FF002094846FFF728B8E2
:1021E00040640240A060024070B50446A56D00F056
:1021F000C5FB064694F83500022808D080206065AB
:1022000000BF002084F8340000BF012070BD2068AA
:10221000006820F01600216808602068406920F0FE
:10222000800021684861206C08B9A06C28B1206842
:10223000006820F00800216808602068006820F02D
:1022400001002168086010E000F098FB801B052861
:102250000BD920206065032084F8350000BF0020E2
:1022600084F8340000BF0320D0E72068006800F045
:1022700001000028E8D194F85C103F208840A86055
:10228000012084F8350000BF002084F8340000BF2E
:1022900000BFBBE7F8B50446002000908C480068FA
:1022A0004FF41651B0FBF1F7A56D2E6894F85C1051
:1022B00008208840304098B12068006800F0040091
:1022C00070B12068006820F004002168086094F86C
:1022D0005C1008208840A860606D40F001006065D7
:1022E00094F85C1001208840304068B12068406953
:1022F00000F0800040B194F85C1001208840A86094
:10230000606D40F00200606594F85C100420884025
:10231000304068B12068006800F0020040B194F8D5
:102320005C1004208840A860606D40F00400606587
:1023300094F85C1010208840304078B32068006822
:1023400000F0080050B394F85C1010208840A8609A
:102350002068006800F4802080B12068006800F4E4
:10236000002028B9206CC8B12046216C884715E0B0
:10237000A06C98B12046A16C88470FE020680068E7
:1023800000F4807028B92068006820F008002168F7
:102390000860206C10B12046216C884794F85C10CE
:1023A000202088403040002865D02068006800F078
:1023B000100000285FD094F85C1020208840A860AE
:1023C00094F83500052828D12068006820F0160010
:1023D000216808602068406920F080002168486119
:1023E000206C08B9A06C28B12068006820F00800B3
:1023F0002168086094F85C103F208840A8600120A4
:1024000084F8350000BF002084F8340000BF206D40
:1024100010B12046216D8847F8BD2068006800F49F
:10242000802080B12068006800F4002028B9606C2A
:1024300010B12046616C88471DE0E06BD8B12046A2
:10244000E16B884717E02068006800F4807068B985
:102450002068006820F0100021680860012084F8DE
:10246000350000BF002084F8340000BFE06B10B1DD
:102470002046E16B8847606D38B3606D00F0010065
:10248000F0B1052084F835002068006820F00100D4
:102490002168086000BF0098401C0090B84200D935
:1024A00005E02068006800F001000028F3D100BFBB
:1024B000012084F8350000BF002084F8340000BFFC
:1024C000E06C10B12046E16C884700BFA4E7000033
:1024D000140000202DE9F0410446002500F04EFADA
:1024E000074614B90120BDE8F081606A00B100BF61
:1024F000022084F8350000BF002084F8340000BFBB
:102500002068006820F00100216808600AE000F0FF
:1025100035FAC01B052805D920206065032084F802
:102520003500E0E72068006800F001000028EED1E7
:102530002068056821480540D4E901010843E168A5
:1025400008432169084361690843A1690843E169B7
:102550000843216A08430543606A042803D1D4E98B
:102560000B0108430543206805602068456925F094
:102570000705606A0543606A04280DD1A06A054317
:10258000E06A48B12046FEF7EDFA28B140206065C8
:10259000012084F83500A6E7206845612046FEF753
:1025A000C7FA064694F85C103F208840B0600020CF
:1025B0006065012084F83500002094E73F8010F02A
:1025C0002DE9F04704460D4616461F464FF0000819
:1025D000D4F8589000BF94F83400012802D10220AA
:1025E000BDE8F087012084F8340000BF94F835007E
:1025F000012825D1022084F83500002060653B4683
:10260000324629462046FEF712FB94F85C103F2024
:102610008840C9F808002068006840F0160021686A
:102620000860206C28B12068006840F0080021682C
:1026300008602068006840F001002168086006E03A
:1026400000BF002084F8340000BF4FF0020840466D
:10265000C6E7000070B5044600F090F9064625462E
:10266000681C10B104480078054400BF00F086F9EA
:10267000801BA842FAD370BD1000002000B587B0BF
:10268000142102A8FDF7F6FD2A48006808B107B03A
:1026900000BD01202749086000BF002001902648A6
:1026A000006840F00100244908600846006800F016
:1026B0000100019000BF00BF881402900220039027
:1026C00000200490032005900C20069002A91B48CE
:1026D00000F04CF84FF6807002900220039000202A
:1026E0000490032005900C20069002A9144800F0E5
:1026F0003DF84CF2337002900220039000200490C9
:10270000032005900C20069002A90E4800F02EF838
:102710004FF4805002900220039000200490032088
:1027200005900C20069002A9074800F01FF800BF92
:10273000ADE70000000000203838024000140240DD
:1027400000100240000C02400018024070470000D8
:1027500010B5044604480068204020B102480460D7
:102760002046FFF7F3FF10BD143C0140F8B50246C8
:102770000B460025002400200021D6E0012606FAA1
:1027800001F51E6806EA0504AC4274D11E7906F014
:102790000306012E04D01E7906F00306022E13D183
:1027A00090684F000326BE40B0434F00DE68BE4035
:1027B00030439060506801268E40B0431E79C6F3C6
:1027C00000168E40304350601E7906F00306032E3B
:1027D00009D0D0684F000326BE40B0434F009E682A
:1027E000BE403043D0601E7906F00306022E13D19E
:1027F000CF0802F1200656F827004E07F70E0F26E5
:10280000BE40B0434F07FF0E1E69BE403043CF08A5
:1028100002F1200646F8270010684F000326BE404C
:10282000B0431E7906F003064F00BE4030431060EF
:102830005E6806F44036002E76D000BF0026009673
:102840003C4E366846F480463A4F3E603E46366817
:1028500006F48046009600BF00BF374E8F0856F83A
:1028600027008E07370F0F26BE40B043334EB242CB
:1028700002D1002624E057E0314EB24201D10126B8
:102880001EE0304EB24201D1022619E02E4EB24275
:1028900001D1032614E02D4EB24201D104260FE0EF
:1028A0002B4EB24201D105260AE02A4EB24201D196
:1028B000062605E0284EB24201D1072600E0082690
:1028C0008F073F0FBE4030431B4E8F0846F827004E
:1028D000224E3068A0435E6806F4801606B120439D
:1028E0001E4E3060361D3068A0435E6806F4001648
:1028F00006B12043194E361D3060184E361F306821
:10290000A0435E6806F4003606B12043134E361F1E
:102910003060361F3068A0435E6806F4803606B12A
:1029200020430E4E083E3060491C1029FFF426AFAC
:10293000F8BD000044380240083801400000024061
:102940000004024000080240000C02400010024057
:102950000014024000180240001C0240083C0140E4
:10296000024613690B400BB1012000E000207047C4
:102970000AB1816101E00B0483617047014800687E
:1029800070470000080000200348006803490978E8
:10299000084401490860704708000020100000202A
:1029A00010B50D48006840F400700B4908600846F7
:1029B000006840F4806008600846006840F4807059
:1029C0000860032000F0A2F80F2000F007F800F0E4
:1029D0002BF8002010BD0000003C024070B50446FA
:1029E0000E4800784FF47A71B1FBF0F00C49096899
:1029F000B1FBF0F5284601F07CFA08B1012070BD6A
:102A0000102C07D200222146501E00F041F8054844
:102A1000046001E00120F2E70020F0E71000002050
:102A2000140000200C00002008B500BF002000901A
:102A30000E48006840F480400C4908600846006871
:102A400000F48040009000BF00BF00BF0020009055
:102A5000081F006840F08050091F086008460068A1
:102A600000F08050009000BF00BF08BD4438024015
:102A700001460846002809DB00F01F0301229A40A6
:102A800043099B0003F1E023C3F8002100BF704716
:102A90002DE9F05F80460D461646002703F06AFDDB
:102AA000074639462A46334601F00700C0F1070AB7
:102AB000BAF1040F02D94FF0040A01E0C0F1070A8D
:102AC000D14600F1040ABAF1070F02D24FF0000A12
:102AD00001E0A0F1030AD4464FF0010A0AFA09FA0C
:102AE000AAF1010A0AEA020A0AFA0CFA4FF0010BEB
:102AF0000BFA0CFBABF1010B0BEA030B4AEA0B04DC
:102B00002146404603F03EFDBDE8F09F00BF00F0C7
:102B10000702064B19684FF6FF031940044B0B439D
:102B200043EA0221014B196000BF70470CED00E041
:102B30000000FA05024949680143014A51607047A3
:102B40000070004070B504460D460CB9012070BD00
:102B50005848006800F00700A84209D255490D7096
:102B60000846006800F00700A84201D00120EEE707
:102B7000207800F0020002281DD1207800F0040027
:102B8000042805D14C48006840F4E0504A490860E8
:102B9000207800F00800082805D14748006840F474
:102BA0006040454908604448006820F0F000A16892
:102BB000084341490860207800F00100A8B360682C
:102BC000012807D13C4808380068C0F34040B8B934
:102BD0000120BCE76068022802D06068032807D1A2
:102BE000354808380068C0F3406048B90120AEE7B6
:102BF000314808380068C0F3400008B90120A6E752
:102C00002D48006820F00300616808432A490860E5
:102C1000FFF7B4FE064609E0FFF7B0FE801B41F265
:102C20008831884202D9032091E707E022480068F2
:102C300000F00C006168B0EB810FEDD11D48006819
:102C400000F00700A84209D91A490D70084600682B
:102C500000F00700A84201D0012078E7207800F0BA
:102C60000400042807D11448006820F4E050E1680B
:102C7000084311490860207800F00800082808D1AE
:102C80000D48006820F46040216940EAC1000A490B
:102C9000086000F03FF808490968C1F30311074ACA
:102CA000515CC8400649086006480068FFF796FE78
:102CB00000204CE7003C0240083802401CC40308D6
:102CC000140000200C00002001480068704700003C
:102CD0001400002000B5FFF7F7FF04490968C1F3AD
:102CE0008221034A515CC84000BD00000838024000
:102CF0002CC4030800B5FFF7E7FF04490968C1F3D6
:102D00004231034A515CC84000BD0000083802400F
:102D10002CC403082DE9F047002400250026A14615
:102D20002548006800F00C0020B1042805D00828D0
:102D30003AD105E0DFF8849039E0DFF8849036E09E
:102D40001D48001F006800F03F041B48001F00687A
:102D500000F4800078B11A481749091F0968C1F3C7
:102D60008811A0FB01700146224600233846FDF77A
:102D700029FA05460EE011480F49091F0968C1F3F9
:102D80008811A0FB01700146224600233846FDF75A
:102D900019FA05460848001F0068C0F30140401CAE
:102DA0004600B5FBF6F902E0DFF8109000BF00BF67
:102DB0004846BDE8F0870000083802400024F400CF
:102DC00000127A00F8B504460CB90120F8BD20784D
:102DD00000F00100002874D0F948006800F00C00F1
:102DE00004280DD0F648006800F00C00082813D124
:102DF000F348001F006800F48000B0F5800F0BD18D
:102E0000EF4808380068C0F34040002859D0606897
:102E1000002856D10120D9E700BF6068B0F5803F97
:102E200008D1E7480838006840F48030E4490839A0
:102E300008601EE06068B0F5A02F0DD1E0480838AA
:102E4000006840F48020DE490839086008460068C0
:102E500040F4803008600CE0D9480838006820F45D
:102E60008030D749083908600846006820F480207F
:102E7000086000BF606890B1FFF780FD054606E07E
:102E8000FFF77CFD401B642801D903209EE7CC4856
:102E900008380068C0F340400028F1D011E0FFF787
:102EA0006DFD054606E0FFF769FD401B642801D96A
:102EB00003208BE7C24808380068C0F34040002870
:102EC000F1D1207800F0020002285FD1BC480068F0
:102ED00000F00C0058B1BA48006800F00C00082857
:102EE0001CD1B748001F006800F48000B0B9B44896
:102EF00008380068C0F3400020B1E068012801D024
:102F0000012063E7AE480838006820F0F800216926
:102F100040EAC100AA490839086037E0E06800B318
:102F20000120A8490860FFF729FD054606E0FFF7E4
:102F300025FD401B022801D9032047E7A048083897
:102F40000068C0F340000028F1D09D4808380068B0
:102F500020F0F800216940EAC10099490839086069
:102F600014E0002097490860FFF708FD054606E0D9
:102F7000FFF704FD401B022801D9032026E79048F3
:102F800008380068C0F340000028F1D1207800F034
:102F9000080008282CD16069A8B101208A4908607E
:102FA000FFF7ECFC054606E0FFF7E8FC401B0228B3
:102FB00001D903200AE782486C300068C0F3400062
:102FC0000028F1D014E000207F490860FFF7D6FC0C
:102FD000054606E0FFF7D2FC401B022801D903207A
:102FE000F4E677486C300068C0F340000028F1D167
:102FF000207800F00400042870D100277048383091
:10300000006800F0805090B900BF002000906C482C
:103010003830006840F0805069493831086008460F
:10302000006800F08050009000BF00BF0127674893
:10303000006800F48070B0B96448006840F48070A3
:1030400062490860FFF79AFC054606E0FFF796FC28
:10305000401B022801D90320B8E65C48006800F450
:1030600080700028F2D000BFA068012808D1544821
:103070006830006840F001005149683108601DE087
:10308000A06805280DD14E486830006840F0040063
:103090004B49683108600846006840F0010008604C
:1030A0000CE047486830006820F00100444968316E
:1030B00008600846006820F00400086000BFA068AF
:1030C000A8B1FFF75BFC054609E0FFF757FC401B82
:1030D00041F28831884202D9032077E626E0384859
:1030E00068300068C0F340000028EED013E0FFF71E
:1030F00045FC054608E0FFF741FC401B41F28831E2
:10310000884201D9032061E62D4868300068C0F389
:1031100040000028EFD1012F07D12948383000683E
:1031200020F0805026493831086000BFA06900288F
:1031300045D02348006800F00C0008285DD0A06945
:10314000022845D100201F490866FFF717FC0546F5
:1031500006E0FFF713FC401B022801D9032035E6E7
:10316000174808380068C0F340600028F1D1D4E95E
:1031700007010843616A40EA81110122A06AC2EB9B
:10318000500041EA00412C20005D41EA00600C49FA
:10319000091F086001200B490866FFF7EFFB054691
:1031A00006E0FFF7EBFB401B022801D903200DE6E8
:1031B000034808380068C0F340600028F1D049E0B7
:1031C0000838024000004742800E4742007000402D
:1031D000002021490866FFF7D1FB054606E0FFF70E
:1031E000CDFB401B022801D90320EFE51B480068F6
:1031F000C0F340600028F2D12CE0A069012800D182
:10320000E4E51648001D0668A069012820D006F4F0
:103210008001E06981421BD106F03F01206A8142B2
:1032200016D147F6C0703040616AB0EB811F0FD1F4
:1032300006F440310122A06AC2EB5000B1EB004F0E
:1032400006D106F070612C20005DB1EB006F01D05B
:103250000120BBE50020B9E50000474200380240EC
:103260000246506F000E0870506FC0F30F20488068
:1032700092F874000306906F43EA102048607820AB
:10328000805C0872D06F000E4872D06F03028020FD
:10329000805843EA1060C86080208058C0F3035013
:1032A000087480208058C0F30B2048828020805C06
:1032B000C0F34600087501204875002070470000E3
:1032C00010B50246506E800F0870506EC0F38360D8
:1032D0004870506EC0F301608870506E000CC8706A
:1032E000B2F86400000A087192F864004871906EA8
:1032F000000DC880906EC0F3034008726820805AA9
:10330000C0F3C03048726820805AC0F380308872A1
:103310006820805AC0F34030C8726820805AC0F3D9
:103320000030087300204873506C002836D16820A4
:10333000805A8005030DD06E43EA90700861D06E0C
:10334000C0F3C2600875D06EC0F302604875D06EDD
:10335000C0F342508875D06EC0F38240C875D06EFD
:10336000C0F3C23008760869401C50650B7E506D72
:1033700003F007039B1C01249C4060435065087ABE
:1033800000F00F03012098409065D2E915035B0A15
:103390005843D0654FF40073136621E0506C012848
:1033A00013D16820805C8006830AD06E43EA104007
:1033B00008610869401C83025365536DD3654FF45F
:1033C00000739365936D13660AE02E481368986343
:1033D000906B40F080509063012082F8340010BD63
:1033E0006C20805AC0F3803001F8190F6C20805A8D
:1033F000C0F3C61048706C20805C00F07F008870BD
:10340000106FC00FC870106FC0F341700871106F5B
:10341000C0F382604871106FC0F383508871106FE1
:10342000C0F34050C87100200872106FC0F3004014
:1034300048727020805AC0F3C03088727020805A61
:10344000C0F38030C8727020805AC0F340300873D7
:103450007020805AC0F3003048737020805AC0F347
:10346000812088737020805AC0F30120C8737020B7
:10347000805CC0F3460008740120487419390020AC
:10348000ADE70000FF0540000246506C0860906CFC
:103490004860D06C8860106DC860506D0861906D98
:1034A0004861D06D8861106EC86100207047F8B522
:1034B0000446002000906946204602F01FFA0546A7
:1034C00015B1A06B2843A0630098C0F34326304693
:1034D000F8BD10B504460CB9012010BD94F83400B5
:1034E00020B900202077204600F06AF8032084F8F5
:1034F0003400204600F00CF808B10120EDE7002070
:10350000A0632063012084F834000020E5E7000078
:1035100070B58AB00446002004900590069007908C
:1035200008907620099007A807C88DE80700206852
:1035300004A90EC901F027FD064616B101200AB004
:1035400070BD00201C490860206801F036FD012094
:103550001949A039C1F8A0000220FFF77BF82046E6
:1035600002F066F905463DB1012084F83400A06BF5
:103570002843A0630120E2E7204602F0D7F8054681
:103580003DB1012084F83400A06B2843A0630120E2
:10359000D5E74FF40071206801F06CFD05464DB190
:1035A000064821688863A06B2843A063012084F843
:1035B0003400C4E70020C2E7A0802542FF05400098
:1035C00010B586B00446142101A8FCF753FE2A4921
:1035D000206888424DD100BF002000902748006835
:1035E00040F40060254908600846006800F4006067
:1035F000009000BF00BF00BF002000901F4814389B
:10360000006840F004001D4914390860084600684D
:1036100000F00400009000BF00BF00BF0020009039
:103620000846006840F0080008600846006800F09E
:103630000800009000BF00BF4FF4885001900220A6
:10364000029000200390032004900C20059001A913
:103650000B48FFF78BF80420019002200290002015
:103660000390032004900C20059001A90548FFF762
:103670007DF806B010BD0000002C01404438024027
:1036800000080240000C02402DE9FF4F89B00446BB
:103690008B469946DDF858A0FFF770F902900B9819
:1036A00000905D46BBF1000F07D1A06B40F00060B9
:1036B000A06301200DB0BDE8F08F94F8340001281C
:1036C0007ED10020A063009800EB0901E06D8142EB
:1036D00005D9A06B40F00070A0630120EAE7032049
:1036E00084F8340000202168C862606C012802D090
:1036F0000098400200904FF0FF3003904FEA4920BD
:103700000490902005900220069000200790012050
:10371000089003A9206801F011FCB9F1010F07D945
:10372000022020632068009901F0F0FC804606E04A
:10373000012020632068009901F004FD8046B8F163
:10374000000F0DD0754821688863A06B40EA08001F
:10375000A063012084F83400002020630120A9E741
:10376000049E3AE02068406B00F40040E0B1DEB116
:103770000020019015E0206801F024FC07462F701E
:103780006D1C761E380A28706D1C761E380C287049
:103790006D1C761E380E28706D1C761E0198401C1C
:1037A000019001980828E6D3FFF7E8F80299401A3B
:1037B000504502D2BAF1000F0FD15848216800E0FD
:1037C000A6E08863A06B40F00040A063012084F86D
:1037D00034000020206303206CE72068406B40F237
:1037E0002A3108400028BDD02068406B00F480706A
:1037F000D0B1B9F1010F17D9606C032814D020683B
:1038000001F044FD8046B8F1000F0DD04348216817
:103810008863A06B40EA0800A063012084F83400AC
:1038200000202063012045E72068406B00F008007D
:1038300068B13A4821688863A06B40F00800A06333
:10384000012084F8340000202063012032E7206842
:10385000406B00F0020068B1304821688863A06BBB
:1038600040F00200A063012084F8340000202063AF
:1038700001201FE72068406B00F0200068B1274856
:1038800021688863A06B40F02000A063012084F8C9
:1038900034000020206301200CE729E0206801F0BB
:1038A00091FB07462F706D1C761E380A28706D1C20
:1038B000761E380C28706D1C761E380E28706D1C14
:1038C000761EFFF75BF80299401A504502D2BAF112
:1038D000000F0DD1114821688863A06B40F00040B3
:1038E000A063012084F83400002020630120E1E679
:1038F0002068406B00F4001008B1002ECED140F2D9
:103900003A5021688863012084F834000020D1E611
:10391000A06B40F00050A0630120CBE6FF05400003
:103920002DE9F04F89B00446894693469846FFF743
:1039300025F80290DA464D46B9F1000F07D1A06B89
:1039400040F00060A063012009B0BDE8F08F94F85A
:10395000340001287ED10020A0630AEB0801E06D4D
:10396000814205D9A06B40F00070A0630120EBE715
:10397000032084F8340000202168C862606C0128AC
:1039800001D04FEA4A2A4FF0FF3003904FEA482017
:103990000490902005900020069007900120089048
:1039A00003A9206801F0CAFAB8F1010F07D9202055
:1039B00020635146206801F087FC064606E010208F
:1039C00020635146206801F09BFC064666B15F48C3
:1039D00021688863A06B3043A063012084F8340021
:1039E000002020630120AFE7049F43E02068406B84
:1039F00000F4804030B32FB3002001901FE02878FE
:103A000000906D1C7F1E2878009941EA00200090EC
:103A10006D1C7F1E2878009941EA004000906D1CC3
:103A20007F1E2878009941EA006000906D1C7F1E7F
:103A30006946206801F0DEFA0198401C0190019867
:103A40000828DCD3FEF79AFF0299411A12988142A6
:103A500003D200E074E0129860B93C4821688863A2
:103A6000A06B3043A063012084F834000020206361
:103A7000032069E72068406B40F21A3108400028B3
:103A8000B4D02068406B00F48070B8B1B8F1010F79
:103A900014D9606C032811D0206801F0F7FB0646AA
:103AA00066B12A4821688863A06B3043A063012077
:103AB00084F8340000202063012045E72068406B33
:103AC00000F0080068B1214821688863A06B40F0CD
:103AD0000800A063012084F8340000202063012046
:103AE00032E72068406B00F0020068B11748216897
:103AF0008863A06B40F00200A063012084F83400CA
:103B00000020206301201FE72068406B00F01000B8
:103B100068B10E4821688863A06B40F01000A06374
:103B2000012084F834000020206301200CE740F2DB
:103B30003A5021688863012084F83400002003E7AC
:103B4000A06B40F00050A0630120FDE6FF0540009F
:103B500010B504460CB9012010BD606A38B9606820
:103B6000B0F5827F00D105E00021E16102E0002193
:103B7000216161610021A16294F8510028B90020FF
:103B800084F85000204600F047F8022084F85100E5
:103B90002068006820F0400021680860A08800F4D8
:103BA0008270218901F404410843A18901F4006174
:103BB0000843217C01F002010843217D01F001014D
:103BC0000843218B01F400710843217F01F0380183
:103BD00008432021095D01F080010843218D01F493
:103BE00000510843216808600421A06901EA1040DF
:103BF00094F8241001F010010843216848602068FF
:103C0000C06920F400602168C8610020606501205F
:103C100084F8510000209FE710B586B004461421B7
:103C200001A8FCF727FB2949206888424CD100BF36
:103C3000002000902648006840F480502449086025
:103C40000846006800F48050009000BF00BF00BF2D
:103C5000002000901E481438006840F001001C4904
:103C6000143908600846006800F00100009000BFA9
:103C700000BF00BF002000900846006840F002002E
:103C800008600846006800F00200009000BF00BF16
:103C9000A0200190022002900020039003200490B5
:103CA0000520059001A90B48FEF760FD102001904A
:103CB000022002900020039003200490052005902C
:103CC00001A90548FEF752FD06B010BD00300140C5
:103CD0004438024000000240000402402DE9F84F41
:103CE0000446884616461D464FF0000A00BF94F869
:103CF0005000012802D10220BDE8F88F012084F88D
:103D0000500000BFFEF73AFE0746B14694F8510056
:103D1000012802D04FF0020AADE0B8F1000F00D048
:103D200016B94FF0010AA6E0032084F851000020E4
:103D30006065C4F83080A686E686A063A087E08729
:103D400060642064A068B0F5004F0BD12068006863
:103D500020F04000216808602068006840F480403E
:103D6000216808602068006800F04000402805D005
:103D70002068006840F0400021680860E068B0F505
:103D8000006F2FD1606810B1B9F1010F09D1206B1C
:103D900000882168C860206B801C2063E08E401E74
:103DA000E0861BE02068806800F0020002280AD14B
:103DB000206B00882168C860206B801C2063E08E27
:103DC000401EE0860AE0FEF7D9FDC01BA84201D3E1
:103DD000681C00B915B94FF0030A4CE0E08E0028CA
:103DE000E0D12EE0606810B1B9F1010F09D1206B6C
:103DF000007821680873206B401C2063E08E401E11
:103E0000E0861BE02068806800F0020002280AD1EA
:103E1000206B007821680873206B401C2063E08EC3
:103E2000401EE0860AE0FEF7A9FDC01BA84201D3B0
:103E3000681C00B915B94FF0030A1CE0E08E002899
:103E4000E0D13A462946204601F0ECFD08B1202099
:103E50006065A06850B900BF002000902068C0686D
:103E6000009020688068009000BF00BF606D08B1BE
:103E70004FF0010A00BF012084F8510000BF00206C
:103E800084F8500000BF504636E770B504460E4631
:103E900015460CB9012070BD94F8490028B90020DE
:103EA00084F84800204600F01FF804F1080120685B
:103EB000FCF76EFF3146A2682068FCF7A5FF294693
:103EC000236BD4E90102FCF741FFA168206850F898
:103ED000210040F00100A268216841F82200012081
:103EE00084F849000020D6E710B50446FEF7C6FB6B
:103EF00010BD70B504462546681EB0F1807F01D321
:103F000001200FE0681E4FF0E02148610F214FF0C3
:103F1000FF3002F037FB00204FF0E02188610720DE
:103F20000861002070BD70477047000030B5024640
:103F30000B4600BF92F83C00012801D1022030BDA1
:103F4000012082F83C0000BF022082F83D0010688A
:103F500044681068816824F070041868044310688D
:103F60004460184D1068A8421BD01068B0F1804F13
:103F700017D0154D1068A84213D0144D1068A842F0
:103F80000FD0134D1068A8420BD0124D1068A842F4
:103F900007D0114D1068A84203D0104D1068A842F8
:103FA00005D121F08001586801431068816001202B
:103FB00082F83D0000BF002082F83C0000BF00BF37
:103FC000BDE7000000000140000400400008004080
:103FD000000C004000040140004001400018004077
:103FE00010B504460CB9012010BD94F83D0028B965
:103FF000002084F83C00204600F026F8022084F8D7
:104000003D00211D206802F0A9F8012084F8460037
:1040100000BF84F83E0001213F200155402001559A
:104020004120015500BF00BF012084F84200432019
:104030000155442001554520015500BF012084F859
:104040003D000020D0E7000038B504460E49206846
:10405000884217D100BF002000900C48006840F053
:1040600020000A4908600846006800F0200000901F
:1040700000BF00BF002211463720FEF709FD3720A0
:10408000FEF7F6FC38BD0000001400404038024046
:10409000014691F83D00012801D00120704702201F
:1040A00081F83D000868C06840F001000B68D860E6
:1040B0001A4B086898421BD00868B0F1804F17D09F
:1040C000174B0868984213D0164B086898420FD0D7
:1040D000154B086898420BD0144B0868984207D0DB
:1040E000134B0868984203D0124B086898420CD1D1
:1040F0000868806800F00702062A0CD0086800688B
:1041000040F001000B68186005E00868006840F0A6
:1041100001000B6818600020C0E7000000000140AB
:104120000004004000080040000C00400004014072
:104130000040014000180040704710B50446206858
:104140000069C0F34000D8B12068C068C0F34000E7
:10415000B0B16FF00200216808610120207720686B
:10416000806900F0030018B12046FFF7E5FF05E085
:10417000204600F0ADF8204600F0ABF80020207794
:1041800020680069C0F38000D8B12068C068C0F31F
:104190008000B0B16FF00400216808610220207730
:1041A0002068806900F4407018B12046FFF7C4FF12
:1041B00005E0204600F08CF8204600F08AF8002048
:1041C000207720680069C0F3C000D8B12068C068BB
:1041D000C0F3C000B0B16FF008002168086104208E
:1041E00020772068C06900F0030018B12046FFF76F
:1041F000A3FF05E0204600F06BF8204600F069F8C8
:104200000020207720680069C0F30010D8B1206832
:10421000C068C0F30010B0B16FF0100021680861F1
:10422000082020772068C06900F4407018B120464B
:10423000FFF782FF05E0204600F04AF8204600F034
:1042400048F8002020772068006900F0010058B18C
:104250002068C06800F0010030B16FF001002168F3
:104260000861204600F036F820680069C0F3C010ED
:1042700058B12068C068C0F3C01030B16FF0800042
:10428000216808612046FFF74EFE20680069C0F3F0
:10429000801058B12068C068C0F3801030B16FF052
:1042A000400021680861204600F015F82068006988
:1042B000C0F3401058B12068C068C0F3401030B15E
:1042C0006FF02000216808612046FFF72DFE10BD29
:1042D000704770477047704710B504460CB901200D
:1042E00010BDA06900B100E000BF94F83D0028B9FE
:1042F000002084F83C00204600F028F8242084F8B0
:104300003D002068C06820F400502168C860204645
:1043100001F0A2FF2068006920F490402168086144
:104320002068406920F02A00216848612068C06840
:1043300040F400502168C86000202064202084F8E8
:104340003D0084F83E000020CAE7000010B586B0AA
:104350000446142101A8FBF78DFF1B492068884201
:1043600030D100BF002000901848006840F01000D5
:10437000164908600846006800F01000009000BF71
:1043800000BF00BF0020009010481438006840F0C3
:1043900001000E49143908600846006800F0010069
:1043A000009000BF00BF4FF4C06001900220029057
:1043B00000200390032004900720059001A90448E1
:1043C000FEF7D4F906B010BD001001404438024099
:1043D000000002402DE9F84F04460E461746994664
:1043E0004FF0000A94F83D0020285AD106B117B9C1
:1043F0000120BDE8F88F00BF94F83C00012801D1EE
:104400000220F6E7012084F83C0000BF0020206471
:10441000212084F83D00FEF7B1FA8246A784E784A4
:10442000A068B0F5805F04D1206910B90025B046BE
:1044300002E035464FF0000800BF002084F83C0041
:1044400000BF1BE05346002280212046CDF800909B
:1044500002F018F808B10320CBE745B9B8F800001E
:10446000C0F308002168486008F1020803E02878DA
:10447000216848606D1CE08C401EE084E08C0028C0
:10448000E0D15346002240212046CDF8009001F0B3
:10449000F9FF08B10320ACE7202084F83D0000209C
:1044A000A7E70220A5E700BFFEE70000FEB505462E
:1044B0000026012001F0BEFE284601F043FC002347
:1044C00022E000202DF8130000270CE0A85D08F082
:1044D000E9F93DF81310084480B22DF81300701C60
:1044E000C6B2781C47B2082FF0DB3DF8131042F239
:1044F000283201FB02F0C11700EB9161C1F38F116B
:104500002DF81310581C43B2062BDADB00240122CD
:10451000D1023D48FEF72CFABDF80000FCF7A8FBDD
:1045200000224FF400613848FEF722FA01220421EC
:104530003648FEF71DFABDF80200FCF799FB002291
:1045400004213248FEF714FA012202212F48FEF717
:104550000FFABDF80400FCF78BFB002202212B4868
:10456000FEF706FABDF8000040F23E31081ABDF829
:104570000210401ABDF80410401A04B2002C00DAF0
:104580000224A1B2012000F079FC012211461F484B
:10459000FEF7EEF9BDF80600FCF76AFB00220121E8
:1045A0001A48FEF7E5F9012220211948FEF7E0F943
:1045B000BDF80800FCF75CFB002220211448FEF740
:1045C000D7F9012210211248FEF7D2F9BDF80A00EE
:1045D000FCF74EFB002210210D48FEF7C9F900241C
:1045E000BDF8060040F23E31081ABDF80810401A26
:1045F000BDF80A10401A04B2002C00DA0224A1B25D
:10460000012000F03BFCFEBD00140240000402400B
:104610000008024010B50A480A49086000204860B6
:104620002021084881600021C160016141618161F0
:104630000162FCF712FC08B1FCF751FB10BD000051
:10464000000005505004002008B500BF0020009075
:104650000A48006840F4800008490860084600687D
:1046600000F48000009000BF00BF002211463920F6
:10467000FEF70EFA3920FEF7FBF908BD303802408C
:1046800010B503490348FCF72DFB0349087010BD22
:1046900037040020704704083604002000B587B0B6
:1046A0001C216846FBF7E6FD4FF0204018490860E2
:1046B000184848600620886000211548C1600161E3
:1046C0001021416100218161C161016241624FF4A9
:1046D000805181620021C162016341638163416451
:1046E0000F2000900190FF2002900F2003901020D7
:1046F000049011200590002006900022694604488D
:10470000FFF7C3FB08B1FCF7EAFA07B000BD0000F1
:10471000F0040020040100A000B587B0142102A815
:10472000FBF7A8FD00BF002001909948006840F009
:104730001000974908600846006800F010000190DA
:1047400000BF00BF00BF002001900846006840F095
:10475000200008600846006800F02000019000BFBB
:1047600000BF00BF002001900846006840F08000B4
:1047700008600846006800F08000019000BF00BF9C
:1047800000BF002001900846006840F00400086067
:104790000846006800F00400019000BF00BF00BFA1
:1047A000002001900846006840F0010008600846BB
:1047B000006800F00100019000BF00BF00BF0020B2
:1047C00001900846006840F0020008600846006852
:1047D00000F00200019000BF00BF00BF0020019068
:1047E0000846006840F0080008600846006800F0CD
:1047F0000800019000BF00BF00BF002001900846E4
:10480000006840F0400008600846006800F0400082
:10481000019000BF00BF002248F601015D48FEF78D
:10482000A7F8002241F204115B48FEF7A1F800222C
:1048300030215A48FEF79CF8002247F607415848B5
:10484000FEF796F80122D1035548FEF791F80022B1
:104850004FF40C615348FEF78BF8002248F2F02128
:104860005148FEF785F848F60100029001200390B8
:1048700000200490059002A94648FDF777FF0F201D
:1048800002904FF4041003900120049002A94348C1
:10489000FDF76CFF48F202000290002003900490A4
:1048A00002A93D48FDF762FF41F204100290012089
:1048B000039000200490059002A93748FDF756FFA9
:1048C000302002900120039000200490059002A95E
:1048D0003248FDF74BFF47F6074002900120039056
:1048E00000200490059002A92D48FDF73FFF4FF4EA
:1048F000004002900120039004900220059002A93C
:104900002748FDF733FF4FF4006002900120039029
:1049100000200490059002A92248FDF727FFF0200F
:1049200002900120039000200490059002A91E48E7
:10493000FDF71CFF4020029001200390049003200B
:10494000059002A91748FDF711FF80200290112061
:104950000390012004900320059002A91148FDF75F
:1049600005FF4FF4024002900120039004900320C1
:10497000059002A90C48FDF7F9FE00221146092016
:10498000FEF786F80920FEF773F807B000BD0000B7
:10499000303802400014024000000240000802408B
:1049A00000040240000C024000180240064807497B
:1049B000086000204860002104488160C1600161F6
:1049C0004161082181617047002C014040050020B1
:1049D00010B50E480E4908604FF4827048600021FF
:1049E0000B488160C160016141614FF400718161D8
:1049F0002021C16100210162416281620A21C162FC
:104A0000FFF7A6F808B1FCF76AF910BD00300140C5
:104A1000C40500201CB50020009001900E480F49ED
:104A2000086042F2CF00486000210C48816042F2E9
:104A30000F71C16000218161FFF7D2FA08B1FCF764
:104A40004EF900200090019069460448FFF76EFA85
:104A500008B1FCF744F91CBD001400401C060020FE
:104A600010B50B480B4908604FF4E1304860002155
:104A700008488160C16001610C21416100218161B0
:104A8000C161FFF729FC08B1FCF729F910BD00004E
:104A9000001001406406002000BFFEE700BFFEE7F3
:104AA00070B5002500BF00224FF400713948FDF7B2
:104AB0005FFF00BF0A20FCF7D1F800BF00224FF4CF
:104AC00000413448FDF754FF00BF1420FCF7C6F83E
:104AD00000BF0122D1032F48FDF74AFF00BF142079
:104AE000FCF7BCF801F046F80520FCF7B7F8012206
:104AF000FF216020FBF77BFF802212216020FBF763
:104B000076FF3220FCF7AAF81C216020FBF746FF55
:104B100004464FF6FF7000EA04241D216020FBF7D5
:104B20003DFF044347F6A270844205D021461AA0F7
:104B300001F0F4FC012070BD0520FDF78BFD0A217A
:104B40006020FBF72BFF04464FF6FF7000EA0424B9
:104B50000B216020FBF722FF044342F242608442B3
:104B600005D021460FA001F0D9FC0120E3E7002584
:104B70000BE00F4800EB450042780D4810F8151087
:104B80006020FBF734FF681C85B2B12DF1D3002003
:104B9000D1E70000001802404D49443A25640D0A4F
:104BA000000000004849443A25640D0A0000000056
:104BB00098C503082DE9F0472DF0C4F8814627F089
:104BC00051FB2DF0BFF8814627F040FC0646F0224D
:104BD0004FF4A07130462BF053FE00231A460921F2
:104BE000304626F03BFE304627F034FA2DF0AAF886
:104BF000814619F025FB0446002307222949204657
:104C000026F0EAFC4FF44061204626F079FD6FF073
:104C1000270300220921204626F020FE204623F00B
:104C200003FD804620A1404624F060FE404627F068
:104C300011FA2DF087F8814619F002FB0546002392
:104C400007221B49284626F0C7FC282300220921F9
:104C5000284626F003FE4FF40061284626F050FD5A
:104C600042F2D17128462BF0B2FC284623F0DCFC3E
:104C7000804610A1404624F039FE404627F0EAF96C
:104C800021F03CF907462146384621F0A3F8294691
:104C9000384621F09FF839460848006823F00CFA9E
:104CA000BDE8F0871DB0000843616D6572610000CA
:104CB00039B0000850686F746F730000180400204A
:104CC000704700002DE9F04FADF2B45D8046002042
:104CD000DF9001224146E1A811F008FA074617B11A
:104CE0004BA001F01BFCE0AB42220EA9E1A811F0A1
:104CF0005CFB074617B14AA001F010FCDDF842B09A
:104D0000BDF84A0084B2BDF84E001FFA80F94B4648
:104D10002246594646A001F001FC5946E1A811F08F
:104D20005CF8FF224FF440711FA8FBF79CFA00BF0C
:104D30006200E0AB1FA9E1A811F037FB0746B4F50C
:104D4000C07F14DAC4F5C07505EBD57149101FABEF
:104D500003EB410062001FA9FBF765FAC4F5C075BB
:104D600005EBD5704110FF221FA8FBF77CFA1FB19D
:104D70003AA001F0D3FB3BE0002528E04FF0000A09
:104D800000261FE0C5F5C071891B1FAA32F811006B
:104D900000F0B8F8019080210198FCF756F8C6F1B0
:104DA0000701884040EA0A0000F0FF0A072E07D1F9
:104DB0002846E91705EB5171C91002AA02F801A0B3
:104DC000701CC6B2082EDDDB05F1080085B2B5F512
:104DD000C07FD3DB02A8FFF769FB17B123A001F066
:104DE0009DFBDF98401C80B2DF90E09800289FD1A7
:104DF00000BF40F23E314FF4967000F03FF801F0F2
:104E0000F5F8E1A810F0C0FF0DF2B45DBDE8F08F39
:104E1000453ACEC4BCFEB4F2BFAACAA7B0DC0A00B1
:104E2000453ACEC4BCFEB6C1C8A1CAA7B0DC0A00D0
:104E3000493ACEBBCDBCCAFDBEDDC6ABD2C6C1BFF2
:104E4000A3BA2564A3ACBFEDB6C8A3BA2564A3ACCE
:104E5000B8DFB6C8A3BA2564A1A30A00493ACEC4F4
:104E6000BCFEB6C1C8A1CAA7B0DC0A00493A665F59
:104E70006C7365656B206572720A000070B504463C
:104E80000D4600BF1C481D49097810F821208021DB
:104E90001B48FDF76DFD18481849097800EB8100A3
:104EA000427820211648FDF763FD1348134909781D
:104EB00000EB8100827840211148FDF759FD0E4832
:104EC0000E49097800EB8100C27810210C48FDF7EB
:104ED0004FFD0A480078401C0849087008460078D1
:104EE000082801D1002008702846FBF7C1FE201ECB
:104EF000A4F10104C6D170BDD5010020D401002069
:104F00000018024070B50146CB0AC1F3451401F008
:104F10001F05C3EB0310060104EB8400C0EB8410F3
:104F200006EB800605EB450000EBC50006EBC00074
:104F30003230642690FBF6F2D0B270BD10B5024656
:104F400000230868506248689062D1E90204204357
:104F50000C6920434C6920430343D06A20F0F700DA
:104F60001843D062002010BD01460869C0B27047E6
:104F70000146086800F003007047024602F1140081
:104F80004318186870470FB410B504460021DDE9D6
:104F900003021043059A1043069A1043079A1043E0
:104FA000089A10430143606847F6FF629043084344
:104FB0006060002010BC5DF814FB0146032008600F
:104FC000002070470146D1F88000704710B50246B6
:104FD000002308689060D1E901042043CC68204395
:104FE0000C6920430343D0686FF30B001843D06073
:104FF000002010BD02460868C2F8800000207047FB
:1050000070B585B005460C460094372001904020CD
:105010000290002003904FF4806004906946284677
:10502000FFF7D4FF41F288323721284600F0A4F977
:105030000646304605B070BD70B585B005460C46D5
:105040000B4820430090292001904020029000202E
:1050500003904FF48060049069462846FFF7B6FF3E
:10506000284600F091FA0646304605B070BD0000B3
:105070000000108070B585B005460C4600941020E5
:10508000019040200290002003904FF48060049033
:1050900069462846FFF79AFF41F2883210212846D8
:1050A00000F06AF90646304605B070BD30B585B0EF
:1050B0000446002000900190029003904FF480601D
:1050C000049069462046FFF781FF204600F034F93E
:1050D0000546284605B030BD30B585B004464FF4CE
:1050E000D57000900820019040200290002003908D
:1050F0004FF48060049069462046FFF767FF204622
:1051000000F0CAFA0546284605B030BD70B585B036
:1051100005460C4600941220019040200290002089
:1051200003904FF48060049069462846FFF74EFFD5
:1051300041F288321221284600F01EF90646304618
:1051400005B070BD70B585B005460C4600941120C1
:10515000019040200290002003904FF48060049062
:1051600069462846FFF732FF41F28832112128466E
:1051700000F002F90646304605B070BDF0B585B0C6
:10518000064614461D4600940720019040200290D8
:10519000002003904FF48060049069463046FFF78A
:1051A00015FF41F288320721304600F0E5F8074646
:1051B000384605B0F0BD30B585B0044600200090FB
:1051C00002200190C0200290002003904FF48060E4
:1051D000049069462046FFF7F9FE204600F0A2F948
:1051E0000546284605B030BD70B585B005460C466D
:1051F000009409200190C0200290002003904FF4F9
:105200008060049069462846FFF7E0FE284600F0DB
:1052100089F90646304605B070BD70B585B00546C3
:105220000C4600940D200190402002900020039035
:105230004FF48060049069462846FFF7C7FE41F2AC
:1052400088320D21284600F097F80646304605B012
:1052500070BD70B585B005460C4600200090032057
:10526000019040200290002003904FF48060049051
:1052700069462846FFF7AAFE22460321284600F089
:10528000AFF90646304605B070BD000030B585B0B8
:105290000446002000900C20019040200290002045
:1052A00003904FF48060049069462046FFF78EFE1D
:1052B000044A0C21204600F05FF80546284605B058
:1052C00030BD000000E1F50570B585B005460C461F
:1052D00000941920019040200290002003904FF488
:1052E0008060049069462846FFF770FE41F28832DC
:1052F0001921284600F040F80646304605B070BD3A
:1053000070B585B005460C460094182001904020E9
:105310000290002003904FF4806004906946284674
:10532000FFF754FE41F288321821284600F024F895
:105330000646304605B070BD01460E480068C008FC
:105340004FF47A73B0FBF3F041F2883300FB03F2C1
:1053500000BF101EA2F1010202D14FF000407047C1
:10536000486B00F080000028F3D0C520886300203F
:10537000F5E70000140000202DE9F04305460F4634
:10538000904666480068C0084FF47A71B0FBF1F0AF
:1053900000FB08F900BFB9F10000A9F1010903D130
:1053A0004FF00040BDE8F0836E6B06F0450000282A
:1053B000F1D006F400600028EDD1686B00F0040025
:1053C00010B10420A863EDE7686B00F0010010B194
:1053D0000120A863E6E7C520A8632846FFF7C4FDBF
:1053E000B84201D00120DDE700212846FFF7C5FDC6
:1053F00004464B48204008B90020D3E704F00040A1
:10540000B0F1004F02D14FF00070CBE704F08040C4
:10541000B0F1804F01D14020C4E704F00050B0F15A
:10542000005F01D18020BDE704F08050B0F1805FC3
:1054300002D14FF48070B5E704F00060B0F1006F66
:1054400002D14FF40070ADE704F08060B0F1806FDE
:1054500002D14FF48060A5E704F08070B0F1807F46
:1054600002D14FF400609DE704F40000B0F5000F96
:1054700002D14FF4805095E704F48000B0F5800F1E
:1054800002D14FF400508DE704F40010B0F5001F76
:1054900002D14FF4804085E704F48010B0F5801FFE
:1054A00002D14FF400407DE704F48020B0F5802F56
:1054B00002D14FF4003075E704F40030B0F5003F3E
:1054C00002D14FF480206DE704F48030B0F5803FC6
:1054D00002D14FF4002065E704F40040B0F5004F1E
:1054E00002D14FF480105DE704F48040B0F5804FA6
:1054F00002D14FF4001055E704F40050B0F5005FFE
:1055000002D14FF480004DE704F00800082801D1D3
:10551000000547E74FF4803044E700001400002006
:1055200008E0FFFD10B5014616480068C0084FF4BA
:105530007A74B0FBF4F041F2883400FB04F300BF4E
:10554000181EA3F1010302D14FF0004010BD4A6BB9
:1055500002F045000028F3D002F400600028EFD1EB
:10556000486B00F0040010B104208863EEE7486B3C
:1055700000F0010010B101208863E7E7C5208863CF
:105580000020E3E71400002010B50146134800682E
:10559000C0084FF47A74B0FBF4F041F2883400FB99
:1055A00004F300BF181EA3F1010302D14FF0004025
:1055B00010BD4A6B02F045000028F3D002F40060F1
:1055C0000028EFD1486B00F0040010B1042088637C
:1055D000EEE7C52088630020EAE700001400002001
:1055E0002DE9F04304460F4690462A480068C0085B
:1055F0004FF47A71B0FBF1F041F2883100FB01F910
:1056000000BFB9F10000A9F1010903D14FF000403A
:10561000BDE8F083666B06F045000028F1D006F483
:1056200000600028EDD1606B00F0040010B1042090
:10563000A063EDE7606B00F0010010B10120A063F2
:10564000E6E72046FFF790FCB84201D00120DFE7F3
:10565000C520A06300212046FFF78FFC054605F416
:10566000604020B9280CA8F800000020D0E705F41D
:105670008040B0F5804F02D14FF40050C8E705F4E8
:105680000040B0F5004F02D14FF48050C0E74FF416
:105690008030BDE71400002010B5014618480068AE
:1056A000C0084FF47A74B0FBF4F041F2883400FB88
:1056B00004F300BF181EA3F1010302D14FF0004014
:1056C00010BD4A6B02F045000028F3D002F40060E0
:1056D0000028EFD1486B00F0040010B1042088636B
:1056E000EEE7486B00F0010010B101208863E7E7A6
:1056F000486B00F0400008B1402088630020DFE7DD
:105700001400002010B50446012007490870FBF77B
:10571000B1F828B90448007820F001000249087067
:105720000148007810BD00003504002030B58FB06E
:105730000446012003902068FFF71AFC18B94FF0C7
:1057400080600FB030BD606C03281BD02068FFF76D
:1057500032FD05460DB12846F3E700212068FFF72A
:105760000CFC606704212068FFF707FCA067082194
:105770002068FFF702FCE0670C212068FFF7FDFBC3
:1057800080210851606C032807D003A92068FFF727
:1057900060FD05460DB12846D3E7606C032820D094
:1057A000BDF80C1021655022125B11042068FFF730
:1057B0001BFD05460DB12846C3E700212068FFF711
:1057C000DCFB606604212068FFF7D7FBA066082198
:1057D0002068FFF7D2FBE0660C212068FFF7CDFBC5
:1057E000206704212068FFF7C8FB010DE16404A9CC
:1057F0002046FDF765FD10B14FF08050A1E7502025
:10580000005B01040A4600232068FFF7B7FC054649
:105810000DB1284695E7D4E90412A069CDE900123C
:10582000029094E80F00FFF7AEFB002089E700002C
:10583000F8B5044600200090002600272068FFF7F6
:1058400035FC05460DB12846F8BD2068FFF744FC3D
:10585000054645B10021A1642068FFF727FC0546F5
:105860001DB12846F0E70121A164A06C012808D1F0
:1058700000212068FFF7C4FB054615B14FF08050AA
:10588000E2E71DE000212068FFF7BAFB05460DB1F5
:105890002846D9E718492068FFF7CEFB054615B121
:1058A0004FF08050D0E700212068FFF766FB0646E6
:1058B000012080EAD67080F001070098401C00901B
:1058C0004FF6FF710098884201D2002FDAD04FF6D0
:1058D000FF710098884202D34FF08070B4E706F061
:1058E0008040B0F1804F02D10120606401E00020CF
:1058F00060640020A8E70000000010C170B50446F5
:105900000D4615B94FF0006070BD5022125B1104B6
:105910002068FFF782FC06460EB13046F4E700210E
:105920002068FFF72AFB28600020EDE710B5044649
:10593000012006490870FAF7A9FF20B92046FFF7B1
:10594000E1FE024908700148007810BD35040020CE
:10595000F0B589B007460D46144601261648007872
:1059600000F0010010B1032009B0F0BD35B1012DE8
:1059700006D0022D0BD0032D18D10FE0002617E022
:1059800001A8FAF76DFF07982060002610E001A833
:10599000FAF766FF08982080002609E001A8FAF7C8
:1059A0005FFF0898400A2060002601E0042600BF3F
:1059B00000BF3046D8E70000350400202DE9F04153
:1059C00080460C4615461E460127BB1E3246294618
:1059D0002046FAF777FF28B900BFFAF74BFF0028F7
:1059E000FBD100273846BDE8F08110B504462046BB
:1059F000FFF788FE10BD2DE9F04180460C461546A4
:105A00001E460127BB1E324629462046FAF772FF82
:105A100028B900BFFAF72EFF0028FBD1002738462F
:105A2000BDE8F0817CB504460D4616461648006870
:105A30001821B0FBF1F01549B0FBF1F04FF47A7189
:105A4000484301906068B0F5827F0DD12B4600225B
:105A500080212046009600F01BF898B1606D40F060
:105A60002000606503207CBD00BF019800B908E0FC
:105A70000198401E019020688068C0F3C010002883
:105A8000F3D100BF0020EEE71400002040420F00D9
:105A90002DE9F84F04460D4690461E46DDF8289045
:105AA000FCF76CFFA0EB0900371AFCF767FF824692
:105AB0002C480068C0F3CB307843009045E0701C60
:105AC000002842D0FCF75AFFA0EB0A00B84200D2EF
:105AD000A7BB2068406820F0E0002168486060684B
:105AE000B0F5827F0DD1A068B0F5004F03D0A0685B
:105AF000B0F5806F05D12068006820F04000216873
:105B00000860A06AB0F5005F0DD100BF2068006892
:105B100020F40050216808602068006840F40050BC
:105B20002168086000BF012084F8510000BF0020F8
:105B300084F8500000BF0320BDE8F88FFFE700980D
:105B400000B900270098401E009020688068284017
:105B5000A84201D1012000E000204045AFD1002043
:105B6000EAE7000014000020704710B53220FBF770
:105B70007FF810BD10B500F0C5F810BD10B5FFF7E7
:105B8000F4FF00BF012280210F48FCF7F1FE00BFA7
:105B900000BF012240210C48FCF7EAFE00BFFFF7DE
:105BA000E4FF00BF002240210748FCF7E1FE00BFF0
:105BB000FFF7DBFF00BF002280210348FCF7D8FE7F
:105BC00000BFFFF7D2FF10BD000C024070B50024EB
:105BD00000251CE0FFF7C9FF6006040E00BF01228C
:105BE00040210D48FCF7C4FE00BF80210A48FCF7A5
:105BF000B7FE08B1601CC4B2FFF7B7FF00BF0022B8
:105C000040210548FCF7B4FE00BF681CC5B2082D52
:105C1000E0DB204670BD0000000C024070B5044679
:105C2000002624E000BFE00928B10122802122489B
:105C3000FCF79EFE04E0002280211F48FCF798FE3E
:105C400000BFFFF792FF00BF012240211A48FCF776
:105C50008FFE00BFFFF789FF00BF002240211648DA
:105C6000FCF786FE00BF6006040E701CC6B2082E4C
:105C7000D8DB00BF012280210F48FCF779FE00BF6E
:105C8000FFF773FF00BF012240210B48FCF770FEB5
:105C900000BFFFF76AFF80210748FCF761FE08B1EB
:105CA000012500E0002500BF002240210248FCF74A
:105CB0005FFE00BF284670BD000C024010B500BF5B
:105CC000012280210E48FCF753FE00BF00BF0122D5
:105CD00040210B48FCF74CFE00BFFFF746FF00BF1A
:105CE000002280210648FCF743FE00BFFFF73DFF7E
:105CF00000BF002240210248FCF73AFE00BF10BD61
:105D0000000C024010B500BF002280210C48FCF7B7
:105D10002FFE00BFFFF729FF00BF012240210848E6
:105D2000FCF726FE00BFFFF720FF00BF0122802105
:105D30000348FCF71DFE00BFFFF717FF10BD000072
:105D4000000C024010B50446642330222146094865
:105D5000FDF7C4FF0122D1030748FCF709FE01202B
:105D6000FAF786FF00224FF400410348FCF700FEDB
:105D700010BD0000C4050020001402402DE9F05FB2
:105D800004462BF0DFFF834620F06AFC8046224663
:105D90004BA14D4800F0D2FB4B4806F063FD4A4949
:105DA0004AA000F0BBFB4849404621F071FD404647
:105DB00026F050F92BF0C6FF834618F041FA05464D
:105DC000414B07224349284625F006FC4FF4406129
:105DD000284625F095FC50235A420921284625F0F3
:105DE0003DFD284622F020FC82463BA1504623F090
:105DF0007DFD504626F02EF92BF0A4FF834618F0C7
:105E00001FFA0646304B07223549304625F0E4FBA1
:105E1000502300220921304625F020FD4FF4006177
:105E2000304625F06DFC42F2D17130462AF0CFFBAE
:105E3000304622F0F9FB82462AA1504623F056FD57
:105E4000504626F007F92BF07DFF834618F0F8F94D
:105E500007461D4B07222549384625F0BDFB502338
:105E60001A460921384625F0F9FC4FF400613846FE
:105E700025F046FC42F2D17138462AF0A8FB38469C
:105E800022F0D2FB82461AA1504623F02FFD504645
:105E900026F0E0F820F032F88146294648461FF007
:105EA00099FF314648461FF095FF394648461FF096
:105EB00091FF49461048006822F0FEF8BDE8F09FC7
:105EC000413A2F257300000006070020493A257348
:105ED00000000000FD5E0008636C6F736500000049
:105EE000195F000864656C6574650000955F0008C3
:105EF0007072696E740000001804002070B50446CA
:105F000020461EF063FE0546072D02D101A032F0A7
:105F100063FC70BD2F0000002DE9F04104462046CF
:105F20001EF054FE0646072E12D1E068871C384644
:105F300010F088FB054625B1294606A000F0EEFAD0
:105F400002E00BA000F0EAFA11A032F045FC00BF1D
:105F5000BDE8F081493A4572726F722064656C65E4
:105F600074696E672066696C653A2025640A0000D2
:105F7000493A46696C652064656C65746564207394
:105F800075636365737366756C6C792E0A00000027
:105F90002F00000070B5044620461EF017FE06468E
:105FA000072E18D1E068851C29460BA000F0B6FA30
:105FB00000BF00224FF400410B48FCF7D9FC00BFA2
:105FC0002846FEF77FFE00BF0122D1030648FCF7FA
:105FD000CFFC00BF00BF70BD493ABFAAC6F4B4F2FF
:105FE000D3A12573000000000004024010B500207A
:105FF00000F020F9002280211848FCF7B9FC0022AB
:1060000020211648FCF7B4FC002240211348FCF77D
:10601000AFFC002210211148FCF7AAFC00224FF42B
:1060200000610F48FCF7A4FC002204210D48FCF796
:106030009FFC002202210B48FCF79AFC0022012160
:106040000848FCF795FC002220210748FCF790FC4B
:10605000002210210448FCF78BFC10BD0018024000
:1060600000140240000402400008024010B5044839
:10607000007810B101202EF0E9FDFCF785FC10BD81
:106080000002002000B593B0302107A8FAF7F2F81B
:10609000142102A8FAF7EEF800BF0020019024486E
:1060A000006840F08050224908600846006800F00F
:1060B0008050019000BF00BF00BF002001901D482C
:1060C000006840F480401B4908600846006800F4FE
:1060D0008040019000BF00BF01200790000408909D
:1060E00002200D9041050E9108210F914FF4A871E7
:1060F0001091022111910721129107A8FCF762FE6D
:1061000008B1FAF7ECFD0F20029002200390002066
:1061100004904FF4A05005904FF480500690052154
:1061200002A8FCF70FFD08B1FAF7D9FD13B000BDC6
:1061300040380240007000400348006840F470009E
:10614000014908607047000088ED00E010B5024882
:10615000FDF7F3FF10BD00001C06002010B502681B
:10616000294B98420ED0B0F1804F0BD0274B98426C
:1061700008D0274B984205D0264B984202D0264B98
:10618000984203D122F070024B681A431E4B98428A
:1061900020D0B0F1804F1DD01C4B98421AD01C4B20
:1061A000984217D01B4B984214D01B4B984211D0E9
:1061B0001A4B98420ED01A4B98420BD0194B98426A
:1061C00008D0194B984205D0184B984202D0184B72
:1061D000984203D122F44072CB681A4322F0800324
:1061E0004C6943EA040202608B68C3620B688362F5
:1061F000054B984202D0084B984201D10B690363CA
:106200000123436110BD0000000001400004004074
:1062100000080040000C0040000401400040014024
:10622000004401400048014000180040001C0040AC
:106230000020004010B504462CB10122114605484B
:10624000FCF796FB04E0002201210248FCF790FBDA
:1062500010BD0000001402402DE9F84F04462068EC
:10626000006920F44050E168084321680861216911
:10627000A068084361690843E16908430090206809
:10628000C06849F20C618843009908432168C860DE
:106290002068406920F44070A16908432168486182
:1062A00076492068884203D075492068884203D126
:1062B000FCF720FD814602E0FCF70CFD8146E06919
:1062C000B0F5004F6CD102206168A0FB015003467D
:1062D0001920A9FB007001462A463846F9F772FFDB
:1062E0006421B0FBF1F04FEA001A02206168A0FBC4
:1062F00001510B461920A9FB00712A463846F9F7CF
:1063000061FF834602206168A0FB0150034619200B
:10631000A9FB00712A463846F9F754FF6421B0FB07
:10632000F1F000EBC00101EB0010ABEB800032217B
:1063300001EBC0006421B0FBF1F000F0F8000AEBC3
:10634000400A02206168A0FB015003461920A9FB06
:10635000007001462A463846F9F734FF834602208A
:106360006168A0FB015003461920A9FB00712A4671
:106370003846F9F727FF6421B0FBF1F000EBC001CC
:1063800001EB0010ABEB8000322101EBC000642177
:10639000B0FBF1F000F007005044216888606AE02B
:1063A00004206168A0FB015003461920A9FB00707E
:1063B00001462A463846F9F705FF824604206168FF
:1063C000A0FB015003461920A9FB007001462A4694
:1063D0003846F9F7F7FE6421B0FBF1F000EBC0019D
:1063E00001EB0010AAEB8000322101EB00106421C8
:1063F000B0FBF1F000F0F00A04206168A0FB01702E
:1064000003461920A9FB00513A462846F9F7DAFE5F
:106410006421B0FBF1F00AEB001A04206168A0FBD4
:1064200001510B461920A9FB00712A463846F9F79D
:10643000C9FE834604206168A0FB01500346192071
:10644000A9FB007001462A463846F9F7BBFE6421D5
:10645000B0FBF1F000EBC00101EB0010ABEB8000F2
:10646000322101EB00106421B0FBF1F000F00F00CD
:10647000504421688860BDE8F88F0000001001409A
:10648000001401402DE9F04104460D461746984698
:10649000069E34E0701C88B32EB1FCF76FFAA0EBB7
:1064A0000800B0422BD900BF00BF21680C3151E871
:1064B000001F21F4D07021680C3141E80002002A4D
:1064C000F3D100BF00BF00BF2168143151E8001FA5
:1064D00021F001002168143141E80002002AF3D1C3
:1064E00000BF202084F83D0084F83E0000BF00205B
:1064F00084F83C0000BF0320BDE8F081FFE720687E
:1065000000682840A84201D1012000E00020B842E4
:10651000C0D00020F0E700BFFEE700000FB4054B3D
:1065200010B503A9044A029802F004FC10BC5DF8FF
:1065300014FB0000F97F0108440400200FB4084B4D
:1065400010B504A902AA039802F0F4FB044602A9BC
:10655000002002F072FF204610BC5DF814FB000022
:106560003B940008014B024A02F0E4BBF97F0108AA
:106570004404002002480068C0F302207047000075
:106580000CED00E010B5002804DB0A07130E054AE5
:10659000135406E00A07140E034A00F00F031B1FF2
:1065A000D45410BD00E400E018ED00E002E008C89B
:1065B000121F08C1002AFAD170477047002001E07D
:1065C00001C1121F002AFBD1704770B50446002597
:1065D00008E02168481C20600878303805EB850108
:1065E00000EB41052168087800F0C6F80028F0D1DA
:1065F000284670BD2DE9FF5F82B00021DDE904303F
:10660000020DDDF840B0034318D044F61050A2F25A
:10661000FF3242431514119801281FD0A5EB0B003F
:10662000401C5FEA000A4FF000064E4FDFF8389139
:10663000B046504615D5CAF1000413E01198012464
:106640004AA3012801D16FEA0B010298119AC0E90F
:106650000031C0E9024206B0BDE8F09FCBF1000076
:10666000DFE704460021404A491842EB0450CDE9D7
:10667000001012E0E00707D032463B46404649464C
:10668000F9F741FE8046894632463B461046194698
:10669000F9F739FE06460F466410002CEAD1DDE911
:1066A0000401DDE90023BAF1000F06DAF9F72BFE49
:1066B00042464B46F9F727FE05E0F9F7D5FF42467B
:1066C0004B46F9F7D1FF04460E460022284BFAF755
:1066D00053F803D84FF0FF30014607E00022254B66
:1066E00020463146F9F719FFFAF72DF8102409E092
:1066F000002C0ADB0A220023F9F764FD039B3032E9
:106700001A55641E50EA0102F2D1641C039AC4F1C6
:1067100011031444119A012A03D0012208430DD118
:106720000AE0084304D000204FF0110B119072E7EB
:10673000A3EB0B056D1E0DE05B4504DD4FF0000281
:1067400005F1010504E003DA4FF00002A5F10105AF
:10675000002AECD002981199C0E90231C0E9004545
:1067600079E70000000014400000F03F3000000016
:106770000000F0430000E03F0146302903DB3929E7
:1067800001DC012070470020FCE7000010B540212B
:10679000074801F0D7FB00221E2106482EF0BEFA62
:1067A0000549086003F006FD00200449087010BD8B
:1067B000E80A002081A200087C0300207803002062
:1067C00030B50346B1F90040B2F90050AC4202DDE9
:1067D000B1F9004001E0B2F900401C80B1F902407B
:1067E000B2F90250AC4202DDB1F9024001E0B2F967
:1067F00002405C80B1F90440B2F90450AC4202DAC4
:10680000B1F9044001E0B2F904409C80B1F90640BE
:10681000B2F90650AC4202DAB1F9064001E0B2F931
:106820000640DC800120B3F90040B3F90450AC42CB
:1068300005DCB3F90240B3F90650AC4200DD00209C
:1068400030BDF8B504460D4616460027B4F90000E1
:10685000B5F90010884212DBB4F90200B5F9021054
:1068600088420CDBB4F90400B5F90410884206DC58
:10687000B4F90600B5F90610884200DC01270FB90B
:106880000020F8BD0EB90120FBE72088ADF800001C
:106890006088ADF8020032466946284600F0A7F845
:1068A00008B90020EDE7A088ADF800006088ADF8D9
:1068B000020032466946284600F099F808B90020DF
:1068C000DFE72088ADF80000E088ADF8020032462E
:1068D0006946284600F08BF808B90020D1E7A08867
:1068E000ADF80000E088ADF802003246694628465F
:1068F00000F07DF808B90020C3E70120C1E7024697
:10690000B2F90000B1F90430984213DCB2F9040086
:10691000B1F9003098420DDBB2F90200B1F906304E
:10692000984207DCB2F90600B1F90230984201DB67
:10693000012070470020FCE7F8B504460D461646D6
:10694000B4F90400B5F90010884211DBB4F906006F
:10695000B5F9021088420BDBB4F90000B5F9041058
:10696000884205DCB4F90200B5F90610884201DD61
:106970000120F8BD0EB90020FBE72088ADF800002B
:106980006088ADF8020032466946284600F02FF8CC
:1069900008B10020EDE7A088ADF800006088ADF8F0
:1069A000020032466946284600F021F808B100206E
:1069B000DFE72088ADF80000E088ADF8020032463D
:1069C0006946284600F013F808B10020D1E7A088F6
:1069D000ADF80000E088ADF802003246694628466E
:1069E00000F005F808B10020C3E70120C1E72DE958
:1069F000FC5F05460E4614464FF0000AB6F900004B
:106A0000B5F90010884213DBB6F90000B5F904109F
:106A100088420DDCB6F90200B5F90210884207DBA6
:106A2000B6F90200B5F90610884201DC4FF0010A00
:106A3000BAF1000F02D10020BDE8FC9F002C01DC60
:106A40000120F9E7284617F020F9834600EBDB70B8
:106A50004710284617F091F8834600EBDB704FEAA9
:106A60006008474501DA384600E0404681464C451B
:106A700000DD4C462888ADF800002888204400B28C
:106A8000ADF804006888ADF802006888204400B2C0
:106A9000ADF80600002231466846FFF7A8FF80B136
:106AA000BDF80400204400B2ADF80400BDF80600B3
:106AB000204400B2ADF80600314668462AF07CFA60
:106AC000BAE7E888001B00B2ADF80200E888ADF82C
:106AD0000600002231466846FFF789FF80B1BDF805
:106AE0000400204400B2ADF80400BDF80200001B11
:106AF00000B2ADF80200314668462AF05DFA9BE725
:106B0000A888001B00B2ADF80000A888ADF804000A
:106B1000002231466846FFF76AFF80B1BDF80000E9
:106B2000001B00B2ADF80000BDF80200001B00B26F
:106B3000ADF80200314668462AF03EFA7CE76888E4
:106B4000ADF802006888204400B2ADF806000022CB
:106B500031466846FFF74BFF80B1BDF80000001BCF
:106B600000B2ADF80000BDF80600204400B2ADF858
:106B70000600314668462AF01FFA5DE701205BE710
:106B800010B5B1F90030B2F90040A34202DAB1F910
:106B9000003001E0B2F900300380B1F90230B2F9FF
:106BA0000240A34202DAB1F9023001E0B2F9023048
:106BB0004380B1F90430B2F90440A34202DDB1F9D7
:106BC000043001E0B2F904308380B1F90630B2F943
:106BD0000640A34202DDB1F9063001E0B2F9063009
:106BE000C38010BD2DE9FF41044600BF00BF2EF059
:106BF0001DF805460020039034B14C49E068086058
:106C000020462EF025FA03E019F0D6FF4749086028
:106C10004649096808692AF073F8444800684069E1
:106C200020B14249096848692AF06AF83F49096871
:106C3000C8692AF065F83D490968086A2AF060F8D1
:106C40003A480068006988B9002038490968A1F805
:106C5000500137A03D4B4FF499723DA100900220A6
:106C600001F00CFA00BF00BFBDE8FF812AF0D2FCA2
:106C70002AF018FC2D480068B0F8500100284BD0CD
:106C80002A4800680068007CC0F34000E8B127484B
:106C900000681AF0F1F8401E06B22448006819F0A6
:106CA000A3FF401E07B23B460022114601A80096F2
:106CB00017F030F801A81D4909680968896B486018
:106CC0001A48006807F0ACFD00BF4FF48071174808
:106CD0000068303023F003FF20211448006800F5DD
:106CE000987023F0FCFE002010490968A1F85001BB
:106CF00028462DF08DFF03900C4800680068406A1C
:106D000050B10A49096808680849096809684B6A66
:106D100019490A680399984723F032FB00F064F898
:106D200000F02CF800BF00BF00BF9DE73402002038
:106D30007468657265206973206E6F206163746981
:106D400076652073637265656E00000051FA030872
:106D50002E2E5C6170705C4C56474C5C4755495C0C
:106D60006C76676C5C7372635C636F72655C6C7687
:106D70005F726566722E63003002002010B5002439
:106D800016E0C4EBC4000C4951F8200030B1C4EB4C
:106D9000C401094A52F8210023F054FCC4EBC40199
:106DA000054A02EB81001C2123F099FE601CC4B24D
:106DB000042CE6DB10BD0000C40B00200146094A8C
:106DC00010680BE042688A4202D002688A4204D10D
:106DD000027E22F00102521C027640690028F1D1A5
:106DE00070470000080200207047000010B5042121
:106DF000014801F0A7F810BDDC0A002010B51C21E5
:106E0000014801F09FF810BDF40A00202DE9FF4F62
:106E10008BB004469A46199DBAF1000F11D118980B
:106E2000B0F5807F0DD10020208060800C98401E3E
:106E300000B2A0800D98401E00B2E0800FB0BDE807
:106E4000F08FB5F900004042189948430121C1EB89
:106E5000202000B22080B5F9020040421899484332
:106E60000121C1EB202000B26080B5F900100C9820
:106E7000401A18994843022101EB202000B2A0805B
:106E8000B5F902100D98401A18994843022101EBF8
:106E9000202000B2E080BAF1000F14D120882988A8
:106EA000084400B2208060886988084400B260808D
:106EB000A0882988084400B2A080E0886988084436
:106EC00000B2E080BAE70A209AFBF0F00A900A9834
:106ED000401C09900A9800EB8000AAEB400B0A982E
:106EE00000B22EF079FB0890099800B22EF074FBE6
:106EF00007900A985A3000B22EF06EFB069009985F
:106F00005A3000B22EF068FB0590CBF10A010898C8
:106F10004143079800FB0B100A2190FBF1F6CBF1DF
:106F20000A0106984143059800FB0B100A2190FBCB
:106F3000F1F776117F11B4F90080B4F9029007FBE4
:106F400008F006FB1900298801EBA02000B2ADF87B
:106F5000100006FB08F007FB0900698801EBA02080
:106F600000B2ADF81200B4F90480B4F9029007FB46
:106F700008F006FB1900298801EBA02000B2ADF84B
:106F80000C0006FB08F007FB0900698801EBA02054
:106F900000B2ADF80E00B4F90080B4F9069007FB1A
:106FA00008F006FB1900298801EBA02000B2ADF81B
:106FB000080006FB08F007FB0900698801EBA02028
:106FC00000B2ADF80A00B4F90480B4F9069007FBEA
:106FD00008F006FB1900298801EBA02000B2ADF8EB
:106FE000040006FB08F007FB0900698801EBA020FC
:106FF00000B2ADF80600BDF90800BDF910108842D6
:1070000002DABDF9080001E0BDF91000BDF9041075
:10701000BDF90C20914202DABDF9041001E0BDF97E
:107020000C1088420BDABDF90800BDF91010884237
:1070300002DABDF908000DE0BDF910000AE0BDF963
:107040000400BDF90C10884202DABDF9040001E029
:10705000BDF90C002080BDF90800BDF91010884270
:1070600002DDBDF9080001E0BDF91000BDF9041012
:10707000BDF90C20914202DDBDF9041001E0BDF91B
:107080000C1088420BDDBDF90800BDF910108842D4
:1070900002DDBDF908000DE0BDF910000AE0BDF900
:1070A0000400BDF90C10884202DDBDF9040001E0C6
:1070B000BDF90C00A080BDF90A00BDF9121088428C
:1070C00002DABDF90A0001E0BDF91200BDF90610AF
:1070D000BDF90E20914202DABDF9061001E0BDF9BA
:1070E0000E1088420BDABDF90A00BDF91210884271
:1070F00002DABDF90A000DE0BDF912000AE0BDF99F
:107100000600BDF90E10884202DABDF9060001E062
:10711000BDF90E006080BDF90A00BDF91210884269
:1071200002DDBDF90A0001E0BDF91200BDF906104B
:10713000BDF90E20914202DDBDF9061001E0BDF956
:107140000E1088420BDDBDF90A00BDF9121088420D
:1071500002DDBDF90A000DE0BDF912000AE0BDF93B
:107160000600BDF90E10884202DDBDF9060001E0FF
:10717000BDF90E00E08000BF60E62DE9F74F86B054
:10718000044620680590B4F908100798A0EB0108A0
:10719000B4F90A100898A0EB0109E089B0F5807FE6
:1071A00013D1206B00FB08F0E16A01FB1901606A52
:1071B00000EBA10BE06A00FB08F0216B01FB090169
:1071C000A06A00EBA10004902FE0A08980B9A06B19
:1071D00000FB08F04FEA6018A06B00FB09F04FEAD3
:1071E0006019606A00EB080BA06A484404901CE038
:1071F000A06B00FB08F04FEA6018A06B00FB09F0E1
:107200004FEA6019206B00FB08F0E16A01FB1901ED
:10721000606A00EBA12BE06A00FB08F0216B01FB28
:107220000901A06A00EBA12004904FEA2B260498E4
:107230000712B4F90400B04203DC002009B0BDE835
:10724000F08F002E01DA0020F8E7B4F90600B8420A
:1072500001DC0020F2E7002F01DA0020EEE7342005
:10726000005DC0F3800050B33420005DC0F34000E7
:1072700078B90225B4F904007843684306FB050A8F
:10728000059800EB0A012A4604F1140023F0D5FB0F
:107290002CE00325B4F904007843684306FB050A93
:1072A0006A1E059800EB0A0104F1140023F0C5FBE7
:1072B0000AEB0500401E0599095CA17516E04FF028
:1072C000000A0025208A03463AB231B2019004F147
:1072D00018001FF06FF80290BDF80800A0823AB2C3
:1072E00031B204F118001EF0C5FFA0753420005D16
:1072F00000F00100B0B14FF47F40002100F47C4267
:1073000041EA5211C0F3C40211430191BDF80420B7
:1073100011460291A08ABDF80810884201D10020D0
:107320008CE700BFE07C08B9012087E70FFA8BF1FA
:10733000A187049801B2E18731B24020015339B2EC
:1073400042200153C4F844A084F84850204600F07D
:1073500003F80390039871E72DE9F04F8DB00446D0
:10736000D4F8009094F83C000C9094F83E000B90F8
:107370000C9870280BDA4FF0FF35B4F94000284420
:10738000002800DA00250C988030C7B213E00C9872
:1073900090280EDD0125B4F940002844B4F904100A
:1073A000884200DB00250C98C0F1FF008030C7B296
:1073B00001E00025FF270B9870280CDA4FF0FF360C
:1073C000B4F942003044002800DA00260B988030DF
:1073D00000F0FF0815E00B9890280FDD0126B4F9A6
:1073E00042003044B4F90610884200DB00260B98B6
:1073F000C0F1FF00803000F0FF0802E000264FF0EF
:10740000FF08A08A0A90A07D0690002005900490B5
:1074100003903420005DC0F3800000285BD094F816
:107420004800626C00FB052000EB0901022209A85C
:1074300023F003FBA28894F8480012FB00F2606C72
:1074400002FB060000EB0901022208A823F0F5FA6E
:10745000A28894F8480012FB00F2606C02FB06025E
:1074600094F8480000FB052000EB0901022207A860
:1074700023F0E3FA3420005DC0F3400000287ED002
:1074800094F84800616C00FB05110844401E19F88F
:1074900000000590A18894F8480011FB00F1606C91
:1074A00001FB060194F848000844401E19F800004A
:1074B0000490A18894F8480011FB00F1606C01FB76
:1074C000060194F8480000FB05110844401E19F815
:1074D0000000039053E0208A0090B4F9422040203D
:1074E000005B284401B204F11800009B1EF062FF0B
:1074F0000990208A00904220005B304402B2B4F927
:10750000401004F11800009B1EF054FF0890208AE0
:1075100000904220005B304402B24020005B2844CF
:1075200001B204F11800009B1EF044FF07903420C4
:10753000005DC0F3400010B3B4F942204020005B6E
:10754000284401B204F118001EF094FE0590422078
:10755000005B304402B2B4F9401004F118001EF090
:1075600089FE04904220005B304402B24020005B60
:10757000284401B204F118001EF07CFE0390BA46C4
:10758000BB463420005DC0F34000E0B3069878436A
:10759000C7F1FF0C059B03FB0C00C0F30721049807
:1075A0007843C7F1FF0C039B03FB0C00C0F30722D9
:1075B00001FB08F0C8F1FF0302FB0300030AA375F7
:1075C000022905DC022A03DC00200DB0BDE8F08FA3
:1075D000022901DC4FF00008022A01DC4FF0FF080D
:1075E0000698022801DC4FF0000A0598022801DC09
:1075F0004FF0FF0A0498022801DC4FF0000B0398BB
:10760000022803DC00E002E04FF0FF0B03E0BA4683
:10761000BB46FF21A175BAF1000F02D10998029073
:107620000BE0BAF1FF0F02D10A98029005E0524632
:10763000DDE9091018F0C4FC0290BBF1000F02D183
:10764000079801900BE0BBF1FF0F02D10898019061
:1076500005E05A46DDE9071018F0B2FC0190B8F1D8
:10766000000F03D1BDF80400A0820FE0B8F1FF0FB6
:1076700003D1BDF80800A08208E04246DDE9011010
:1076800018F09EFC0090BDF80000A08201209CE74D
:107690002DE9F05F0446B4F9080001026162B4F913
:1076A0000A000102A162B4F90C000A2190FBF1F575
:1076B0006F1CB4F90C0005EB8501A0EB4106684294
:1076C00000B22DF089FF8046784200B22DF084FF91
:1076D0008146C5F15A0000B22DF07EFF8246C7F107
:1076E0005A0000B22DF078FF8346C6F10A0000FB75
:1076F00008F009FB06000A2190FBF1F1E162C6F1F6
:107700000A0000FB0AF00BFB06000A2190FBF1F1D6
:107710002163E06A4111E162206B41112163A07C89
:107720001EF057FF3421095D60F30001342001553C
:10773000A07C1EF031FF3421095D60F3410134204B
:107740000155A07C042805D0A07C052802D0A07C8F
:10775000062807D13420005D20F00400001D3421EC
:10776000085505E03420005D20F004013420015567
:1077700021682162A06920F0E000A061A17CA069DD
:1077800061F30400A061A188A06961F39420A06165
:10779000E188A06961F35F50A061E08900EBD071DE
:1077A000491001F5001191FBF0F2A263FF21A175D0
:1077B000208AA082BDE8F09F2DE9F74181B00546FF
:1077C00016460024164C2DF031FA804633462946E1
:1077D0002046029A1FF0BEFD0746002F12D111A0CD
:1077E0001B4B7D221BA10090022000F047FC2C21A6
:1077F000204623F074F94FF00040A062002004B04E
:10780000BDE8F0810020A062E06918B940462DF083
:10781000FFF9E061E06908B90120E0612046EEE788
:10782000180B0020496D61676520647261772063E1
:10783000616E6E6F74206F70656E2074686520696C
:107840006D616765207265736F7572636500000016
:10785000EEFC03082E2E5C6170705C4C56474C5C4D
:107860004755495C6C76676C5C7372635C647261EB
:10787000775C6C765F696D675F63616368652E63D3
:10788000000000003EB51421194800F05BFB1FF01A
:10789000CFFC044600BF002C0DD116A019A11DA2DB
:1078A000244BCDE900210290402223A1032000F0C7
:1078B000E5FB00BFFEE700BF44B92BA01D4B4222F1
:1078C0001DA10090022000F0D9FB3EBD2F492046AB
:1078D0001FF03AFE2E4920461FF038FE2D49204663
:1078E0001FF036FE2C4920461FF02CFE00BFECE7AF
:1078F000000B00204F7574206F66206D656D6F72F0
:10790000790000006465636F64657220213D204E3C
:10791000554C4C004173736572746564206174202A
:1079200065787072657373696F6E3A2025732028CD
:107930002573290017FD03082E2E5C6170705C4CC6
:1079400056474C5C4755495C6C76676C5C73726358
:107950005C647261775C6C765F696D675F646563B8
:107960006F6465722E6300006C765F696D675F649B
:1079700065636F6465725F696E69743A206F7574D0
:10798000206F66206D656D6F72790000B966020820
:10799000C56C0208BD7002088166020838B504464D
:1079A0000D461021284623F09AF820680078012817
:1079B00004D1208A2880608A68800CE020680078E2
:1079C000022802D1E068686005E020680078042899
:1079D00001D10A2068602068406830B100BF00BF54
:1079E000206829464268904707E004A00B4BBE225E
:1079F0000BA10090022000F041FB38BD696E646568
:107A0000765F726561645F6362206973206E6F7474
:107A1000207265676973746572656400823D04084D
:107A20002E2E5C6170705C4C56474C5C4755495C2F
:107A30006C76676C5C7372635C68616C5C6C765FBF
:107A400068616C5F696E6465762E63002DE9FE43A4
:107A50000446A66AEEB9A18A208A084401B2A1822E
:107A6000E18A608A084401B2E18220460FF0ABFA55
:107A700006460EB9BDE8FE83204613F013F9002236
:107A8000092130461DF072F96078C0F3400000B162
:107A9000F0E7208A10B9608A002870D00020029098
:107AA000019094F83C0000F00F00032812D13046FA
:107AB00025F00AFC0746304625F08EFB8046032061
:107AC0000090B4F910103B46424630460DF050FF8E
:107AD000029012E0304625F079FC0746304625F04A
:107AE000EDFA80460C200090B4F9121043463A4655
:107AF00030460DF03DFF019000BF304625F03EFBC3
:107B0000054605F0010028B9BDF90800002801DD8F
:107B10000020029005F0020028B9BDF908000028F5
:107B200001DA0020029005F0040028B9BDF9040034
:107B3000002801DD0020019005F0080028B9BDF9FA
:107B40000400002801DA0020019001AA02A92046C1
:107B500030F0B6FA0023BDF90420BDF90810304614
:107B600028F01EFBA08ABDF80810084401B2A182CB
:107B7000E08ABDF80410084401B2E18200BF00BFF2
:107B800078E72DE9F84F0446D4F828B0BBF1000F90
:107B900001D1BDE8F88F94F83C0000F00F0000B967
:107BA000F7E720F0C1F806463068477E4021584686
:107BB00027F020F810B9002161832183584625F071
:107BC000F1FB8046584625F0F7FB054694F83C004B
:107BD00000F00F000C2843D1002121831DBBB4F914
:107BE0001A00C7F164014843642190FBF1F001B22F
:107BF0006183584625F062FA8146584625F0E6FB37
:107C000082460C200090B4F91A104B465246584652
:107C10000DF0AEFE6083B4F91A20002319465846D1
:107C200028F0BEFA69E0204630F0A1FA0090002169
:107C300061836A46204630F043FABDF9003041F6D0
:107C4000FF72514258460FF067FB8146BDF80000B5
:107C5000484402B201230021584628F0A1FA4CE022
:107C600094F83C0000F00F00032846D10021618306
:107C7000B8F1000F23D1B4F91800C7F164014843EB
:107C8000642190FBF1F001B22183584625F0A4FA5B
:107C90008146584625F018FB824603200090B4F92F
:107CA000181053464A4658460DF062FE2083B4F938
:107CB000181000231A46584628F072FA1DE0204694
:107CC00030F03AFA009000212183002269462046D4
:107CD00030F0F6F9BDF9003041F6FF7251425846D6
:107CE0000FF080FA8146BDF80000484401B201233C
:107CF0000022584628F054FA00BF208B002860D19B
:107D0000608B00285DD11DBB584625F05FFB814686
:107D1000584625F0D3F98246B9F1000F02DCBAF1DA
:107D2000000F14DDB9F1000F06DA01234A460021E5
:107D3000584628F035FA0AE0BAF1000F07DA0123B5
:107D4000CAF1000002B20021584628F029FA00BF0B
:107D5000B8F1000F23D1584625F03EFA8146584627
:107D600025F0B2FA8246B9F1000F02DCBAF1000F39
:107D700014DDB9F1000F06DA012300224946584606
:107D800028F00EFA0AE0BAF1000F07DA0123002208
:107D9000CAF1000001B2584628F002FA00BF32468C
:107DA0000A2158461CF0E2FF6078C0F3400000B1A1
:107DB000EFE694F83C0020F00F0184F83C1000211D
:107DC000A16200BFE5E62DE9FF4104460F4614B964
:107DD00018F0F2FE04460CB9BDE8FF811FB900207F
:107DE000A4F85001F8E70020ADF80800ADF80A004B
:107DF000204618F0F9FE401E00B2ADF80C002046F7
:107E000019F03AF8401E00B2ADF80E0002AA394649
:107E10006846FEF7D5FC064606B9DDE72068007C1B
:107E2000C0F3400060B102982063039860630120B2
:107E3000A4F85001606810B160682DF015F9CBE727
:107E40002068806918B120686946826990470025DA
:107E50000BE004F1300000EBC50100226846FEF79C
:107E6000F0FC00B1B8E7681C85B2B4F85001A84234
:107E7000EFDCB4F85001202809DAB4F8502104F1FD
:107E8000300101EBC200694615F0E7FD0BE0002070
:107E9000A4F85001B4F8502104F1300101EBC20004
:107EA00002A915F0DAFDB4F85001401CA4F8500105
:107EB000606810B160682DF0D7F800BF8CE770B52E
:107EC0000546284600F013F8044600260CE021463B
:107ED000284600F024F806462146284600F086F899
:107EE000204622F0AFFB3446002CF0D170BD014695
:107EF00009B9002070474868FCE770B506460024C1
:107F00003046FFF7F4FF054605E0641C294630467D
:107F100000F005F80546002DF7D1204670BD024659
:107F20000B461068001D03441868704702460B4654
:107F30001068034418687047014609B9002070476B
:107F40008868FCE7002242608260CA1C22F00301BC
:107F50000160704770B50446216801F1080022F005
:107F60008FF90546A5B10022294620462EF024FEB1
:107F70002946204662682EF011FE606820B12A462C
:107F8000204661682EF018FE6560A06800B9A56003
:107F9000284670BD70B50446216801F1080022F042
:107FA0006FF90546A5B10022294620462EF0F6FDC0
:107FB00029462046A2682EF0FFFDA06820B12A467F
:107FC0002046A1682EF0EAFDA560606800B96560F2
:107FD000284670BD014609B901207047486818B9A4
:107FE000886808B90120F8E70020F6E72DE9F0419C
:107FF00004460D460CB9BDE8F0812046FFF777FF37
:10800000A8420FD129462046FFF789FF60606068CB
:1080100010B90020A0602FE00022204661682EF0F9
:10802000CBFD29E02046FFF787FFA8420FD1294664
:108030002046FFF77BFFA060A06810B900206060B9
:108040001AE000222046A1682EF0A8FD14E029467F
:108050002046FFF76BFF064629462046FFF75FFFE5
:1080600007463A46314620462EF098FD32463946BC
:1080700020462EF0A1FD00BF00BFBCE72DE9FE4F5A
:1080800007460D4691469846062F01DBBDE8FE8F58
:10809000022F38DB0DA802902846F8F7F6F80446C0
:1080A00008E0285D2F2802D0285D5C2801D1641CDF
:1080B00002E0641E002CF4D100BF2CF0B7FD064690
:1080C0004FF47A70B6FBF0F100FB116AB6FBF0FBDF
:1080D0000E480068301ACDE900080D4850F8271006
:1080E00053465A460BA0FEF719FA02990C98FEF770
:1080F00039FA29194A460EA0FEF710FA034806601D
:108100000020029000BF00BFC0E7000098030020DD
:108110009C0300205B25735D092825642E253033E0
:10812000642C202B256429092025733A20000000A7
:10813000200928696E202573206C696E652023252F
:1081400064290A0010B504462068806818B12068C8
:108150002146826890472068006828B1206800683E
:1081600020602046FFF7EEFF10BD0146886818B179
:108170008868B0F9160070470020FCE72DE9F04F41
:1081800093B005468B4691469A461C9E688C20F01B
:108190000400001D6884A5F82090328959462846BD
:1081A00026F098FA1290A5F820A032895946284660
:1081B00026F090FA1190688C20F004006884DDE9C4
:1081C000111088420CD1DDE91110884208D1BDF8A8
:1081D0004800BDF84410884202D113B0BDE8F08FCA
:1081E000A5F8209032895946284626F073FA129055
:1081F000A5F820A05946284611F039FA1090318987
:10820000109A1068129A2BF03BF83089602833D10D
:1082100047F6FF711298884202D0119888422BD1FC
:10822000284626F08AFC0F9000EBD07047102846B5
:1082300026F083FC0F9000EBD0704FEA600847F601
:10824000FF711298884208D1781C08F10101884218
:1082500000DA01E008F10100129047F6FF71119871
:10826000884208D1781C08F10101884200DA01E057
:1082700008F10100119000BF2A48FFF76BFE044689
:1082800000BF74B928A02CA12EA2364BCDE9002145
:1082900002904FF4A57234A10320FFF7EFFE00BF58
:1082A000FEE700BF04B998E71298E06011982061DA
:1082B000ACB325603089A080C4F808B0684614F0DB
:1082C00047FD2146684614F0F6FD3349684614F030
:1082D000C2FD3248029000BF3149684614F0C9FD22
:1082E000FF220021684614F0D6FD3188684614F05C
:1082F000C8FD7188684614F0A9FDF068069000BFBB
:108300006846002190F83E2061F3000280F83E208C
:1083100000BF30690590684614F0E4FD00BF00BF5F
:108320005BE700000C0B00204F7574206F66206D1A
:10833000656D6F7279000000747220213D204E55EA
:108340004C4C000041737365727465642061742045
:1083500065787072657373696F6E3A202573202893
:1083600025732900F4F903082E2E5C6170705C4CB3
:1083700056474C5C4755495C6C76676C5C7372631E
:108380005C636F72655C6C765F6F626A5F73747951
:108390006C652E6300000000DDBB030889BE030886
:1083A000B9BD030810B514210148FFF7CBFD10BD7E
:1083B0000C0B00202DE9FE4F04460F4690464FF06F
:1083C000000900256BE1E06800EBC5004068C0F3E0
:1083D000406000B162E1E16801EBC501496821F04C
:1083E0007F4028F08AFC064626EA070008B90120EB
:1083F00000E00020029026EA080008B9012000E011
:1084000000200190DDE90101814272D0E06850F85E
:1084100035A04FF0000B6A4641F6100150462AF095
:108420006BFB10B14FF0010BA9E06A4641F6110158
:1084300050462AF061FB10B14FF0010B9FE06A46F5
:1084400041F6120150462AF057FB10B14FF0010BD4
:1084500095E06A4641F6130150462AF04DFB10B1F3
:108460004FF0010B8BE06A4641F6150150462AF0A9
:1084700043FB10B14FF0010B81E06A4641F6140155
:1084800050462AF039FB10B14FF0010B77E06A46F5
:1084900041F2690150462AF02FFB10B14FF0010B59
:1084A0006DE06A4643F20C0150462AF025FB10B1FC
:1084B0004FF0010B63E06A4643F20D0150462AF08B
:1084C0001BFB10B14FF0010B59E06A4641F201016C
:1084D00050462AF011FB10B14FF0010B4FE06A46F5
:1084E00041F2040150462AF007FB18B14FF0010B8E
:1084F00045E0D2E06A4641F2020150462AF0FCFA19
:1085000010B14FF0010B3AE06A4641F203015046C8
:108510002AF0F2FA10B14FF0010B30E06A4641F256
:10852000050150462AF0E8FA10B14FF0010B26E0A1
:108530006A4641F2060150462AF0DEFA10B14FF0C9
:10854000010B1CE06A4641F2320150462AF0D4FA8F
:1085500010B14FF0010B12E06A4643F60F0150468E
:108560002AF0CAFA10B14FF0010B08E06A4643F650
:108570000E0150462AF0C0FA08B14FF0010BBBF1D2
:10858000000F02D00320BDE8FE8F6A4640F60A01C4
:1085900050462AF0B1FA10B14FF002097CE06A4669
:1085A00040F60B0150462AF0A7FA10B14FF002092D
:1085B00072E06A4643F60F0150462AF09DFA10B168
:1085C0004FF0020968E06A4643F60E0150462AF071
:1085D00093FA10B14FF002095EE06A4640F63C01A2
:1085E00050462AF089FA10B14FF0020954E06A4669
:1085F00040F63D0150462AF07FFA10B14FF00209D3
:108600004AE06A4640F63A0150462AF075FA10B13F
:108610004FF0020940E06A464FF4046150462AF0E8
:108620006BFA10B14FF0020936E06A4640F6450198
:1086300050462AF061FA10B14FF002092CE06A4668
:1086400040F6410150462AF057FA10B14FF00209A6
:1086500022E06A4640F6420150462AF04DFA10B137
:108660004FF0020918E06A4640F6430150462AF0EE
:1086700043FA10B14FF002090EE06A4640F6490194
:1086800050462AF039FA10B14FF0020904E0B9F16E
:10869000000F01D14FF0010900BF00BF6D1C608CBD
:1086A000C0F3C500A8423FF68EAE48466BE7000017
:1086B00001480068704700003402002070470146FE
:1086C000C1F30412072A00DD0722D0B27047000070
:1086D00010B518210348FFF735FC01202CF09CFB56
:1086E00010BD0000B80A00202DE9F04105460F46F4
:1086F00016460DB9BDE8F0812846F7F7C6FD80465D
:10870000394628460A4A126890470746E819314612
:10871000074A1268904706463C4603E0A019285CC9
:108720002855641CA8EB0600A042F7D200BFE1E781
:10873000E40300202DE9F04106460C4617461D468D
:1087400029463046084A126890472060206830B1B8
:10875000296888190021044A1268904700E0002027
:108760003860BDE8F0810000DC0300202DE9F04F07
:1087700087B004460F4692469846DDE910560DB183
:10878000002028801CB9002007B0BDE8F08F2078B9
:1087900008B90020F8E70FB90020F5E74FF000090D
:1087A00006F0020010B906F0040098B1002000E0C5
:1087B000401C215C0A2905D0215C0D2902D0215CD6
:1087C0000029F5D1215C01B1401C15B14FF0FF31FA
:1087D0002980D9E706F0020008B141F6FF780020B1
:1087E0000690059038E000200490059808B9012013
:1087F00000E0002006A904AACDE90062CDE902103C
:10880000059960184346524639462CF01DFF8346B1
:108810000498A8EB00000FFA80F8049848440FFA77
:1088200080F9BBF1000F00D11CE005985844059079
:1088300020780A2802D020780D2800D112E005986F
:10884000205C0A2803D00598205C0D2803D10598E8
:10885000401C059006E000BF0598205C10B1B8F1FF
:10886000000FC0DC00BF059870B905A92046094A71
:1088700012689047834635B10022594638461CF0AD
:10888000A5FC0FFA80F900BF0DB1A5F8009005987E
:108890007AE70000DC0300202DE9F0470646884611
:1088A000174606B10FB9BDE8F0873046F7F7EDFC83
:1088B00081463846F7F7E9FC044604B9F3E704EBD0
:1088C000090A414630460B4A126890478046554691
:1088D00003E0281B305C70556D1E08EB0400A842B5
:1088E000F7D906EB08002246394622F0B2F800BF5D
:1088F000D9E70000E4030020024600200FA31B7804
:108900008B4211D113781BB90123137001200BE0A6
:108910001378012B02D10023137005E01378022B8A
:1089200002D10023137001201378012B04D12029D8
:1089300001D10223137001207047000023000000C2
:1089400073B584B006460598039032460021084668
:10895000039B2DF0D1F90546002003900024681CEC
:1089600021F08EFC044600BF002C0ED10EA012A1F7
:1089700015A21D4BCDE9002102904FF4F0721BA10E
:108980000320FFF77BFB00BFFEE700BF14B9002008
:1089900006B070BD002060553246691C2046059B1C
:1089A0002DF0AAF92046F3E74F7574206F66206D0D
:1089B000656D6F72790000007465787420213D2028
:1089C0004E554C4C00000000417373657274656431
:1089D0002061742065787072657373696F6E3A20D8
:1089E0002573202825732900674204082E2E5C6118
:1089F00070705C4C56474C5C4755495C6C76676CB4
:108A00005C7372635C6D6973635C6C765F747874BD
:108A10002E6300002DE9F04781460E4614461F469E
:108A2000DDF820A035461BE0600800FB075529460D
:108A30004846D047B0F1000809DD04F0010080F09D
:108A40000100C0EB5404E8190546064608E0B8F1F9
:108A5000000F02DA6408354602E02846BDE8F087D8
:108A6000002CE1D10020F9E72DE9FF4F85B08346C6
:108A7000DDE9158ADDE91349DDE91775129E05F078
:108A80000200F8B94FB105F0010030B1B9F1000FA3
:108A900002D105F00C0000B17F1E03E03022204619
:108AA000641C3254544501D2202CF7D303E0302209
:108AB0002046641C325405F0010018B1BC4201D2BA
:108AC000202CF4D305F01000B0B305F4806050B949
:108AD0004CB1544501D0BC4205D1641E1CB1B8F163
:108AE000100F00D1641EB8F1100F09D105F020005D
:108AF00030B9202C04D278222046641C325415E070
:108B0000B8F1100F09D105F0200030B1202C04D2AB
:108B100058222046641C325408E0B8F1020F05D1F7
:108B2000202C03D262222046641C3254202C03D213
:108B300030222046641C3254202C16D2B9F1000F8A
:108B400004D02D222046641C32540EE005F00400AF
:108B500020B12B222046641C325406E005F00800A8
:108B600018B120222046641C3254CDE90275CDE9AB
:108B70000064584606A90EC900F0A2F809B0BDE885
:108B8000F08F2DE9FF4F8FB08046DDE91FABDDE9A7
:108B90001D96219D1C9C00270CB925F0100505F49D
:108BA000806000B1E4B100BFB4FBF6F106FB1141F7
:108BB000C8B20A2802DA00F1300107E005F020010E
:108BC00009B1412100E0612101440A39CBB23946A3
:108BD0007F1C07AA5354B4FBF6F40CB1202FE3D347
:108BE00007A8CDE904AB8DE88102039606954046BF
:108BF00010A90EC9FFF738FF13B0BDE8F08F2DE9BB
:108C0000FF4F8FB0DDE9217BDDF89080209EDDE90C
:108C10001C454FF00009002184EA01006940084327
:108C200001D128F0100808F4806028B1002184EAFE
:108C30000100694008432DD000BF32463B46204624
:108C40002946F7F7BFFA02F0FF0ABAF10A0F02DA73
:108C50000AF1300007E008F0200008B1412000E0F0
:108C6000612050440A38C2B2484609F1010907A9F7
:108C70000A5432463B4620462946F7F7A3FA0446F3
:108C80000D46002184EA01006940084302D0B9F191
:108C9000200FD2D32398CDE9036BCDE9050807A9AE
:108CA0001E98CDE9001902900FA80FC8FFF7DCFE4F
:108CB00013B0BDE8F08F9A4200D2885470477047D5
:108CC0002DE9FF5F05461446DDE90EA6DDE91087B4
:108CD000A34607F0020078B907F0010060B9B14679
:108CE00007E02246641C2020039B0199A84709F154
:108CF0000109C145F5D300BF08E02246641C711E7E
:108D00000E461AF80100039B0199A847002EF4D1E2
:108D100007F0020050B105E02246641C2020039BAE
:108D20000199A847A4EB0B004045F5D3204604B0B9
:108D3000BDE8F09F2DE9FF4F95B09A46884606465C
:108D40000025EEE1252877D100242746F94A0121A4
:108D5000039400E0044316F8013F203B01FA03F0BE
:108D60001042F7D130782A2811D06FF02F033078D5
:108D7000A0F13002092A16D8039A44F0020402EB4B
:108D8000820203EB42021044761C0390EFE758F88E
:108D9000042B0392002A03DA504244F40054039057
:108DA00044F00204761C30782E2816D116F8010FF4
:108DB00044F004042A280DD06FF02F023078A0F17F
:108DC0003003092B09D807EB870302EB4303C718CD
:108DD000761CF3E758F8047B761C30786C280FD0AB
:108DE00006DC4C2817D068280DD06A2814D104E07E
:108DF000742810D07A280FD10DE044F400140AE052
:108E000044F4801401E044F440147278824202D1A8
:108E100004F58014761C761C307866280BD013DCA1
:108E2000582877D009DC002875D04528F6D0462888
:108E3000F4D047281AD193E118E0632835D064288C
:108E400079D0652812D18BE1702873D008DC6728AF
:108E5000F1D069286FD06E280DD06F2806D1ACE014
:108E600073282CD0752874D0782853D0524617997F
:108E700090476D1C54E1C4F30250022809D0032826
:108E80000DD0D8F8001004280DD00D6008F10408AA
:108E900046E1D8F80010EA17C1E90052F6E7D8F821
:108EA00000100D80F2E70D70F0E718F8041B8DF844
:108EB000001000208DF80100EB46012003E058F877
:108EC00004BB4FF0FF3061074FF0000102D40DE00A
:108ED00009F101018946B9420FDA8145F8DB1BF837
:108EE00009100029F4D108E009F101018946814205
:108EF000FADB1BF809100029F6D103985346A0EBC2
:108F0000090721463846179A00F080FA284400EBFA
:108F1000090507E044E008E10DE01BF8010B5246AB
:108F200017999047B9F10109F7D2534621463846BF
:108F3000179AF2E039E00A21C4F302524FF0000B15
:108F40000091022A06D058F8040BC117032A09D051
:108F50000AE023E008F1070020F00702F2E802012E
:108F6000904605E000B2C117042A01D140B2C117F2
:108F7000002906DA0A460021404261EB02012D2257
:108F800002E0220504D52B228DF80420012203E003
:108F9000E20701D02022F7E7914657E00A2100E0DE
:108FA00010214FF0000B00910BE010214FF0000B4F
:108FB00044F004040827009103E008204FF0000B60
:108FC0000090C4F30252022A05D058F8040B002185
:108FD000032A08D008E008F1070020F00702F2E8B1
:108FE0000201904603E080B2042A00D1C0B24FF0E3
:108FF000000922072AD53278702A07D0DDF800C090
:109000008CF0100C5CEA0B0C05D00EE040228DF8C1
:109010000420012208E050EA010306D030238DF835
:1090200004308DF8052002229146009B83F008034E
:1090300053EA0B030AD150EA010201D1620705D5B8
:1090400030228DF804204FF001097F1E3278582A13
:1090500004D039A20C920CAA02920BE03BA2F9E7D1
:109060005B46009AF7F7AEF80C9B9B5C029A521E87
:109070000292137050EA0102F2D1029804A9081A70
:1090800000F1200B600702D524F4803400E00127B2
:109090005F4502DDA7EB0B0000E0002000EB0B01B9
:1090A000009003984944401A0390E00306D45346C5
:1090B0002146179A039800F0A9F90544002706E015
:1090C00001A85246C05D179990476D1C7F1C4F4503
:1090D000F6DBE0030CD553462146179A039800F0BF
:1090E00095F9054404E030205246179990476D1CCD
:1090F0000099481E00900029F5DC08E002980299CA
:1091000052460078491C0291179990476D1CBBF19B
:109110000001ABF1010BF1DC5BE100F065F9054406
:10912000761C307800287FF40DAE19B02846BDE8D3
:10913000F08F0000092801003031323334353637E2
:109140003839616263646566000000003031323393
:109150003435363738394142434445460000000033
:10916000600700D4062708F1070020F00700F0E8A8
:109170000223804603F0004C5FEA0C0001D097A068
:1091800009E0200501D596A005E0E00701D095A0F3
:1091900001E0AFF24C001390307823F000436528D3
:1091A0000CD006DC452809D046281DD047287FD1A1
:1091B0003BE0662818D067287AD136E00021112FCD
:1091C00001DB112000E0781CCDE9000104A90CA806
:1091D000FDF710FADDE90D010C9A4FF0000B07F1D5
:1091E0000109109200914EE04FF000400097CDE948
:1091F000011004A90CA8FDF7FDF9DDE90D020C9B97
:109200000F994FF0000B91461093009211B9791C01
:1092100000EB0109B7EB090003D4C0F1FF3B07F1F4
:109220000109A9EB0700019042E0012F00DA0127B4
:109230000021112F01DD112000E03846CDE90001A9
:1092400004A90CA8FDF7D6F9DDE90D010C9A0091EF
:109250004FF0000BB946109221070FD4009A4A45EF
:1092600003DA914601E0A9F10109B9F1010F05DD29
:10927000109AA9F10101515C3029F4D0B84202DA08
:1092800010F1040F03DA0121CDE9011010E00028EC
:1092900003DC8344A9EB000102E0411C494500DDE9
:1092A0008946A0EB0B00401C01904FF0004002905B
:1092B000200705D40198484502DB4FF0FF300190AC
:1092C00000208DF84B0002980DF14B07B0F1004FD4
:1092D00025D002200C902B200D90029800280CDA4B
:1092E000404202902D200D9007E00A210298F7F7E6
:1092F0007CF83031029007F8011D0C99481E0C9043
:109300000029F2DC02980028EFD1791E0D98087030
:10931000307800F0200040F0450007F8020D11A859
:10932000C01BC01D02901398007800B1012000EB13
:109330000901019801EBE071029801440398401A79
:10934000401E0390E00306D453462146179A039823
:1093500000F05CF805441398007818B1524617994C
:1093600090476D1CE00323D553462146179A039876
:1093700000F04CF805441BE0BBF1000F07DB009840
:10938000584504DD1098179910F80B0001E0179963
:1093900030205246904701980BF1010B401E05F119
:1093A0000105019004D12E205246179990476D1C5B
:1093B000B9F10001A9F10109DEDC05E017F8010BA4
:1093C0005246179990476D1C0299481E0290002939
:1093D000F4DC53462146179A03989EE62D000000C0
:1093E0002B000000200000002DE9F041044600257C
:1093F0001E461746880404D405E039462020B047AD
:109400006D1C641EF9D52846BDE8F0812DE9F041B8
:10941000044600251E469046C80301D5302700E0CB
:109420002027880404D505E041463846B0476D1C26
:10943000641EF9D52846BDE8F0810A68531C0B600C
:10944000107070472DE9FF4F8BB0074600250C9830
:1094500000B9FA4FEAE20E98007825280AD02A4689
:109460006D1C0E990878DDE90C13B8470E98401C66
:109470000E90DBE20E98401C0E90002400BF0E9868
:1094800000782B2819D004DC20281ED023282CD1CA
:1094900023E02D2809D0302827D144F001040E986C
:1094A000401C0E9001200A9022E044F002040E9825
:1094B000401C0E9001200A901AE044F004040E981B
:1094C000401C0E9001200A9012E044F008040E980F
:1094D000401C0E9001200A900AE044F010040E98FF
:1094E000401C0E9001200A9002E000200A9000BF6C
:1094F00000BF0A980028C2D180460E990878FDF76F
:109500003BF920B10EA8FDF760F8804612E00E98F6
:1095100000782A280ED1189901C91891002804DA78
:1095200044F00204C0F1000800E080460E99491C96
:109530000E9100BF4FF000090E9800782E281FD121
:1095400044F480640E98401C0E900E990878FDF744
:1095500013F920B10EA8FDF738F8814610E00E98F7
:1095600000782A280CD1189901C91891002801DD2A
:10957000014600E0002189460E99491C0E9100BF6A
:109580000E9800786C280AD004DC682816D06A2867
:1095900035D128E0742820D07A2830D129E044F44D
:1095A00080740E98401C0E900E9800786C2804D1A0
:1095B00044F400740E98401C0E9021E044F08004A6
:1095C0000E98401C0E900E980078682804D144F044
:1095D00040040E98401C0E9012E044F480740E98E3
:1095E000401C0E900CE044F400740E98401C0E9049
:1095F00006E044F480740E98401C0E9000E000BF1A
:1096000000BF0E98007869281DD00EDC622821D09A
:1096100006DC25287ED050281AD058287BD115E0AA
:10962000632879D06428F9D10CE0732875D004DC64
:109630006F280ED07028F1D109E0752804D0782861
:10964000ECD102E000BF00BF00BF00BF00BF00BF01
:1096500000BF00BF0E980078782803D00E980078DD
:10966000582801D1102623E00E980078702803D0E6
:109670000E98007850280CD1102644F0100444F4C1
:1096800080740E984078562812D10E98401C0E9087
:109690000EE00E9800786F2801D1082608E00E9899
:1096A0000078622801D1022602E00A2624F0100484
:1096B0000E980078582803D00E980078502801D1D1
:1096C00044F020040E980078692805D00E980078A0
:1096D000642801D024F00C0404F4806008B124F064
:1096E00001040E980078692803D00E980078642849
:1096F0007CD104F40070B8B31898C01D20F00700A6
:109700001890D0E900AB189A083218920020CDE9E1
:10971000069803E073E17CE1F2E01CE1CDE904602E
:109720000894BAEB00017BEB000001DA012000E0B5
:109730000020002102900846B1EB0A0170EB0B00FB
:1097400002DA5046594605E000200146B0EB0A0017
:1097500061EB0B01CDE900012A463846DDE90C1327
:10976000FFF74DFA0546C7E0FFE704F48070D0B17B
:10977000189850F804AB18904FEADA70CDE90398C6
:1097800002960594BAF1000F01DD514601E0CAF1DD
:109790000001CDE900102A463846DDE90C13FFF739
:1097A000F0F90546A8E004F0400028B1189810F838
:1097B000041B1890C8B20DE004F0800028B118987E
:1097C00030F8041B189008B204E018980068189943
:1097D000091D189182464FEADA70CDE90398029686
:1097E0000594BAF1000F02DD514602E00BE0CAF128
:1097F0000001CDE900102A463846DDE90C13FFF7D9
:10980000C0F9054678E00E980078562818D11898C7
:1098100050F804AB1890DAF8040000680990099831
:109820000090DAF800300D98421B0C984119384628
:10983000FFF708FE0544002009905DE0BF8C00089A
:1098400004F40070D0B11898C01D20F00700CDE9D5
:109850000698089418900020CDE9046002901899A9
:1098600003C9189A08321892CDE900012A463846F1
:10987000DDE90C13FFF7C3F905463DE004F4807001
:1098800098B10022CDE903980296059418980068D3
:109890001899091DCDE9000218912A463846DDE9DC
:1098A0000C13FFF76EF9054626E004F0400028B1DE
:1098B000189810F8041B1890C8B20DE004F080004E
:1098C00028B1189830F8041B189088B204E0189852
:1098D00000681899091D189182460020CDE900A062
:1098E000CDE90398029605942A463846DDE90C1323
:1098F000FFF747F9054600BF0E98401C0E9093E015
:10990000012604F0020050B905E02A466D1C202013
:10991000DDE90C13B8473046761C4045F5D318995D
:1099200011F8043BD8B22A466D1C1891DDE90C13DE
:10993000B84704F0020050B105E02A466D1C202013
:10994000DDE90C13B8473046761C4045F5D30E9838
:10995000401C0E9068E0189850F804AB18905046E0
:10996000B9F1000F01D0494601E04FF0FF310A463E
:10997000014600E0491C0B781BB1131EA2F1010245
:10998000F8D10E1A04F4806028B14E4501D2304659
:1099900000E04846064604F0020050B905E02A46B9
:1099A0006D1C2020DDE90C13B8473046761C40457D
:1099B000F5D306E01AF8010B2A466D1CDDE90C13FD
:1099C000B8479AF8000040B104F480600028F1D054
:1099D000B9F10000A9F10109ECD104F0020050B185
:1099E00005E02A466D1C2020DDE90C13B8473046FF
:1099F000761C4045F5D30E98401C0E9014E02A4684
:109A00006D1C2520DDE90C13B8470E98401C0E9004
:109A10000AE02A466D1C0E990878DDE90C13B84758
:109A20000E98401C0E9000BF00BF00BF0E9800783B
:109A300000287FF410AD0D98854201D2284601E040
:109A40000D98401E02460020DDE90C13B847284659
:109A50000FB0BDE8F08F2DE9F04104460E46002717
:109A600074B13146204600F0CFF80546B5F5803F89
:109A700005D20C2D01D9284600E00C20074600BF76
:109A80003846BDE8F08100007CB505460C4600BFB5
:109A9000601E204000280CD008A018A11E4B40F2E8
:109AA000ED12CDE900101DA10320FEF7E7FA00BF7B
:109AB000FEE700BF601E2840281A7CBD30203D3DD7
:109AC0002028616C69676E20262028616C69676EAA
:109AD000202D2031292920262620226D75737420FF
:109AE000616C69676E20746F206120706F7765729A
:109AF000206F662074776F22000000004173736549
:109B0000727465642061742065787072657373691E
:109B10006F6E3A2025730000F84004082E2E5C6119
:109B200070705C4C56474C5C4755495C6C76676C72
:109B30005C7372635C6D6973635C6C765F746C7389
:109B4000662E63007CB505460C46601E2844611EE7
:109B500020EA010600BF601E204000280CD008A0AB
:109B600017A11E4B40F2F512CDE900101CA10320F5
:109B7000FEF784FA00BFFEE700BF30467CBD000060
:109B800030203D3D2028616C69676E2026202861C9
:109B90006C69676E202D2031292920262620226D10
:109BA00075737420616C69676E20746F206120701A
:109BB0006F776572206F662074776F220000000057
:109BC0004173736572746564206174206578707286
:109BD000657373696F6E3A202573000003410408B2
:109BE0002E2E5C6170705C4C56474C5C4755495C4E
:109BF0006C76676C5C7372635C6D6973635C6C76C6
:109C00005F746C73662E63007CB505460C4600BF1E
:109C1000601E204000280CD009A019A11F4B40F263
:109C2000E712CDE900101EA10320FEF727FA00BFBE
:109C3000FEE700BF601E2844611E88437CBD000013
:109C400030203D3D2028616C69676E202620286108
:109C50006C69676E202D2031292920262620226D4F
:109C600075737420616C69676E20746F2061207059
:109C70006F776572206F662074776F220000000096
:109C800041737365727465642061742065787072C5
:109C9000657373696F6E3A2025730000EF40040806
:109CA0002E2E5C6170705C4C56474C5C4755495C8D
:109CB0006C76676C5C7372635C6D6973635C6C7605
:109CC0005F746C73662E63002DE9FE4380460E467A
:109CD000444601206086002500270DE056F8270045
:109CE00031A1F6F7D9FA10B1681C85B202E0608E96
:109CF000401C6086781C87B256F8270020B156F8C1
:109D0000270000780028E9D1208EA84201D1BDE8C3
:109D1000FE83A06A20B1A06A20F094FC0020A0621B
:109D2000E06A20B1E06A20F08DFC0020E062E800EB
:109D300020F0A6FAA06200BFA06A00280ED11BA0E6
:109D40001EA125A22C4BCDE9002102904FF45472A4
:109D50002AA10320FEF792F900BFFEE700BF6800CA
:109D600020F08EFAE06200BFE06A00280ED10FA05A
:109D70002EA119A2204BCDE90021029040F25232CF
:109D80001EA10320FEF77AF900BFFEE700BFA06A1C
:109D900008B1E06A00B900256900E06A20F09FFE82
:109DA000258600BFB3E700000A0000004F7574204D
:109DB0006F66206D656D6F727900000062746E6D64
:109DC0002D3E627574746F6E5F61726561732021E0
:109DD0003D204E554C4C00004173736572746564B0
:109DE0002061742065787072657373696F6E3A20B4
:109DF0002573202825732900004304082E2E5C615A
:109E000070705C4C56474C5C4755495C6C76676C8F
:109E10005C7372635C776964676574735C6C765FAE
:109E200062746E6D61747269782E630062746E6D17
:109E30002D3E6374726C5F6269747320213D204E05
:109E4000554C4C002DE9FE4F81460E46924699F83E
:109E5000090000F00700022801D1304600E050461A
:109E60008346564501DD304600E050460746032054
:109E700000EB470020F0030000F110053F480068A8
:109E80003F490968A0EB0108002405EB08003D49A3
:109E90000968884206D239480468606820F00040AA
:109EA000606045E037480068854221D813E04FF0F4
:109EB000FF300290002202A9334811F0BBFC0022BF
:109EC00002A9324811F0B6FC2C4800682C490968F8
:109ED000A0EB010800BF08EB05002A490968884289
:109EE000E5D826480468606820F0004060601FE004
:109EF000284620F0C5F9044600BF002C0DD124A04F
:109F000027A12BA2324BCDE900210290CA2231A118
:109F10000320FEF7B3F800BFFEE700BF14B900202E
:109F2000BDE8FE8F606820F0004000F100406060F6
:109F300032465946484602F019FC2060606800F03D
:109F40004040401C6060606820F080406060A781F5
:109F5000A4F80EB06068C00F20B1204600F11001D7
:109F6000A16008E0054800681030A0600348006860
:109F70002844024908602046D2E700003C02002045
:109F80009003002038020020A96F0108A1B9010840
:109F90004F7574206F66206D656D6F7279000000DB
:109FA0006974656D20213D204E554C4C0000000029
:109FB0004173736572746564206174206578707292
:109FC000657373696F6E3A20257320282573290005
:109FD000ACFA03082E2E5C6170705C4C56474C5CEA
:109FE0004755495C6C76676C5C7372635C64726144
:109FF000775C73775C6C765F647261775F73775FB1
:10A000006772616469656E742E630000F0B585B097
:10A0100006460D463446002004900390029094F8C2
:10A020003C0000F0030020B1012838D0022866D09F
:10A0300000BF94F83C0000F003005A4909788842B8
:10A040001BD02620005D00EB001000EB4000142127
:10A0500090FBF1F0544908702720005D00EB0010E0
:10A0600000EB4000142190FBF1F05049087094F887
:10A070003C0000F003004B49087002A803A9CDE999
:10A08000001005EB45014FF6FF7202EA410004ABF8
:10A0900046490A78444909780CF026FC5FE094F8B8
:10A0A0003C0000F003003F49097888421AD0A08C98
:10A0B00000EB400040024FF4B471B0FBF1F03C49BA
:10A0C00008802720005D00EB001000EB4000142109
:10A0D00090FBF1F03549087094F83C0000F0030063
:10A0E0003049087002A803A9CDE90010E9B204AB19
:10A0F0002E4802782E4800880CF0F6FB2FE094F8EA
:10A100003C0000F003002749097888421AD0A08C4F
:10A1100000EB400040024FF4B471B0FBF1F0244971
:10A1200008802620005D00EB001000EB40001421A9
:10A1300090FBF1F01C49087094F83C0000F003001B
:10A140001849087002A803A9EAB204ABCDE90010CF
:10A1500015480178164800880CF0C6FB00BF00BF08
:10A160009DF810009DF80C109DF80820D708BDF848
:10A17000003067F304038F080093BDF8003067F3E5
:10A180004A13C7080093BDF8003067F3CF2300934C
:10A19000BDF800703B460193BDF80410084605B0B9
:10A1A000F0BD0000EE020020EC020020ED020020D5
:10A1B000EA02002010B50120074908700748FDF7A2
:10A1C00096FE20B9064800682AF042FF03E00448E2
:10A1D00000682AF049FF10BD78030020E80A00203B
:10A1E0007C03002010B5044694F83E00C0F3400004
:10A1F00050B9A08F002807DDA08F4FF6FF7188426D
:10A2000002D0A08F401EA087A08FA8B9606B20B19C
:10A2100094F83E00C0F3400070B121461748FDF7A6
:10A22000E5FEFFF7C7FFE06810B12046E168884708
:10A23000204620F007FA1FE0A06B4042E062606B0E
:10A24000D0B194F83E10C1F3400111B9216B4942DD
:10A25000E16294F83E104908C94394F83E2061F346
:10A26000410284F83E20E069616AE1616062A06AAF
:10A27000616BA162606300BF10BD0000E80A0020AE
:10A280002DE9F0418046424800682AF0C1FC0646AC
:10A290004048007880F001003E4908703E48FDF7D4
:10A2A00026FE04466BE000203C49087094F83E000E
:10A2B000C0F3800037490978884253D03548017887
:10A2C0002C34A07C61F38200A07420688719A07CE4
:10A2D0002C3CC0F3C00010BBE06A00281FDC002F3C
:10A2E0001DDB94F83E0000F0010060B9206950B118
:10A2F0002046216988470546E0692844E061606A94
:10A300002844606200BFA06810B12046A168884759
:10A3100094F83E0020F00800083084F83E00E06A1F
:10A320003044E062E06A00281BDBD4E90A1088426E
:10A3300001DDA06AE0622046A16988470546206ADF
:10A34000A84206D02562606818B12946D4E9000207
:10A350009047D4E90A10884202DB2046FFF742FF0B
:10A3600000BF00BF0D48007820B10B48FDF7BFFDCE
:10A37000044604E021460848FDF7D1FD0446002CC0
:10A3800091D12AF053FC02490860BDE8F081000039
:10A390007403002079030020E80A002078030020DD
:10A3A000F7B582B004460E4614B9049805B0F0BD66
:10A3B00000BF63223146204624F08CF90190019DB4
:10A3C00000BFBDB12868A8B100BF64223146204655
:10A3D00024F080F901900198C0B207464FB13A4687
:10A3E0002B682846049998470190BDF80400ADF801
:10A3F000100000BF0498D9E770B504460D466068A8
:10A4000018B129466068FFF7F7FF206818B12946A0
:10A4100020462268904770BD70B505460C46A1B233
:10A42000284613F047FA70BD70B505460C46A1B238
:10A43000284613F090FA70BD7CB504460D4600BF67
:10A44000204600F086F800280CD00DA01AA1214B60
:10A4500040F2A622CDE900101FA10320FDF70EFE59
:10A4600000BFFEE700BF284600F050FB001D6168FA
:10A4700008446060204600F07BF820467CBD000068
:10A4800021626C6F636B5F69735F6C6173742870BA
:10A4900072657629202626202270726576696F758E
:10A4A0007320626C6F636B2063616E27742062653A
:10A4B000206C61737422000041737365727465646B
:10A4C0002061742065787072657373696F6E3A20CD
:10A4D00025730000534104082E2E5C6170705C4CA3
:10A4E00056474C5C4755495C6C76676C5C7372638D
:10A4F0005C6D6973635C6C765F746C73662E63006D
:10A5000070B505460C46284600F000FB04F110012A
:10A51000884201D3012070BD0020FCE70146A1F173
:10A52000080070477CB505460C46204600F0EEFA60
:10A5300006466A4601A92CF003F921462846DDE9C2
:10A54000003210F081FC7CBD0146087900F001006A
:10A55000704710B50446204600F0D8FA08B901202B
:10A5600010BD0020FCE70146087900F002007047AA
:10A5700070B50446204600F091F905462C60284647
:10A5800070BD00007FB506460C4600200390029087
:10A5900000256CB102AA03A920462CF0EEF803981E
:10A5A0000A2805DA02AA03A930462DF0C7FE05469F
:10A5B000002D19D000BF284600F0A8FAA0420CD206
:10A5C0000BA012A1184B40F20732CDE9001017A1E1
:10A5D0000320FDF753FD00BFFEE700BF29463046CC
:10A5E000DDE902322DF0A2FA284604B070BD000069
:10A5F000626C6F636B5F73697A6528626C6F636B03
:10A6000029203E3D2073697A65000000417373651F
:10A610007274656420617420657870726573736903
:10A620006F6E3A2025730000A24104082E2E5C6153
:10A6300070705C4C56474C5C4755495C6C76676C57
:10A640005C7372635C6D6973635C6C765F746C736E
:10A65000662E630070B504462046FFF789FF054665
:10A66000284600F03EFA204600F036FA70BD70B57C
:10A670000446204600F012F90546284600F036FA56
:10A68000204600F03EFA70BD7CB506460D462846D1
:10A6900000F004F9044600BF002C0CD118A023A13F
:10A6A000294B40F2BF22CDE9001028A10320FDF77D
:10A6B000E5FC00BFFEE700BF2046FFF745FF00288E
:10A6C0001CD000BF2846FFF744FF00280CD029A06B
:10A6D00016A11D4B40F2C222CDE900101BA10320A0
:10A6E000FDF7CCFC00BFFEE700BF2146304600F07E
:10A6F000E1F921462846FFF79FFE054628467CBD26
:10A700006E65787420262620226E65787420706825
:10A7100079736963616C20626C6F636B2063616E37
:10A720002774206265206E756C6C2200417373651E
:10A7300072746564206174206578707265737369E2
:10A740006F6E3A2025730000714104082E2E5C6163
:10A7500070705C4C56474C5C4755495C6C76676C36
:10A760005C7372635C6D6973635C6C765F746C734D
:10A77000662E630021626C6F636B5F69735F6C614F
:10A78000737428626C6F636B2920262620227072F6
:10A790006576696F757320626C6F636B2063616EA1
:10A7A0002774206265206C61737422007CB50646B4
:10A7B0000D462846FFF7D7FE002831D0284600F086
:10A7C0001FF9044600BF002C0CD116A020A1274B76
:10A7D00040F2B222CDE9001025A10320FDF74EFC86
:10A7E00000BFFEE700BF00BF2046FFF7ADFE60B927
:10A7F000294817A11D4B40F2B322CDE900101CA13E
:10A800000320FDF73BFC00BFFEE700BF21463046BA
:10A8100000F050F929462046FFF70EFE054600BF1E
:10A8200028467CBD707265762026262022707265CF
:10A830007620706879736963616C20626C6F636BFA
:10A840002063616E2774206265206E756C6C220037
:10A8500041737365727465642061742065787072E9
:10A86000657373696F6E3A202573000060410408B8
:10A870002E2E5C6170705C4C56474C5C4755495CB1
:10A880006C76676C5C7372635C6D6973635C6C7629
:10A890005F746C73662E6300C04F04082DE9FC41A1
:10A8A0000446204600F032F9061F204600F0E2F987
:10A8B000074631462CF034FA054600BF2046FFF724
:10A8C00048FE60B108A00EA1144B4FF4E572CDE92B
:10A8D000001013A10320FDF7D1FB00BFFEE700BF6E
:10A8E0002846BDE8FC81000021626C6F636B5F69E4
:10A8F000735F6C61737428626C6F636B2900000076
:10A900004173736572746564206174206578707238
:10A91000657373696F6E3A2025730000E440040884
:10A920002E2E5C6170705C4C56474C5C4755495C00
:10A930006C76676C5C7372635C6D6973635C6C7678
:10A940005F746C73662E63002DE9FC4106460C466D
:10A9500015460027002C1CD000BF002D0CD10EA0E6
:10A9600015A11C4B40F21232CDE900101AA10320B0
:10A97000FDF784FB00BFFEE700BF2A4621463046B4
:10A9800000F07CF92046FFF772FE204600F072F9D5
:10A9900007463846BDE8FC8173697A652026262083
:10A9A0002273697A65206D757374206265206E6FFD
:10A9B0006E2D7A65726F22004173736572746564DF
:10A9C0002061742065787072657373696F6E3A20C8
:10A9D00025730000B44104082E2E5C6170705C4C3D
:10A9E00056474C5C4755495C6C76676C5C73726388
:10A9F0005C6D6973635C6C765F746C73662E630068
:10AA00001CB5044600BF2046FFF7ADFD00280CD161
:10AA100007A016A11C4B40F2C112CDE900101BA1EA
:10AA20000320FDF72BFB00BFFEE700BF20681CBD25
:10AA3000626C6F636B5F69735F707265765F66727D
:10AA4000656528626C6F636B292026262022707250
:10AA50006576696F757320626C6F636B206D7573BB
:10AA6000742062652066726565220000417373651B
:10AA7000727465642061742065787072657373699F
:10AA80006F6E3A2025730000D94004082E2E5C61B9
:10AA900070705C4C56474C5C4755495C6C76676CF3
:10AAA0005C7372635C6D6973635C6C765F746C730A
:10AAB000662E63007CB505460C46204600F026F85D
:10AAC00006466A4601A92BF03BFE21462846DDE9F1
:10AAD00000322DF02BF87CBD416841F0010141604E
:10AAE0007047416841F0020141607047416821F0C0
:10AAF000020141607047426802F003030B43436068
:10AB00007047416821F00101416070470146486883
:10AB100020F00300704700002DE9FC4706460C4674
:10AB2000304600F0A7F88046211F2CF0F9F80746C0
:10AB30003046FFF7EBFF211D451A00BF384600F0F5
:10AB400099F88146384600F095F880460421FEF7D2
:10AB5000F9FF81450CD0234823A12A4B40F29622CD
:10AB6000CDE9001028A10320FDF788FA00BFFEE719
:10AB700000BF00BF3046FFF7C9FF2919091D8842F1
:10AB80000CD02BA018A11F4B40F29922CDE9001048
:10AB90001DA10320FDF772FA00BFFEE700BF2946A2
:10ABA0003846FFF7A8FF00BF3846FFF7AFFF0C2875
:10ABB0000CD22F480CA1134B40F29B22CDE9001080
:10ABC00011A10320FDF75AFA00BFFEE700BF21469E
:10ABD0003046FFF790FF3846FFF73CFD3846BDE8AA
:10ABE000FC87000008500408417373657274656443
:10ABF0002061742065787072657373696F6E3A2096
:10AC000025730000474104082E2E5C6170705C4C77
:10AC100056474C5C4755495C6C76676C5C73726355
:10AC20005C6D6973635C6C765F746C73662E630035
:10AC3000626C6F636B5F73697A6528626C6F636BBC
:10AC400029203D3D2072656D61696E5F73697A658B
:10AC5000202B2073697A65202B20626C6F636B5FF9
:10AC60006865616465725F6F7665726865616400CE
:10AC7000744F0408014601F1080070472DE9FC41BA
:10AC800006460C46154600BF2046FFF75DFC00282F
:10AC90000CD112A01DA1244B40F2CD22CDE9001011
:10ACA00022A10320FDF7EAF900BFFEE700BF294615
:10ACB0002046FFF725FC78B129462046FFF72CFFF8
:10ACC00007462046FFF754FC3846FFF70AFF39468F
:10ACD0003046FFF727FC00BFBDE8FC81626C6F6364
:10ACE0006B5F69735F6672656528626C6F636B2961
:10ACF0002026262022626C6F636B206D7573742092
:10AD0000626520667265652200000000417373650C
:10AD100072746564206174206578707265737369FC
:10AD20006F6E3A2025730000824104082E2E5C616C
:10AD300070705C4C56474C5C4755495C6C76676C50
:10AD40005C7372635C6D6973635C6C765F746C7367
:10AD5000662E63002DE9FC4106460C46154600BFF1
:10AD60002046FFF7F1FB00280CD013A01EA1254BB5
:10AD700040F2D922CDE9001023A10320FDF77EF98E
:10AD800000BFFEE700BF29462046FFF7B9FB88B1A8
:10AD900029462046FFF7C0FE07463846FFF7A6FEC5
:10ADA00039463046FFF770FC074639463046FFF714
:10ADB000B9FB00BFBDE8FC8121626C6F636B5F690A
:10ADC000735F6672656528626C6F636B2920262647
:10ADD0002022626C6F636B206D7573742062652036
:10ADE0007573656422000000417373657274656455
:10ADF0002061742065787072657373696F6E3A2094
:10AE000025730000924104082E2E5C6170705C4C2A
:10AE100056474C5C4755495C6C76676C5C73726353
:10AE20005C6D6973635C6C765F746C73662E630033
:10AE30002DE9FF4FADF51F7D82469346002012900D
:10AE40004FF4A0702BF072F98046B8F1000F02D1D8
:10AE50005EA0FBF763FB4227442101A8F5F70AFA3D
:10AE60002820CDF81200A298CDF81600AC98CDF8A5
:10AE70001A000121ADF81E101021ADF82010032199
:10AE8000CDF82210DDF81A10DDF816205143BDF878
:10AE9000202001FB02F0C11700EB5171CA10CDF860
:10AEA000262044F64250ADF80400DDF82600384470
:10AEB000CDF80600CDF80E704FF47840CDF83A008A
:10AEC0004FF4FC61CDF83E101F21CDF84210AD9833
:10AED00008B1042C05D10622514613A80BF006F93F
:10AEE0000446DDF816104800C11700EB9171891077
:10AEF000A0EB810161B1DDF816104800C11700EB2D
:10AF000091718910491C4FF6FF7202EA810605E033
:10AF1000DDF816004FF6FF7101EA4006002C4BD118
:10AF200030A0FBF7FBFA12AB3A4601A913A80BF0CD
:10AF3000E4FB04462F48F6F71BF9AC985844401E32
:10AF40001FFA80F92DE00025A098009014E0DDF8AC
:10AF50001600A84206DD4946009811F0DBF828F8F3
:10AF6000150003E04FF6FF7028F81500681C85B245
:10AF70000098401C80B2009006EBD671B5EB610FD3
:10AF8000E5D1DDF81A00401ECDF81A0012AB3246AA
:10AF9000414613A80BF0B1FB0446A9F101001FFACA
:10AFA00080F9DDF81A000028CDD113A80AF0ECFED4
:10AFB00011A0FBF7B3FA03E0214613A0FBF7AEFAAA
:10AFC00020460DF5237DBDE8F08F0000493A64610D
:10AFD0007461627566C4DAB4E6C9EAC7EBCAA7B0A1
:10AFE000DC210A00493ACEC4BCFEB4B4BDA8B3C942
:10AFF000B9A60A0050040020493ACEC4BCFEB1A351
:10B00000B4E6CDEAB3C90A00493ACEC4BCFEB4B432
:10B01000BDA8CAA7B0DC2C25640A000070B505469F
:10B0200026F090FE044621F01DF900200149087029
:10B0300070BD00000002002010B5044601A02DF0F4
:10B04000CBFB10BD2F0000002DE9F8430646344627
:10B050001CF06AFE804640461CF0ABFE78BB3046D2
:10B0600019F080FA38B3304619F0B7F8208FE18E26
:10B07000884212D0E08E2087E08E00906A461C2124
:10B08000304619F073FE0746012F02D03846BDE85E
:10B09000F883304624F04BF900BF40461CF099FE7F
:10B0A0000546042D06D1304621F096FF07460021C3
:10B0B0001BF0B3F809E0304619F0B6FA05E0FFE7F7
:10B0C000208FE086304624F032F90120DFE72DE9B9
:10B0D000F0410446204619F042FE0546284621F07C
:10B0E000D5FF0646284613F0C3FC07460122394621
:10B0F000304628F0EFFDBDE8F0810146C1F3C010F5
:10B1000070470146C1F3801070470146C1F3C0107B
:10B1100070470146C1F3002070470146C1F3C000EB
:10B1200070470146C1F3401070470146C1F340200B
:10B1300070470146C1F3003070470146C1F300106B
:10B14000704700002DE9F04F89B004460D460021FC
:10B15000204621F010FE30B91C2128461FF0BFFC0C
:10B1600009B0BDE8F08F2946204600F00BFB2946C8
:10B17000204600F07DF80021204623F055F8089085
:10B180000021204623F0D6F907900021204622F026
:10B190000BFE012800D100E000208146002120465E
:10B1A00023F08AFC07460021204622F0EBFE0646EB
:10B1B00042F2D170874205D1608CC0F3802008B97B
:10B1C000012000E000208246204621F074FE069017
:10B1D00000BF4FF00008244802884146204623F073
:10B1E00079FA03900398C0B200BF8346AA68296920
:10B1F0002868CDE90209CDE900125A465146089B5C
:10B2000006980EF0C1FA288342F2D170864205D129
:10B21000608CC0F3402008B9012000E000200590B8
:10B22000204621F029FE049000BF4FF000080F488F
:10B2300002884146204623F04DFA03900398C0B29D
:10B2400000BF83460023EA6869686869CDE9021394
:10B25000CDE900025A46079BDDE904010EF094FA9D
:10B26000688300BF7CE700006202002066020020C5
:10B270002DE9F34F87B00C4607980DF05FF9804633
:10B28000079821F018FE0690404601F016FB206159
:10B29000216948001FF092F82060216948001FF0E2
:10B2A0008DF8A060002548E05848029038F9150054
:10B2B00041F69A7188423FD10020019029E001991E
:10B2C000079821F058FD00905149009823F09DFC0B
:10B2D00000B11BE000980DF04FF98246BAF1010F62
:10B2E00000D013E000980DF037F98346AB4500D04D
:10B2F0000CE0009823F021FC0299884201DA0298C0
:10B3000002E0009823F019FC029000BF0198401C55
:10B310000190079821F04DFD01998842CFD80298FD
:10B32000002804DB0298A16821F8150003E0002141
:10B33000A06820F8151000BF6D1C2069A842B3D882
:10B340000026B14600251BE038F9150041F69B7137
:10B35000884202DB411A0E4411E041F69A7188429C
:10B3600006D1A16831F8151049440FFA81F906E0B9
:10B37000A16821F8150009EB00010FFA81F96D1C95
:10B380002069A842E0D80021079822F04DFF0590DF
:10B390002169491EDDE9050200FB112000B206907B
:10B3A0000698A0EB090007B2002F00DA00274FF043
:10B3B000FF30049000200390002513E038F91500B9
:10B3C00041F69B7188420CDB421A11B207FB01F275
:10B3D000B2FBF6F212B2A36823F81520049503918C
:10B3E00000BF6D1C2069A842E8D8049800280ADB39
:10B3F0000398301A7843B0FBF6F0381A01B2A2680D
:10B40000049822F8101009B0BDE8F08F01E0FFFFAA
:10B41000010006002DE9FC5F054600221146284682
:10B4200025F04AF80021284622F025FD814600211A
:10B43000284623F0A6F8484407B20021284622F007
:10B4400057FE48440FFA80FA284622F013FC38448D
:10B4500050440FFA80FB3B4E284621F0AAFC019095
:10B460004FF000085CE0A868006850F828403649B2
:10B47000204623F0CAFB00B150E0204623F0D4FF61
:10B48000002839D10021204622F026FC00900098A7
:10B4900030B1012807D0022804D0032815D100E0DC
:10B4A00000BF00BF00BFB4F91A10B5F91600081AA2
:10B4B000401CB04201DA304605E0B4F91A10B5F983
:10B4C0001600081A401C06B214E00021204623F0A2
:10B4D00027FB70B904F1140012F017FB3844B04296
:10B4E00001DA304604E004F1140012F00EFB384497
:10B4F00006B200BF00BF10E0B4F91A10B5F916008B
:10B50000081A401CB04201DA304605E0B4F91A10BE
:10B51000B5F91600081A401C06B200BF08F1010870
:10B52000019880459FD30748864209D006EB0A0060
:10B5300006B25E4502DD3046BDE8FC9F5846FBE79B
:10B540005846F9E701E0FFFF010004002DE9FC5F28
:10B55000054600221146284624F092FF0021284685
:10B5600022F089FC82460021284622F047FF504401
:10B570000FFA80F80021284622F097FE50440FFA77
:10B5800080F9284622F086FB4844404400B20190EE
:10B59000724C284621F00DFC83460021284622F0FB
:10B5A000DCFB012866D100265BE0A868006850F843
:10B5B00026706B49384623F028FB00B150E038462E
:10B5C00023F032FF002839D10021384622F084FBD5
:10B5D0000090009830B1032805D0062804D0082830
:10B5E00015D102E000BF00BF00BFB5F91800B7F9E0
:10B5F0001410401A401CA04201DA204605E0B5F9BB
:10B600001800B7F91410401A401C04B214E00021CD
:10B61000384623F078FA70B907F1140012F0E8FA0E
:10B620004044A04201DA204604E007F1140012F081
:10B63000DFFA404404B200BF00BF10E0B5F91800C3
:10B64000B7F91410401A401CA04201DA204605E068
:10B65000B5F91800B7F91410401A401C04B200BF25
:10B66000761C5E45A1D33D48844269D004EB0900B5
:10B6700004B265E000265BE0A868006850F8267018
:10B680003749384623F0C1FA00B150E0384623F07C
:10B69000CBFE80BB0021384622F01EFB00900098B4
:10B6A00030B1012805D0042804D0072815D102E0C4
:10B6B00000BF00BF00BFB7F91800B5F91410401A59
:10B6C000401CA04201DA204605E0B7F91800B5F9A0
:10B6D0001410401A401C04B215E00021384623F033
:10B6E0001FFA78B907F1140012F082FA4844A04218
:10B6F00002DA204605E008E007F1140012F078FABB
:10B70000484404B200BF00BF10E0B7F91800B5F913
:10B710001410401A401CA04201DA204605E0B7F997
:10B720001800B5F91410401A401C04B200BF761C72
:10B730005E45A1D30948844202D004EB080004B25C
:10B740000648844202D10198BDE8FC9F01988442DA
:10B7500001DD2046F8E70198F6E7000001E0FFFF71
:10B760000100040010B5044620681EF027FF606841
:10B770001EF024FFA0681EF021FFE0681EF01EFFEF
:10B7800010BD00002DE9F34F87B00C4607980DF06F
:10B7900009FE8046404601F090F86061616948000A
:10B7A0001EF00CFE6060616948001EF007FEE0605C
:10B7B000002548E05948029038F9150041F69A7181
:10B7C00088423FD10020019029E00199079821F09B
:10B7D000D2FA00905249009823F017FA00B11BE00A
:10B7E00000980DF0A7FE8246BAF1010F00D013E0D9
:10B7F00000980DF08FFE8346AB4500D00CE000981A
:10B8000021F0F4FB0299884201DA029802E00098E4
:10B8100021F0ECFB029000BF0198401C01900798BA
:10B8200021F0C7FA01998842CFD80298002804DB9A
:10B830000298E16821F8150003E00020E16821F892
:10B84000150000BF6D1C6069A842B3D80026B14640
:10B8500000251BE038F9150041F69B71884202DB98
:10B86000411A0E4411E041F69A71884206D1E1680E
:10B8700031F8151049440FFA81F906E0E16821F822
:10B88000150009EB00010FFA81F96D1C6069A842EF
:10B89000E0D80021079822F04DFE0690079821F08D
:10B8A000EBFA01466269521E069800FB121000B2C4
:10B8B00005900598A0EB090007B2002F00DA0027D9
:10B8C0004FF0FF30049000200390002511E038F97C
:10B8D000150041F69B7188420ADB421A11B207FB40
:10B8E00001F2B2FBF6F212B2E36823F8152000BFB2
:10B8F0006D1C6069A842EAD8049800280ADB039806
:10B90000301A7843B0FBF6F0381A01B2E2680498B6
:10B9100022F8101009B0BDE8F08F000001E0FFFF31
:10B92000010006007CB504460D46164600BF00BF68
:10B9300028882189084400B2ADF800006888618930
:10B94000084400B2ADF80200A8882189084400B27A
:10B95000ADF80400E8886189084400B2ADF806003B
:10B96000324669462046636998477CBD30B5ADF5DF
:10B97000197D054606E0214618A0FAF7CFFD0DF522
:10B98000197D30BD1DA18DA80AF0C8FC041EF2D19E
:10B990001BE01B4802881BA12846FAF7CFFD0122B5
:10B9A000294601A80AF0A2FB044644B914480088BD
:10B9B000401C1349088001A80AF0E6F905E0042CB0
:10B9C00000D1DCE712A0FAF7A9FD0D4800884FF678
:10B9D000FF718842DDDB00BFD1E70000493AB4F2D5
:10B9E000BFAAB8F9C4BFC2BCCAA7B0DCA3ACB4ED4F
:10B9F000CEF3C2EBA3BA25640A0000002F000000BA
:10BA000002020020504943253034642E626D7000DC
:10BA1000453ACEC4BCFEC3FBC9FAB3C9CAA7B0DC61
:10BA20000A000000F8B505460E462C46206B10B102
:10BA3000206B007818B9606B08B90120F8BD606B05
:10BA400058B1284628F031FE074610490968884752
:10BA5000616B884201D30020F0E7206B98B1002091
:10BA600000900AE069460A4A206B12689047074630
:10BA7000B74201D10120E1E700BF206B0099405C93
:10BA80000028EFD1DAE70120D8E70000EC0300201E
:10BA9000DC03002070B504460D460020E070401E17
:10BAA000E062294620462AF045FF08B1042070BD17
:10BAB00004F22E2010F049FE4AF65521884201D0AA
:10BAC0000320F4E794F83000E92807D094F8300018
:10BAD000EB2817D13220005D902813D104F16600C5
:10BAE00010F027FE20F07F400749884201D1002056
:10BAF000DDE704F1820010F01CFE0449884201D108
:10BB00000020D4E70220D2E7464154004641543396
:10BB10002DE9FF4F8FB00F46209DF87800F001000F
:10BB200008B1FA4800E0FA480E90F87800F00100F9
:10BB300008B1F84800E0F8480D90F87800F00100EE
:10BB400008B9F44800E0F4480C9001200B90B5E0EF
:10BB500000220B9200206A88B5F804C0A2EB0C0208
:10BB600011B200261AE006EB860CEA6802EB8C02A2
:10BB7000127C02F0010242B906EB860CEA6802EB85
:10BB80008C029289024410B207E006EB860CEA6848
:10BB900002EB8C0212898A1A11B2761C2A69B2420F
:10BBA000E1D8002685E006EB860CEA6802EB8C0201
:10BBB000127C02F00102002A7AD191FBF0F80FFA10
:10BBC00088F306EB8609D5F80C8008EB8908B8F8ED
:10BBD0000C8008FB03F80FFA88F206EB8609D5F80B
:10BBE0000C8008EB8908B8F9049006EB860AD5F8B2
:10BBF0000C8008EB8A08B8F90680904501DD904674
:10BC000007E006EB860AD5F80C8008EB8A08B8F93D
:10BC10000680C14508DD06EB8609D5F80C8008EBE7
:10BC20008908B8F9048013E006EB8609D5F80C8082
:10BC300008EB8908B8F90680904501DD904607E0D9
:10BC400006EB8609D5F80C8008EB8908B8F9068060
:10BC5000C44694450BD04FF0010806EB860AD5F890
:10BC60000C9009EB8A09C9F81080CDF82C8006EBFE
:10BC70008609D5F80C8008EB8908A8F808C006EBFF
:10BC80008609D5F80C8008EB8908B8F80C80A0EB81
:10BC900008080FFA88F006EB8609D5F80C8008EB47
:10BCA0008908B8F80880A1EB08080FFA88F100BFEE
:10BCB000761C2A69B2423FF676AF00BF0B98002887
:10BCC0007FF446AF00210F9822F061F8012800D1DF
:10BCD00000E000200A9000200990089008A809A917
:10BCE000CDE9001029890BB2B5F9022038781E99E8
:10BCF0002BF030F8F87800F0010048B10A9838B11C
:10BD00000F9821F0D8F8BDF82410084400B209902B
:10BD100011990F9821F02FF804468AE17F492046B7
:10BD200022F073FF40B1F878C0F3800111AA0F9898
:10BD30000DF073F904467CE10021204622F0F8F86A
:10BD400007900798002858D000200390002610E0A4
:10BD500006EB8601E86850F82100A04208D106EB06
:10BD60008600E96801EB8000B0F90800039003E069
:10BD7000761C2869B042EBD800BFF87800F00100CB
:10BD800030B1608C20F4806000F58060608405E054
:10BD9000608C20F4007000F50070608404F11400E1
:10BDA0000D9988470399884226D0204623F0BFFA90
:10BDB00000BFA08AADF80400E08AADF80600208B31
:10BDC000ADF80800608BADF80A0000BF04F1140064
:10BDD0000E9A0399904701AA2921204618F0C6FF20
:10BDE000204621F053F922462221009018F0BEFF90
:10BDF000204623F09CFA00BF07E0608C20F48060AE
:10BE00006084608C20F40070608400200690787854
:10BE1000012812D0022819D104F114000C99884786
:10BE2000B5F90010491C21F00101081A039000EB3C
:10BE3000D070401000B2069009E004F114000C9993
:10BE400088472988081A00B2069000E000BF00BFAA
:10BE5000F87800F0010050B10A9840B104F11400E4
:10BE60000D998847BDF82410081A00B209900020E7
:10BE7000039043F20C022046039922F02BFC02901F
:10BE800002980FFA80F800BF0020039043F20D02E1
:10BE90002046039922F01EFC029002980FFA80F9C6
:10BEA00000BF204622F049FE0590204621F09EF872
:10BEB000049008F4C040B0F5005F01D1012000E01B
:10BEC000002030B128F4C040B0F5FA6F01DC012049
:10BED00000E0002090B128F4C040B0F57A7F04DD86
:10BEE00028F4C040C0F57A7001E028F4C0400599FC
:10BEF0004843642190FBF1F00FFA80F809F4C04048
:10BF0000B0F5005F0CD101200BE000002FDD01082F
:10BF100023DD01086FDC01085FDB0108010006007A
:10BF2000002030B129F4C040B0F5FA6F01DC0120E7
:10BF300000E0002090B129F4C040B0F57A7F04DD24
:10BF400029F4C040C0F57A7001E029F4C04004999A
:10BF50004843642190FBF1F00FFA80F9A18A1C9804
:10BF6000401A40440FFA80FAE18A1D98401A48446A
:10BF70000FFA80FBF87800F0010010B1BDF9240041
:10BF800000E0069850440FFA80FAF87800F00100BB
:10BF900008B1069801E0BDF9240058440FFA80FB6F
:10BFA000BAF1000F02D1BBF1000F1BD0204623F0E5
:10BFB000BEF9A08A504400B2A082208B504401B246
:10BFC0002183E08A584401B2E182608B584401B277
:10BFD0006183204623F0ABF901235A46514620469F
:10BFE00023F082FAF87800F0010008B10A9870B9DD
:10BFF00004F114000D9988471F990844BDF82010DA
:10C000000844BDF82410084400B2099008E0BDF8C7
:10C0100020101F980844BDF82410081A00B2099097
:10C02000F878C0F3800111AA0F980CF0F6FF0446CF
:10C0300000BF24B1DDE9111081427FF46FAE13B06F
:10C04000BDE8F08F024600E0521C107810B1107865
:10C050008842F9D11078704730B502460B4600206F
:10C06000044601461CE01A4800EB01100068A8B124
:10C07000174800EB011000681568A8420FD114485A
:10C0800000EB011040689568A84208D1104800EB09
:10C09000011080685569A84201D103E00124491CC0
:10C0A0000229E0D300BF022906D10CB9022B01D12D
:10C0B000002030BD1220FCE733B9054800EB011029
:10C0C0008089B0F5807F01D11020F2E70020F0E7F1
:10C0D0006CE600202DE9F04F8FB005468946B9F196
:10C0E000000F02D10FB0BDE8F08FA5F818902868B6
:10C0F00010B128681EF0A6FA09EB4901062202EBEE
:10C1000041001EF0BDF8286000BF286800280ED14D
:10C11000CEA0D2A1D5A2DD4BCDE9002102904FF4F3
:10C12000AC62DBA10320FBF7A9FF00BFFEE700BF65
:10C13000286868600221286801FB0900801CE8600B
:10C140000421286801FB0900001DA860B9F1010F56
:10C150000CD1B420696808700020E96808800120CB
:10C16000E96848800020A9680880BBE709F101015F
:10C17000C8001EF023F9074609F1010007EB80080B
:10C180004FF0000A4FEA890002B20DA90EA800F094
:10C19000A2F90024BDF93800801009900020059014
:10C1A000CCE0002616E00DA90EA800F09CF90EA820
:10C1B00000F086F900B90FE0BDF93800801009A938
:10C1C00041F82600BDF8380000F0030005A941F849
:10C1D0002600761C042EE6DB00BF042E00D0B3E060
:10C1E0000C990998884219D1099800B227F81400CF
:10C1F0000FFA8AF028F81400DDE9050108440799D0
:10C20000084408990844696808556868005D000793
:10C21000000E69680855601C04B28DE0DDE9090173
:10C2200088422CD0099800B227F814000FFA8AF03F
:10C2300028F814000598696808556868005D0007CB
:10C24000000E69680855601C04B20998401E00B2CF
:10C2500027F814000FFA8AF028F814000698001D39
:10C260000799084408990844696808556868005D9A
:10C270000007000E69680855601C04B25CE00B9969
:10C28000099888422CD0099800B227F814000FFAB8
:10C290008AF028F81400DDE90501084469680855AA
:10C2A0006868005D0007000E69680855601C04B2EC
:10C2B0000998401E00B227F814000FFA8AF028F8F7
:10C2C0001400079808300899084469680855686898
:10C2D000005D0007000E69680855601C04B22BE081
:10C2E000099800B227F814000FFA8AF028F8140011
:10C2F000DDE905010844079908446968085568683C
:10C30000005D0007000E69680855601C04B20998BA
:10C31000401E00B227F814000FFA8AF028F8140023
:10C3200008980C30696808556868005D0007000EC1
:10C3300069680855601C04B20AF1010A0EA800F0F1
:10C34000BFF800287FF42DAF00BF40F2D32109FBD6
:10C3500001F00490049880120390601E37F91010C9
:10C360000398814205D1601E38F91010039881426C
:10C3700026D0DDE90321A1EB8220B0F5007F04DCAB
:10C3800000FB00F14800001407E0C0F5806000FBEE
:10C3900000F148000014C0F10F00039909B227F81A
:10C3A0001410039909B228F814106A6810556968C6
:10C3B000095D0907090E6A681155611C0CB200BFBE
:10C3C000A61E0EE038F8160027F8140037F81600FD
:10C3D00028F814006868805D69680855761E601C3E
:10C3E00004B2002EEEDA4FF0000B00260020E968C0
:10C3F000088023E0E96821F81B6037F81600A96877
:10C4000021F81B0010E0A86830F81B0037F916105F
:10C41000884203DAA86830F81B0001E037F91600FB
:10C42000A96821F81B00761C38F91600584501D17F
:10C43000A642E8DB0BF101000FFA80FBA642D9DB34
:10C4400038461EF0BBF800BF4CE600004F75742064
:10C450006F66206D656D6F7279000000632D3E621E
:10C46000756620213D204E554C4C0000417373658C
:10C470007274656420617420657870726573736985
:10C480006F6E3A202573202825732900E0FC0308ED
:10C490002E2E5C6170705C4C56474C5C4755495C75
:10C4A0006C76676C5C7372635C647261775C6C76EB
:10C4B0005F647261775F6D61736B2E6300000000D3
:10C4C0000146B1F90200B1F90020904201DC0120DF
:10C4D00070470020FCE7028000234380C2F1010383
:10C4E0001BB20B807047B1F90020002A07DC0B88D3
:10C4F00042885200D21C1A4412B20A800CE04288D0
:10C500000388D21A5200521D0B881A4412B20A80B4
:10C510000288521E12B202804288521C12B242801D
:10C5200070470000014600200BE0074A02EB0012B2
:10C5300012688A4204D10022034B03EB00131A60F5
:10C54000401C0228F1D370476CE60020F0B503468A
:10C550000D461E68D86A021D680A7789B0FBF7F499
:10C5600000BF02CA09B90020F0BD8C4200D202E02F
:10C57000641A121DF5E700BF10682044F4E7024674
:10C58000891E5069801E884201D800207047538957
:10C59000906A01FB0300F9E737B582B01546022D1A
:10C5A00004DCBDF80C10084605B030BDBDF80C0029
:10C5B000C00ABDF8081000EBD1241F2C01D2204680
:10C5C00000E01F20BDF8081060F3CF210291BDF8F4
:10C5D0000C00C0F34510BDF80810C1F34511441814
:10C5E0003F2C01D2204600E03F20BDF8081060F348
:10C5F0004A110291BDF80C0000F01F00BDF80810B0
:10C6000001F01F0144181F2C01D2204600E01F201A
:10C61000BDF8081060F304010291FF2D03D1BDF8AD
:10C6200008100846C0E72A46DDE9020113F0A6FC1F
:10C630000190BDF804100846B6E717B581B014465E
:10C64000022C04DCBDF80810084604B010BDBDF88B
:10C650000400C00ABDF80810C90A10FB01F0410926
:10C66000BDF8040061F3CF200190BDF8040000F094
:10C670001F00BDF8081001F01F0110FB01F0410977
:10C68000BDF8040061F304000190BDF80400C0F39C
:10C690004510BDF80810C1F3451110FB01F08109E8
:10C6A000BDF8040061F34A100190FF2C03D1BDF8DE
:10C6B00004100846C9E72246DDE9010113F05EFCDB
:10C6C0000090BDF800100846BFE737B582B01546A8
:10C6D000022D04DCBDF80C10084605B030BDBDF8D5
:10C6E0000C00C00ABDF80810A0EBD124002C01DD1D
:10C6F000204600E00020BDF8081060F3CF21029131
:10C70000BDF80C00C0F34510BDF80810C1F3451189
:10C71000441A002C01DD204600E00020BDF808107E
:10C7200060F34A110291BDF80C0000F01F00BDF843
:10C73000081001F01F01441A002C01DD204600E022
:10C740000020BDF8081060F304010291FF2D03D111
:10C75000BDF808100846C0E72A46DDE9020113F0DB
:10C760000DFC0190BDF804100846B6E708B5034675
:10C7700000930098484080EA620008BD2DE9F84F18
:10C780008046404618F0EBFA8246404618F01EFA02
:10C790000646504620F07AFC81462B2E09D14846A9
:10C7A00027F08BFA044600222146484627F092FAE9
:10C7B0003AE00A2E38D16946504620F0E9FC50464E
:10C7C00020F079FB04460021484621F0FAFA0128BE
:10C7D0000AD1204604EBD071BDF90020C2EB610103
:10C7E00091FBF4F10DB209E0204604EBD071BDF9E4
:10C7F000002002EB610191FBF4F10DB2002D00DA93
:10C8000000250027484627F058FAA84200D0012703
:10C8100001222946484627F05DFA27B100221C2153
:10C82000484618F0A3FA00BFBDE8F88F10B5806045
:10C83000C06000230361002110E0002400F1140314
:10C8400043F82140002206E000F13C0303EBC11352
:10C8500043F82200521C202AF6DB491C0A29ECDB93
:10C8600010BD000070B505462E212846F3F72BFDBC
:10C8700004468CB12046F3F708FD04280CD307A129
:10C880002046F3F72BFD38B9622060706D20A07050
:10C890007020E0700020207170BD00002E424D50CD
:10C8A000000000000146002004E001F00102024403
:10C8B000D0B249100029F8D170470146002000E0AD
:10C8C000401C31F9102041F6FF739A42F8D17047AD
:10C8D0002DE9F04782468946DAF80040B9F1000FA9
:10C8E00006D1E76817B16069B84215D8012713E08F
:10C8F000494650460BF076FE0646022E02D2012033
:10C90000BDE8F087701C08B93046F9E76069B042AD
:10C9100001D93046F4E74F463D4600BF6D1C6069C3
:10C92000A84204D80225BD4201D90020E8E72946E3
:10C9300050460BF057FE064606B909E0012E01D01D
:10C94000701C08B93046DBE7BD42E7D10020D7E7CD
:10C9500000BF4FF0FF32294620462AF003FC8046F4
:10C96000B8F1000F08D1B9F1000F05D02A464946A9
:10C9700020462AF0F7FB8046B8F1000F0DD1E560A4
:10C98000D4E90410801E814202D82069401E206133
:10C99000207940F00100207107E0B8F1010F02D1C9
:10C9A0004FF0FF3000E0012005462846A8E70000D0
:10C9B0002DE9F05F82468846D8F800700AF1240518
:10C9C0000B222021284629F021FF0020814606461F
:10C9D0004FF0080B00BF3046761C3C5C202C00DC7E
:10C9E00036E02F2C01D05C2C08D100E0761CB85D1D
:10C9F0002F28FBD0B85D5C28F8D029E02E2C01D080
:10CA0000D9450CD3BBF10B0F01D02E2C02D0062040
:10CA1000BDE8F09F4FF008094FF00B0BDBE7802CCF
:10CA200003DBA4F1800015490C5C214614A0FFF73C
:10CA300009FB08B10620EBE7612C04DB7A2C02DC51
:10CA4000A4F12000C4B2484609F101092C54C2E700
:10CA500000BFB819C8F80000B9F1000F01D10620D5
:10CA6000D6E72878E52801D105202870202C01DCA4
:10CA7000042000E00020E8720020C9E78447040891
:10CA8000222A2B2C3A3B3C3D3E3F5B5D7C7F0000E5
:10CA90007CB506460D4634465020005D00F001008E
:10CAA000A84233D00DB1012000E000205021095DE3
:10CAB00060F300015020015504F14401684611F073
:10CAC00014F8BDF80000616A898A084400B2ADF824
:10CAD0000000BDF80210606AC08A084400B2ADF8D8
:10CAE0000200BDF80400616A898A084400B2ADF80A
:10CAF0000400BDF80610606AC08A084400B2ADF8B0
:10CB000006006946304622F04CFC00BF7CBD37B5BC
:10CB100082B0054614462146039813F0B9F80190F7
:10CB2000BDF80410084605B030BD000010B502463F
:10CB3000531E1A46022B17D20C4B03EB0213998992
:10CB4000B1F5807F00D10021002901DD4B1E99B293
:10CB5000064B03EB0213998121B90023034C04EB2C
:10CB600002142360002000E0022010BD6CE60020CB
:10CB70002DE9FF4F8DB005460E461446F07A022887
:10CB800003DC012011B0BDE8F08F30893269014625
:10CB90000C901098FAF710FE07460FB90020F1E745
:10CBA000397D01F01F0019F014FD10B14FF0060897
:10CBB0000AE0397D01F01F0019F0EEFC10B14FF0D2
:10CBC000050801E04FF00408386A68B17CA0814B89
:10CBD000F62281A100900220FBF750FA2146284658
:10CBE0003A6A2BF0A1FEE5E0B869002859D0214649
:10CBF0000BA810F044FF308818B97088B0F5807F1A
:10CC000032D0204611F01EF8834600BFE0886188CC
:10CC1000401A401C00B20890301D7188CDE9001008
:10CC2000308803B259460BA8089AFAF7EFF8BDF816
:10CC30002C002188084400B2ADF82C00BDF82E006D
:10CC40006188084400B2ADF82E00BDF8300021889C
:10CC5000084400B2ADF83000BDF8320061880844E5
:10CC600000B2ADF8320000BF0BAA09A8A968F9F715
:10CC7000A7FD8146B9F1000F04D1384602F053F800
:10CC800001207FE7D5F808A009A8A860CDF80080AA
:10CC9000224631462846BB6914F0E4FBC5F808A0DB
:10CCA00088E022460BA8A968F9F78AFD0A900A983D
:10CCB00020B9384602F037F8012063E70BA810F0DE
:10CCC000C1FF09900BA810F0BDFF00EB40000390DE
:10CCD0001DF074FB8146D5F808A00BA907A810F039
:10CCE000CEFE012107A811F01CF8BDF92C00B4F903
:10CCF0000010401A0690BDF92E00B4F90210A0EB06
:10CD0000010BBDF92E00059049E007AA514602A883
:10CD1000F9F756FD0A900A9800B93DE0CDF8009069
:10CD2000099803B20FFA8BF2069801B238461AF04E
:10CD3000EFFB04900498012815D038461AF064FAE5
:10CD400030A0244B40F2391223A100900220FBF7BF
:10CD500095F948461DF032FC384601F0E4FFC5F86D
:10CD600008A000200EE702A8A8604B4607AA31469B
:10CD70002846CDF8008014F075FBBDF81E00401C5D
:10CD800000B2ADF81E00BDF82200401C00B2ADF8A4
:10CD900022000BF1010B00BF0598401C0590BDF966
:10CDA000321005988142B0DAC5F808A048461DF057
:10CDB00005FC00BF384601F0B6FF0120E2E60000A6
:10CDC000496D6167652064726177206572726F7268
:10CDD0000000000080FC03082E2E5C6170705C4C2B
:10CDE00056474C5C4755495C6C76676C5C73726364
:10CDF0005C647261775C6C765F647261775F696DA9
:10CE0000672E6300496D61676520647261772063F6
:10CE1000616E2774207265616420746865206C6996
:10CE20006E65000070B506460C46656A284618F027
:10CE300039FA606A1DF006FC70BD00002DE9F04F64
:10CE400091B083460D46144628461AF08BFE0646DE
:10CE5000012E39D12F463846F3F717FAC01E00EBE2
:10CE600007081CA14046F3F717FA60BB02222946C7
:10CE70000EA818F009FB8246BAF1000F03D000207B
:10CE800011B0BDE8F08F0023362269460EA818F0D5
:10CE9000F9FBDDF81280DDF81690206868F3942025
:10CEA0002060206869F35F502060206820F0E00077
:10CEB00020600EA818F0F6F9206820F01F00001D71
:10CEC00020600120DCE702E00EB90020D8E7002056
:10CED000D6E70000626D70002DE9F04399B08146FD
:10CEE0000C46207C012874D166683046F3F7CDF9F2
:10CEF000C01E00EB060841A14046F3F7CDF918B17A
:10CF0000002019B0BDE8F083202111A8F3F7B2F991
:10CF1000022211A8616818F0B7FA0546012D01D167
:10CF20000020EEE70023362203A911A818F0AAFB7F
:10CF30009DF80C00422803D19DF80D004D2804D027
:10CF400011A818F0AFF90020DBE7DDF81600149007
:10CF5000DDF81E001590DDF822001690BDF82800BF
:10CF6000ADF85C001599179848431F3040098000C0
:10CF70001890002700BF179810280BD020A11798F1
:10CF80002C4BA022CDE900102BA10220FBF776F854
:10CF9000012700E000BF37B134A0206211A818F0CB
:10CFA00081F90020ADE720201DF06AF9606200BF22
:10CFB000606A00280ED133A036A13CA21D4BCDE9FA
:10CFC00000210290AF221CA10320FBF757F800BFFD
:10CFD000FEE70DE000BF606A08B9002091E720225B
:10CFE00011A9606AF3F71FF90020A061012088E70A
:10CFF000207C08B9002084E7002082E7626D700081
:10D000004C565F434F4C4F525F4445505448203D6F
:10D010003D20313620627574206270702069732063
:10D020002564202873686F756C6420626520313632
:10D0300029000000604704082E2E5C6170705C4C73
:10D0400056474C5C4755495C6C76676C5C73726301
:10D050005C65787472615C6C6962735C626D705C53
:10D060006C765F626D702E6300000000436F6C6F22
:10D0700072206465707468206D69736D6174636893
:10D08000000000004F7574206F66206D656D6F7233
:10D09000790000006473632D3E757365725F64618F
:10D0A000746120213D204E554C4C00004173736546
:10D0B0007274656420617420657870726573736939
:10D0C0006F6E3A2025732028257329002DE9F05F23
:10D0D00083460E4617461D46DDE90A9A746AA08A01
:10D0E000401E401B05B2E169E06801FB0508A0692C
:10D0F000C00807FB008800224146204618F0E8FBE4
:10D10000A069C00800FB09F200235146204618F030
:10D11000B9FA0120BDE8F09F2DE9F04186B0044640
:10D120000D46164698462046FDF7F8F907460EB11B
:10D1300008A000E009A002A9A1C1019409A00F4B19
:10D1400040F27B320EA100900320FAF797FF06B061
:10D15000BDE8F08175736564000000006672656566
:10D16000000000000925702025732073697A653A54
:10D1700020257820282570290A000000E6410408AF
:10D180002E2E5C6170705C4C56474C5C4755495C78
:10D190006C76676C5C7372635C6D6973635C6C76F0
:10D1A0005F746C73662E63002DE9F04104460E46F1
:10D1B000D4F800800021204600F04AF90546EDB978
:10D1C000002700BF4046E16929F0B4FB054605B1E0
:10D1D00013E0206A0078E52802D0206A007820B9A0
:10D1E000781C0746B04201D107E000270121204604
:10D1F00000F040F80546002DE4D000BF042D00D11A
:10D2000007252846BDE8F0812DE9F041044627684E
:10D210000021204600F01CF9054615B12846BDE85E
:10D22000F08100BF3846E16929F084FB054605B16D
:10D230001DE0206A06780EB9042518E0206AC07A3D
:10D2400000F03F00A071206AC07A00F0080038B9F1
:10D250000B2204F12401206A29F0B9FA00B906E092
:10D260000021204600F006F80546002DDAD000BF68
:10D270002846D4E72DE9F0470446894625686069C9
:10D2800000F12007E06910B1B7F5001F02D30420B8
:10D29000BDE8F087C7F30800002868D1E069401CAA
:10D2A000E061A06938B92889B0EB571F5FD800202A
:10D2B000E0610420ECE76889401E00EA572000285E
:10D2C00055D12046A1690BF08DF90646012E01D8F3
:10D2D0000220DDE7701C08B90120D9E76869B04277
:10D2E0003FD8B9F1000F03D10020E0610420CFE75F
:10D2F0002046A169FFF7ECFA06460EB90720C7E7FA
:10D30000012E01D10220C3E7701C08B90120BFE73C
:10D3100028462DF0C3FA08B10120B9E74FF4007296
:10D32000002105F1300029F071FA4FF00008314674
:10D330002846FFF724F9E8620CE00120E87028464F
:10D340002DF0ACFA08B10120A2E708F10108E86A63
:10D35000401CE86268894045EFD8E86AA0EB080005
:10D36000E862A66131462846FFF709F9E061676186
:10D37000C7F3080105F1300008442062002087E768
:10D380002DE9F047044688460425D4F8009027E0AC
:10D390004846E16929F0CEFA054605B123E0206A46
:10D3A00006780EB904251EE0206AC07A00F03F0717
:10D3B000A771E52E0DD02E2E0BD00F2F09D027F000
:10D3C0002000082801D1012000E00020404500D1C4
:10D3D00009E000212046FFF74DFF054605B102E0B8
:10D3E000E0690028D4D100BF0DB10020E0612846DB
:10D3F000BDE8F08770B50446266801212046FFF796
:10D40000D3FE054695B93046E16929F093FA054601
:10D4100065B920220021206A29F0F8F90B2204F1D5
:10D420002401206A29F0E5F90120F070284670BD3A
:10D4300070B5044626683046E16929F07BFA054656
:10D4400025B9E520216A08700120F070284670BDDA
:10D450002DE9F04104460D462668B5F5001F02D2BD
:10D4600005F01F0010B10220BDE8F0816561A768DA
:10D470001FB93078032800DB776A47B93089B0EBF1
:10D48000551F01D80220EFE7706AE0611CE0708947
:10D490004FEA402811E0394620460BF0A3F8074632
:10D4A000781C08B90120DFE7022F02D37069B84267
:10D4B00001D80220D8E7A5EB08054545EBD239464F
:10D4C0003046FFF75CF8E061A761E06908B9022027
:10D4D000CAE7E06900EB5520E061C5F3080106F1F9
:10D4E0003000084420620020BEE7000070B504460A
:10D4F00000250848005D58B901200649085501F18A
:10D500000802105D0A1D52F824201168884705465C
:10D51000284670BD8CE600202DE9F04104460D46FA
:10D5200016460649085D091F51F8241032460B695A
:10D530002946984707463846BDE8F08194E6002022
:10D540002DE9F04104460D4616461F460749085D81
:10D55000091F51F824103B463246D1F808C029462D
:10D56000E04780464046BDE8F081000094E6002098
:10D5700070B50446044A105D121F52F82420516809
:10D5800088470546284670BD94E600202DE9F04105
:10D5900004460D4616461F460749085D091F51F807
:10D5A00024103B463246D1F80CC02946E04780465D
:10D5B0004046BDE8F081000094E60020F8B506463C
:10D5C0000C4615460095E788BBB2A788BAB26788B3
:10D5D000B9B22788B8B20EF073FA304613F0E6FA03
:10D5E000F8BD7047F8B505462C461AF09DFB064677
:10D5F000206B27F00DFB3168898B88422CD2606A42
:10D60000009094F83C0000F0030020B1012806D0FF
:10D6100002280CD107E00020ADF8000007E06420EC
:10D620008DF8020003E064208DF8030000BF00BF06
:10D6300030461AF04BFD2846009913F0C2F850B15D
:10D6400000221C21284617F091FB0746012F01D02C
:10D650003846F8BD00BF00BF27F0E8FA206301207C
:10D66000F7E700002DE9F04F9BB0074689461646C4
:10D67000BA4617A813F039FC4FF4A021384620F021
:10D6800043FB9DF8691060F382018DF86910304604
:10D6900010F0F4FA054600EBD5704FEA60083088C8
:10D6A000404400B2ADF858007088404400B2ADF874
:10D6B0005A000021384620F0DAFC1590494603A8AC
:10D6C0001FF00EF917A80B904FF40030109033485C
:10D6D0000490002005900AF13000FAF72DFC044672
:10D6E00057E02079032800D04DE0208BADF85C0096
:10D6F000208A00B2ADF85E006079FD2801DD159842
:10D7000003E060791599484300128DF86800256898
:10D71000B5F92000E98B08440090B5F92030D5E92F
:10D720000512A0681CF062FD8346B5F92000E98B64
:10D7300008440090B5F92030D5E90512E0681CF0E6
:10D7400055FD0290608B404400B2ADF8480014943F
:10D7500016A80C9003AA1A21384617F007FB029866
:10D7600080B21FFA8BF1CDE90010BDF8480083B2FA
:10D7700016AA17A9484613F09AFB03AA1B2138469C
:10D7800017F0F4FA00BF21460AF13000FAF7CEFB99
:10D790000446002CA5D11BB0BDE8F08FCC050408D1
:10D7A00070B504460D4600222946204607F04EFF7C
:10D7B00001222946204607F049FF02222946204639
:10D7C00007F062FD04222946204607F05DFD70BD8A
:10D7D0002DE9F74F9EB00C46E078022802DC21B01C
:10D7E000BDE8F08F1CA8209910F040F9B4F9200092
:10D7F00001282EDD94F82200FD282ADB208840B382
:10D80000BDF8700014F8231F4908C1F380010844D3
:10D8100000B2ADF87000BDF8720021784908C1F37C
:10D820004001084400B2ADF87200BDF874002178E0
:10D830004908C1F3C001401A00B2ADF87400BDF848
:10D84000760014F82319C1F34001401A00B2ADF874
:10D8500076001E981CA982681AA8F8F7B1FF00B9D3
:10D86000BDE7E07B00F0070616B9A088199001E03B
:10D87000E0881990BDF864106089814200D10026CB
:10D880001CA814F03DFE18901C2111A8F2F7F2FC20
:10D89000A0788DF85D00BDF86400ADF84C001898D4
:10D8A00060B9208850B94EB91CA81190E0788DF865
:10D8B0005C0011A91E9815F019FD90E7E078FD288D
:10D8C00001DBFF2000E0E07810901CA810F0B3F915
:10D8D0000F901CA810F035F90E90DDE90E01814281
:10D8E00001DA0F9800E00E980D90B4F900100D9831
:10D8F000B1EB600F02DAB4F9000001E00D984010BE
:10D9000007461AA810F097F981464FF0FF300C90A7
:10D9100000200B90002F01DC189870B148461CF0D5
:10D920004DFD0B9000233AB21CA905A815F060F933
:10D93000002105A814F02AFA0C90BDF86800ADF893
:10D940000C00BDF86C00ADF810000B98149003A803
:10D9500011901690FF208DF85C00A01DDDE90E21CE
:10D9600018F0CCF88046B8F1000F0CD0022E0AD186
:10D97000BDF96810D8F8080000EB4100BDF970103F
:10D98000A0EB410012901898A0B3BDF96A502CE0AA
:10D9900028B2ADF80E0028B2ADF812004A46109930
:10D9A0000B981DF062F8BDF968100FFA89F32AB2DE
:10D9B0000B9814F055FD8DF854009DF85400012883
:10D9C00002D102208DF85400012E09D1BDF9721048
:10D9D000691AD8F8080000EB41000088ADF84C0047
:10D9E00011A91E9815F082FC6D1CBDF96E00A842AD
:10D9F000CEDACCE0FFE700255CE0BDF872002844F9
:10DA00000FFA80FABDF87600401B0FFA80FBBDF9D3
:10DA10006A00504504DDBDF96E00584500DA48E063
:10DA20004A4610990B981DF020F8BDF90C100FFA1A
:10DA300089F352460B9814F013FD8DF854009DF8AD
:10DA40005400012802D102208DF85400BDF96A006B
:10DA5000504514DCADF80EA0ADF812A0012E0AD18D
:10DA6000BDF97210AAEB0101D8F8080000EB4100E3
:10DA70000088ADF84C0011A91E9815F037FCBDF9CF
:10DA80006E00584514DBADF80EB0ADF812B0012EA3
:10DA90000AD1BDF97210ABEB0101D8F8080000EB18
:10DAA00041000088ADF84C0011A91E9815F01EFC2D
:10DAB00000BF6D1CBD42A0DBBDF87000ADF80400D6
:10DAC000BDF87400ADF80800BDF87200384400B22B
:10DAD000ADF80600BDF87600C01B00B2ADF80A0034
:10DAE00001A814F00DFD00900098B0B9AEB9BDF8D2
:10DAF0007200384400B2ADF80E00BDF87600C01BCD
:10DB000000B2ADF8120010988DF85C00002014905F
:10DB100011A91E9815F0EAFB38E010988DF85C000A
:10DB200001208DF85400BDF97600A0EB070ABDF97D
:10DB30007200C51927E0009870B14A4610990B98F9
:10DB40001CF093FFBDF968100FFA89F32AB20B9805
:10DB500014F086FC8DF8540028B2ADF80E0028B2FF
:10DB6000ADF81200012E09D1BDF97210691AD8F86A
:10DB7000080000EB41000088ADF84C0011A91E9888
:10DB800015F0B4FB6D1C5545D5DD00BF00BF0B98EB
:10DB900010B10B981CF012FD0C98401C28B10C9889
:10DBA00015F054F905A814F087FCB8F1000F02D065
:10DBB000404617F099FF00BF11E600002DE9F0473D
:10DBC0008EB007460C461546206910B90EB0BDE868
:10DBD000F087A07E022800DCF8E7206919F0C2FF78
:10DBE0000646022E55D1002041F6FF71CDE9000115
:10DBF000029003460DA8D4E9041227F0DBFD284665
:10DC000010F019F8814600EBD970298801EB60000B
:10DC1000BDF9348008EBD871A0EB610000B2ADF81B
:10DC20002C00BDF82C00BDF834100844401E00B292
:10DC3000ADF8300028460FF084FF814600EBD97024
:10DC4000698801EB6000BDF9368008EBD871A0EB64
:10DC5000610000B2ADF82E00BDF82E00BDF8361000
:10DC60000844401E00B2ADF8320003A814F016F8C4
:10DC700060690390208BADF81800A07E8DF8260017
:10DC8000002000900BAA03A93846236913F01EFC5C
:10DC9000B5E00DA9206919F027FB8046B8F1010F06
:10DCA00009D058A0604B40F2651260A1009002209C
:10DCB000FAF7E4F98AE707A813F0EBFBA0788DF8F0
:10DCC0002800208BADF82400E07E8DF82600A07E91
:10DCD0008DF82700207FE8BB28460FF0ACFF824676
:10DCE00000EBDA70298801EB60000D99C1F38A29F5
:10DCF00009EBD971A0EB610000B2ADF81400284621
:10DD00000FF01FFF824600EBDA70698801EB6000BC
:10DD10000D994FEA515909EBD971A0EB610000B29E
:10DD2000ADF81600BDF814000D99C1F38A2108441E
:10DD3000401E00B2ADF81800BDF816000D9900EBBA
:10DD40005150401E00B2ADF81A0005AA07A9384686
:10DD5000236900E002E013F013FB4FE06888ADF8A0
:10DD60001600BDF816000D9900EB5150401E00B290
:10DD7000ADF81A003BE02888ADF81400BDF8140097
:10DD80000D99C1F38A210844401E00B2ADF8180075
:10DD900017E005AA07A93846236913F0F1FABDF880
:10DDA00014000D99C1F38A21084400B2ADF81400A3
:10DDB000BDF818000D99C1F38A21084400B2ADF8EE
:10DDC0001800BDF91400B5F904108842E1DDBDF872
:10DDD00016000D9900EB515000B2ADF81600BDF8D9
:10DDE0001A000D9900EB515000B2ADF81A00BDF9C0
:10DDF0001600B5F906108842BDDD00BF00BF00BFA8
:10DE0000E4E60000436F756C646E277420726561F0
:10DE10006420746865206261636B67726F756E64FD
:10DE200020696D616765000054FC03082E2E5C615B
:10DE300070705C4C56474C5C4755495C6C76676C1F
:10DE40005C7372635C647261775C73775C6C765F41
:10DE5000647261775F73775F726563742E6300002D
:10DE60002DE9F04F87B083460C46164694F8220001
:10DE7000022802DC07B0BDE8F08F208C00B9F9E77A
:10DE800094F82300C0F3440000B9F3E794F82300AA
:10DE900000F0010000B1EDE730460FF0CCFE814606
:10DEA00030460FF04EFE0746B4F90050B94501DA8E
:10DEB000484600E038468246B5EB6A0F01DD4FEA7E
:10DEC0006A05314605A80FF0D1FDBDF9141094F88C
:10DED0002300400800F0040010B1B4F9200003E072
:10DEE000B4F9200028444042084400B2ADF81400C0
:10DEF000BDF9181094F82300400800F0080010B194
:10DF0000B4F9200003E0B4F9200028444042081A84
:10DF100000B2ADF81800BDF9161094F823004008BF
:10DF200000F0020010B1B4F9200003E0B4F92000C1
:10DF300028444042084400B2ADF81600BDF91A105A
:10DF400094F82300C0F3400010B1B4F9200003E0BE
:10DF5000B4F9200028444042081A00B2ADF81A0073
:10DF6000208C281A0FFA80F8B8F1000F01DA4FF070
:10DF70000008A07894F82210CDE90210E08BADF8EB
:10DF800004002BB205AA31465846CDF8008000F0B7
:10DF900002F800BF6EE72DE9FF4FA3B00D4616460D
:10DFA0001F463298FF2801DBFF2000E032983290B4
:10DFB000284614F0A5FA2290229868B967B93098DB
:10DFC00050B93298009032462946319B239800F090
:10DFD000A9FA27B0BDE8F08F23982946826820A8C7
:10DFE000F8F7EEFB00B9F4E720A80FF024FE814615
:10DFF0001C2119A81CF073FD48461CF0DFF91C9089
:10E000004FF0FF301890002F0ADD00233A462946D2
:10E0100012A814F0EDFD002112A813F0B7FE18901D
:10E02000012331460CA8309A14F0E2FD00210CA81F
:10E0300013F0ACFE0B9009A819901E90BDF8C40017
:10E04000ADF86C0032988DF87C0033988DF87D0027
:10E05000B5F900003844B6F90010884203DDB5F97F
:10E060000000384401E0B6F9000000B2ADF81C0031
:10E07000B5F90400C01BB6F90410884203DAB5F9FB
:10E080000400C01B01E0B6F9040000B2ADF82000A6
:10E09000B5F902003844B6F90210884203DDB5F93B
:10E0A0000200384401E0B6F9020000B2ADF81E00EB
:10E0B000B5F90600C01BB6F90610884203DAB5F9B7
:10E0C0000600C01B01E0B6F9060000B2ADF8220060
:10E0D00007A80FF0B0FD0690B5F90200B6F90210DE
:10E0E000884201DC012000E000208246B5F90600EC
:10E0F000B6F90610884201DB012000E000208346CB
:10E10000229800284CD0BDF88000ADF82400BDF85E
:10E110008400ADF82800BDF9824029E0BAF1000F73
:10E1200004D1BDF91E00A04200DD20E0BBF1000FCC
:10E1300004D1BDF92200A04200DA1DE020B2ADF802
:10E14000260020B2ADF82A0049461C981CF0FEFCBF
:10E15000BDF980100FFA89F322B21C9814F080F9EF
:10E160008DF8740019A9239815F0C0F800BF641C3D
:10E17000BDF98600A042D1DA00BF0CA814F09CF9CA
:10E180000B9814F063FE1898401C28B112A814F0E4
:10E1900093F9189814F05AFE1C981CF00FFA18E71F
:10E1A000B5F90000B6F90010884201DC012000E05A
:10E1B00000200590B5F90400B6F90410884201DB8F
:10E1C000012000E00020049001200390059860B138
:10E1D000049850B1BAF1000F07D0BBF1000F04D082
:10E1E0000698322801DA0020039001208DF874008F
:10E1F000BAF1000F15D0039898B1BDF81C00ADF826
:10E200002400BDF82000ADF828006888ADF826008D
:10E210007088401E00B2ADF82A0019A9239815F0A5
:10E2200065F8BBF1000F15D0039898B1BDF81C003C
:10E23000ADF82400BDF82000ADF82800F088401C9F
:10E2400000B2ADF82600E888ADF82A0019A9239895
:10E2500015F04CF8059898B12888ADF8240030885E
:10E26000401E00B2ADF82800BDF81E00ADF8260033
:10E27000BDF82200ADF82A0019A9239815F036F848
:10E28000049898B1B088401C00B2ADF82400A8886A
:10E29000ADF82800BDF81E00ADF82600BDF822003C
:10E2A000ADF82A0019A9239815F020F80398F0BBBF
:10E2B000BDF88000ADF82400BDF88400ADF828005A
:10E2C000B5F90200B6F90210401AB84201DA384630
:10E2D00004E0B5F90200B6F90210401A00B202904B
:10E2E000002442E06888204400B20190E888001BC6
:10E2F00000B20090BDF982100198814205DDBDF9A0
:10E3000086100098814200DA2EE049461C981CF0E5
:10E310001DFCBDF924100FFA89F3019A1C9814F022
:10E320009FF88DF87400BDF98210019800E020E09C
:10E33000814209DC0198ADF826000198ADF82A0069
:10E3400019A9239814F0D2FFBDF9861000988142D4
:10E3500009DB0098ADF826000098ADF82A0019A94D
:10E36000239814F0C3FF00BF641C02988442B9DBF9
:10E37000C7E0BDF88000ADF82400BDF98410BDF9F8
:10E380001C00401E814202DABDF9840002E0BDF9A2
:10E390001C00401E00B2ADF8280009A80FF04BFC8D
:10E3A0008046B8F1000F48DD059810B9BAF1000FAA
:10E3B0001ED0BDF9824017E020B2ADF8260020B291
:10E3C000ADF82A0041461C981CF0C0FBBDF9241092
:10E3D000434622B21C9814F043F88DF8740019A932
:10E3E000239814F083FF641CBDF91E00A042E3DCF7
:10E3F000059810B9BBF1000F1FD0BDF92200441CD5
:10E4000017E020B2ADF8260020B2ADF82A00414650
:10E410001C981CF09BFBBDF92410434622B21C98AB
:10E4200014F01EF88DF8740019A9239814F05EFFFB
:10E43000641CBDF98600A042E3DABDF98010BDF985
:10E440002000401C814202DDBDF9800002E0BDF9E0
:10E450002000401C00B2ADF82400BDF88400ADF8E7
:10E46000280009A80FF0E7FB8046B8F1000F48DD4F
:10E47000049810B9BAF1000F1ED0BDF9824017E020
:10E4800020B2ADF8260020B2ADF82A0041461C9813
:10E490001CF05CFBBDF92410434622B21C9813F01B
:10E4A000DFFF8DF8740019A9239814F01FFF641C76
:10E4B000BDF91E00A042E3DC049810B9BBF1000FC7
:10E4C0001FD0BDF92200441C17E020B2ADF8260091
:10E4D00020B2ADF82A0041461C981CF037FBBDF96C
:10E4E0002410434622B21C9813F0BAFF8DF8740032
:10E4F00019A9239814F0FAFE641CBDF98600A04205
:10E50000E3DA0CA813F0D8FF0B9814F09FFC12A8C4
:10E5100013F0D2FF189814F099FC1C981CF04EF8D8
:10E5200000BF56E52DE9FF4F89B080460C461546E1
:10E53000DDF858901C2168461CF0D1FA07A800901D
:10E54000BDF83000ADF808008DF81890B4F902005D
:10E55000B5F90210884201DC012000E000200646E7
:10E56000B4F90600B5F90610884201DB012000E08D
:10E5700000200746B4F90000B5F90010884201DC1C
:10E58000012000E000208246B4F90400B5F904102F
:10E59000884201DB012000E0002083462088ADF89E
:10E5A0001C00A088ADF820006088ADF81E006888C7
:10E5B000401E00B2ADF822001EB16946404614F07C
:10E5C00095FEE888401C00B2ADF81E00E088ADF86A
:10E5D00022001FB16946404614F088FE2088ADF83D
:10E5E0001C002888401E00B2ADF8200016B1B5F915
:10E5F000020001E0B4F90200ADF81E0017B1B5F950
:10E60000060001E0B4F90600ADF82200BAF1000FEF
:10E6100003D06946404614F069FEA888401C00B249
:10E62000ADF81C00A088ADF82000BBF1000F03D0AE
:10E630006946404614F05AFE0DB0BDE8F08F2DE952
:10E64000FF4F93B00746904699464FF6FF708045BE
:10E6500002D117B0BDE8F08F3E46746A208C12904C
:10E66000208C484506D0A4F82090608C20F004004F
:10E67000001D60844FF48021204620F004F91190A1
:10E680004FF48021204620F06EF90546119816F0CF
:10E69000F9FD824638460AF03AFB8346BBF816007D
:10E6A000ADF83E00BDF93E000AEB050108FB010094
:10E6B00000B2ADF83E00284605EBD071BDF83E2013
:10E6C000A2EB610109B2ADF83E10BDF83E00504426
:10E6D0002844401E00B2ADF84200706A808AADF84E
:10E6E0003C00706A008BADF8400001A814F0DCFB20
:10E6F00001AA4FF48021204620F06AFC0FAA01A94C
:10E70000149814F0B5FB12982084608C20F004005B
:10E71000608400BF9DE72DE9F04F91B007460D469C
:10E72000904699464FF6FF70804502D111B0BDE882
:10E73000F08F1097109F7C6A208C0F90208C48459A
:10E7400006D0A4F82090608C20F00400001D6084A6
:10E7500007A813F0A3FA07AA4FF48021204620F05F
:10E760005CFB4FF48021204620F0FDF8ADF82E0030
:10E7700038460AF0CCFA064606B9D7E7079816F0ED
:10E7800081FD8246F08AADF81600BDF91600BDF98C
:10E790002E10514408FB010000B2ADF81600BDF97F
:10E7A0002E0000EBD071BDF81620A2EB610109B27A
:10E7B000ADF81610BDF816005044BDF82E100844F0
:10E7C000401E00B2ADF81A00A08AADF81400208BEC
:10E7D000ADF8180005AA03A8A968F7F7F1FF83466A
:10E7E000BBF1000F13D0A868029003A8A8603046C0
:10E7F0001AF0C2FA01900020009006F1140207A955
:10E800002846019B12F062FE0298A86000BF0F9894
:10E810002084608C20F00400608400BF86E7000044
:10E820002DE9F04105463548006812F0D9F9044653
:10E830002868866BF06A10B13046F16A8847206814
:10E8400090B1606880B10CE02C4800680068806A74
:10E8500038B12A4A12681068284A12681268916A08
:10E86000884720690028EFD10120206123480068F3
:10E870000068C068806900F0010050B11F4800685E
:10E880000068C0688069C0F3400010B10120606179
:10E8900001E000206061606908B1012000E0002013
:10E8A00007462868406998B12868007CC0F30110C9
:10E8B00048B12868007CC0F3800020B1D6E9001080
:10E8C00000F01EF804E0D6E900212868FDF72AF8D8
:10E8D000206880B1606870B12868007C00F0010099
:10E8E00000B147B12168A068884202D16068A06089
:10E8F00001E02068A060BDE8F08100003402002043
:10E900002DE9F34F83B004468B48006805688A48B8
:10E9100000680068007CC0F3400078B1287CC0F338
:10E92000800058B185A08F4B40F27A328EA10090C2
:10E930000320F9F7A3FB05B0BDE8F08F287CC0F3F6
:10E94000011002280AD121462846049A00F02DF928
:10E9500021462846049AFCF7E5FFEBE0287CC0F34B
:10E960000110012804D0287CC0F301100328F4D141
:10E97000002002907048006812F032F9824620466A
:10E980000FF03DF9064620460FF0C6F883464FF4D7
:10E99000A050B0FBF6F000B2584505DA4FF4A05095
:10E9A000B0FBF6F000B200E058460190B4F90280E6
:10E9B000287CC0F3011001280BD168882188401AF7
:10E9C000401E00B2E080E088801B401C00B26080E6
:10E9D00006E02088608060883044401E00B2E080FD
:10E9E00000279EE0ABEB07010198814201DD019811
:10E9F00001E0ABEB07000FFA80F90120CAF8100024
:10EA000047BBB34526DBB146297CC1F3011103297D
:10EA100001D1012100E0002108463146049A00F0AE
:10EA200038F9287CC0F30110012807D1A4F8008030
:10EA300008EB0600401E00B2A0803FE02888401E80
:10EA4000A0EB080000B2A080A088801B401C00B290
:10EA5000208033E0029820B94FF420501BF0AEFC28
:10EA6000029002980090297CC1F30111032901D181
:10EA7000012100E0002108464A463146049B00F08F
:10EA8000DBF8287CC0F3011001280AD108EB07004D
:10EA900000B2208008EB07004844401E00B2A0806E
:10EAA0000CE02888401EA0EB0800C01B00B2A0802C
:10EAB000A088A0EB0900401C00B2208007EB0900F1
:10EAC00058450DDBDAF8180000F0010040B1DAF823
:10EAD0001800C0F3400018B10120CAF8140002E089
:10EAE0000020CAF81400029808B9049800E00298BF
:10EAF000024621462846FCF715FF04E0A86A10B13B
:10EB00002846A96A8847DAF810000028F6D106FBE3
:10EB100009F1049800EB4100049007EB090007B2EB
:10EB200000BF5F45FFF65EAF029810B102981BF080
:10EB300045FD00BF00BFFEE63402002063616E6E3B
:10EB40006F7420726F7461746520612066756C6CDF
:10EB50002072656672657368656420646973706CA1
:10EB60006179210083FA03082E2E5C6170705C4C81
:10EB700056474C5C4755495C6C76676C5C737263B6
:10EB80005C636F72655C6C765F726566722E6300A3
:10EB900018B5048800940C88048014880C801C88A4
:10EBA0001480BDF800401C8018BD2DE9FC5F0546AF
:10EBB0000C46164620460FF022F8824620460EF0FC
:10EBC000ABFF83461AFB0BF001900198471E4FF0F4
:10EBD000000811E006EB47000088009006EB4700B4
:10EBE00006EB48010988018006EB4800BDF80010DB
:10EBF00001807F1E08F101084745EBD8B4F9069063
:10EC000068886188401A401E00B2E0806888A0EBE6
:10EC10000900401E00B26080B4F904902888218861
:10EC2000401A401E00B2A0802888A0EB0900401EB8
:10EC300000B22080BDE8FC9F2DE9F04704461D4648
:10EC4000089F01FB02F0A0F1010C481E00FB02F836
:10EC500000231AE008EB03000CB1ACEB0000002627
:10EC60000FE0A946AD1C07EB400AB9F80090AAF8DE
:10EC700000900CB1104400E0801A06F101090FFA6F
:10EC800089F68E42EDDB581C03B29342E2DBBDE80D
:10EC9000F0872DE9F04782460C46154600263BE0FA
:10ECA000002731E0601E801B0FFA80F8601EC01B39
:10ECB0000FFA80F9BAF1000F12D007FB048C05EBB4
:10ECC0004C0308FB049C05EB4C0209FB046C05EBB0
:10ECD0004C0106FB047C05EB4C00FFF759FF11E0EB
:10ECE00009FB046C05EB4C0308FB049C05EB4C0290
:10ECF00007FB048C05EB4C0106FB047C05EB4C0088
:10ED0000FFF746FF781C07B2601C00EBD071B7EB31
:10ED1000610FC7DB701C06B204EBD471B6EB610F58
:10ED2000BEDBBDE8F08710B50446204618F06CFA4B
:10ED300010BD00002DE9F14F9EB01E9816F00FF89F
:10ED400005462C461E9815F049FF1D90606A1AF082
:10ED500013F807465020005D00F0010010B91FB005
:10ED6000BDE8F08F0FA814F09FF80FAA4FF4E02130
:10ED7000284620F02DF904F144010DA80EF0B5FE4F
:10ED8000BDF83400616A898A084400B2ADF83400E5
:10ED9000BDF83610606AC08A084400B2ADF836008B
:10EDA000BDF83800616A898A084400B2ADF83800BD
:10EDB000BDF83A10606AC08A084400B2ADF83A0063
:10EDC0000DAA0FA91D9814F053F84FF4E02128461E
:10EDD0001FF092F806464FF4E02128461FF0F4FA9F
:10EDE00030440FFA80F84FF4E02128461FF065FC0C
:10EDF00030440FFA80F900200B900C90E16CC81998
:10EE00001F49096888478246E06CC11952460BA821
:10EE10001BF0D7FCBDF83400404400B2ADF834001C
:10EE2000BDF83600484400B2ADF836004FF0000B94
:10EE3000D4F824A040F25742594650461FF04AFCED
:10EE4000019001980A9002A812F028FF02AA4FF43C
:10EE5000E02128461FF0E1FF9DF83F00022805DC75
:10EE6000BDF81400BDF82810884207D000200BAB75
:10EE70000DAA02A900901D9812F028FB00BF6EE7B2
:10EE8000D00300202DE9F04FBDB005460E4600BF6F
:10EE900000BFAB460BF13000F9F79CF810B13DB064
:10EEA000BDE8F08F05F114023BA8B168F7F788FCC4
:10EEB00000B9F4E7B0683A903BA8B06035A812F00A
:10EEC00039FF35AA4FF4E021284620F00DF827A895
:10EED00013F0EAFF9DF8DC008DF89F0047F6FF7005
:10EEE000ADF89C004FF4E02128461FF0F2FD0746E4
:10EEF00000EBD7704FEA60094FF4E02128461FF07D
:10EF0000E8FD074600EBD7704FEA600A314604A8D7
:10EF10001DF0E6FC24A80A9016A808904FF4E02003
:10EF2000119069480590052006900BF13000F9F723
:10EF300003F80446C0E00A2235A924A81BF041FCCE
:10EF4000382227A916A81BF03CFCE088ADF89000F9
:10EF5000E088ADF85C0039A80D9038A80E90607B71
:10EF600000F0010020B1B4F90070B4F9028010E0A3
:10EF7000A08847F6FF71884200D197E0A28801ABD4
:10EF80002846A16810F0D6F9BDF90470BDF90680D5
:10EF900000BFA88A384407B2E88A40440FFA80F8D4
:10EFA000B9F1000F19D0BAF1000F16D0A7EB090084
:10EFB00000B2ADF8080007EB090000B2ADF80C0094
:10EFC000A8EB0A0000B2ADF80A0008EB0A0000B294
:10EFD000ADF80E0002A8079001E000200790207B0A
:10EFE00000F0030070B3207B00F0010010B1B5F910
:10EFF000140000E03846ADF8E400ADF8E680207B70
:10F0000000F0020010B1B5F9180000E03846ADF884
:10F01000E000BDF8E600ADF8E20004AA1A21284697
:10F0200015F0A4FE38AB39AA24A9304612F06BFEC5
:10F0300002AA16A9304613F01BFF04AA1B2128467A
:10F0400015F094FE207B00F00C0070B3ADF8E47076
:10F05000207B00F0040010B1B5F9160000E0404636
:10F06000ADF8E600BDF8E400ADF8E000207B00F06C
:10F07000080010B1B5F91A0000E04046ADF8E20012
:10F0800004AA1A21284615F071FE38AB39AA24A922
:10F09000304612F038FE02AA16A9304613F0E8FEF8
:10F0A00004AA1B21284615F061FE00BF21460BF182
:10F0B0003000F8F73BFF0446002C7FF43CAF3A9851
:10F0C000B06000BFEBE6000078FE03082DE9F14FC9
:10F0D0009AB01A9815F043FE04461A9815F07EFD72
:10F0E000199020461FF029FD074620461DF07EFF9F
:10F0F000834607EBD771A28A02EB610109B218912E
:10F100000BEBDB714A10E18A114409B2179107EB4E
:10F11000D7714E1014A812F00DFE14AA002120463B
:10F120001FF0E2FE4FF41D7016FB00F0552190FB1E
:10F13000F1F0642190FBF1F000B2ADF85200BDF89F
:10F140005200801C00B2ADF8520000201390002144
:10F1500020461EF0E8FD0546002347F6FF7204F145
:10F1600014010DA813F044FD00210DA812F00EFEAD
:10F170000C9000BFA08AADF82800E08AADF82A0004
:10F18000208BADF82C00608BADF82E0000BFBDF8D1
:10F190002800284400B2ADF82800BDF82C00401B20
:10F1A00000B2ADF82C00BDF82A00284400B2ADF83A
:10F1B0002A00BDF82E00401B00B2ADF82E0001233E
:10F1C00047F6FF720AA904A813F012FD002104A853
:10F1D00012F0DCFD0390BDF952804FF0000A4FE0C1
:10F1E00051462046FAF712FF0090BDF80000ADF836
:10F1F00050001398C0F30F290FFA89F026F0ECF9AC
:10F2000006EB08014843189901EBE03000B2ADF875
:10F2100004000FFA89F026F0CFF906EB0801484305
:10F22000179901EBE03000B2ADF806000FFA89F053
:10F2300026F0D2F9711BA1EB08014843189901EBA4
:10F24000E03000B2ADF808000FFA89F026F0B4F90A
:10F25000711BA1EB08014843179901EBE03001B2A3
:10F26000ADF80A1002AB01AA14A9199812F04BFDCF
:10F270000AF103001FFA80FA139800F587601390D3
:10F28000BAF5807FACDD0DA813F016F904A813F0D1
:10F2900013F90C9813F0DAFD039813F0D7FD1BB0A7
:10F2A000BDE8F08F2DE9F04FA5B004460F46254686
:10F2B00004F1140123A8BA68F7F782FA2290229881
:10F2C00010B925B0BDE8F08FB868219023A8B860C8
:10F2D000002120461EF0E9FD1E90002120461EF070
:10F2E000FEFF01461E98084400B21D9000212046F2
:10F2F0001FF061F901461E98084400B21C90204698
:10F300001DF0D9FD7E35E9884843001200B21B90FC
:10F3100020461DF0B1FD29894843001200B21A9021
:10F3200017A812F007FD17AA002120461FF0DCFDE8
:10F33000394605A81DF0D4FA002012908C4806909A
:10F340000020079017A80B904FF0FF30139000207B
:10F350000E900F9005AA1A21204615F007FD0020F7
:10F3600001903122204601991FF0B4F900900098D5
:10F3700000F0FF0B00BF002120461EF096FD049018
:10F38000002001903322204601991FF0A3F900903C
:10F39000009800F0FF0800BF20461DF01DFF0390FD
:10F3A00020461EF013F8029035F87E09002865D03B
:10F3B000E18A1C9801440298081A00B20190A08AC0
:10F3C000ADF88000208BADF87C004FF00009B5F857
:10F3D0007E000FFA80FABBF1020F1ADD04980028B4
:10F3E00017DD08F0020040B1002120461FF0E3F8CD
:10F3F00018B909F101000FFA80F908F0010040B1D5
:10F40000002120461EF08EFE18B9AAF101000FFA65
:10F4100080FA4E462FE01A987043B5F87E10491EC8
:10F4200090FBF1F000B2ADF88200BDF882100198B7
:10F43000084400B2ADF88200BDF88200ADF87E004D
:10F440004B4806900120079020A80E901FA80F900F
:10F45000139605AA1A21204615F088FC1FAB20AA96
:10F4600017A9384612F04FFC05AA1B21204615F0BB
:10F470007DFC701C06B25645CDDB00BFB5F88000A0
:10F48000002865D0A18A1D9801440398081A00B28B
:10F490000190E08AADF88200608BADF87E004FF0FD
:10F4A0000009B5F880000FFA80FABBF1020F1ADDEF
:10F4B0000498002817DD08F0040040B10021204620
:10F4C0001EF00DFF18B909F101000FFA80F908F0DC
:10F4D000080040B1002120461EF0AAFF18B9AAF189
:10F4E00001000FFA80FA4E462FE01B987043B5F8E2
:10F4F0008010491E90FBF1F000B2ADF88000BDF81D
:10F5000080100198084400B2ADF88000BDF880007A
:10F51000ADF87C00164806900220079020A80E90B7
:10F520001FA80F90139605AA1A21204615F01EFC5D
:10F530001FAB20AA17A9384612F0E5FB05AA1B212C
:10F54000204615F013FC701C06B25645CDDB00BFFB
:10F550004FF0FF30139000200E900F9005AA1B2152
:10F56000204615F003FC2198B86000BFA9E6000012
:10F5700078FE03082DE9F14F9AB01A9815F026FB92
:10F5800007461A9815F0EBFB05462C46122F7DD145
:10F590001A9815F0E1FB06463078022802D11BB01C
:10F5A000BDE8F08F94F8380000F00300032805D080
:10F5B00094F8380000F00300022802D101203070D6
:10F5C000EDE794F83800C0F38400042808D094F8DC
:10F5D0003800C0F38400012802D001203070DEE73B
:10F5E0004FF0000A4622514628461FF073F8199042
:10F5F0001998C0B2FF2802D001203070CFE7002157
:10F6000028461FF0F1F98146208E8144B9F1000FA0
:10F6100002D001203070C2E7002128461FF025FAF1
:10F620008046E08E00FB08F04FEA20281A9815F07B
:10F6300093FB8346B8F5807F09D1002205F11401C0
:10F640005846F7F7FEF8E8BB01203070A7E72846D8
:10F650001DF0CCFC824628461FF06FFA179004F18B
:10F6600032001FFA88F100235246CDE9001018A895
:10F670001799F7F7CBFBBDF86000A98A084400B2E0
:10F68000ADF86000BDF86210E88A00E01DE00844B3
:10F6900000B2ADF86200BDF86400A98A084400B267
:10F6A000ADF86400BDF86610E88A084400B2ADF811
:10F6B0006600002218A95846F7F7C3F818B90120C8
:10F6C00030706CE700E000BF20E2152F01D0182F4A
:10F6D000FAD1002128461FF0C8F98046E08E00FBD1
:10F6E00008F04FEA2028002128461FF07DF98246C5
:10F6F000208E824428461FF020FA199028461DF0DB
:10F7000075FC1890002641F23202314628461EF060
:10F71000E1FF0E900E9800B2814600BF41F6120242
:10F72000314628461EF0D6FF0E900E9848440FFA38
:10F7300080FB00BF41F61302314628461EF0CAFF87
:10F740000E900E98484400B2179000BF41F6100288
:10F75000314628461EF0BEFF0E900E98484400B277
:10F76000169000BF41F61102314628461EF0B2FF46
:10F770000E900E98484400B21590608E584400B226
:10F78000ADF85000A18E1698084400B2ADF85200B2
:10F7900094F8390000F00300012804D112A928468A
:10F7A0001DF0A8FB27E014A91FFA88F00FFA8AF3CE
:10F7B000CDE9000112A8DDE91821F7F727FBBDF814
:10F7C0004810A88A084400B2ADF84800BDF84A10B5
:10F7D000E88A084400B2ADF84A00BDF84C00A98A96
:10F7E000084400B2ADF84C00BDF84E10E88A084459
:10F7F00000B2ADF84E0005F1140110A80EF063F947
:10F8000012A905F114000EF05EF9C1481A991DF015
:10F810008DFA0F900F98012800D0C0E610A905F1CD
:10F8200014000EF050F9152F7ED1E08D08B1A08D97
:10F8300000B9B4E6B8F1000F00D1B0E61A9815F09F
:10F84000CDF9064605F114010DA80EF03CF9284645
:10F8500017F0F0FF0C9094F8390000F00300012835
:10F860003CD1B4F92C10BDF93020891A481C00EBAA
:10F87000D071BDF83420A2EB610109B2ADF83410AB
:10F88000B4F92C10BDF93020891A481C00EBD07156
:10F89000BDF83820A2EB610109B2ADF83810B4F917
:10F8A0002E10BDF93220891A481C00EBD071BDF82A
:10F8B0003620A2EB610109B2ADF83610B4F92E1072
:10F8C000BDF93220891A481C00EBD071BDF83A20EE
:10F8D000A2EB610109B2ADF83A1013E012A80EF0E4
:10F8E000E9F9BDF834100844401E00B2ADF8380004
:10F8F00012A80EF057F9BDF836100844401E00B2A9
:10F90000ADF83A00BDF83400584400B2ADF8340008
:10F91000BDF836101698084400B2ADF83600BDF8B0
:10F9200038101798081A00E0EFE000B2ADF8380080
:10F93000BDF83A101598081A00B2ADF83A0094F8DC
:10F94000380000F00300012805D094F8380000F0DA
:10F95000030000287AD106A811F09BFD06AA002119
:10F9600028461FF0FBF91FFA88F0ADF81A001FFABD
:10F970008AF0ADF81800608EADF81C00A18EADF8CD
:10F980001E1094F83800C0098DF82C00BDF848000E
:10F99000584400B2ADF81000BDF84A10169808445B
:10F9A00000B2ADF81200BDF84C101798081A00B25A
:10F9B000ADF81400BDF84E101598081A00B2ADF855
:10F9C0001600B068039004AA04A8B168F6F7F8FE20
:10F9D00000B9E4E504A8B060BDF83610608D0844B5
:10F9E00000B2ADF80600BDF90600BDF93610884238
:10F9F00006DDBDF80600E18D401A00B2ADF8060044
:10FA0000BDF80600E18D0844401E00B2ADF80A00C2
:10FA100049E0BDF83400218D084400B2ADF804007F
:10FA2000BDF90400BDF93410884206DDBDF80400BC
:10FA3000A18D401A00B2ADF80400BDF80400A18DFC
:10FA40000844401E00B2ADF8080016E034E001AAF8
:10FA500006A93046636A11F093FCBDF80400BDF8B6
:10FA60003010084400B2ADF80400BDF80800BDF83D
:10FA70003010084400B2ADF80800BDF90400BDF92B
:10FA800038108842E3DBBDF80600BDF832100844A8
:10FA900000B2ADF80600BDF80A00BDF83210084407
:10FAA00000B2ADF80A00BDF90600BDF93A1088426F
:10FAB000AFDB0398B06027E094F8380000F0030053
:10FAC000022811D104A812F0E9F804AA002128465E
:10FAD0001FF0A3F90020009005F1140204A930469C
:10FAE000636A11F0F3FC0FE00AA0144B40F2C52248
:10FAF00013A100900220F8F7C1FA002305F11402C7
:10FB00001946304611F03CFC00BF00BF00BF46E57F
:10FB1000E0430408647261775F696D673A20696D3C
:10FB200061676520736F75726365207479706520F5
:10FB3000697320756E6B6E6F776E00000B4404085E
:10FB40002E2E5C6170705C4C56474C5C4755495C8E
:10FB50006C76676C5C7372635C77696467657473F9
:10FB60005C6C765F696D672E630000002DE9F14FD4
:10FB7000DCB05C9815F0F3F805462C465C9815F05F
:10FB80002DF85B9059A928461DF0B4F90020CDE965
:10FB9000105040F60A02DDE910011EF09BFD0F90A7
:10FBA0000F9800B258900020CDE9105040F60B029B
:10FBB000DDE910011EF08EFD0F900F9800B25790F6
:10FBC000BDF864115898081A00B2ADF86401BDF888
:10FBD00068115898084400B2ADF86801BDF8661184
:10FBE0005798081A00B2ADF86601BDF86A11579827
:10FBF000084400B2ADF86A0159A80EF04DF88346EA
:10FC000059A80DF0C1FF5690D4E90A10A0EB0109E4
:10FC10005698834501DB012000E00020804600204B
:10FC2000559094F85C0000F0030001280BD1A06A05
:10FC3000002808DAE06A002805DDA16A206B884206
:10FC400001D101205590002128461EF06FFB5490F1
:10FC5000002128461EF013FC5390002128461EF078
:10FC6000D1FC5290002128461EF083FA519059A9E8
:10FC700004F134000DF015FFA18E5498084400B231
:10FC8000A086218F5398081A01B22187E18E5298DD
:10FC9000084401B2E186618F5198081A01B2618768
:10FCA000B8F1000F13D004F134000DF06DFF0428FB
:10FCB0000DDA569800EBD0714A10E98A1144891E7A
:10FCC0000AB2E286E08E001D01B2618715E0B8F14C
:10FCD000000F12D104F134000DF0DEFF04280CDA1D
:10FCE00058460BEBD071AA8A02EB6101891E09B25A
:10FCF000A186A08E001D01B2218704F134000DF011
:10FD0000CBFF509004F134000DF03EFF4F90B8F15E
:10FD1000000F01D0509800E04F988246B8F1000FD4
:10FD200005D004F13406371DFE484C9004E004F180
:10FD30003606371DFC484C90A06D401CF8B1A36AF4
:10FD4000216DC91A01FB0AF191FBF9F108B2A36A0E
:10FD5000616DC91A01FB0AF191FBF9F10AB2131A9C
:10FD6000D4F858C003FB0CF1CB1701EB13631B1243
:10FD70001BB24D934D99014409B24D9108E0A16A1F
:10FD8000206B401A00FB0AF090FBF9F000B24D9096
:10FD9000A06C401CE0B1A36A216CC91A01FB0AF1F6
:10FDA00091FBF9F108B2A36A616CC91A01FB0AF16F
:10FDB00091FBF9F10AB2131AD4F848C003FB0CF115
:10FDC000CB1701EB136300EB23231BB24E9308E028
:10FDD000D4E90901401A00FB0AF090FBF9F000B2E7
:10FDE0004E900020119041F26A42284611991EF06F
:10FDF00071FC10901098C0B24B90B8F1000F0ED06B
:10FE00004B9801280BD130463E4607464E99494251
:10FE100009B24E914D99494209B24D9100BFB8F1D6
:10FE2000000F0AD031884E98084400B238803188DB
:10FE30004D98084400B230800AE039884E98081A7C
:10FE4000401C00B2308039884D98081A00B23880C2
:10FE5000559878B3A26A524202FB0AF292FBF9F279
:10FE600011B2B8F1000F0CD032880A4410B2B7F9C1
:10FE70000020824201DD30801BE03A8832803880E9
:10FE800017E03A88521A521C10B2B6F9002082428A
:10FE900001DD388002E032883A803080B7F90020F6
:10FEA000B6F900309A4204DAB6F900003A88328096
:10FEB000388000BF559800BB04F134004C99884746
:10FEC00001281ADC68465B991CF00AFD4FF40030EB
:10FED0000D90964801900020029004F134000390A8
:10FEE0006A461A21284614F041FF6A461B2128461B
:10FEF00014F03CFF5DB0BDE8F08F04F1340149A877
:10FF00000DF0CFFD3BA812F0CFFF3BAA4FF400311C
:10FF100028461FF05DF829A85B991CF0E1FC4FF41E
:10FF20000030369081482A9000202B903BA82D90DD
:10FF300004F134002C9029AA1A21284614F016FF47
:10FF4000002011906022284611991EF0C3FB1090EA
:10FF5000109800B228905698834501DA584600E080
:10FF600056982790DDE92701B1EB600F02DD279855
:10FF700040102890BDF9EC0026904F995098884287
:10FF800001DA509800E04F982790DDE92601B0EBA8
:10FF9000610F02DD279840102690B8F1000F08D0BD
:10FFA00004F134000DF078FE01462698B1EB400FC5
:10FFB0000BDCB8F1000F28D104F134000DF0E4FDA2
:10FFC00001462698B1EB400F1FDD9DF8EF00119020
:10FFD0009DF8060110909DF80E010F9000208DF8FD
:10FFE000EF008DF806018DF80E0104F134023BA9F3
:10FFF0005B9812F03DFF11988DF8EF0010988DF886
:020000040801F1
:1000000006010F988DF80E0100BFA98A5498084484
:1000100000B2ADF87800298B5398081A00B2ADF8F9
:100020007C00E98A5298084400B2ADF87A00698BE6
:100030005198081A00B2ADF87E0000231EA920A82E
:10004000289A12F0D5FD002120A811F09FFE1D90E6
:100050009DF822011C909DF80E011B9000208DF848
:100060000E018DF8220159A919A80DF01AFDBDF84D
:1000700064105498084400B2ADF86400BDF86610EE
:100080005298084400B2ADF86600BDF86810539865
:10009000081A00B2ADF86800BDF86A105198081A45
:1000A00000B2ADF86A00B8F1000F15D019A80DF034
:1000B0006BFD042810DA569800EBD0714A10E98ADB
:1000C0001144891E09B2ADF86610BDF86600001D26
:1000D00000B2ADF86A0017E0B8F1000F14D119A80A
:1000E0000DF0DAFD04280FDA58460BEBD071AA8A1E
:1000F00002EB6101891E09B2ADF86410BDF864001D
:10010000001D00B2ADF86800BDF9EC20002304F139
:10011000340113A812F06CFD002113A811F036FE73
:10012000129005E099DC010889DB0108AC42040863
:1001300019AA3BA95B9812F09BFE1B988DF80E0143
:100140001C988DF8220100208DF8EF008DF8060133
:100150008DF8220104F134023BA95B9812F088FE6D
:1001600013A812F0A9F920A812F0A6F9129812F01B
:100170006DFE1D9812F06AFE29AA1B21284614F074
:10018000F5FD00BFB6E6F0B591B00546284614F07F
:10019000E6FD0446284614F021FD0746264603A83E
:1001A00012F082FE03AA4FF4403120461EF010FFE9
:1001B00047F6FF70ADF80C002C20805D00F00100C8
:1001C00038B1204610F0EBFA0090BDF80000ADF811
:1001D0001000214601A808F0B3FC01AA03A9384683
:1001E00012F046FE11B0F0BD2DE9F04FB3B08146DC
:1001F000484614F0B4FD80464446484614F0EEFCF0
:100200003290002140461DF0E9FD054640461EF0B3
:1002100094FC824640461CF0E9FE8346DA4501DB49
:10022000012000E0002006460EB1584600E050468E
:100230003190002794F85C0000F00300012806D1FB
:10024000A06A002803DAE06A002800DD0127002EFA
:100250003CD097B93EB1012D02D1B4F9340009E088
:10026000B4F9380006E0012D02D1B4F9360001E0FE
:10027000B4F93A00ADF8BC0037E0606A002812DB40
:100280003EB1012D02D1B4F9340009E0B4F93800CF
:1002900006E0012D02D1B4F9360001E0B4F93A00CC
:1002A000ADF8BC0021E03EB1012D02D0B4F934001C
:1002B00009E0B4F9380006E0012D02D0B4F93600A7
:1002C00001E0B4F93A00ADF8BC000EE01FB9E08ED1
:1002D000ADF8BE0009E0606A002803DBE08EADF8EF
:1002E000BE0002E0608FADF8BE0021A812F0DCFD78
:1002F00021AA4FF4403140461EF06AFE33462FA932
:100300004046319A26F081FD2FA904F168000DF0D6
:10031000E3FB0FA832991CF0E3FA4FF440301C9035
:100320003C481090002011901D9004F1680012903C
:1003300021A81390404622F0EAF8022810D00FAA14
:100340001A21404614F012FD04F1680221A93298E6
:1003500012F08EFD0FAA1B21404614F007FD55E058
:10036000382221A901A81AF02CFA0FAA1A21404616
:1003700014F0FCFC04F1680221A9329812F078FD17
:100380000FAA1B21404614F0F1FC96B13EB1012D9D
:1003900002D0B4F9340009E0B4F9380006E0012DC8
:1003A00002D0B4F9360001E0B4F93A00ADF8BC006F
:1003B00002E0608FADF8BE0033462FA94046319A67
:1003C00026F023FD2FA904F160000DF085FB3822F3
:1003D00001A921A81AF0F5F90120119004F160009B
:1003E000129021A8139001201D900FAA1A214046B7
:1003F00014F0BCFC04F1600221A9329812F038FD1F
:100400000FAA1B21404614F0B1FC00BF33B0BDE879
:10041000F08F0000544504082DE9F04790B00746DE
:10042000384614F09CFC054628461CF02FFE064674
:1004300008A811F033FC08AA002130461EF0EDFC9C
:10044000384614F0CBFB0446D4F8088006F11402B9
:1004500006A8A168F6F7B4F910B910B0BDE8F087A6
:1004600006A8A06004A9304609F074F8A88AADF87F
:100470000800E88AADF80A00288BADF80C00BDF83A
:100480001200ADF80E0002AA02A8A168F6F798F9CA
:1004900098B1D4F8089002A8A060284618F06CFC27
:1004A00082460020534605F1140208A90090204618
:1004B00011F00CF8C4F8089000BFA88AADF8080045
:1004C000BDF81600ADF80A00288BADF80C00688B5B
:1004D000ADF80E0002AA02A8A168F6F771F998B16A
:1004E000D4F8089002A8A060284618F045FC82467F
:1004F0000020534605F1140208A90090204610F090
:10050000E5FFC4F8089000BFC4F8088000BFA4E766
:100510002DE9FF4FA1B0064614462498807B00F0D9
:100520000F052298807E1F90032D00D10425012DF8
:1005300006D0022D0BD0042D10D0082D1DD114E0B3
:10054000DFF878834FF0800A02201E9020E0DFF869
:1005500070834FF0C00A04201E9019E0DFF8648316
:100560004FF0F00A10201E9012E0DFF85C834FF08D
:10057000FF0A4FF480701E900AE0D4A0DA4BB62236
:10058000DAA100900220F7F779FD25B0BDE8F08FE1
:1005900000BF1F98FD2823DAE24801781F988142A6
:1005A00003D1E1480068A84213D000200DE018F8FC
:1005B0000010FF2901D11F9904E018F800101F9ABC
:1005C00051430912D94A1154401C1E998842EED356
:1005D00000BFDFF85883D3491F980870D2480560E0
:1005E0002498B0F806B0249800891B900BFB05F006
:1005F0001A90B4F90000B168B1F90010884201DB2B
:10060000002005E0B068B0F90000B4F90010401A0D
:100610001990B4F900005844B168B1F90410884247
:1006200001DC584606E0B068B0F90400B4F90010E7
:10063000401A401C1890B4F90200B168B1F90210D8
:10064000884201DB002005E0B068B0F90200B4F98F
:100650000210401A1790B4F902101B980844B168B0
:10066000B1F90610884201DC1B9806E0B068B0F9C9
:100670000600B4F90210401A401C16901A991798F7
:100680004143199800FB051015902E99159801EB20
:10069000D0002E90159800F007071C210DA81AF025
:1006A0001EFA22988089ADF83C002298807E8DF851
:1006B0004C002298807FC0F3C2008DF84D00F7F700
:1006C000F7FF019010F090FA0C901B980BFB00F1D3
:1006D0000C98814201DD0C9802E01B990BFB01F0A4
:1006E0000B900B9819F06AFE8146CDF840900020DF
:1006F0000A9021881998084400B2ADF8200021889A
:1007000018980844401E00B2ADF82400618817987C
:10071000084400B2ADF82200BDF82200ADF8260072
:1007200000BFBDF82400BDF82010401A401C00B2E4
:10073000079000BFBDF82000ADF81400BDF82200FE
:10074000ADF81600BDF82400ADF81800BDF826007D
:10075000ADF81A0000BFBDF816101698084400B294
:10076000ADF81A0005A811F0CBFE049008A80D9072
:100770001290C5F10800039019980BEB000118982E
:10078000081A6843029017981C9078E00A98019024
:100790002AFA07F0209019981D9028E02E980078EA
:1007A000209908400399C91BC8401490149830B18F
:1007B000149818F800100A9809F8001003E00021B6
:1007C0000A9809F800100398874204D22F44209811
:1007D000E840209005E00027CDF880A02E98401C2E
:1007E0002E900A98401C0A901D98401C1D90189944
:1007F0001D988842D2DB0498A0B1BDF92620BDF92E
:100800002010019B09EB0300079B11F029FE8DF8D6
:1008100044009DF8440028B9019909EB01000799AB
:100820001AF05DF9DDE91801411A0A9801440B98A4
:10083000814206D2BDF82600401C00B2ADF8260069
:1008400012E002208DF844000DA9304612F04EFD52
:10085000BDF82600401C00B2ADF82200BDF8220011
:10086000ADF8260000200A90029807442E9800EB6D
:10087000D7002E9007F007071C98401C1C90169973
:100880001C98884282DBBDF92200BDF926108842FF
:100890000ED0BDF82600401E00B2ADF826000220A2
:1008A0008DF844000DA9304612F020FD00200A907A
:1008B000484619F083FE00BF67E60000E5FA03082A
:1008C000E7FA0308F3FA030803FB03086C765F6496
:1008D0007261775F6C65747465723A20696E7661D7
:1008E0006C6964206270700015FC03082E2E5C6138
:1008F00070705C4C56474C5C4755495C6C76676C35
:100900005C7372635C647261775C73775C6C765F56
:10091000647261775F73775F6C65747465722E6360
:100920000000000044020020480200206C09002062
:100930002DE9FF4F8FB00C4615461E46B4F9020054
:10094000401E0E900E9840100D900E9800F0010180
:100950000D9808440C90B5F90000B6F900108842D3
:1009600002DAB5F9000001E0B6F90000ADF82800A0
:10097000B5F90000B6F90010884202DDB5F90000B3
:1009800001E0B6F90000401E00B2ADF82C00698805
:100990000C98081A00B2ADF82A0069880D9808442E
:1009A00000B2ADF82E000F980AA982680AA8F5F7E0
:1009B00007FF8246BAF1000F02D113B0BDE8F08FF5
:1009C000E08818B1A08808B1012000E0002083462B
:1009D000012009900AA811F093FD10B100200990A0
:1009E00004E0BBF1000F01D0002009901C2102A8F7
:1009F0001AF075F80AA802902088ADF81000207A45
:100A00008DF82000099820B102A90F9812F06EFC11
:100A100078E00AA80DF008F90746BDF92E0001900C
:100A2000BDF82A00ADF82E0000200090BBF1000FA9
:100A30000BD0B4F90600B4F904100844BDF928102D
:100A400091FBF0F200FB12100090384619F0B6FC52
:100A50008046CDF814800AA80790BDF92A904AE094
:100A6000394640461AF072F8BDF928103BB20FFA29
:100A700089F2404611F0F4FC8DF81800BBF1000F2C
:100A800027D09DF8180020B3009800211BE0B4F98E
:100A90000420824207DBA3881B1A1AB28B1819B2F2
:100AA000831818B20BE0B4F90620B4F904301A44E4
:100AB000824201DC002002E0002208F801204A1CEA
:100AC00011B2421C10B2B942E1DB02228DF81820AB
:100AD00000BF02A90F9812F009FCBDF82A00401CC3
:100AE00000B2ADF82A00BDF82E00401C00B2ADF8EF
:100AF0002E0009F1010901988145B1DD404619F048
:100B00005DFD00BF00BF58E72DE9FF4FC7B08B4622
:100B100091469A46B9F90200BAF90210884210DAF1
:100B2000B9F80200ADF81A01BAF80200ADF81601E2
:100B3000B9F80000ADF81801BAF80000ADF81401DA
:100B40000FE0BAF80200ADF81A01B9F80200ADF8EA
:100B50001601BAF80000ADF81801B9F80000ADF8B8
:100B60001401BDF91401BDF91811441ABDF916019B
:100B7000BDF91A11451A002C01DD204600E0604243
:100B8000002D01DD294600E06942884201DD012097
:100B900000E000204490BBF902600020439044989C
:100BA00070B1002D01DD284600E068424101002CB3
:100BB00001DD204600E0604291FBF0F043900DE043
:100BC000002C01DD204600E060424101002D01DDE6
:100BD000284600E0684291FBF0F04390E0494398DA
:100BE000085C70433F30C611771006F0010000EB3F
:100BF0000708BDF91801BDF91411884202DABDF9E0
:100C0000180101E0BDF91401801B00B2ADF8040128
:100C1000BDF91801BDF91411884202DDBDF91801B2
:100C200001E0BDF91401304400B2ADF80801BDF98E
:100C30001A01BDF91611884202DABDF91A0101E064
:100C4000BDF91601801B00B2ADF80601BDF91A010D
:100C5000BDF91611884202DDBDF91A0101E0BDF9A6
:100C60001601304400B2ADF80A01479841A98268E4
:100C700041A8F5F7A5FD4090409810B94BB0BDE8EC
:100C8000F08F4498F0B3002C24DD0021BDF816014C
:100C9000C01B00B2CDE90001BDF91431BDF81A0145
:100CA000C01B02B2BDF9181135A811F023FD0121B6
:100CB000BDF81601404400B2CDE90001BDF9143180
:100CC000BDF81A01404402B2BDF918112AA811F06A
:100CD00011FD4AE00021BDF81601404400B2CDE903
:100CE0000001BDF91431BDF81A01404402B2BDF94A
:100CF000181135A811F0FEFC0121BDF81601C01B2A
:100D000000B200E00DE0CDE90001BDF91431BDF8FD
:100D10001A01C01B02B2BDF918112AA811F0EAFC91
:100D200023E00021BDF91601CDE90001BDF8140151
:100D3000404403B2BDF91A21BDF81801404401B284
:100D400035A811F0D7FC0121BDF91601CDE900014C
:100D5000BDF81401C01B03B2BDF91A21BDF818017A
:100D6000C01B01B22AA811F0C5FC002135A811F062
:100D70000DF8139000212AA811F008F812904FF0F6
:100D8000FF30119010909BF80900C0F3001068BB71
:100D90000321BDF81A01204400B2CDE90001BDF8DD
:100DA0001801401B03B2BDF91A21BDF918111FA883
:100DB00011F0A0FC0221BDF81601204400B2CDE9DB
:100DC0000001BDF81401401B03B2BDF91621BDF9A5
:100DD000141114A811F08EFC00211FA810F0D6FFEA
:100DE0001190002114A810F0D1FF109041A80CF030
:100DF0001BFF0F90F7F75CFC01900FF0F5FE0D90D4
:100E000041A80CF0DDFE01460D98814203D241A8B5
:100E10000CF0D6FE00E00D980C900C9819F0CEFA6C
:100E20000B90BDF90A010A90BDF80601ADF80A0160
:100E300000200990DDE90B0119F088FE1C2102A8B1
:100E400019F04DFE41A80290BBF80000ADF810006B
:100E50009BF808008DF820000B98059041A807909A
:100E6000BDF906010E9040E0BDF90411099B0B9AF3
:100E7000D0180F9A13B20E9A12B211F0F1FA8DF83F
:100E800018009DF8180028B9099A0B9988180F992D
:100E900019F025FE0F990998084409900F990998AF
:100EA00001440C98814206D2BDF80A01401C00B2F0
:100EB000ADF80A0116E002208DF8180002A9479843
:100EC00012F014FABDF80A01401C00B2ADF8060198
:100ED000BDF80601ADF80A0100200990DDE90B011B
:100EE00019F034FE0E98401C0E900A990E98884214
:100EF000BADDBDF90601BDF90A1188420CD0BDF872
:100F00000A01401E00B2ADF80A0102208DF8180057
:100F100002A9479812F0EAF90B9819F04FFB35A88F
:100F200011F0CAFA2AA811F0C7FA1198401C10B1A2
:100F30001FA811F0C1FA1098401C10B114A811F0AC
:100F4000BBFA139811F082FF129811F07FFF1198ED
:100F500011F07CFF109811F079FF00BF8EE60000C1
:100F600028FC03082DE9FF4F91B00C4615461E469C
:100F7000B4F90200401E1090109840100F90109885
:100F800000F001010F9808440E9029880E98081A65
:100F900000B2ADF8300029880F98084400B2ADF8CF
:100FA0003400B5F90200B6F90210884202DAB5F948
:100FB000020001E0B6F90200ADF83200B5F9020016
:100FC000B6F90210884202DDB5F9020001E0B6F977
:100FD0000200401E00B2ADF8360011980CA98268DC
:100FE0000CA8F5F7EDFB8146B9F1000F02D115B061
:100FF000BDE8F08FE08818B1A08808B1012000E0BA
:101000000020824601200B900CA811F079FA10B153
:1010100000200B9004E0BAF1000F01D000200B90EB
:101020001C2104A819F05BFD0CA804902088ADF8E1
:101030001800207A8DF828000B9820B104A9119887
:1010400012F054F966E00CA80CF0EEFD8346BDF9F1
:1010500036000390BDF83200ADF83600584619F05E
:10106000ADF90290029807900CA809900020019019
:10107000BAF1000F0BD0B4F90600B4F9041008441B
:10108000BDF9321091FBF0F200FB12100190019FAC
:10109000BDF9328037E05946029819F057FDBDF985
:1010A00030100FFA8BF30FFA88F2029811F0D8F98A
:1010B0008DF82000BAF1000F13D09DF8200070B118
:1010C000B4F90400B84202DA00208DF82000B4F927
:1010D0000600B4F904100844B84200DC0027781C6C
:1010E00007B204A9119812F001F9BDF83200401CB2
:1010F00000B2ADF83200BDF83600401C00B2ADF8C9
:10110000360008F1010803988045C4DD029819F003
:1011100055FA00BF00BF6AE72DE9FC5F80464046F4
:1011200013F01DFE0746B946D9F824603446404600
:1011300013F054FD0546606A00F114026846A96880
:10114000F5F73EFB8246BAF1000F41D0D5F808B062
:10115000C5F808D094F83C00C0F3401048B3608F45
:10116000E18E88420CD1628F212329463046FDF75B
:1011700066FA628F212329463046FDF7CCFA24E037
:10118000628F202329463046FDF759FA628F2023CB
:1011900029463046FDF7BFFAE28E01232946304644
:1011A000FDF74DFAE28E012329463046FDF7B3FAEA
:1011B0000BE0628F202329463046FDF740FA628F0C
:1011C000202329463046FDF7A6FAC5F808B000BF2F
:1011D000BDE8FC9F2DE9F14FD0B0509813F0BFFD52
:1011E00004462546288E10B951B0BDE8F08F5098BE
:1011F00013F0F4FC4F90608C20F00400001D60841C
:101200004DA920461BF076FE0026B246B4F8208099
:1012100000202084608C20F00400001D608427A83A
:1012200011F042FE1FA810F039FD27AA4FF4A021AB
:1012300020461DF0CDFE1FAA4FF4A02120461DF030
:10124000ECFD608C20F004006084A4F82080002174
:1012500020461DF0E4F91E90002120461CF096FF68
:101260001D90002120461DF06EF81C9000212046A4
:101270001DF012F91B9009A84F991BF031FB4FF498
:10128000A0201690D7480A9000200B903DA80D9002
:1012900035A80E9000BF9BE103E00AF101001FFAA0
:1012A00080FA696A51F82A00CFA1EEF7F5FF00280D
:1012B000F3D0E96A31F81600F9F72FFF00B181E1A8
:1012C0000027E96A31F81600F9F717FF08B147F06F
:1012D0000107E96A31F81600F9F723FF10B147F06A
:1012E000800716E0A88EB04213D108F0200008B1A4
:1012F00047F0200708F0020008B147F0020708F0A5
:10130000040008B147F0040708F0080008B147F0EE
:101310000807A86A00EBC6014BA80CF0CBFBBDF890
:101320002C01BDF83411084400B2ADF82C01BDF811
:101330002E01BDF83611084400B2ADF82E01BDF8FB
:101340003001BDF83411084400B2ADF83001BDF8E9
:101350003201BDF83611084400B2ADF8320157B978
:10136000382227A93DA819F02CFA20221FA935A858
:1013700019F027FA1DE02784608C20F00400001D7E
:1013800060843DA811F090FD35A810F087FC3DAABF
:101390004FF4A02120461DF01BFE35AA4FF4A021DA
:1013A00020461DF03AFDA4F82080608C20F0040057
:1013B0006084E96A31F81600F9F7BBFE8346BBF199
:1013C000000F06D09DF8F10040F001008DF8F1000B
:1013D00005E09DF8F10020F001008DF8F1004BA828
:1013E0000C90179609AA1A21204613F0BFFC9DF80D
:1013F0001701400800F01000F0B39DF8170120F02D
:101400003E001E308DF81701BDF92C11B4F91420DF
:101410001C98104481420AD19DF81701400820F021
:1014200004009DF8171160F345018DF81711BDF9FF
:101430003011B4F918201B98101A81420AD19DF876
:101440001701400820F008009DF8171160F34501CE
:101450008DF81711BDF92E11B4F916201E981044FD
:1014600081420CD19DF81701400820F002009DF840
:10147000171160F3450100E014E08DF81711BDF974
:101480003211B4F91A201D98101A81420AD19DF820
:101490001701400820F001009DF8171160F3450185
:1014A0008DF817114BA80CF076FB814607F0200051
:1014B00060B1E86A30F8160000F4007030B1BDF891
:1014C0002E01A0EB090000B2ADF82E014BAA3DA9F8
:1014D0004F9811F0CDFC35980890BDF9E8000790C1
:1014E000BDF9E6000690686A50F82A0005904DA8FC
:1014F0000CF0D9FB03909DF8F11002460698CDE957
:101500000121009004A8DDE90732059924F052F981
:101510004BA80CF0C8FBBDF91010401A039000EB6B
:10152000D070BDF82C1101EB600000B2ADF82C01B9
:101530004BA80CF030FBBDF91210401A039000EBE1
:10154000D070BDF82E1101EB600000B2ADF82E0195
:10155000BDF82C01BDF81010084400B2ADF8300100
:10156000BDF82E01BDF81210084400B2ADF83201EA
:1015700007F02000C0B1E86A30F8160000F40070EF
:1015800090B1484609EBD071BDF82E21A2EB610164
:1015900009B2ADF82E1109EBD071BDF83221A2EBE2
:1015A000610109B2ADF83211002000904BAA35A9B3
:1015B000059B4F980FF08AFF09AA1B21204613F0C4
:1015C000D5FB00BF701C86B20AF101001FFA80FA39
:1015D000288EB0423FF760AE608C20F0040060843B
:1015E00000BF01E6E44204080A0000002DE9F14FC3
:1015F000A2B0229813F0B3FB04462546229813F0BC
:10160000EDFA2190002120461CF05CFC8146264624
:10161000002741F61202394630461DF05BF80A9069
:101620000A98484400B2209000BF41F613023946A0
:1016300030461DF04FF80A900A98484400B21F90B7
:10164000002120461DF005F8484400B21E9016A85F
:1016500010F024FB16AA4FF4003120461DF0DDFBEC
:10166000A86A10B1D5F828800AE0802018F0A6FEFC
:10167000064680223146204612F0F8FEB04600BFF2
:101680004FF0000A95F83C0000F00F00012800D14F
:101690008246002641F26A42314620461DF01AF881
:1016A0000A900A98C0B2012800D18246E86A002850
:1016B0007ED0E86A16F056FA0A900A98022814D1E9
:1016C0009DF8750041F6FF72BDF96A10CDE9001270
:1016D0000290BDF96C30169A07A8E96A24F06AF8FE
:1016E000BDF91C60BDF91E7011E007A9E86A15F08C
:1016F000FBFD8346BBF1010F05D10798C0F38A2695
:101700000798470D02E04FF0FF36374600BFBAF1A9
:10171000000F0DD0A18A2098084400B2ADF8200037
:10172000BDF820003044401E00B2ADF824000DE0AA
:10173000218B1F98081A801B00B2ADF82000BDF85D
:1017400020003044401E00B2ADF824000A98022860
:1017500015D1E18A1E98084400B2ADF82200BDF808
:1017600022003844401E00B2ADF826000020009050
:1017700008AA16A9EB6A21980FF0A8FE40E02046BF
:101780001BF034FCA0EB070B0BEBDB704110E08A85
:10179000084400B2ADF82200BDF822003844401ED3
:1017A00000B2ADF8260002A80FF073FE02AA00E016
:1017B00027E04FF4003120461DF0D0FA304606EB0A
:1017C000D071491009B2ADF80C10384607EBD07152
:1017D00049100AB2ADF80E204FF4003B43F60F0259
:1017E000594620461CF076FF0190019880B2ADF872
:1017F000080008AA02A9EB6A21980FF0C1FD00BFFA
:1018000000BF0EA810F04AFA0EAA002120461DF0D3
:1018100004FB9DF8550041F6FF72BDF94A10CDE971
:1018200000120290BDF94C3041460DA80E9A23F0EB
:10183000C1FFE18A1E98084400B2ADF82E00BDF841
:101840002E00BDF83610084400B2ADF83200E86A48
:10185000B0B920461DF071F9BDF93410461A06EBF7
:10186000D670A18A01EB600000B2ADF82C00BDF883
:101870002C00BDF83410084400B2ADF8300022E06E
:10188000BAF1000F11D0218B1F98081ABDF834103F
:10189000401A00B2ADF82C00BDF82C00BDF8341091
:1018A000084400B2ADF830000DE0A18A2098084449
:1018B00000B2ADF82C00BDF82C00BDF8341008447F
:1018C00000B2ADF83000002043460BAA0EA90090EC
:1018D00021980FF0FBFDA86A10B9404618F06EFE83
:1018E00023B0BDE8F08F2DE9F14F90B0109813F0C0
:1018F00036FA05462C46109813F070F906460EA9E4
:1019000028461BF083FA002794F84800C0F3001023
:1019100008B147F0010794F84800C0F3401008B13F
:1019200047F00207002128461DF0E0F842F2D1718D
:10193000884205D1688CC0F3802008B947F00407BD
:1019400006A810F0ABF9B4F84400ADF82E0046201C
:10195000005BADF830008DF8357006AA00212846EE
:101960001DF05BFA0DA8411E626A03780BB90123D2
:10197000037000BF284617F00BFA0790284617F0AF
:1019800001FA08904FF6FF71079888421ED0089818
:1019900088421BD04FF4802B44F2574259462846C8
:1019A0001CF098FE029002980390BDF80C00ADF870
:1019B000260000BF2022594628461CF08BFE0290CC
:1019C00002980390BDF80C00ADF8280094F8480088
:1019D00000F00700022805D094F8480000F0070046
:1019E00003281FD19DF83400022803D09DF834004D
:1019F000032817D141F6FF71BDF92A008DE8830055
:101A0000BDF92C30069A03A8616A23F0D3FE0EA814
:101A10000CF057F9BDF90C10884202DA01208DF85C
:101A2000340000BF04F1300894F8480000F00700CB
:101A3000032805D00EA80CF0BCF8B0F5806F01DAD1
:101A40004FF000080EA904A8B268F4F7B9FE814669
:101A5000B9F1000F02D111B0BDE8F08F94F8480041
:101A600000F0070070B928461BF0B0FC8346CBF1AC
:101A7000000002B200210EA80CF03BF9688BADF813
:101A80003E0000BF94F8480000F00700022805D08F
:101A900094F8480000F0070003280ED1D6F808B0EB
:101AA00004A8B060CDF800800EAA06A93046636A8B
:101AB0000FF00CFDC6F808B007E0CDF800800EAAC4
:101AC00006A93046636A0FF001FDD6F808A004A805
:101AD000B06094F8480000F0070003284FD141F6A9
:101AE000FF71BDF92A008DE88300BDF92C30069AFC
:101AF00003A8616A23F05EFE0EA80CF0E2F8BDF9BF
:101B00000C1088421BDA20221146069813F05EFB67
:101B100000EB4000B4F84410BDF80C201144084418
:101B200000B2ADF82E004620005BADF83000CDF8D5
:101B300000800EAA06A93046636A0FF0C7FC0EA803
:101B40000CF037F8BDF90E10884217DAB4F84400EB
:101B5000ADF82E00069813F099FB4621095BBDF8FD
:101B60000E201144084400B2ADF83000CDF80080DA
:101B70000EAA06A93046636A0FF0A8FC00BFC6F89B
:101B800008A000BF67E72DE9F14F9AB01A9813F04B
:101B90001DF880461A9813F0E2F80446B8F1150FC4
:101BA00016D11A9813F01AF8054618A9204607F01E
:101BB000D1FC0AA811F078F90AAA4FF48021204636
:101BC0001DF006FA18AA0AA9284611F051F9C5E035
:101BD000B8F1180FFBD11A9813F000F8054612A8B7
:101BE00010F05CF812AA4FF4802120461DF015F980
:101BF00010A9204607F0AEFC10AA0EA8A968F4F7B9
