Component: ARM Compiler 5.06 update 7 (build 960) Tool: armlink [4d3601]

==============================================================================

Section Cross References

    startup_stm32f407xx.o(RESET) refers to startup_stm32f407xx.o(STACK) for __initial_sp
    startup_stm32f407xx.o(RESET) refers to startup_stm32f407xx.o(.text) for Reset_Handler
    startup_stm32f407xx.o(RESET) refers to stm32f4xx_it.o(i.NMI_Handler) for NMI_Handler
    startup_stm32f407xx.o(RESET) refers to stm32f4xx_it.o(i.HardFault_Handler) for HardFault_Handler
    startup_stm32f407xx.o(RESET) refers to stm32f4xx_it.o(i.MemManage_Handler) for MemManage_Handler
    startup_stm32f407xx.o(RESET) refers to stm32f4xx_it.o(i.BusFault_Handler) for BusFault_Handler
    startup_stm32f407xx.o(RESET) refers to stm32f4xx_it.o(i.UsageFault_Handler) for UsageFault_Handler
    startup_stm32f407xx.o(RESET) refers to stm32f4xx_it.o(i.SVC_Handler) for SVC_Handler
    startup_stm32f407xx.o(RESET) refers to stm32f4xx_it.o(i.DebugMon_Handler) for DebugMon_Handler
    startup_stm32f407xx.o(RESET) refers to stm32f4xx_it.o(i.PendSV_Handler) for PendSV_Handler
    startup_stm32f407xx.o(RESET) refers to stm32f4xx_it.o(i.SysTick_Handler) for SysTick_Handler
    startup_stm32f407xx.o(RESET) refers to stm32f4xx_it.o(i.EXTI3_IRQHandler) for EXTI3_IRQHandler
    startup_stm32f407xx.o(RESET) refers to stm32f4xx_it.o(i.TIM7_IRQHandler) for TIM7_IRQHandler
    startup_stm32f407xx.o(RESET) refers to stm32f4xx_it.o(i.DMA2_Stream1_IRQHandler) for DMA2_Stream1_IRQHandler
    startup_stm32f407xx.o(.text) refers to system_stm32f4xx.o(i.SystemInit) for SystemInit
    startup_stm32f407xx.o(.text) refers to entry.o(.ARM.Collect$$$$00000000) for __main
    main.o(i.SystemClock_Config) refers to memseta.o(.text) for __aeabi_memclr4
    main.o(i.SystemClock_Config) refers to stm32f4xx_hal_rcc.o(i.HAL_RCC_OscConfig) for HAL_RCC_OscConfig
==============================================================================

Removing Unused input sections from the image.

    Removing main.o(.rev16_text), (4 bytes).
    Removing main.o(.revsh_text), (4 bytes).
    Removing main.o(.rrx_text), (6 bytes).
    Removing gpio.o(.rev16_text), (4 bytes).
    Removing gpio.o(.revsh_text), (4 bytes).
    Removing gpio.o(.rrx_text), (6 bytes).
    Removing dcmi.o(.rev16_text), (4 bytes).
    Removing dcmi.o(.revsh_text), (4 bytes).
    Removing dcmi.o(.rrx_text), (6 bytes).
    Removing dcmi.o(i.HAL_DCMI_MspDeInit), (88 bytes).
    Removing dma.o(.rev16_text), (4 bytes).
    Removing dma.o(.revsh_text), (4 bytes).
    Removing dma.o(.rrx_text), (6 bytes).
    Removing fsmc.o(.rev16_text), (4 bytes).
    Removing fsmc.o(.revsh_text), (4 bytes).
    Removing fsmc.o(.rrx_text), (6 bytes).
    Removing fsmc.o(i.HAL_FSMC_MspDeInit), (96 bytes).
    Removing fsmc.o(i.HAL_SRAM_MspDeInit), (10 bytes).
==============================================================================

Image Symbol Table

    Local Symbols

    Symbol Name                              Value     Ov Type        Size  Object(Section)

    ../Core/Src/dcmi.c                       0x00000000   Number         0  dcmi.o ABSOLUTE
    ../Core/Src/dma.c                        0x00000000   Number         0  dma.o ABSOLUTE
    ../Core/Src/fsmc.c                       0x00000000   Number         0  fsmc.o ABSOLUTE
    ../Core/Src/gpio.c                       0x00000000   Number         0  gpio.o ABSOLUTE
    ../Core/Src/main.c                       0x00000000   Number         0  main.o ABSOLUTE
    ../Core/Src/sdio.c                       0x00000000   Number         0  sdio.o ABSOLUTE
    ../Core/Src/spi.c                        0x00000000   Number         0  spi.o ABSOLUTE
    ../Core/Src/stm32f4xx_hal_msp.c          0x00000000   Number         0  stm32f4xx_hal_msp.o ABSOLUTE
    ../Core/Src/stm32f4xx_it.c               0x00000000   Number         0  stm32f4xx_it.o ABSOLUTE
    ../Core/Src/system_stm32f4xx.c           0x00000000   Number         0  system_stm32f4xx.o ABSOLUTE
    ../Core/Src/tim.c                        0x00000000   Number         0  tim.o ABSOLUTE
    ../Core/Src/usart.c                      0x00000000   Number         0  usart.o ABSOLUTE
    ../Drivers/STM32F4xx_HAL_Driver/Src/stm32f4xx_hal.c 0x00000000   Number         0  stm32f4xx_hal.o ABSOLUTE
    ../Drivers/STM32F4xx_HAL_Driver/Src/stm32f4xx_hal_cortex.c 0x00000000   Number         0  stm32f4xx_hal_cortex.o ABSOLUTE
    ../Drivers/STM32F4xx_HAL_Driver/Src/stm32f4xx_hal_dcmi.c 0x00000000   Number         0  stm32f4xx_hal_dcmi.o ABSOLUTE
    ../Drivers/STM32F4xx_HAL_Driver/Src/stm32f4xx_hal_dcmi_ex.c 0x00000000   Number         0  stm32f4xx_hal_dcmi_ex.o ABSOLUTE
    ../Drivers/STM32F4xx_HAL_Driver/Src/stm32f4xx_hal_dma.c 0x00000000   Number         0  stm32f4xx_hal_dma.o ABSOLUTE
    ../Drivers/STM32F4xx_HAL_Driver/Src/stm32f4xx_hal_dma_ex.c 0x00000000   Number         0  stm32f4xx_hal_dma_ex.o ABSOLUTE
    ../Drivers/STM32F4xx_HAL_Driver/Src/stm32f4xx_hal_exti.c 0x00000000   Number         0  stm32f4xx_hal_exti.o ABSOLUTE
    ../Drivers/STM32F4xx_HAL_Driver/Src/stm32f4xx_hal_flash.c 0x00000000   Number         0  stm32f4xx_hal_flash.o ABSOLUTE
    ../Drivers/STM32F4xx_HAL_Driver/Src/stm32f4xx_hal_flash_ex.c 0x00000000   Number         0  stm32f4xx_hal_flash_ex.o ABSOLUTE
    ../Drivers/STM32F4xx_HAL_Driver/Src/stm32f4xx_hal_flash_ramfunc.c 0x00000000   Number         0  stm32f4xx_hal_flash_ramfunc.o ABSOLUTE
    ../Drivers/STM32F4xx_HAL_Driver/Src/stm32f4xx_hal_gpio.c 0x00000000   Number         0  stm32f4xx_hal_gpio.o ABSOLUTE
    ../Drivers/STM32F4xx_HAL_Driver/Src/stm32f4xx_hal_pwr.c 0x00000000   Number         0  stm32f4xx_hal_pwr.o ABSOLUTE
    ../Drivers/STM32F4xx_HAL_Driver/Src/stm32f4xx_hal_pwr_ex.c 0x00000000   Number         0  stm32f4xx_hal_pwr_ex.o ABSOLUTE
    ../Drivers/STM32F4xx_HAL_Driver/Src/stm32f4xx_hal_rcc.c 0x00000000   Number         0  stm32f4xx_hal_rcc.o ABSOLUTE
    ../Drivers/STM32F4xx_HAL_Driver/Src/stm32f4xx_hal_rcc_ex.c 0x00000000   Number         0  stm32f4xx_hal_rcc_ex.o ABSOLUTE
    ../Drivers/STM32F4xx_HAL_Driver/Src/stm32f4xx_hal_sd.c 0x00000000   Number         0  stm32f4xx_hal_sd.o ABSOLUTE
    ../Drivers/STM32F4xx_HAL_Driver/Src/stm32f4xx_hal_spi.c 0x00000000   Number         0  stm32f4xx_hal_spi.o ABSOLUTE
    ../Drivers/STM32F4xx_HAL_Driver/Src/stm32f4xx_hal_sram.c 0x00000000   Number         0  stm32f4xx_hal_sram.o ABSOLUTE
    ../Drivers/STM32F4xx_HAL_Driver/Src/stm32f4xx_hal_tim.c 0x00000000   Number         0  stm32f4xx_hal_tim.o ABSOLUTE
    ../Drivers/STM32F4xx_HAL_Driver/Src/stm32f4xx_hal_tim_ex.c 0x00000000   Number         0  stm32f4xx_hal_tim_ex.o ABSOLUTE
    ../Drivers/STM32F4xx_HAL_Driver/Src/stm32f4xx_hal_uart.c 0x00000000   Number         0  stm32f4xx_hal_uart.o ABSOLUTE
    ../Drivers/STM32F4xx_HAL_Driver/Src/stm32f4xx_ll_fsmc.c 0x00000000   Number         0  stm32f4xx_ll_fsmc.o ABSOLUTE
    ../Drivers/STM32F4xx_HAL_Driver/Src/stm32f4xx_ll_sdmmc.c 0x00000000   Number         0  stm32f4xx_ll_sdmmc.o ABSOLUTE
    ../FATFS/App/fatfs.c                     0x00000000   Number         0  fatfs.o ABSOLUTE
    ../FATFS/Target/bsp_driver_sd.c          0x00000000   Number         0  bsp_driver_sd.o ABSOLUTE
    ../FATFS/Target/fatfs_platform.c         0x00000000   Number         0  fatfs_platform.o ABSOLUTE
    ../FATFS/Target/sd_diskio.c              0x00000000   Number         0  sd_diskio.o ABSOLUTE
    ../Middlewares/Third_Party/FatFs/src/diskio.c 0x00000000   Number         0  diskio.o ABSOLUTE
    ../Middlewares/Third_Party/FatFs/src/ff.c 0x00000000   Number         0  ff.o ABSOLUTE
    ../Middlewares/Third_Party/FatFs/src/ff_gen_drv.c 0x00000000   Number         0  ff_gen_drv.o ABSOLUTE
    ../Middlewares/Third_Party/FatFs/src/option/syscall.c 0x00000000   Number         0  syscall.o ABSOLUTE
    ../clib/../cmprslib/zerorunl2.c          0x00000000   Number         0  __dczerorl2.o ABSOLUTE
    ../clib/microlib/ctype/tolower.c         0x00000000   Number         0  tolower.o ABSOLUTE
    ../clib/microlib/division.c              0x00000000   Number         0  uidiv.o ABSOLUTE
    ../clib/microlib/division.c              0x00000000   Number         0  uldiv.o ABSOLUTE
    ../clib/microlib/init/entry.s            0x00000000   Number         0  entry12a.o ABSOLUTE
    ../clib/microlib/init/entry.s            0x00000000   Number         0  entry7b.o ABSOLUTE
    ../clib/microlib/init/entry.s            0x00000000   Number         0  entry8a.o ABSOLUTE
    ../clib/microlib/init/entry.s            0x00000000   Number         0  entry8b.o ABSOLUTE
    ../clib/microlib/init/entry.s            0x00000000   Number         0  entry9b.o ABSOLUTE
    ../clib/microlib/init/entry.s            0x00000000   Number         0  entry10a.o ABSOLUTE
    ../clib/microlib/init/entry.s            0x00000000   Number         0  entry10b.o ABSOLUTE
    ../clib/microlib/init/entry.s            0x00000000   Number         0  entry2.o ABSOLUTE
    ../clib/microlib/init/entry.s            0x00000000   Number         0  entry12b.o ABSOLUTE
    ../clib/microlib/init/entry.s            0x00000000   Number         0  entry11b.o ABSOLUTE
    ../clib/microlib/init/entry.s            0x00000000   Number         0  entry11a.o ABSOLUTE
    ../clib/microlib/init/entry.s            0x00000000   Number         0  entry.o ABSOLUTE
    ../clib/microlib/init/entry.s            0x00000000   Number         0  entry5.o ABSOLUTE
    ../clib/microlib/init/entry.s            0x00000000   Number         0  entry7a.o ABSOLUTE
    ../clib/microlib/init/entry.s            0x00000000   Number         0  entry9a.o ABSOLUTE
    ../clib/microlib/longlong.c              0x00000000   Number         0  llshl.o ABSOLUTE
    ../clib/microlib/longlong.c              0x00000000   Number         0  llushr.o ABSOLUTE
    ../clib/microlib/longlong.c              0x00000000   Number         0  llsshr.o ABSOLUTE
    ../clib/microlib/malloc/malloc.c         0x00000000   Number         0  malloca.o ABSOLUTE
    ../clib/microlib/malloc/malloc.c         0x00000000   Number         0  mallocra.o ABSOLUTE
    ../clib/microlib/malloc/malloc.c         0x00000000   Number         0  mallocr.o ABSOLUTE
    ../clib/microlib/malloc/malloc.c         0x00000000   Number         0  malloc.o ABSOLUTE
    ../clib/microlib/malloc/mvars.c          0x00000000   Number         0  mvars.o ABSOLUTE
    ../clib/microlib/printf/printf.c         0x00000000   Number         0  printf6.o ABSOLUTE
    ../clib/microlib/printf/printf.c         0x00000000   Number         0  printf5.o ABSOLUTE
    ../clib/microlib/printf/printf.c         0x00000000   Number         0  printf4.o ABSOLUTE
    ../clib/microlib/printf/printf.c         0x00000000   Number         0  printfb.o ABSOLUTE
    ../clib/microlib/printf/printf.c         0x00000000   Number         0  printf0.o ABSOLUTE
    ../clib/microlib/printf/printf.c         0x00000000   Number         0  printf2.o ABSOLUTE
    ../clib/microlib/printf/printf.c         0x00000000   Number         0  printf1.o ABSOLUTE
    ../clib/microlib/printf/printf.c         0x00000000   Number         0  printf7.o ABSOLUTE
    ../clib/microlib/printf/printf.c         0x00000000   Number         0  printf8.o ABSOLUTE
    ../clib/microlib/printf/printf.c         0x00000000   Number         0  printfa.o ABSOLUTE
    ../clib/microlib/printf/printf.c         0x00000000   Number         0  printf3.o ABSOLUTE
    ../clib/microlib/printf/stubs.s          0x00000000   Number         0  stubs.o ABSOLUTE
    ../clib/microlib/stdio/puts.c            0x00000000   Number         0  puts_e.o ABSOLUTE
    ../clib/microlib/stdio/puts.c            0x00000000   Number         0  puts.o ABSOLUTE
    ../clib/microlib/stdio/streams.c         0x00000000   Number         0  stdout.o ABSOLUTE
    ../clib/microlib/string/memcmp.c         0x00000000   Number         0  memcmp.o ABSOLUTE
    ../clib/microlib/string/memcpy.c         0x00000000   Number         0  memmoveb.o ABSOLUTE
    ../clib/microlib/string/memcpy.c         0x00000000   Number         0  memcpyb.o ABSOLUTE
    ../clib/microlib/string/memcpy.c         0x00000000   Number         0  memmovea.o ABSOLUTE
    ../clib/microlib/string/memcpy.c         0x00000000   Number         0  memcpya.o ABSOLUTE
    ../clib/microlib/string/memset.c         0x00000000   Number         0  memseta.o ABSOLUTE
    ../clib/microlib/string/strcasecmp.c     0x00000000   Number         0  strcasecmp.o ABSOLUTE
    ../clib/microlib/string/strcat.c         0x00000000   Number         0  strcat.o ABSOLUTE
    ../clib/microlib/string/strcmp.c         0x00000000   Number         0  strcmp.o ABSOLUTE
    ../clib/microlib/string/strcpy.c         0x00000000   Number         0  strcpy.o ABSOLUTE
    ../clib/microlib/string/strlen.c         0x00000000   Number         0  strlen.o ABSOLUTE
    ../clib/microlib/string/strrchr.c        0x00000000   Number         0  strrchr.o ABSOLUTE
    ../clib/microlib/stubs.s                 0x00000000   Number         0  iusefp.o ABSOLUTE
    ../fplib/microlib/fpadd.c                0x00000000   Number         0  dadd.o ABSOLUTE
    ../fplib/microlib/fpdiv.c                0x00000000   Number         0  ddiv.o ABSOLUTE
    ../fplib/microlib/fpepilogue.c           0x00000000   Number         0  depilogue.o ABSOLUTE
    ../fplib/microlib/fpfix.c                0x00000000   Number         0  dfixui.o ABSOLUTE
    ../fplib/microlib/fpfix.c                0x00000000   Number         0  dfixul.o ABSOLUTE
    ../fplib/microlib/fpflt.c                0x00000000   Number         0  dfltui.o ABSOLUTE
    ../fplib/microlib/fpmul.c                0x00000000   Number         0  dmul.o ABSOLUTE
    ..\Core\Src\dcmi.c                       0x00000000   Number         0  dcmi.o ABSOLUTE
    ..\Core\Src\dma.c                        0x00000000   Number         0  dma.o ABSOLUTE
    ..\Core\Src\fsmc.c                       0x00000000   Number         0  fsmc.o ABSOLUTE
    ..\Core\Src\gpio.c                       0x00000000   Number         0  gpio.o ABSOLUTE
    ..\Core\Src\main.c                       0x00000000   Number         0  main.o ABSOLUTE
    ..\Core\Src\sdio.c                       0x00000000   Number         0  sdio.o ABSOLUTE
    ..\Core\Src\spi.c                        0x00000000   Number         0  spi.o ABSOLUTE
    ..\Core\Src\stm32f4xx_hal_msp.c          0x00000000   Number         0  stm32f4xx_hal_msp.o ABSOLUTE
    ..\Core\Src\stm32f4xx_it.c               0x00000000   Number         0  stm32f4xx_it.o ABSOLUTE
    ..\Core\Src\system_stm32f4xx.c           0x00000000   Number         0  system_stm32f4xx.o ABSOLUTE
    ..\Core\Src\tim.c                        0x00000000   Number         0  tim.o ABSOLUTE
    ..\Core\Src\usart.c                      0x00000000   Number         0  usart.o ABSOLUTE
    ..\Drivers\STM32F4xx_HAL_Driver\Src\stm32f4xx_hal.c 0x00000000   Number         0  stm32f4xx_hal.o ABSOLUTE
    ..\Drivers\STM32F4xx_HAL_Driver\Src\stm32f4xx_hal_cortex.c 0x00000000   Number         0  stm32f4xx_hal_cortex.o ABSOLUTE
    ..\Drivers\STM32F4xx_HAL_Driver\Src\stm32f4xx_hal_dcmi.c 0x00000000   Number         0  stm32f4xx_hal_dcmi.o ABSOLUTE
    ..\Drivers\STM32F4xx_HAL_Driver\Src\stm32f4xx_hal_dcmi_ex.c 0x00000000   Number         0  stm32f4xx_hal_dcmi_ex.o ABSOLUTE
    ..\Drivers\STM32F4xx_HAL_Driver\Src\stm32f4xx_hal_dma.c 0x00000000   Number         0  stm32f4xx_hal_dma.o ABSOLUTE
    ..\Drivers\STM32F4xx_HAL_Driver\Src\stm32f4xx_hal_dma_ex.c 0x00000000   Number         0  stm32f4xx_hal_dma_ex.o ABSOLUTE
    ..\Drivers\STM32F4xx_HAL_Driver\Src\stm32f4xx_hal_exti.c 0x00000000   Number         0  stm32f4xx_hal_exti.o ABSOLUTE
    ..\Drivers\STM32F4xx_HAL_Driver\Src\stm32f4xx_hal_flash.c 0x00000000   Number         0  stm32f4xx_hal_flash.o ABSOLUTE
    ..\Drivers\STM32F4xx_HAL_Driver\Src\stm32f4xx_hal_flash_ex.c 0x00000000   Number         0  stm32f4xx_hal_flash_ex.o ABSOLUTE
    ..\Drivers\STM32F4xx_HAL_Driver\Src\stm32f4xx_hal_flash_ramfunc.c 0x00000000   Number         0  stm32f4xx_hal_flash_ramfunc.o ABSOLUTE
    ..\Drivers\STM32F4xx_HAL_Driver\Src\stm32f4xx_hal_gpio.c 0x00000000   Number         0  stm32f4xx_hal_gpio.o ABSOLUTE
    ..\Drivers\STM32F4xx_HAL_Driver\Src\stm32f4xx_hal_pwr.c 0x00000000   Number         0  stm32f4xx_hal_pwr.o ABSOLUTE
    ..\Drivers\STM32F4xx_HAL_Driver\Src\stm32f4xx_hal_pwr_ex.c 0x00000000   Number         0  stm32f4xx_hal_pwr_ex.o ABSOLUTE
    ..\Drivers\STM32F4xx_HAL_Driver\Src\stm32f4xx_hal_rcc.c 0x00000000   Number         0  stm32f4xx_hal_rcc.o ABSOLUTE
    ..\Drivers\STM32F4xx_HAL_Driver\Src\stm32f4xx_hal_rcc_ex.c 0x00000000   Number         0  stm32f4xx_hal_rcc_ex.o ABSOLUTE
    ..\Drivers\STM32F4xx_HAL_Driver\Src\stm32f4xx_hal_sd.c 0x00000000   Number         0  stm32f4xx_hal_sd.o ABSOLUTE
    ..\Drivers\STM32F4xx_HAL_Driver\Src\stm32f4xx_hal_spi.c 0x00000000   Number         0  stm32f4xx_hal_spi.o ABSOLUTE
    ..\Drivers\STM32F4xx_HAL_Driver\Src\stm32f4xx_hal_sram.c 0x00000000   Number         0  stm32f4xx_hal_sram.o ABSOLUTE
    ..\Drivers\STM32F4xx_HAL_Driver\Src\stm32f4xx_hal_tim.c 0x00000000   Number         0  stm32f4xx_hal_tim.o ABSOLUTE
    ..\Drivers\STM32F4xx_HAL_Driver\Src\stm32f4xx_hal_tim_ex.c 0x00000000   Number         0  stm32f4xx_hal_tim_ex.o ABSOLUTE
    ..\Drivers\STM32F4xx_HAL_Driver\Src\stm32f4xx_hal_uart.c 0x00000000   Number         0  stm32f4xx_hal_uart.o ABSOLUTE
    ..\Drivers\STM32F4xx_HAL_Driver\Src\stm32f4xx_ll_fsmc.c 0x00000000   Number         0  stm32f4xx_ll_fsmc.o ABSOLUTE
    ..\Drivers\STM32F4xx_HAL_Driver\Src\stm32f4xx_ll_sdmmc.c 0x00000000   Number         0  stm32f4xx_ll_sdmmc.o ABSOLUTE
    ..\FATFS\App\fatfs.c                     0x00000000   Number         0  fatfs.o ABSOLUTE
    ..\FATFS\Target\bsp_driver_sd.c          0x00000000   Number         0  bsp_driver_sd.o ABSOLUTE
    ..\FATFS\Target\fatfs_platform.c         0x00000000   Number         0  fatfs_platform.o ABSOLUTE
    ..\FATFS\Target\sd_diskio.c              0x00000000   Number         0  sd_diskio.o ABSOLUTE
    ..\Middlewares\Third_Party\FatFs\src\diskio.c 0x00000000   Number         0  diskio.o ABSOLUTE
    ..\Middlewares\Third_Party\FatFs\src\ff.c 0x00000000   Number         0  ff.o ABSOLUTE
    ..\Middlewares\Third_Party\FatFs\src\ff_gen_drv.c 0x00000000   Number         0  ff_gen_drv.o ABSOLUTE
    ..\Middlewares\Third_Party\FatFs\src\option\syscall.c 0x00000000   Number         0  syscall.o ABSOLUTE
    ..\\app\\LVGL\\GUI\\lvgl\\examples\\porting\\lv_port_disp_template.c 0x00000000   Number         0  lv_port_disp_template.o ABSOLUTE
    ..\\app\\LVGL\\GUI\\lvgl\\examples\\porting\\lv_port_indev_template.c 0x00000000   Number         0  lv_port_indev_template.o ABSOLUTE
    ..\\app\\LVGL\\GUI\\lvgl\\src\\extra\\libs\\fsdrv\\lv_fs_fatfs.c 0x00000000   Number         0  lv_fs_fatfs.o ABSOLUTE
    ..\\app\\debug_print.c                   0x00000000   Number         0  debug_print.o ABSOLUTE
    ..\\app\\delay.c                         0x00000000   Number         0  delay.o ABSOLUTE
    ..\\app\\jx_2r_01.c                      0x00000000   Number         0  jx_2r_01.o ABSOLUTE
    ..\\app\\key.c                           0x00000000   Number         0  key.o ABSOLUTE
    ..\\app\\lcd.c                           0x00000000   Number         0  lcd.o ABSOLUTE
    ..\\app\\ov2640.c                        0x00000000   Number         0  ov2640.o ABSOLUTE
    ..\\app\\sccb.c                          0x00000000   Number         0  sccb.o ABSOLUTE
    ..\\app\\sd_fat.c                        0x00000000   Number         0  sd_fat.o ABSOLUTE
    ..\\app\\ui.c                            0x00000000   Number         0  ui.o ABSOLUTE
    ..\app\LVGL\GUI\lvgl\examples\porting\lv_port_disp_template.c 0x00000000   Number         0  lv_port_disp_template.o ABSOLUTE
    ..\app\LVGL\GUI\lvgl\examples\porting\lv_port_indev_template.c 0x00000000   Number         0  lv_port_indev_template.o ABSOLUTE
    ..\app\LVGL\GUI\lvgl\src\core\lv_disp.c  0x00000000   Number         0  lv_disp.o ABSOLUTE
    ..\app\LVGL\GUI\lvgl\src\core\lv_event.c 0x00000000   Number         0  lv_event.o ABSOLUTE
    ..\app\LVGL\GUI\lvgl\src\core\lv_group.c 0x00000000   Number         0  lv_group.o ABSOLUTE
    ..\app\LVGL\GUI\lvgl\src\core\lv_indev.c 0x00000000   Number         0  lv_indev.o ABSOLUTE
    ..\app\LVGL\GUI\lvgl\src\core\lv_indev_scroll.c 0x00000000   Number         0  lv_indev_scroll.o ABSOLUTE
    ..\app\LVGL\GUI\lvgl\src\core\lv_obj.c   0x00000000   Number         0  lv_obj.o ABSOLUTE
    ..\app\LVGL\GUI\lvgl\src\core\lv_obj_class.c 0x00000000   Number         0  lv_obj_class.o ABSOLUTE
    ..\app\LVGL\GUI\lvgl\src\core\lv_obj_draw.c 0x00000000   Number         0  lv_obj_draw.o ABSOLUTE
    ..\app\LVGL\GUI\lvgl\src\core\lv_obj_pos.c 0x00000000   Number         0  lv_obj_pos.o ABSOLUTE
    ..\app\LVGL\GUI\lvgl\src\core\lv_obj_scroll.c 0x00000000   Number         0  lv_obj_scroll.o ABSOLUTE
    ..\app\LVGL\GUI\lvgl\src\core\lv_obj_style.c 0x00000000   Number         0  lv_obj_style.o ABSOLUTE
    ..\app\LVGL\GUI\lvgl\src\core\lv_obj_style_gen.c 0x00000000   Number         0  lv_obj_style_gen.o ABSOLUTE
    ..\app\LVGL\GUI\lvgl\src\core\lv_obj_tree.c 0x00000000   Number         0  lv_obj_tree.o ABSOLUTE
    ..\app\LVGL\GUI\lvgl\src\core\lv_refr.c  0x00000000   Number         0  lv_refr.o ABSOLUTE
    ..\app\LVGL\GUI\lvgl\src\core\lv_theme.c 0x00000000   Number         0  lv_theme.o ABSOLUTE
    ..\app\LVGL\GUI\lvgl\src\draw\lv_draw.c  0x00000000   Number         0  lv_draw.o ABSOLUTE
    ..\app\LVGL\GUI\lvgl\src\draw\lv_draw_arc.c 0x00000000   Number         0  lv_draw_arc.o ABSOLUTE
    ..\app\LVGL\GUI\lvgl\src\draw\lv_draw_img.c 0x00000000   Number         0  lv_draw_img.o ABSOLUTE
    ..\app\LVGL\GUI\lvgl\src\draw\lv_draw_label.c 0x00000000   Number         0  lv_draw_label.o ABSOLUTE
    ..\app\LVGL\GUI\lvgl\src\draw\lv_draw_line.c 0x00000000   Number         0  lv_draw_line.o ABSOLUTE
    ..\app\LVGL\GUI\lvgl\src\draw\lv_draw_mask.c 0x00000000   Number         0  lv_draw_mask.o ABSOLUTE
    ..\app\LVGL\GUI\lvgl\src\draw\lv_draw_rect.c 0x00000000   Number         0  lv_draw_rect.o ABSOLUTE
    ..\app\LVGL\GUI\lvgl\src\draw\lv_draw_triangle.c 0x00000000   Number         0  lv_draw_triangle.o ABSOLUTE
    ..\app\LVGL\GUI\lvgl\src\draw\lv_img_buf.c 0x00000000   Number         0  lv_img_buf.o ABSOLUTE
    ..\app\LVGL\GUI\lvgl\src\draw\lv_img_cache.c 0x00000000   Number         0  lv_img_cache.o ABSOLUTE
    ..\app\LVGL\GUI\lvgl\src\draw\lv_img_decoder.c 0x00000000   Number         0  lv_img_decoder.o ABSOLUTE
    ..\app\LVGL\GUI\lvgl\src\draw\sdl\lv_draw_sdl.c 0x00000000   Number         0  lv_draw_sdl.o ABSOLUTE
    ..\app\LVGL\GUI\lvgl\src\draw\sdl\lv_draw_sdl_arc.c 0x00000000   Number         0  lv_draw_sdl_arc.o ABSOLUTE
    ..\app\LVGL\GUI\lvgl\src\draw\sdl\lv_draw_sdl_bg.c 0x00000000   Number         0  lv_draw_sdl_bg.o ABSOLUTE
    ..\app\LVGL\GUI\lvgl\src\draw\sdl\lv_draw_sdl_composite.c 0x00000000   Number         0  lv_draw_sdl_composite.o ABSOLUTE
    ..\app\LVGL\GUI\lvgl\src\draw\sdl\lv_draw_sdl_img.c 0x00000000   Number         0  lv_draw_sdl_img.o ABSOLUTE
    ..\app\LVGL\GUI\lvgl\src\draw\sdl\lv_draw_sdl_label.c 0x00000000   Number         0  lv_draw_sdl_label.o ABSOLUTE
    ..\app\LVGL\GUI\lvgl\src\draw\sdl\lv_draw_sdl_line.c 0x00000000   Number         0  lv_draw_sdl_line.o ABSOLUTE
    ..\app\LVGL\GUI\lvgl\src\draw\sdl\lv_draw_sdl_mask.c 0x00000000   Number         0  lv_draw_sdl_mask.o ABSOLUTE
    ..\app\LVGL\GUI\lvgl\src\draw\sdl\lv_draw_sdl_polygon.c 0x00000000   Number         0  lv_draw_sdl_polygon.o ABSOLUTE
    ..\app\LVGL\GUI\lvgl\src\draw\sdl\lv_draw_sdl_rect.c 0x00000000   Number         0  lv_draw_sdl_rect.o ABSOLUTE
    ..\app\LVGL\GUI\lvgl\src\draw\sdl\lv_draw_sdl_stack_blur.c 0x00000000   Number         0  lv_draw_sdl_stack_blur.o ABSOLUTE
    ..\app\LVGL\GUI\lvgl\src\draw\sdl\lv_draw_sdl_texture_cache.c 0x00000000   Number         0  lv_draw_sdl_texture_cache.o ABSOLUTE
    ..\app\LVGL\GUI\lvgl\src\draw\sdl\lv_draw_sdl_utils.c 0x00000000   Number         0  lv_draw_sdl_utils.o ABSOLUTE
    ..\app\LVGL\GUI\lvgl\src\draw\stm32_dma2d\lv_gpu_stm32_dma2d.c 0x00000000   Number         0  lv_gpu_stm32_dma2d.o ABSOLUTE
    ..\app\LVGL\GUI\lvgl\src\draw\sw\lv_draw_sw.c 0x00000000   Number         0  lv_draw_sw.o ABSOLUTE
    ..\app\LVGL\GUI\lvgl\src\draw\sw\lv_draw_sw_arc.c 0x00000000   Number         0  lv_draw_sw_arc.o ABSOLUTE
    ..\app\LVGL\GUI\lvgl\src\draw\sw\lv_draw_sw_blend.c 0x00000000   Number         0  lv_draw_sw_blend.o ABSOLUTE
    ..\app\LVGL\GUI\lvgl\src\draw\sw\lv_draw_sw_dither.c 0x00000000   Number         0  lv_draw_sw_dither.o ABSOLUTE
    ..\app\LVGL\GUI\lvgl\src\draw\sw\lv_draw_sw_gradient.c 0x00000000   Number         0  lv_draw_sw_gradient.o ABSOLUTE
    ..\app\LVGL\GUI\lvgl\src\draw\sw\lv_draw_sw_img.c 0x00000000   Number         0  lv_draw_sw_img.o ABSOLUTE
    ..\app\LVGL\GUI\lvgl\src\draw\sw\lv_draw_sw_letter.c 0x00000000   Number         0  lv_draw_sw_letter.o ABSOLUTE
    ..\app\LVGL\GUI\lvgl\src\draw\sw\lv_draw_sw_line.c 0x00000000   Number         0  lv_draw_sw_line.o ABSOLUTE
    ..\app\LVGL\GUI\lvgl\src\draw\sw\lv_draw_sw_polygon.c 0x00000000   Number         0  lv_draw_sw_polygon.o ABSOLUTE
    ..\app\LVGL\GUI\lvgl\src\draw\sw\lv_draw_sw_rect.c 0x00000000   Number         0  lv_draw_sw_rect.o ABSOLUTE
    ..\app\LVGL\GUI\lvgl\src\extra\layouts\flex\lv_flex.c 0x00000000   Number         0  lv_flex.o ABSOLUTE
    ..\app\LVGL\GUI\lvgl\src\extra\layouts\grid\lv_grid.c 0x00000000   Number         0  lv_grid.o ABSOLUTE
    ..\app\LVGL\GUI\lvgl\src\extra\libs\bmp\lv_bmp.c 0x00000000   Number         0  lv_bmp.o ABSOLUTE
    ..\app\LVGL\GUI\lvgl\src\extra\libs\fsdrv\lv_fs_fatfs.c 0x00000000   Number         0  lv_fs_fatfs.o ABSOLUTE
    ..\app\LVGL\GUI\lvgl\src\extra\lv_extra.c 0x00000000   Number         0  lv_extra.o ABSOLUTE
    ..\app\LVGL\GUI\lvgl\src\extra\others\gridnav\lv_gridnav.c 0x00000000   Number         0  lv_gridnav.o ABSOLUTE
    ..\app\LVGL\GUI\lvgl\src\extra\others\monkey\lv_monkey.c 0x00000000   Number         0  lv_monkey.o ABSOLUTE
    ..\app\LVGL\GUI\lvgl\src\extra\others\snapshot\lv_snapshot.c 0x00000000   Number         0  lv_snapshot.o ABSOLUTE
    ..\app\LVGL\GUI\lvgl\src\extra\themes\basic\lv_theme_basic.c 0x00000000   Number         0  lv_theme_basic.o ABSOLUTE
    ..\app\LVGL\GUI\lvgl\src\extra\themes\default\lv_theme_default.c 0x00000000   Number         0  lv_theme_default.o ABSOLUTE
    ..\app\LVGL\GUI\lvgl\src\extra\themes\mono\lv_theme_mono.c 0x00000000   Number         0  lv_theme_mono.o ABSOLUTE
    ..\app\LVGL\GUI\lvgl\src\extra\widgets\animimg\lv_animimg.c 0x00000000   Number         0  lv_animimg.o ABSOLUTE
    ..\app\LVGL\GUI\lvgl\src\extra\widgets\calendar\lv_calendar.c 0x00000000   Number         0  lv_calendar.o ABSOLUTE
    ..\app\LVGL\GUI\lvgl\src\extra\widgets\calendar\lv_calendar_header_arrow.c 0x00000000   Number         0  lv_calendar_header_arrow.o ABSOLUTE
    ..\app\LVGL\GUI\lvgl\src\extra\widgets\calendar\lv_calendar_header_dropdown.c 0x00000000   Number         0  lv_calendar_header_dropdown.o ABSOLUTE
    ..\app\LVGL\GUI\lvgl\src\extra\widgets\chart\lv_chart.c 0x00000000   Number         0  lv_chart.o ABSOLUTE
    ..\app\LVGL\GUI\lvgl\src\extra\widgets\colorwheel\lv_colorwheel.c 0x00000000   Number         0  lv_colorwheel.o ABSOLUTE
    ..\app\LVGL\GUI\lvgl\src\extra\widgets\imgbtn\lv_imgbtn.c 0x00000000   Number         0  lv_imgbtn.o ABSOLUTE
    ..\app\LVGL\GUI\lvgl\src\extra\widgets\keyboard\lv_keyboard.c 0x00000000   Number         0  lv_keyboard.o ABSOLUTE
    ..\app\LVGL\GUI\lvgl\src\extra\widgets\led\lv_led.c 0x00000000   Number         0  lv_led.o ABSOLUTE
    ..\app\LVGL\GUI\lvgl\src\extra\widgets\list\lv_list.c 0x00000000   Number         0  lv_list.o ABSOLUTE
    ..\app\LVGL\GUI\lvgl\src\extra\widgets\menu\lv_menu.c 0x00000000   Number         0  lv_menu.o ABSOLUTE
    ..\app\LVGL\GUI\lvgl\src\extra\widgets\meter\lv_meter.c 0x00000000   Number         0  lv_meter.o ABSOLUTE
    ..\app\LVGL\GUI\lvgl\src\extra\widgets\msgbox\lv_msgbox.c 0x00000000   Number         0  lv_msgbox.o ABSOLUTE
    ..\app\LVGL\GUI\lvgl\src\extra\widgets\spinbox\lv_spinbox.c 0x00000000   Number         0  lv_spinbox.o ABSOLUTE
    ..\app\LVGL\GUI\lvgl\src\extra\widgets\spinner\lv_spinner.c 0x00000000   Number         0  lv_spinner.o ABSOLUTE
    ..\app\LVGL\GUI\lvgl\src\extra\widgets\tabview\lv_tabview.c 0x00000000   Number         0  lv_tabview.o ABSOLUTE
    ..\app\LVGL\GUI\lvgl\src\extra\widgets\tileview\lv_tileview.c 0x00000000   Number         0  lv_tileview.o ABSOLUTE
    ..\app\LVGL\GUI\lvgl\src\extra\widgets\win\lv_win.c 0x00000000   Number         0  lv_win.o ABSOLUTE
    ..\app\LVGL\GUI\lvgl\src\font\lv_font.c  0x00000000   Number         0  lv_font.o ABSOLUTE
    ..\app\LVGL\GUI\lvgl\src\font\lv_font_dejavu_16_persian_hebrew.c 0x00000000   Number         0  lv_font_dejavu_16_persian_hebrew.o ABSOLUTE
    ..\app\LVGL\GUI\lvgl\src\font\lv_font_fmt_txt.c 0x00000000   Number         0  lv_font_fmt_txt.o ABSOLUTE
    ..\app\LVGL\GUI\lvgl\src\font\lv_font_loader.c 0x00000000   Number         0  lv_font_loader.o ABSOLUTE
    ..\app\LVGL\GUI\lvgl\src\font\lv_font_montserrat_10.c 0x00000000   Number         0  lv_font_montserrat_10.o ABSOLUTE
    ..\app\LVGL\GUI\lvgl\src\font\lv_font_montserrat_12.c 0x00000000   Number         0  lv_font_montserrat_12.o ABSOLUTE
    ..\app\LVGL\GUI\lvgl\src\font\lv_font_montserrat_12_subpx.c 0x00000000   Number         0  lv_font_montserrat_12_subpx.o ABSOLUTE
    ..\app\LVGL\GUI\lvgl\src\font\lv_font_montserrat_14.c 0x00000000   Number         0  lv_font_montserrat_14.o ABSOLUTE
    ..\app\LVGL\GUI\lvgl\src\font\lv_font_montserrat_16.c 0x00000000   Number         0  lv_font_montserrat_16.o ABSOLUTE
    ..\app\LVGL\GUI\lvgl\src\font\lv_font_montserrat_18.c 0x00000000   Number         0  lv_font_montserrat_18.o ABSOLUTE
    ..\app\LVGL\GUI\lvgl\src\font\lv_font_montserrat_20.c 0x00000000   Number         0  lv_font_montserrat_20.o ABSOLUTE
    ..\app\LVGL\GUI\lvgl\src\font\lv_font_montserrat_22.c 0x00000000   Number         0  lv_font_montserrat_22.o ABSOLUTE
    ..\app\LVGL\GUI\lvgl\src\font\lv_font_montserrat_24.c 0x00000000   Number         0  lv_font_montserrat_24.o ABSOLUTE
    ..\app\LVGL\GUI\lvgl\src\font\lv_font_montserrat_26.c 0x00000000   Number         0  lv_font_montserrat_26.o ABSOLUTE
    ..\app\LVGL\GUI\lvgl\src\font\lv_font_montserrat_28.c 0x00000000   Number         0  lv_font_montserrat_28.o ABSOLUTE
    ..\app\LVGL\GUI\lvgl\src\font\lv_font_montserrat_28_compressed.c 0x00000000   Number         0  lv_font_montserrat_28_compressed.o ABSOLUTE
    ..\app\LVGL\GUI\lvgl\src\font\lv_font_montserrat_30.c 0x00000000   Number         0  lv_font_montserrat_30.o ABSOLUTE
    ..\app\LVGL\GUI\lvgl\src\font\lv_font_montserrat_32.c 0x00000000   Number         0  lv_font_montserrat_32.o ABSOLUTE
    ..\app\LVGL\GUI\lvgl\src\font\lv_font_montserrat_34.c 0x00000000   Number         0  lv_font_montserrat_34.o ABSOLUTE
    ..\app\LVGL\GUI\lvgl\src\font\lv_font_montserrat_36.c 0x00000000   Number         0  lv_font_montserrat_36.o ABSOLUTE
    ..\app\LVGL\GUI\lvgl\src\font\lv_font_montserrat_38.c 0x00000000   Number         0  lv_font_montserrat_38.o ABSOLUTE
    ..\app\LVGL\GUI\lvgl\src\font\lv_font_montserrat_40.c 0x00000000   Number         0  lv_font_montserrat_40.o ABSOLUTE
    ..\app\LVGL\GUI\lvgl\src\font\lv_font_montserrat_42.c 0x00000000   Number         0  lv_font_montserrat_42.o ABSOLUTE
    ..\app\LVGL\GUI\lvgl\src\font\lv_font_montserrat_44.c 0x00000000   Number         0  lv_font_montserrat_44.o ABSOLUTE
    ..\app\LVGL\GUI\lvgl\src\font\lv_font_montserrat_46.c 0x00000000   Number         0  lv_font_montserrat_46.o ABSOLUTE
    ..\app\LVGL\GUI\lvgl\src\font\lv_font_montserrat_48.c 0x00000000   Number         0  lv_font_montserrat_48.o ABSOLUTE
    ..\app\LVGL\GUI\lvgl\src\font\lv_font_montserrat_8.c 0x00000000   Number         0  lv_font_montserrat_8.o ABSOLUTE
    ..\app\LVGL\GUI\lvgl\src\font\lv_font_simsun_16_cjk.c 0x00000000   Number         0  lv_font_simsun_16_cjk.o ABSOLUTE
    ..\app\LVGL\GUI\lvgl\src\font\lv_font_unscii_16.c 0x00000000   Number         0  lv_font_unscii_16.o ABSOLUTE
    ..\app\LVGL\GUI\lvgl\src\font\lv_font_unscii_8.c 0x00000000   Number         0  lv_font_unscii_8.o ABSOLUTE
    ..\app\LVGL\GUI\lvgl\src\hal\lv_hal_disp.c 0x00000000   Number         0  lv_hal_disp.o ABSOLUTE
    ..\app\LVGL\GUI\lvgl\src\hal\lv_hal_indev.c 0x00000000   Number         0  lv_hal_indev.o ABSOLUTE
    ..\app\LVGL\GUI\lvgl\src\hal\lv_hal_tick.c 0x00000000   Number         0  lv_hal_tick.o ABSOLUTE
    ..\app\LVGL\GUI\lvgl\src\misc\lv_anim.c  0x00000000   Number         0  lv_anim.o ABSOLUTE
    ..\app\LVGL\GUI\lvgl\src\misc\lv_anim_timeline.c 0x00000000   Number         0  lv_anim_timeline.o ABSOLUTE
    ..\app\LVGL\GUI\lvgl\src\misc\lv_area.c  0x00000000   Number         0  lv_area.o ABSOLUTE
    ..\app\LVGL\GUI\lvgl\src\misc\lv_async.c 0x00000000   Number         0  lv_async.o ABSOLUTE
    ..\app\LVGL\GUI\lvgl\src\misc\lv_bidi.c  0x00000000   Number         0  lv_bidi.o ABSOLUTE
    ..\app\LVGL\GUI\lvgl\src\misc\lv_color.c 0x00000000   Number         0  lv_color.o ABSOLUTE
    ..\app\LVGL\GUI\lvgl\src\misc\lv_fs.c    0x00000000   Number         0  lv_fs.o ABSOLUTE
    ..\app\LVGL\GUI\lvgl\src\misc\lv_gc.c    0x00000000   Number         0  lv_gc.o ABSOLUTE
    ..\app\LVGL\GUI\lvgl\src\misc\lv_ll.c    0x00000000   Number         0  lv_ll.o ABSOLUTE
    ..\app\LVGL\GUI\lvgl\src\misc\lv_log.c   0x00000000   Number         0  lv_log.o ABSOLUTE
    ..\app\LVGL\GUI\lvgl\src\misc\lv_lru.c   0x00000000   Number         0  lv_lru.o ABSOLUTE
    ..\app\LVGL\GUI\lvgl\src\misc\lv_math.c  0x00000000   Number         0  lv_math.o ABSOLUTE
    ..\app\LVGL\GUI\lvgl\src\misc\lv_mem.c   0x00000000   Number         0  lv_mem.o ABSOLUTE
    ..\app\LVGL\GUI\lvgl\src\misc\lv_printf.c 0x00000000   Number         0  lv_printf.o ABSOLUTE
    ..\app\LVGL\GUI\lvgl\src\misc\lv_style.c 0x00000000   Number         0  lv_style.o ABSOLUTE
    ..\app\LVGL\GUI\lvgl\src\misc\lv_style_gen.c 0x00000000   Number         0  lv_style_gen.o ABSOLUTE
    ..\app\LVGL\GUI\lvgl\src\misc\lv_templ.c 0x00000000   Number         0  lv_templ.o ABSOLUTE
    ..\app\LVGL\GUI\lvgl\src\misc\lv_timer.c 0x00000000   Number         0  lv_timer.o ABSOLUTE
    ..\app\LVGL\GUI\lvgl\src\misc\lv_tlsf.c  0x00000000   Number         0  lv_tlsf.o ABSOLUTE
    ..\app\LVGL\GUI\lvgl\src\misc\lv_txt.c   0x00000000   Number         0  lv_txt.o ABSOLUTE
    ..\app\LVGL\GUI\lvgl\src\misc\lv_txt_ap.c 0x00000000   Number         0  lv_txt_ap.o ABSOLUTE
    ..\app\LVGL\GUI\lvgl\src\misc\lv_utils.c 0x00000000   Number         0  lv_utils.o ABSOLUTE
    ..\app\LVGL\GUI\lvgl\src\widgets\lv_arc.c 0x00000000   Number         0  lv_arc.o ABSOLUTE
    ..\app\LVGL\GUI\lvgl\src\widgets\lv_bar.c 0x00000000   Number         0  lv_bar.o ABSOLUTE
    ..\app\LVGL\GUI\lvgl\src\widgets\lv_btn.c 0x00000000   Number         0  lv_btn.o ABSOLUTE
    ..\app\LVGL\GUI\lvgl\src\widgets\lv_btnmatrix.c 0x00000000   Number         0  lv_btnmatrix.o ABSOLUTE
    ..\app\LVGL\GUI\lvgl\src\widgets\lv_canvas.c 0x00000000   Number         0  lv_canvas.o ABSOLUTE
    ..\app\LVGL\GUI\lvgl\src\widgets\lv_checkbox.c 0x00000000   Number         0  lv_checkbox.o ABSOLUTE
    ..\app\LVGL\GUI\lvgl\src\widgets\lv_dropdown.c 0x00000000   Number         0  lv_dropdown.o ABSOLUTE
    ..\app\LVGL\GUI\lvgl\src\widgets\lv_img.c 0x00000000   Number         0  lv_img.o ABSOLUTE
    ..\app\LVGL\GUI\lvgl\src\widgets\lv_label.c 0x00000000   Number         0  lv_label.o ABSOLUTE
    ..\app\LVGL\GUI\lvgl\src\widgets\lv_line.c 0x00000000   Number         0  lv_line.o ABSOLUTE
    ..\app\LVGL\GUI\lvgl\src\widgets\lv_objx_templ.c 0x00000000   Number         0  lv_objx_templ.o ABSOLUTE
    ..\app\LVGL\GUI\lvgl\src\widgets\lv_roller.c 0x00000000   Number         0  lv_roller.o ABSOLUTE
    ..\app\LVGL\GUI\lvgl\src\widgets\lv_slider.c 0x00000000   Number         0  lv_slider.o ABSOLUTE
    ..\app\LVGL\GUI\lvgl\src\widgets\lv_switch.c 0x00000000   Number         0  lv_switch.o ABSOLUTE
    ..\app\LVGL\GUI\lvgl\src\widgets\lv_table.c 0x00000000   Number         0  lv_table.o ABSOLUTE
    ..\app\LVGL\GUI\lvgl\src\widgets\lv_textarea.c 0x00000000   Number         0  lv_textarea.o ABSOLUTE
    ..\app\debug_print.c                     0x00000000   Number         0  debug_print.o ABSOLUTE
    ..\app\delay.c                           0x00000000   Number         0  delay.o ABSOLUTE
    ..\app\jx_2r_01.c                        0x00000000   Number         0  jx_2r_01.o ABSOLUTE
    ..\app\key.c                             0x00000000   Number         0  key.o ABSOLUTE
    ..\app\lcd.c                             0x00000000   Number         0  lcd.o ABSOLUTE
    ..\app\ov2640.c                          0x00000000   Number         0  ov2640.o ABSOLUTE
    ..\app\sccb.c                            0x00000000   Number         0  sccb.o ABSOLUTE
    ..\app\sd_fat.c                          0x00000000   Number         0  sd_fat.o ABSOLUTE
    ..\app\ui.c                              0x00000000   Number         0  ui.o ABSOLUTE
    cdrcmple.s                               0x00000000   Number         0  cdrcmple.o ABSOLUTE
    dc.s                                     0x00000000   Number         0  dc.o ABSOLUTE
    handlers.s                               0x00000000   Number         0  handlers.o ABSOLUTE
    init.s                                   0x00000000   Number         0  init.o ABSOLUTE
    startup_stm32f407xx.s                    0x00000000   Number         0  startup_stm32f407xx.o ABSOLUTE
    RESET                                    0x08000000   Section      392  startup_stm32f407xx.o(RESET)
    .ARM.Collect$$$$00000000                 0x08000188   Section        0  entry.o(.ARM.Collect$$$$00000000)
    .ARM.Collect$$$$00000001                 0x08000188   Section        4  entry2.o(.ARM.Collect$$$$00000001)
    .ARM.Collect$$$$00000004                 0x0800018c   Section        4  entry5.o(.ARM.Collect$$$$00000004)
    .ARM.Collect$$$$00000008                 0x08000190   Section        0  entry7b.o(.ARM.Collect$$$$00000008)
    .ARM.Collect$$$$0000000A                 0x08000190   Section        0  entry8b.o(.ARM.Collect$$$$0000000A)
    .ARM.Collect$$$$0000000B                 0x08000190   Section        8  entry9a.o(.ARM.Collect$$$$0000000B)
    .ARM.Collect$$$$0000000E                 0x08000198   Section        4  entry12b.o(.ARM.Collect$$$$0000000E)
    .ARM.Collect$$$$0000000F                 0x0800019c   Section        0  entry10a.o(.ARM.Collect$$$$0000000F)
    .ARM.Collect$$$$00000011                 0x0800019c   Section        0  entry11a.o(.ARM.Collect$$$$00000011)
    .ARM.Collect$$$$00002712                 0x0800019c   Section        4  entry2.o(.ARM.Collect$$$$00002712)
    __lit__00000000                          0x0800019c   Data           4  entry2.o(.ARM.Collect$$$$00002712)
    .text                                    0x080001a0   Section       36  startup_stm32f407xx.o(.text)
    $v0                                      0x080001a0   Number         0  startup_stm32f407xx.o(.text)
    .text                                    0x080001c4   Section        0  uldiv.o(.text)
    .text                                    0x08000226   Section        0  memmovea.o(.text)
    .text                                    0x08000266   Section        0  memseta.o(.text)
    .text                                    0x0800028a   Section        0  strlen.o(.text)
    .text                                    0x08000298   Section        0  strcmp.o(.text)
    .text                                    0x080002b4   Section        0  strcpy.o(.text)
    .text                                    0x080002c6   Section        0  strrchr.o(.text)
    .text                                    0x080002dc   Section        0  strcasecmp.o(.text)
    .text                                    0x08000306   Section        0  dmul.o(.text)
    .text                                    0x080003ea   Section        0  uidiv.o(.text)
    .text                                    0x08000416   Section        0  llshl.o(.text)
    .text                                    0x08000434   Section        0  llushr.o(.text)
    .text                                    0x08000454   Section        0  tolower.o(.text)
    .text                                    0x08000460   Section        0  iusefp.o(.text)
    .text                                    0x08000460   Section        0  depilogue.o(.text)
    .text                                    0x0800051a   Section        0  dadd.o(.text)
    .text                                    0x08000668   Section        0  ddiv.o(.text)
    .text                                    0x08000746   Section        0  dfixul.o(.text)
    .text                                    0x08000778   Section       48  cdrcmple.o(.text)
    .text                                    0x080007a8   Section       36  init.o(.text)
    .text                                    0x080007cc   Section        0  llsshr.o(.text)
    .text                                    0x080007f0   Section        0  __dczerorl2.o(.text)
    i.BSP_PlatformIsDetected                 0x08000848   Section        0  fatfs_platform.o(i.BSP_PlatformIsDetected)
    i.BSP_SD_GetCardInfo                     0x08000860   Section        0  bsp_driver_sd.o(i.BSP_SD_GetCardInfo)
    i.BSP_SD_GetCardState                    0x08000874   Section        0  bsp_driver_sd.o(i.BSP_SD_GetCardState)
    i.BSP_SD_Init                            0x0800088c   Section        0  bsp_driver_sd.o(i.BSP_SD_Init)
    i.BSP_SD_IsDetected                      0x080008ac   Section        0  bsp_driver_sd.o(i.BSP_SD_IsDetected)
    i.BSP_SD_ReadBlocks                      0x080008c4   Section        0  bsp_driver_sd.o(i.BSP_SD_ReadBlocks)
    i.BSP_SD_WriteBlocks                     0x080008f4   Section        0  bsp_driver_sd.o(i.BSP_SD_WriteBlocks)
    i.BusFault_Handler                       0x08000924   Section        0  stm32f4xx_it.o(i.BusFault_Handler)
    i.ButtonHandle                           0x08000928   Section        0  ui.o(i.ButtonHandle)
    i.CameraReadReg                          0x0800099c   Section        0  sccb.o(i.CameraReadReg)
    i.CameraWriteReg                         0x080009ee   Section        0  sccb.o(i.CameraWriteReg)
    i.DCMI_DMAError                          0x08000a3e   Section        0  stm32f4xx_hal_dcmi.o(i.DCMI_DMAError)
    DCMI_DMAError                            0x08000a3f   Thumb Code    28  stm32f4xx_hal_dcmi.o(i.DCMI_DMAError)
    i.DCMI_DMAXferCplt                       0x08000a5a   Section        0  stm32f4xx_hal_dcmi.o(i.DCMI_DMAXferCplt)
    DCMI_DMAXferCplt                         0x08000a5b   Thumb Code   198  stm32f4xx_hal_dcmi.o(i.DCMI_DMAXferCplt)
    i.DMA2_Stream1_IRQHandler                0x08000b20   Section        0  stm32f4xx_it.o(i.DMA2_Stream1_IRQHandler)
    i.DMA_CalcBaseAndBitshift                0x08000b30   Section        0  stm32f4xx_hal_dma.o(i.DMA_CalcBaseAndBitshift)
    DMA_CalcBaseAndBitshift                  0x08000b31   Thumb Code    46  stm32f4xx_hal_dma.o(i.DMA_CalcBaseAndBitshift)
    i.DMA_CheckFifoParam                     0x08000b64   Section        0  stm32f4xx_hal_dma.o(i.DMA_CheckFifoParam)
    DMA_CheckFifoParam                       0x08000b65   Thumb Code   170  stm32f4xx_hal_dma.o(i.DMA_CheckFifoParam)
    i.DMA_MultiBufferSetConfig               0x08000c0e   Section        0  stm32f4xx_hal_dma_ex.o(i.DMA_MultiBufferSetConfig)
    DMA_MultiBufferSetConfig                 0x08000c0f   Thumb Code    32  stm32f4xx_hal_dma_ex.o(i.DMA_MultiBufferSetConfig)
    i.DMA_SetConfig                          0x08000c2e   Section        0  stm32f4xx_hal_dma.o(i.DMA_SetConfig)
    DMA_SetConfig                            0x08000c2f   Thumb Code    44  stm32f4xx_hal_dma.o(i.DMA_SetConfig)
    i.DebugMon_Handler                       0x08000c5a   Section        0  stm32f4xx_it.o(i.DebugMon_Handler)
    i.DelayMs                                0x08000c5c   Section        0  delay.o(i.DelayMs)
    i.DelayUs                                0x08000c70   Section        0  delay.o(i.DelayUs)
    i.DirectoryHandleClose                   0x08000cb8   Section        0  ui.o(i.DirectoryHandleClose)
    DirectoryHandleClose                     0x08000cb9   Thumb Code    24  ui.o(i.DirectoryHandleClose)
    i.EXTI3_IRQHandler                       0x08000cd0   Section        0  stm32f4xx_it.o(i.EXTI3_IRQHandler)
    i.Error_Handler                          0x08000cde   Section        0  main.o(i.Error_Handler)
    i.FATFS_LinkDriver                       0x08000ce4   Section        0  ff_gen_drv.o(i.FATFS_LinkDriver)
    i.FATFS_LinkDriverEx                     0x08000cf8   Section        0  ff_gen_drv.o(i.FATFS_LinkDriverEx)
    i.FSMC_NORSRAM_Extended_Timing_Init      0x08000d4c   Section        0  stm32f4xx_ll_fsmc.o(i.FSMC_NORSRAM_Extended_Timing_Init)
    i.FSMC_NORSRAM_Init                      0x08000d90   Section        0  stm32f4xx_ll_fsmc.o(i.FSMC_NORSRAM_Init)
    i.FSMC_NORSRAM_Timing_Init               0x08000e08   Section        0  stm32f4xx_ll_fsmc.o(i.FSMC_NORSRAM_Timing_Init)
    i.GrayToBinary                           0x08000e4a   Section        0  ui.o(i.GrayToBinary)
    i.HAL_DCMI_ErrorCallback                 0x08000e58   Section        0  stm32f4xx_hal_dcmi.o(i.HAL_DCMI_ErrorCallback)
    i.HAL_DCMI_Init                          0x08000e5a   Section        0  stm32f4xx_hal_dcmi_ex.o(i.HAL_DCMI_Init)
    i.HAL_DCMI_MspInit                       0x08000eec   Section        0  dcmi.o(i.HAL_DCMI_MspInit)
    i.HAL_DCMI_Start_DMA                     0x08001084   Section        0  stm32f4xx_hal_dcmi.o(i.HAL_DCMI_Start_DMA)
    i.HAL_DCMI_Stop                          0x08001170   Section        0  stm32f4xx_hal_dcmi.o(i.HAL_DCMI_Stop)
    i.HAL_DMAEx_ChangeMemory                 0x080011fc   Section        0  stm32f4xx_hal_dma_ex.o(i.HAL_DMAEx_ChangeMemory)
    i.HAL_DMAEx_MultiBufferStart_IT          0x08001210   Section        0  stm32f4xx_hal_dma_ex.o(i.HAL_DMAEx_MultiBufferStart_IT)
    i.HAL_DMA_Abort                          0x080021e8   Section        0  stm32f4xx_hal_dma.o(i.HAL_DMA_Abort)
    i.HAL_DMA_IRQHandler                     0x08002294   Section        0  stm32f4xx_hal_dma.o(i.HAL_DMA_IRQHandler)
    i.HAL_DMA_Init                           0x080024d4   Section        0  stm32f4xx_hal_dma.o(i.HAL_DMA_Init)
    i.HAL_DMA_Start_IT                       0x080025c0   Section        0  stm32f4xx_hal_dma.o(i.HAL_DMA_Start_IT)
    i.HAL_Delay                              0x08002654   Section        0  stm32f4xx_hal.o(i.HAL_Delay)
    i.HAL_FSMC_MspInit                       0x0800267c   Section        0  fsmc.o(i.HAL_FSMC_MspInit)
    HAL_FSMC_MspInit                         0x0800267d   Thumb Code   182  fsmc.o(i.HAL_FSMC_MspInit)
    i.HAL_GPIO_EXTI_Callback                 0x0800274c   Section        0  stm32f4xx_hal_gpio.o(i.HAL_GPIO_EXTI_Callback)
    i.HAL_GPIO_EXTI_IRQHandler               0x08002750   Section        0  stm32f4xx_hal_gpio.o(i.HAL_GPIO_EXTI_IRQHandler)
    i.HAL_GPIO_Init                          0x0800276c   Section        0  stm32f4xx_hal_gpio.o(i.HAL_GPIO_Init)
    i.HAL_GPIO_ReadPin                       0x08002960   Section        0  stm32f4xx_hal_gpio.o(i.HAL_GPIO_ReadPin)
    i.HAL_GPIO_WritePin                      0x08002970   Section        0  stm32f4xx_hal_gpio.o(i.HAL_GPIO_WritePin)
    i.HAL_GetTick                            0x0800297c   Section        0  stm32f4xx_hal.o(i.HAL_GetTick)
    i.HAL_IncTick                            0x08002988   Section        0  stm32f4xx_hal.o(i.HAL_IncTick)
    i.HAL_Init                               0x080029a0   Section        0  stm32f4xx_hal.o(i.HAL_Init)
    i.HAL_InitTick                           0x080029dc   Section        0  stm32f4xx_hal.o(i.HAL_InitTick)
    i.HAL_MspInit                            0x08002a28   Section        0  stm32f4xx_hal_msp.o(i.HAL_MspInit)
    i.HAL_NVIC_EnableIRQ                     0x08002a70   Section        0  stm32f4xx_hal_cortex.o(i.HAL_NVIC_EnableIRQ)
    i.HAL_NVIC_SetPriority                   0x08002a90   Section        0  stm32f4xx_hal_cortex.o(i.HAL_NVIC_SetPriority)
    i.HAL_NVIC_SetPriorityGrouping           0x08002b0c   Section        0  stm32f4xx_hal_cortex.o(i.HAL_NVIC_SetPriorityGrouping)
    i.HAL_PWR_EnableWakeUpPin                0x08002b34   Section        0  stm32f4xx_hal_pwr.o(i.HAL_PWR_EnableWakeUpPin)
    i.HAL_RCC_ClockConfig                    0x08002b44   Section        0  stm32f4xx_hal_rcc.o(i.HAL_RCC_ClockConfig)
    i.HAL_RCC_GetHCLKFreq                    0x08002cc8   Section        0  stm32f4xx_hal_rcc.o(i.HAL_RCC_GetHCLKFreq)
    i.HAL_RCC_GetPCLK1Freq                   0x08002cd4   Section        0  stm32f4xx_hal_rcc.o(i.HAL_RCC_GetPCLK1Freq)
    i.HAL_RCC_GetPCLK2Freq                   0x08002cf4   Section        0  stm32f4xx_hal_rcc.o(i.HAL_RCC_GetPCLK2Freq)
    i.HAL_RCC_GetSysClockFreq                0x08002d14   Section        0  stm32f4xx_hal_rcc.o(i.HAL_RCC_GetSysClockFreq)
    i.HAL_RCC_OscConfig                      0x08002dc4   Section        0  stm32f4xx_hal_rcc.o(i.HAL_RCC_OscConfig)
    i.HAL_SD_GetCardCID                      0x08003260   Section        0  stm32f4xx_hal_sd.o(i.HAL_SD_GetCardCID)
    i.HAL_SD_GetCardCSD                      0x080032c0   Section        0  stm32f4xx_hal_sd.o(i.HAL_SD_GetCardCSD)
    i.HAL_SD_GetCardInfo                     0x08003488   Section        0  stm32f4xx_hal_sd.o(i.HAL_SD_GetCardInfo)
    i.HAL_SD_GetCardState                    0x080034ae   Section        0  stm32f4xx_hal_sd.o(i.HAL_SD_GetCardState)
    i.HAL_SD_Init                            0x080034d2   Section        0  stm32f4xx_hal_sd.o(i.HAL_SD_Init)
    i.HAL_SD_InitCard                        0x08003510   Section        0  stm32f4xx_hal_sd.o(i.HAL_SD_InitCard)
    i.HAL_SD_MspInit                         0x080035c0   Section        0  sdio.o(i.HAL_SD_MspInit)
    i.HAL_SD_ReadBlocks                      0x08003688   Section        0  stm32f4xx_hal_sd.o(i.HAL_SD_ReadBlocks)
    i.HAL_SD_WriteBlocks                     0x08003920   Section        0  stm32f4xx_hal_sd.o(i.HAL_SD_WriteBlocks)
    i.HAL_SPI_Init                           0x08003b50   Section        0  stm32f4xx_hal_spi.o(i.HAL_SPI_Init)
    i.HAL_SPI_MspInit                        0x08003c18   Section        0  spi.o(i.HAL_SPI_MspInit)
    i.HAL_SPI_Transmit                       0x08003cdc   Section        0  stm32f4xx_hal_spi.o(i.HAL_SPI_Transmit)
    i.HAL_SRAM_Init                          0x08003e8a   Section        0  stm32f4xx_hal_sram.o(i.HAL_SRAM_Init)
    i.HAL_SRAM_MspInit                       0x08003ee8   Section        0  fsmc.o(i.HAL_SRAM_MspInit)
    i.HAL_SYSTICK_Config                     0x08003ef2   Section        0  stm32f4xx_hal_cortex.o(i.HAL_SYSTICK_Config)
    i.HAL_TIMEx_BreakCallback                0x08003f26   Section        0  stm32f4xx_hal_tim_ex.o(i.HAL_TIMEx_BreakCallback)
    i.HAL_TIMEx_CommutCallback               0x08003f28   Section        0  stm32f4xx_hal_tim_ex.o(i.HAL_TIMEx_CommutCallback)
    i.HAL_TIMEx_MasterConfigSynchronization  0x08003f2c   Section        0  stm32f4xx_hal_tim_ex.o(i.HAL_TIMEx_MasterConfigSynchronization)
    i.HAL_TIM_Base_Init                      0x08003fe0   Section        0  stm32f4xx_hal_tim.o(i.HAL_TIM_Base_Init)
    i.HAL_TIM_Base_MspInit                   0x08004048   Section        0  tim.o(i.HAL_TIM_Base_MspInit)
    i.HAL_TIM_Base_Start_IT                  0x08004090   Section        0  stm32f4xx_hal_tim.o(i.HAL_TIM_Base_Start_IT)
    i.HAL_TIM_IC_CaptureCallback             0x08004138   Section        0  stm32f4xx_hal_tim.o(i.HAL_TIM_IC_CaptureCallback)
    i.HAL_TIM_IRQHandler                     0x0800413a   Section        0  stm32f4xx_hal_tim.o(i.HAL_TIM_IRQHandler)
    i.HAL_TIM_OC_DelayElapsedCallback        0x080042d0   Section        0  stm32f4xx_hal_tim.o(i.HAL_TIM_OC_DelayElapsedCallback)
    i.HAL_TIM_PWM_PulseFinishedCallback      0x080042d2   Section        0  stm32f4xx_hal_tim.o(i.HAL_TIM_PWM_PulseFinishedCallback)
    i.HAL_TIM_PeriodElapsedCallback          0x080042d4   Section        0  stm32f4xx_hal_tim.o(i.HAL_TIM_PeriodElapsedCallback)
    i.HAL_TIM_TriggerCallback                0x080042d6   Section        0  stm32f4xx_hal_tim.o(i.HAL_TIM_TriggerCallback)
    i.HAL_UART_Init                          0x080042d8   Section        0  stm32f4xx_hal_uart.o(i.HAL_UART_Init)
    i.HAL_UART_MspInit                       0x0800434c   Section        0  usart.o(i.HAL_UART_MspInit)
    i.HAL_UART_Transmit                      0x080043d4   Section        0  stm32f4xx_hal_uart.o(i.HAL_UART_Transmit)
    i.HardFault_Handler                      0x080044a6   Section        0  stm32f4xx_it.o(i.HardFault_Handler)
    i.LinePrint                              0x080044ac   Section        0  jx_2r_01.o(i.LinePrint)
    i.MX_DCMI_Init                           0x08004614   Section        0  dcmi.o(i.MX_DCMI_Init)
    i.MX_DMA_Init                            0x08004648   Section        0  dma.o(i.MX_DMA_Init)
    i.MX_FATFS_Init                          0x08004680   Section        0  fatfs.o(i.MX_FATFS_Init)
    i.MX_FSMC_Init                           0x0800469c   Section        0  fsmc.o(i.MX_FSMC_Init)
    i.MX_GPIO_Init                           0x08004718   Section        0  gpio.o(i.MX_GPIO_Init)
    i.MX_SDIO_SD_Init                        0x080049ac   Section        0  sdio.o(i.MX_SDIO_SD_Init)
    i.MX_SPI1_Init                           0x080049d0   Section        0  spi.o(i.MX_SPI1_Init)
    i.MX_TIM7_Init                           0x08004a14   Section        0  tim.o(i.MX_TIM7_Init)
    i.MX_USART1_UART_Init                    0x08004a60   Section        0  usart.o(i.MX_USART1_UART_Init)
    i.MemManage_Handler                      0x08004a98   Section        0  stm32f4xx_it.o(i.MemManage_Handler)
    i.NMI_Handler                            0x08004a9c   Section        0  stm32f4xx_it.o(i.NMI_Handler)
    i.OV2640Init                             0x08004aa0   Section        0  ov2640.o(i.OV2640Init)
    i.PageMenu                               0x08004bb4   Section        0  ui.o(i.PageMenu)
    i.PendSV_Handler                         0x08004cc0   Section        0  stm32f4xx_it.o(i.PendSV_Handler)
    i.PrintFile                              0x08004cc4   Section        0  ui.o(i.PrintFile)
    PrintFile                                0x08004cc5   Thumb Code   332  ui.o(i.PrintFile)
    i.PrinterStep                            0x08004e7c   Section        0  jx_2r_01.o(i.PrinterStep)
    i.RGB565ToGray                           0x08004f04   Section        0  ui.o(i.RGB565ToGray)
    i.SDIO_ConfigData                        0x08004f3c   Section        0  stm32f4xx_ll_sdmmc.o(i.SDIO_ConfigData)
    i.SDIO_GetCommandResponse                0x08004f68   Section        0  stm32f4xx_ll_sdmmc.o(i.SDIO_GetCommandResponse)
    i.SDIO_GetPowerState                     0x08004f70   Section        0  stm32f4xx_ll_sdmmc.o(i.SDIO_GetPowerState)
    i.SDIO_GetResponse                       0x08004f7a   Section        0  stm32f4xx_ll_sdmmc.o(i.SDIO_GetResponse)
    i.SDIO_Init                              0x08004f86   Section        0  stm32f4xx_ll_sdmmc.o(i.SDIO_Init)
    i.SDIO_PowerState_ON                     0x08004fba   Section        0  stm32f4xx_ll_sdmmc.o(i.SDIO_PowerState_ON)
    i.SDIO_ReadFIFO                          0x08004fc4   Section        0  stm32f4xx_ll_sdmmc.o(i.SDIO_ReadFIFO)
    i.SDIO_SendCommand                       0x08004fcc   Section        0  stm32f4xx_ll_sdmmc.o(i.SDIO_SendCommand)
    i.SDIO_WriteFIFO                         0x08004ff4   Section        0  stm32f4xx_ll_sdmmc.o(i.SDIO_WriteFIFO)
    i.SDMMC_CmdAppCommand                    0x08005000   Section        0  stm32f4xx_ll_sdmmc.o(i.SDMMC_CmdAppCommand)
    i.SDMMC_CmdAppOperCommand                0x08005038   Section        0  stm32f4xx_ll_sdmmc.o(i.SDMMC_CmdAppOperCommand)
    i.SDMMC_CmdBlockLength                   0x08005074   Section        0  stm32f4xx_ll_sdmmc.o(i.SDMMC_CmdBlockLength)
    i.SDMMC_CmdGoIdleState                   0x080050ac   Section        0  stm32f4xx_ll_sdmmc.o(i.SDMMC_CmdGoIdleState)
    i.SDMMC_CmdOperCond                      0x080050d8   Section        0  stm32f4xx_ll_sdmmc.o(i.SDMMC_CmdOperCond)
    i.SDMMC_CmdReadMultiBlock                0x0800510c   Section        0  stm32f4xx_ll_sdmmc.o(i.SDMMC_CmdReadMultiBlock)
    i.SDMMC_CmdReadSingleBlock               0x08005144   Section        0  stm32f4xx_ll_sdmmc.o(i.SDMMC_CmdReadSingleBlock)
    i.SDMMC_CmdSelDesel                      0x0800517c   Section        0  stm32f4xx_ll_sdmmc.o(i.SDMMC_CmdSelDesel)
    i.SDMMC_CmdSendCID                       0x080051b6   Section        0  stm32f4xx_ll_sdmmc.o(i.SDMMC_CmdSendCID)
    i.SDMMC_CmdSendCSD                       0x080051e8   Section        0  stm32f4xx_ll_sdmmc.o(i.SDMMC_CmdSendCSD)
    i.SDMMC_CmdSendStatus                    0x0800521a   Section        0  stm32f4xx_ll_sdmmc.o(i.SDMMC_CmdSendStatus)
    i.SDMMC_CmdSetRelAdd                     0x08005252   Section        0  stm32f4xx_ll_sdmmc.o(i.SDMMC_CmdSetRelAdd)
    i.SDMMC_CmdStopTransfer                  0x0800528c   Section        0  stm32f4xx_ll_sdmmc.o(i.SDMMC_CmdStopTransfer)
    i.SDMMC_CmdWriteMultiBlock               0x080052c8   Section        0  stm32f4xx_ll_sdmmc.o(i.SDMMC_CmdWriteMultiBlock)
    i.SDMMC_CmdWriteSingleBlock              0x08005300   Section        0  stm32f4xx_ll_sdmmc.o(i.SDMMC_CmdWriteSingleBlock)
    i.SDMMC_GetCmdError                      0x08005338   Section        0  stm32f4xx_ll_sdmmc.o(i.SDMMC_GetCmdError)
    SDMMC_GetCmdError                        0x08005339   Thumb Code    58  stm32f4xx_ll_sdmmc.o(i.SDMMC_GetCmdError)
    i.SDMMC_GetCmdResp1                      0x08005378   Section        0  stm32f4xx_ll_sdmmc.o(i.SDMMC_GetCmdResp1)
    i.SDMMC_GetCmdResp2                      0x08005524   Section        0  stm32f4xx_ll_sdmmc.o(i.SDMMC_GetCmdResp2)
    i.SDMMC_GetCmdResp3                      0x08005588   Section        0  stm32f4xx_ll_sdmmc.o(i.SDMMC_GetCmdResp3)
    i.SDMMC_GetCmdResp6                      0x080055e0   Section        0  stm32f4xx_ll_sdmmc.o(i.SDMMC_GetCmdResp6)
    i.SDMMC_GetCmdResp7                      0x08005698   Section        0  stm32f4xx_ll_sdmmc.o(i.SDMMC_GetCmdResp7)
    i.SD_CheckStatus                         0x08005704   Section        0  sd_diskio.o(i.SD_CheckStatus)
    SD_CheckStatus                           0x08005705   Thumb Code    34  sd_diskio.o(i.SD_CheckStatus)
    i.SD_InitCard                            0x0800572c   Section        0  stm32f4xx_hal_sd.o(i.SD_InitCard)
    SD_InitCard                              0x0800572d   Thumb Code   258  stm32f4xx_hal_sd.o(i.SD_InitCard)
    i.SD_PowerON                             0x08005830   Section        0  stm32f4xx_hal_sd.o(i.SD_PowerON)
    SD_PowerON                               0x08005831   Thumb Code   198  stm32f4xx_hal_sd.o(i.SD_PowerON)
    i.SD_SendStatus                          0x080058fc   Section        0  stm32f4xx_hal_sd.o(i.SD_SendStatus)
    SD_SendStatus                            0x080058fd   Thumb Code    48  stm32f4xx_hal_sd.o(i.SD_SendStatus)
    i.SD_initialize                          0x0800592c   Section        0  sd_diskio.o(i.SD_initialize)
    i.SD_ioctl                               0x08005950   Section        0  sd_diskio.o(i.SD_ioctl)
    i.SD_read                                0x080059bc   Section        0  sd_diskio.o(i.SD_read)
    i.SD_status                              0x080059ea   Section        0  sd_diskio.o(i.SD_status)
    i.SD_write                               0x080059f6   Section        0  sd_diskio.o(i.SD_write)
    i.SPI_EndRxTxTransaction                 0x08005a24   Section        0  stm32f4xx_hal_spi.o(i.SPI_EndRxTxTransaction)
    SPI_EndRxTxTransaction                   0x08005a25   Thumb Code   100  stm32f4xx_hal_spi.o(i.SPI_EndRxTxTransaction)
    i.SPI_WaitFlagStateUntilTimeout          0x08005a90   Section        0  stm32f4xx_hal_spi.o(i.SPI_WaitFlagStateUntilTimeout)
    SPI_WaitFlagStateUntilTimeout            0x08005a91   Thumb Code   210  stm32f4xx_hal_spi.o(i.SPI_WaitFlagStateUntilTimeout)
    i.SVC_Handler                            0x08005b68   Section        0  stm32f4xx_it.o(i.SVC_Handler)
    i.SccbDelay                              0x08005b6a   Section        0  sccb.o(i.SccbDelay)
    SccbDelay                                0x08005b6b   Thumb Code    10  sccb.o(i.SccbDelay)
    i.SccbInit                               0x08005b74   Section        0  sccb.o(i.SccbInit)
    i.SccbNack                               0x08005b7c   Section        0  sccb.o(i.SccbNack)
    i.SccbReadByte                           0x08005bcc   Section        0  sccb.o(i.SccbReadByte)
    i.SccbSendByte                           0x08005c1c   Section        0  sccb.o(i.SccbSendByte)
    i.SccbStart                              0x08005cbc   Section        0  sccb.o(i.SccbStart)
    i.SccbStop                               0x08005d04   Section        0  sccb.o(i.SccbStop)
    i.SendDots                               0x08005d44   Section        0  jx_2r_01.o(i.SendDots)
    i.ShowImage                              0x08005d7c   Section        0  ui.o(i.ShowImage)
    i.ShowImageCloseHandle                   0x08005efc   Section        0  ui.o(i.ShowImageCloseHandle)
    ShowImageCloseHandle                     0x08005efd   Thumb Code    24  ui.o(i.ShowImageCloseHandle)
    i.ShowImageDeleteHandle                  0x08005f18   Section        0  ui.o(i.ShowImageDeleteHandle)
    ShowImageDeleteHandle                    0x08005f19   Thumb Code    60  ui.o(i.ShowImageDeleteHandle)
    i.ShowImagePrintHandle                   0x08005f94   Section        0  ui.o(i.ShowImagePrintHandle)
    ShowImagePrintHandle                     0x08005f95   Thumb Code    68  ui.o(i.ShowImagePrintHandle)
    i.StopPrint                              0x08005fec   Section        0  jx_2r_01.o(i.StopPrint)
    i.SysTick_Handler                        0x0800606c   Section        0  stm32f4xx_it.o(i.SysTick_Handler)
    i.SystemClock_Config                     0x08006084   Section        0  main.o(i.SystemClock_Config)
    i.SystemInit                             0x08006138   Section        0  system_stm32f4xx.o(i.SystemInit)
    i.TIM7_IRQHandler                        0x0800614c   Section        0  stm32f4xx_it.o(i.TIM7_IRQHandler)
    i.TIM_Base_SetConfig                     0x0800615c   Section        0  stm32f4xx_hal_tim.o(i.TIM_Base_SetConfig)
    i.ThermalPrinterEN                       0x08006234   Section        0  jx_2r_01.o(i.ThermalPrinterEN)
    i.UART_SetConfig                         0x08006258   Section        0  stm32f4xx_hal_uart.o(i.UART_SetConfig)
    UART_SetConfig                           0x08006259   Thumb Code   546  stm32f4xx_hal_uart.o(i.UART_SetConfig)
    i.UART_WaitOnFlagUntilTimeout            0x08006484   Section        0  stm32f4xx_hal_uart.o(i.UART_WaitOnFlagUntilTimeout)
    UART_WaitOnFlagUntilTimeout              0x08006485   Thumb Code   146  stm32f4xx_hal_uart.o(i.UART_WaitOnFlagUntilTimeout)
    i.UsageFault_Handler                     0x08006516   Section        0  stm32f4xx_it.o(i.UsageFault_Handler)
    i.__0printf                              0x0800651c   Section        0  printfa.o(i.__0printf)
    i.__0sprintf                             0x0800653c   Section        0  printfa.o(i.__0sprintf)
    i.__0vprintf                             0x08006564   Section        0  printfa.o(i.__0vprintf)
    i.__NVIC_GetPriorityGrouping             0x08006574   Section        0  stm32f4xx_hal_cortex.o(i.__NVIC_GetPriorityGrouping)
    __NVIC_GetPriorityGrouping               0x08006575   Thumb Code    10  stm32f4xx_hal_cortex.o(i.__NVIC_GetPriorityGrouping)
    i.__NVIC_SetPriority                     0x08006584   Section        0  stm32f4xx_hal_cortex.o(i.__NVIC_SetPriority)
    __NVIC_SetPriority                       0x08006585   Thumb Code    32  stm32f4xx_hal_cortex.o(i.__NVIC_SetPriority)
    i.__scatterload_copy                     0x080065ac   Section       14  handlers.o(i.__scatterload_copy)
    i.__scatterload_null                     0x080065ba   Section        2  handlers.o(i.__scatterload_null)
    i.__scatterload_zeroinit                 0x080065bc   Section       14  handlers.o(i.__scatterload_zeroinit)
    i._atoi                                  0x080065ca   Section        0  lv_printf.o(i._atoi)
    _atoi                                    0x080065cb   Thumb Code    42  lv_printf.o(i._atoi)
    i._fp_digits                             0x080065f4   Section        0  printfa.o(i._fp_digits)
    _fp_digits                               0x080065f5   Thumb Code   366  printfa.o(i._fp_digits)
    i._is_digit                              0x08006778   Section        0  lv_printf.o(i._is_digit)
    _is_digit                                0x08006779   Thumb Code    18  lv_printf.o(i._is_digit)
    i._lv_anim_core_init                     0x0800678c   Section        0  lv_anim.o(i._lv_anim_core_init)
    i._lv_area_intersect                     0x080067c0   Section        0  lv_area.o(i._lv_area_intersect)
    i._lv_area_is_in                         0x08006842   Section        0  lv_area.o(i._lv_area_is_in)
    i._lv_area_is_on                         0x080068fe   Section        0  lv_area.o(i._lv_area_is_on)
    i._lv_area_is_out                        0x08006938   Section        0  lv_area.o(i._lv_area_is_out)
    i._lv_area_is_point_on                   0x080069ee   Section        0  lv_area.o(i._lv_area_is_point_on)
    i._lv_area_join                          0x08006b80   Section        0  lv_area.o(i._lv_area_join)
    i._lv_disp_refr_timer                    0x08006be4   Section        0  lv_refr.o(i._lv_disp_refr_timer)
    i._lv_draw_mask_cleanup                  0x08006d7c   Section        0  lv_draw_mask.o(i._lv_draw_mask_cleanup)
    i._lv_event_mark_deleted                 0x08006dbc   Section        0  lv_event.o(i._lv_event_mark_deleted)
    i._lv_font_clean_up_fmt_txt              0x08006de8   Section        0  lv_font_fmt_txt.o(i._lv_font_clean_up_fmt_txt)
    i._lv_fs_init                            0x08006dec   Section        0  lv_fs.o(i._lv_fs_init)
    i._lv_group_init                         0x08006dfc   Section        0  lv_group.o(i._lv_group_init)
    i._lv_img_buf_get_transformed_area       0x08006e0c   Section        0  lv_img_buf.o(i._lv_img_buf_get_transformed_area)
    i._lv_img_buf_transform                  0x0800717a   Section        0  lv_img_buf.o(i._lv_img_buf_transform)
    i._lv_img_buf_transform_anti_alias       0x08007358   Section        0  lv_img_buf.o(i._lv_img_buf_transform_anti_alias)
    i._lv_img_buf_transform_init             0x08007690   Section        0  lv_img_buf.o(i._lv_img_buf_transform_init)
    i._lv_img_cache_open                     0x080077b8   Section        0  lv_img_cache.o(i._lv_img_cache_open)
    i._lv_img_decoder_init                   0x08007884   Section        0  lv_img_decoder.o(i._lv_img_decoder_init)
    i._lv_indev_read                         0x0800799c   Section        0  lv_hal_indev.o(i._lv_indev_read)
    i._lv_indev_scroll_handler               0x08007a4c   Section        0  lv_indev_scroll.o(i._lv_indev_scroll_handler)
    i._lv_indev_scroll_throw_handler         0x08007b82   Section        0  lv_indev_scroll.o(i._lv_indev_scroll_throw_handler)
    i._lv_inv_area                           0x08007dc6   Section        0  lv_refr.o(i._lv_inv_area)
    i._lv_ll_clear                           0x08007ebe   Section        0  lv_ll.o(i._lv_ll_clear)
    i._lv_ll_get_head                        0x08007eee   Section        0  lv_ll.o(i._lv_ll_get_head)
    i._lv_ll_get_len                         0x08007efa   Section        0  lv_ll.o(i._lv_ll_get_len)
    i._lv_ll_get_next                        0x08007f1e   Section        0  lv_ll.o(i._lv_ll_get_next)
    i._lv_ll_get_prev                        0x08007f2c   Section        0  lv_ll.o(i._lv_ll_get_prev)
    i._lv_ll_get_tail                        0x08007f38   Section        0  lv_ll.o(i._lv_ll_get_tail)
    i._lv_ll_init                            0x08007f44   Section        0  lv_ll.o(i._lv_ll_init)
    i._lv_ll_ins_head                        0x08007f54   Section        0  lv_ll.o(i._lv_ll_ins_head)
    i._lv_ll_ins_tail                        0x08007f94   Section        0  lv_ll.o(i._lv_ll_ins_tail)
    i._lv_ll_is_empty                        0x08007fd4   Section        0  lv_ll.o(i._lv_ll_is_empty)
    i._lv_ll_remove                          0x08007fec   Section        0  lv_ll.o(i._lv_ll_remove)
    i._lv_log_add                            0x0800807c   Section        0  lv_log.o(i._lv_log_add)
    i._lv_obj_destruct                       0x08008144   Section        0  lv_obj_class.o(i._lv_obj_destruct)
    i._lv_obj_get_ext_draw_size              0x0800816a   Section        0  lv_obj_draw.o(i._lv_obj_get_ext_draw_size)
    i._lv_obj_style_create_transition        0x0800817c   Section        0  lv_obj_style.o(i._lv_obj_style_create_transition)
    i._lv_obj_style_init                     0x080083a4   Section        0  lv_obj_style.o(i._lv_obj_style_init)
    i._lv_obj_style_state_compare            0x080083b4   Section        0  lv_obj_style.o(i._lv_obj_style_state_compare)
    i._lv_refr_get_disp_refreshing           0x080086b0   Section        0  lv_refr.o(i._lv_refr_get_disp_refreshing)
    i._lv_refr_init                          0x080086bc   Section        0  lv_refr.o(i._lv_refr_init)
    i._lv_style_get_prop_group               0x080086be   Section        0  lv_style.o(i._lv_style_get_prop_group)
    i._lv_timer_core_init                    0x080086d0   Section        0  lv_timer.o(i._lv_timer_core_init)
    i._lv_txt_cut                            0x080086e8   Section        0  lv_txt.o(i._lv_txt_cut)
    i._lv_txt_encoded_letter_next_2          0x08008734   Section        0  lv_txt.o(i._lv_txt_encoded_letter_next_2)
    i._lv_txt_get_next_line                  0x0800876c   Section        0  lv_txt.o(i._lv_txt_get_next_line)
    i._lv_txt_ins                            0x08008898   Section        0  lv_txt.o(i._lv_txt_ins)
    i._lv_txt_is_cmd                         0x080088f8   Section        0  lv_txt.o(i._lv_txt_is_cmd)
    i._lv_txt_set_text_vfmt                  0x08008940   Section        0  lv_txt.o(i._lv_txt_set_text_vfmt)
    i._lv_utils_bsearch                      0x08008a14   Section        0  lv_utils.o(i._lv_utils_bsearch)
    i._ntoa_format                           0x08008a68   Section        0  lv_printf.o(i._ntoa_format)
    _ntoa_format                             0x08008a69   Thumb Code   282  lv_printf.o(i._ntoa_format)
    i._ntoa_long                             0x08008b82   Section        0  lv_printf.o(i._ntoa_long)
    _ntoa_long                               0x08008b83   Thumb Code   124  lv_printf.o(i._ntoa_long)
    i._ntoa_long_long                        0x08008bfe   Section        0  lv_printf.o(i._ntoa_long_long)
    _ntoa_long_long                          0x08008bff   Thumb Code   184  lv_printf.o(i._ntoa_long_long)
    i._out_buffer                            0x08008cb6   Section        0  lv_printf.o(i._out_buffer)
    _out_buffer                              0x08008cb7   Thumb Code     8  lv_printf.o(i._out_buffer)
    i._out_null                              0x08008cbe   Section        0  lv_printf.o(i._out_null)
    _out_null                                0x08008cbf   Thumb Code     2  lv_printf.o(i._out_null)
    i._out_rev                               0x08008cc0   Section        0  lv_printf.o(i._out_rev)
    _out_rev                                 0x08008cc1   Thumb Code   116  lv_printf.o(i._out_rev)
    i._printf_core                           0x08008d34   Section        0  printfa.o(i._printf_core)
    _printf_core                             0x08008d35   Thumb Code  1704  printfa.o(i._printf_core)
    i._printf_post_padding                   0x080093e8   Section        0  printfa.o(i._printf_post_padding)
    _printf_post_padding                     0x080093e9   Thumb Code    36  printfa.o(i._printf_post_padding)
    i._printf_pre_padding                    0x0800940c   Section        0  printfa.o(i._printf_pre_padding)
    _printf_pre_padding                      0x0800940d   Thumb Code    46  printfa.o(i._printf_pre_padding)
    i._sputc                                 0x0800943a   Section        0  printfa.o(i._sputc)
    _sputc                                   0x0800943b   Thumb Code    10  printfa.o(i._sputc)
    i._vsnprintf                             0x08009444   Section        0  lv_printf.o(i._vsnprintf)
    _vsnprintf                               0x08009445   Thumb Code  1554  lv_printf.o(i._vsnprintf)
    i.adjust_request_size                    0x08009a56   Section        0  lv_tlsf.o(i.adjust_request_size)
    adjust_request_size                      0x08009a57   Thumb Code    48  lv_tlsf.o(i.adjust_request_size)
    i.align_down                             0x08009a88   Section        0  lv_tlsf.o(i.align_down)
    align_down                               0x08009a89   Thumb Code    52  lv_tlsf.o(i.align_down)
    i.align_ptr                              0x08009b44   Section        0  lv_tlsf.o(i.align_ptr)
    align_ptr                                0x08009b45   Thumb Code    58  lv_tlsf.o(i.align_ptr)
    i.align_up                               0x08009c08   Section        0  lv_tlsf.o(i.align_up)
    align_up                                 0x08009c09   Thumb Code    54  lv_tlsf.o(i.align_up)
    i.allocate_btn_areas_and_controls        0x08009cc8   Section        0  lv_btnmatrix.o(i.allocate_btn_areas_and_controls)
    allocate_btn_areas_and_controls          0x08009cc9   Thumb Code   222  lv_btnmatrix.o(i.allocate_btn_areas_and_controls)
    i.allocate_item                          0x08009e44   Section        0  lv_draw_sw_gradient.o(i.allocate_item)
    allocate_item                            0x08009e45   Thumb Code   310  lv_draw_sw_gradient.o(i.allocate_item)
    i.angle_to_mode_color_fast               0x0800a00c   Section        0  lv_colorwheel.o(i.angle_to_mode_color_fast)
    angle_to_mode_color_fast                 0x0800a00d   Thumb Code   406  lv_colorwheel.o(i.angle_to_mode_color_fast)
    i.anim_mark_list_change                  0x0800a1b4   Section        0  lv_anim.o(i.anim_mark_list_change)
    anim_mark_list_change                    0x0800a1b5   Thumb Code    36  lv_anim.o(i.anim_mark_list_change)
    i.anim_ready_handler                     0x0800a1e4   Section        0  lv_anim.o(i.anim_ready_handler)
    anim_ready_handler                       0x0800a1e5   Thumb Code   150  lv_anim.o(i.anim_ready_handler)
    i.anim_timer                             0x0800a280   Section        0  lv_anim.o(i.anim_timer)
    anim_timer                               0x0800a281   Thumb Code   270  lv_anim.o(i.anim_timer)
    i.apply_color_filter                     0x0800a3a0   Section        0  lv_obj_style.o(i.apply_color_filter)
    apply_color_filter                       0x0800a3a1   Thumb Code    88  lv_obj_style.o(i.apply_color_filter)
    i.apply_theme                            0x0800a3f8   Section        0  lv_theme.o(i.apply_theme)
    apply_theme                              0x0800a3f9   Thumb Code    32  lv_theme.o(i.apply_theme)
    i.arc_anim_end_angle                     0x0800a418   Section        0  lv_spinner.o(i.arc_anim_end_angle)
    arc_anim_end_angle                       0x0800a419   Thumb Code    16  lv_spinner.o(i.arc_anim_end_angle)
    i.arc_anim_start_angle                   0x0800a428   Section        0  lv_spinner.o(i.arc_anim_start_angle)
    arc_anim_start_angle                     0x0800a429   Thumb Code    16  lv_spinner.o(i.arc_anim_start_angle)
    i.block_absorb                           0x0800a438   Section        0  lv_tlsf.o(i.block_absorb)
    block_absorb                             0x0800a439   Thumb Code    70  lv_tlsf.o(i.block_absorb)
    i.block_can_split                        0x0800a500   Section        0  lv_tlsf.o(i.block_can_split)
    block_can_split                          0x0800a501   Thumb Code    28  lv_tlsf.o(i.block_can_split)
    i.block_from_ptr                         0x0800a51c   Section        0  lv_tlsf.o(i.block_from_ptr)
    block_from_ptr                           0x0800a51d   Thumb Code     8  lv_tlsf.o(i.block_from_ptr)
    i.block_insert                           0x0800a524   Section        0  lv_tlsf.o(i.block_insert)
    block_insert                             0x0800a525   Thumb Code    36  lv_tlsf.o(i.block_insert)
    i.block_is_free                          0x0800a548   Section        0  lv_tlsf.o(i.block_is_free)
    block_is_free                            0x0800a549   Thumb Code    10  lv_tlsf.o(i.block_is_free)
    i.block_is_last                          0x0800a552   Section        0  lv_tlsf.o(i.block_is_last)
    block_is_last                            0x0800a553   Thumb Code    20  lv_tlsf.o(i.block_is_last)
    i.block_is_prev_free                     0x0800a566   Section        0  lv_tlsf.o(i.block_is_prev_free)
    block_is_prev_free                       0x0800a567   Thumb Code    10  lv_tlsf.o(i.block_is_prev_free)
    i.block_link_next                        0x0800a570   Section        0  lv_tlsf.o(i.block_link_next)
    block_link_next                          0x0800a571   Thumb Code    18  lv_tlsf.o(i.block_link_next)
    i.block_locate_free                      0x0800a584   Section        0  lv_tlsf.o(i.block_locate_free)
    block_locate_free                        0x0800a585   Thumb Code   106  lv_tlsf.o(i.block_locate_free)
    i.block_mark_as_free                     0x0800a654   Section        0  lv_tlsf.o(i.block_mark_as_free)
    block_mark_as_free                       0x0800a655   Thumb Code    26  lv_tlsf.o(i.block_mark_as_free)
    i.block_mark_as_used                     0x0800a66e   Section        0  lv_tlsf.o(i.block_mark_as_used)
    block_mark_as_used                       0x0800a66f   Thumb Code    26  lv_tlsf.o(i.block_mark_as_used)
    i.block_merge_next                       0x0800a688   Section        0  lv_tlsf.o(i.block_merge_next)
    block_merge_next                         0x0800a689   Thumb Code   120  lv_tlsf.o(i.block_merge_next)
    i.block_merge_prev                       0x0800a7ac   Section        0  lv_tlsf.o(i.block_merge_prev)
    block_merge_prev                         0x0800a7ad   Thumb Code   120  lv_tlsf.o(i.block_merge_prev)
    i.block_next                             0x0800a89c   Section        0  lv_tlsf.o(i.block_next)
    block_next                               0x0800a89d   Thumb Code    74  lv_tlsf.o(i.block_next)
    i.block_prepare_used                     0x0800a948   Section        0  lv_tlsf.o(i.block_prepare_used)
    block_prepare_used                       0x0800a949   Thumb Code    80  lv_tlsf.o(i.block_prepare_used)
    i.block_prev                             0x0800aa00   Section        0  lv_tlsf.o(i.block_prev)
    block_prev                               0x0800aa01   Thumb Code    48  lv_tlsf.o(i.block_prev)
    i.block_remove                           0x0800aab4   Section        0  lv_tlsf.o(i.block_remove)
    block_remove                             0x0800aab5   Thumb Code    36  lv_tlsf.o(i.block_remove)
    i.block_set_free                         0x0800aad8   Section        0  lv_tlsf.o(i.block_set_free)
    block_set_free                           0x0800aad9   Thumb Code    10  lv_tlsf.o(i.block_set_free)
    i.block_set_prev_free                    0x0800aae2   Section        0  lv_tlsf.o(i.block_set_prev_free)
    block_set_prev_free                      0x0800aae3   Thumb Code    10  lv_tlsf.o(i.block_set_prev_free)
    i.block_set_prev_used                    0x0800aaec   Section        0  lv_tlsf.o(i.block_set_prev_used)
    block_set_prev_used                      0x0800aaed   Thumb Code    10  lv_tlsf.o(i.block_set_prev_used)
    i.block_set_size                         0x0800aaf6   Section        0  lv_tlsf.o(i.block_set_size)
    block_set_size                           0x0800aaf7   Thumb Code    12  lv_tlsf.o(i.block_set_size)
    i.block_set_used                         0x0800ab02   Section        0  lv_tlsf.o(i.block_set_used)
    block_set_used                           0x0800ab03   Thumb Code    10  lv_tlsf.o(i.block_set_used)
    i.block_size                             0x0800ab0c   Section        0  lv_tlsf.o(i.block_size)
    block_size                               0x0800ab0d   Thumb Code    10  lv_tlsf.o(i.block_size)
    i.block_split                            0x0800ab18   Section        0  lv_tlsf.o(i.block_split)
    block_split                              0x0800ab19   Thumb Code   202  lv_tlsf.o(i.block_split)
    i.block_to_ptr                           0x0800ac74   Section        0  lv_tlsf.o(i.block_to_ptr)
    block_to_ptr                             0x0800ac75   Thumb Code     8  lv_tlsf.o(i.block_to_ptr)
    i.block_trim_free                        0x0800ac7c   Section        0  lv_tlsf.o(i.block_trim_free)
    block_trim_free                          0x0800ac7d   Thumb Code    96  lv_tlsf.o(i.block_trim_free)
    i.block_trim_used                        0x0800ad54   Section        0  lv_tlsf.o(i.block_trim_used)
    block_trim_used                          0x0800ad55   Thumb Code   100  lv_tlsf.o(i.block_trim_used)
    i.bmp_encode                             0x0800ae30   Section        0  ui.o(i.bmp_encode)
    i.btn1_event_handler                     0x0800b01c   Section        0  ui.o(i.btn1_event_handler)
    btn1_event_handler                       0x0800b01d   Thumb Code    22  ui.o(i.btn1_event_handler)
    i.btn2_event_handler                     0x0800b038   Section        0  ui.o(i.btn2_event_handler)
    btn2_event_handler                       0x0800b039   Thumb Code    12  ui.o(i.btn2_event_handler)
    i.btn_release_handler                    0x0800b048   Section        0  lv_dropdown.o(i.btn_release_handler)
    btn_release_handler                      0x0800b049   Thumb Code   134  lv_dropdown.o(i.btn_release_handler)
    i.btns_value_changed_event_cb            0x0800b0ce   Section        0  lv_tabview.o(i.btns_value_changed_event_cb)
    btns_value_changed_event_cb              0x0800b0cf   Thumb Code    44  lv_tabview.o(i.btns_value_changed_event_cb)
    i.button_get_checked                     0x0800b0fa   Section        0  lv_btnmatrix.o(i.button_get_checked)
    button_get_checked                       0x0800b0fb   Thumb Code     8  lv_btnmatrix.o(i.button_get_checked)
    i.button_is_checkable                    0x0800b102   Section        0  lv_btnmatrix.o(i.button_is_checkable)
    button_is_checkable                      0x0800b103   Thumb Code     8  lv_btnmatrix.o(i.button_is_checkable)
    i.button_is_checked                      0x0800b10a   Section        0  lv_btnmatrix.o(i.button_is_checked)
    button_is_checked                        0x0800b10b   Thumb Code     8  lv_btnmatrix.o(i.button_is_checked)
    i.button_is_click_trig                   0x0800b112   Section        0  lv_btnmatrix.o(i.button_is_click_trig)
    button_is_click_trig                     0x0800b113   Thumb Code     8  lv_btnmatrix.o(i.button_is_click_trig)
    i.button_is_hidden                       0x0800b11a   Section        0  lv_btnmatrix.o(i.button_is_hidden)
    button_is_hidden                         0x0800b11b   Thumb Code     8  lv_btnmatrix.o(i.button_is_hidden)
    i.button_is_inactive                     0x0800b122   Section        0  lv_btnmatrix.o(i.button_is_inactive)
    button_is_inactive                       0x0800b123   Thumb Code     8  lv_btnmatrix.o(i.button_is_inactive)
    i.button_is_popover                      0x0800b12a   Section        0  lv_btnmatrix.o(i.button_is_popover)
    button_is_popover                        0x0800b12b   Thumb Code     8  lv_btnmatrix.o(i.button_is_popover)
    i.button_is_recolor                      0x0800b132   Section        0  lv_btnmatrix.o(i.button_is_recolor)
    button_is_recolor                        0x0800b133   Thumb Code     8  lv_btnmatrix.o(i.button_is_recolor)
    i.button_is_repeat_disabled              0x0800b13a   Section        0  lv_btnmatrix.o(i.button_is_repeat_disabled)
    button_is_repeat_disabled                0x0800b13b   Thumb Code     8  lv_btnmatrix.o(i.button_is_repeat_disabled)
    i.calc                                   0x0800b144   Section        0  lv_grid.o(i.calc)
    calc                                     0x0800b145   Thumb Code   290  lv_grid.o(i.calc)
    i.calc_cols                              0x0800b270   Section        0  lv_grid.o(i.calc_cols)
    calc_cols                                0x0800b271   Thumb Code   412  lv_grid.o(i.calc_cols)
    i.calc_content_height                    0x0800b414   Section        0  lv_obj_pos.o(i.calc_content_height)
    calc_content_height                      0x0800b415   Thumb Code   304  lv_obj_pos.o(i.calc_content_height)
    i.calc_content_width                     0x0800b54c   Section        0  lv_obj_pos.o(i.calc_content_width)
    calc_content_width                       0x0800b54d   Thumb Code   526  lv_obj_pos.o(i.calc_content_width)
    i.calc_free                              0x0800b764   Section        0  lv_grid.o(i.calc_free)
    calc_free                                0x0800b765   Thumb Code    30  lv_grid.o(i.calc_free)
    i.calc_rows                              0x0800b784   Section        0  lv_grid.o(i.calc_rows)
    calc_rows                                0x0800b785   Thumb Code   406  lv_grid.o(i.calc_rows)
    i.call_flush_cb                          0x0800b924   Section        0  lv_refr.o(i.call_flush_cb)
    call_flush_cb                            0x0800b925   Thumb Code    72  lv_refr.o(i.call_flush_cb)
    i.camera_new_pathname                    0x0800b96c   Section        0  ui.o(i.camera_new_pathname)
    i.char_is_accepted                       0x0800ba24   Section        0  lv_textarea.o(i.char_is_accepted)
    char_is_accepted                         0x0800ba25   Thumb Code   102  lv_textarea.o(i.char_is_accepted)
    i.check_fs                               0x0800ba94   Section        0  ff.o(i.check_fs)
    check_fs                                 0x0800ba95   Thumb Code   116  ff.o(i.check_fs)
    i.children_repos                         0x0800bb10   Section        0  lv_flex.o(i.children_repos)
    children_repos                           0x0800bb11   Thumb Code  1332  lv_flex.o(i.children_repos)
    i.chk_chr                                0x0800c044   Section        0  ff.o(i.chk_chr)
    chk_chr                                  0x0800c045   Thumb Code    20  ff.o(i.chk_chr)
    i.chk_lock                               0x0800c058   Section        0  ff.o(i.chk_lock)
    chk_lock                                 0x0800c059   Thumb Code   120  ff.o(i.chk_lock)
    i.circ_calc_aa4                          0x0800c0d4   Section        0  lv_draw_mask.o(i.circ_calc_aa4)
    circ_calc_aa4                            0x0800c0d5   Thumb Code   886  lv_draw_mask.o(i.circ_calc_aa4)
    i.circ_cont                              0x0800c4c0   Section        0  lv_draw_mask.o(i.circ_cont)
    circ_cont                                0x0800c4c1   Thumb Code    22  lv_draw_mask.o(i.circ_cont)
    i.circ_init                              0x0800c4d6   Section        0  lv_draw_mask.o(i.circ_init)
    circ_init                                0x0800c4d7   Thumb Code    16  lv_draw_mask.o(i.circ_init)
    i.circ_next                              0x0800c4e6   Section        0  lv_draw_mask.o(i.circ_next)
    circ_next                                0x0800c4e7   Thumb Code    60  lv_draw_mask.o(i.circ_next)
    i.clear_lock                             0x0800c524   Section        0  ff.o(i.clear_lock)
    clear_lock                               0x0800c525   Thumb Code    36  ff.o(i.clear_lock)
    i.clmt_clust                             0x0800c54c   Section        0  ff.o(i.clmt_clust)
    clmt_clust                               0x0800c54d   Thumb Code    50  ff.o(i.clmt_clust)
    i.clust2sect                             0x0800c57e   Section        0  ff.o(i.clust2sect)
    clust2sect                               0x0800c57f   Thumb Code    26  ff.o(i.clust2sect)
    i.color_blend_true_color_additive        0x0800c598   Section        0  lv_draw_sw_blend.o(i.color_blend_true_color_additive)
    color_blend_true_color_additive          0x0800c599   Thumb Code   162  lv_draw_sw_blend.o(i.color_blend_true_color_additive)
    i.color_blend_true_color_multiply        0x0800c63a   Section        0  lv_draw_sw_blend.o(i.color_blend_true_color_multiply)
    color_blend_true_color_multiply          0x0800c63b   Thumb Code   144  lv_draw_sw_blend.o(i.color_blend_true_color_multiply)
    i.color_blend_true_color_subtractive     0x0800c6ca   Section        0  lv_draw_sw_blend.o(i.color_blend_true_color_subtractive)
    color_blend_true_color_subtractive       0x0800c6cb   Thumb Code   162  lv_draw_sw_blend.o(i.color_blend_true_color_subtractive)
    i.compute_key                            0x0800c76c   Section        0  lv_draw_sw_gradient.o(i.compute_key)
    compute_key                              0x0800c76d   Thumb Code    16  lv_draw_sw_gradient.o(i.compute_key)
    i.cont_scroll_end_event_cb               0x0800c77c   Section        0  lv_tabview.o(i.cont_scroll_end_event_cb)
    cont_scroll_end_event_cb                 0x0800c77d   Thumb Code   176  lv_tabview.o(i.cont_scroll_end_event_cb)
    i.control_constructor                    0x0800c82c   Section        0  lv_tlsf.o(i.control_constructor)
    control_constructor                      0x0800c82d   Thumb Code    54  lv_tlsf.o(i.control_constructor)
    i.convertExtensionToLower                0x0800c864   Section        0  ui.o(i.convertExtensionToLower)
    i.countBits                              0x0800c8a4   Section        0  jx_2r_01.o(i.countBits)
    i.count_tracks                           0x0800c8ba   Section        0  lv_grid.o(i.count_tracks)
    count_tracks                             0x0800c8bb   Thumb Code    22  lv_grid.o(i.count_tracks)
    i.create_chain                           0x0800c8d0   Section        0  ff.o(i.create_chain)
    create_chain                             0x0800c8d1   Thumb Code   222  ff.o(i.create_chain)
    i.create_name                            0x0800c9b0   Section        0  ff.o(i.create_name)
    create_name                              0x0800c9b1   Thumb Code   204  ff.o(i.create_name)
    i.cursor_blink_anim_cb                   0x0800ca90   Section        0  lv_textarea.o(i.cursor_blink_anim_cb)
    cursor_blink_anim_cb                     0x0800ca91   Thumb Code   126  lv_textarea.o(i.cursor_blink_anim_cb)
    i.dark_color_filter_cb                   0x0800cb0e   Section        0  lv_theme_default.o(i.dark_color_filter_cb)
    dark_color_filter_cb                     0x0800cb0f   Thumb Code    28  lv_theme_default.o(i.dark_color_filter_cb)
    i.dec_lock                               0x0800cb2c   Section        0  ff.o(i.dec_lock)
    dec_lock                                 0x0800cb2d   Thumb Code    64  ff.o(i.dec_lock)
    i.decode_and_draw                        0x0800cb70   Section        0  lv_draw_img.o(i.decode_and_draw)
    decode_and_draw                          0x0800cb71   Thumb Code   590  lv_draw_img.o(i.decode_and_draw)
    i.decoder_close                          0x0800ce24   Section        0  lv_bmp.o(i.decoder_close)
    decoder_close                            0x0800ce25   Thumb Code    22  lv_bmp.o(i.decoder_close)
    i.decoder_info                           0x0800ce3c   Section        0  lv_bmp.o(i.decoder_info)
    decoder_info                             0x0800ce3d   Thumb Code   150  lv_bmp.o(i.decoder_info)
    i.decoder_open                           0x0800ced8   Section        0  lv_bmp.o(i.decoder_open)
    decoder_open                             0x0800ced9   Thumb Code   292  lv_bmp.o(i.decoder_open)
    i.decoder_read_line                      0x0800d0cc   Section        0  lv_bmp.o(i.decoder_read_line)
    decoder_read_line                        0x0800d0cd   Thumb Code    76  lv_bmp.o(i.decoder_read_line)
    i.default_walker                         0x0800d118   Section        0  lv_tlsf.o(i.default_walker)
    default_walker                           0x0800d119   Thumb Code    60  lv_tlsf.o(i.default_walker)
    i.dir_alloc                              0x0800d1a8   Section        0  ff.o(i.dir_alloc)
    dir_alloc                                0x0800d1a9   Thumb Code    96  ff.o(i.dir_alloc)
    i.dir_find                               0x0800d208   Section        0  ff.o(i.dir_find)
    dir_find                                 0x0800d209   Thumb Code   108  ff.o(i.dir_find)
    i.dir_next                               0x0800d274   Section        0  ff.o(i.dir_next)
    dir_next                                 0x0800d275   Thumb Code   268  ff.o(i.dir_next)
    i.dir_read                               0x0800d380   Section        0  ff.o(i.dir_read)
    dir_read                                 0x0800d381   Thumb Code   116  ff.o(i.dir_read)
    i.dir_register                           0x0800d3f4   Section        0  ff.o(i.dir_register)
    dir_register                             0x0800d3f5   Thumb Code    60  ff.o(i.dir_register)
    i.dir_remove                             0x0800d430   Section        0  ff.o(i.dir_remove)
    dir_remove                               0x0800d431   Thumb Code    32  ff.o(i.dir_remove)
    i.dir_sdi                                0x0800d450   Section        0  ff.o(i.dir_sdi)
    dir_sdi                                  0x0800d451   Thumb Code   154  ff.o(i.dir_sdi)
    i.disk_initialize                        0x0800d4ec   Section        0  diskio.o(i.disk_initialize)
    i.disk_ioctl                             0x0800d518   Section        0  diskio.o(i.disk_ioctl)
    i.disk_read                              0x0800d540   Section        0  diskio.o(i.disk_read)
    i.disk_status                            0x0800d570   Section        0  diskio.o(i.disk_status)
    i.disk_write                             0x0800d58c   Section        0  diskio.o(i.disk_write)
    i.disp_flush                             0x0800d5bc   Section        0  lv_port_disp_template.o(i.disp_flush)
    disp_flush                               0x0800d5bd   Thumb Code    38  lv_port_disp_template.o(i.disp_flush)
    i.disp_init                              0x0800d5e2   Section        0  lv_port_disp_template.o(i.disp_init)
    disp_init                                0x0800d5e3   Thumb Code     2  lv_port_disp_template.o(i.disp_init)
    i.double_click_reset                     0x0800d5e4   Section        0  lv_colorwheel.o(i.double_click_reset)
    double_click_reset                       0x0800d5e5   Thumb Code   126  lv_colorwheel.o(i.double_click_reset)
    i.draw_arcs                              0x0800d664   Section        0  lv_meter.o(i.draw_arcs)
    draw_arcs                                0x0800d665   Thumb Code   312  lv_meter.o(i.draw_arcs)
    i.draw_axes                              0x0800d7a0   Section        0  lv_chart.o(i.draw_axes)
    draw_axes                                0x0800d7a1   Thumb Code    48  lv_chart.o(i.draw_axes)
    i.draw_bg                                0x0800d7d0   Section        0  lv_draw_sw_rect.o(i.draw_bg)
    draw_bg                                  0x0800d7d1   Thumb Code  1002  lv_draw_sw_rect.o(i.draw_bg)
    i.draw_bg_img                            0x0800dbbc   Section        0  lv_draw_sw_rect.o(i.draw_bg_img)
    draw_bg_img                              0x0800dbbd   Thumb Code   582  lv_draw_sw_rect.o(i.draw_bg_img)
    i.draw_border                            0x0800de60   Section        0  lv_draw_sw_rect.o(i.draw_border)
    draw_border                              0x0800de61   Thumb Code   310  lv_draw_sw_rect.o(i.draw_border)
    i.draw_border_generic                    0x0800df96   Section        0  lv_draw_sw_rect.o(i.draw_border_generic)
    i.draw_border_simple                     0x0800e524   Section        0  lv_draw_sw_rect.o(i.draw_border_simple)
    draw_border_simple                       0x0800e525   Thumb Code   282  lv_draw_sw_rect.o(i.draw_border_simple)
    i.draw_box                               0x0800e63e   Section        0  lv_dropdown.o(i.draw_box)
    draw_box                                 0x0800e63f   Thumb Code   216  lv_dropdown.o(i.draw_box)
    i.draw_box_label                         0x0800e716   Section        0  lv_dropdown.o(i.draw_box_label)
    draw_box_label                           0x0800e717   Thumb Code   264  lv_dropdown.o(i.draw_box_label)
    i.draw_buf_flush                         0x0800e820   Section        0  lv_refr.o(i.draw_buf_flush)
    draw_buf_flush                           0x0800e821   Thumb Code   218  lv_refr.o(i.draw_buf_flush)
    i.draw_buf_rotate                        0x0800e900   Section        0  lv_refr.o(i.draw_buf_rotate)
    draw_buf_rotate                          0x0800e901   Thumb Code   568  lv_refr.o(i.draw_buf_rotate)
    i.draw_buf_rotate4                       0x0800eb90   Section        0  lv_refr.o(i.draw_buf_rotate4)
    draw_buf_rotate4                         0x0800eb91   Thumb Code    26  lv_refr.o(i.draw_buf_rotate4)
    i.draw_buf_rotate_180                    0x0800ebaa   Section        0  lv_refr.o(i.draw_buf_rotate_180)
    draw_buf_rotate_180                      0x0800ebab   Thumb Code   142  lv_refr.o(i.draw_buf_rotate_180)
    i.draw_buf_rotate_90                     0x0800ec38   Section        0  lv_refr.o(i.draw_buf_rotate_90)
    draw_buf_rotate_90                       0x0800ec39   Thumb Code    90  lv_refr.o(i.draw_buf_rotate_90)
    i.draw_buf_rotate_90_sqr                 0x0800ec92   Section        0  lv_refr.o(i.draw_buf_rotate_90_sqr)
    draw_buf_rotate_90_sqr                   0x0800ec93   Thumb Code   148  lv_refr.o(i.draw_buf_rotate_90_sqr)
    i.draw_cleanup                           0x0800ed26   Section        0  lv_draw_img.o(i.draw_cleanup)
    draw_cleanup                             0x0800ed27   Thumb Code    12  lv_draw_img.o(i.draw_cleanup)
    i.draw_cursor                            0x0800ed34   Section        0  lv_textarea.o(i.draw_cursor)
    draw_cursor                              0x0800ed35   Thumb Code   332  lv_textarea.o(i.draw_cursor)
    i.draw_cursors                           0x0800ee84   Section        0  lv_chart.o(i.draw_cursors)
    draw_cursors                             0x0800ee85   Thumb Code   578  lv_chart.o(i.draw_cursors)
    i.draw_disc_grad                         0x0800f0cc   Section        0  lv_colorwheel.o(i.draw_disc_grad)
    draw_disc_grad                           0x0800f0cd   Thumb Code   472  lv_colorwheel.o(i.draw_disc_grad)
    i.draw_div_lines                         0x0800f2a4   Section        0  lv_chart.o(i.draw_div_lines)
    draw_div_lines                           0x0800f2a5   Thumb Code   714  lv_chart.o(i.draw_div_lines)
    i.draw_img                               0x0800f574   Section        0  lv_img.o(i.draw_img)
    draw_img                                 0x0800f575   Thumb Code  1436  lv_img.o(i.draw_img)
    i.draw_indic                             0x0800fb6c   Section        0  lv_bar.o(i.draw_indic)
    draw_indic                               0x0800fb6d   Thumb Code  1562  lv_bar.o(i.draw_indic)
    i.draw_knob                              0x08010186   Section        0  lv_colorwheel.o(i.draw_knob)
    draw_knob                                0x08010187   Thumb Code    98  lv_colorwheel.o(i.draw_knob)
    i.draw_knob                              0x080101e8   Section        0  lv_slider.o(i.draw_knob)
    draw_knob                                0x080101e9   Thumb Code   554  lv_slider.o(i.draw_knob)
    i.draw_label                             0x08010418   Section        0  lv_roller.o(i.draw_label)
    draw_label                               0x08010419   Thumb Code   248  lv_roller.o(i.draw_label)
    i.draw_letter_normal                     0x08010510   Section        0  lv_draw_sw_letter.o(i.draw_letter_normal)
    draw_letter_normal                       0x08010511   Thumb Code   938  lv_draw_sw_letter.o(i.draw_letter_normal)
    i.draw_line_hor                          0x08010930   Section        0  lv_draw_sw_line.o(i.draw_line_hor)
    draw_line_hor                            0x08010931   Thumb Code   472  lv_draw_sw_line.o(i.draw_line_hor)
    i.draw_line_skew                         0x08010b08   Section        0  lv_draw_sw_line.o(i.draw_line_skew)
    draw_line_skew                           0x08010b09   Thumb Code  1110  lv_draw_sw_line.o(i.draw_line_skew)
    i.draw_line_ver                          0x08010f64   Section        0  lv_draw_sw_line.o(i.draw_line_ver)
    draw_line_ver                            0x08010f65   Thumb Code   436  lv_draw_sw_line.o(i.draw_line_ver)
    i.draw_list                              0x08011118   Section        0  lv_dropdown.o(i.draw_list)
    draw_list                                0x08011119   Thumb Code   188  lv_dropdown.o(i.draw_list)
    i.draw_main                              0x080111d4   Section        0  lv_btnmatrix.o(i.draw_main)
    draw_main                                0x080111d5   Thumb Code  1040  lv_btnmatrix.o(i.draw_main)
    i.draw_main                              0x080115ec   Section        0  lv_dropdown.o(i.draw_main)
    draw_main                                0x080115ed   Thumb Code   762  lv_dropdown.o(i.draw_main)
    i.draw_main                              0x080118e6   Section        0  lv_label.o(i.draw_main)
    draw_main                                0x080118e7   Thumb Code   672  lv_label.o(i.draw_main)
    i.draw_main                              0x08011b86   Section        0  lv_roller.o(i.draw_main)
    draw_main                                0x08011b87   Thumb Code   476  lv_roller.o(i.draw_main)
    i.draw_main                              0x08011d62   Section        0  lv_switch.o(i.draw_main)
    draw_main                                0x08011d63   Thumb Code   454  lv_switch.o(i.draw_main)
    i.draw_main                              0x08011f28   Section        0  lv_table.o(i.draw_main)
    draw_main                                0x08011f29   Thumb Code  1476  lv_table.o(i.draw_main)
    i.draw_needles                           0x080124ec   Section        0  lv_meter.o(i.draw_needles)
    draw_needles                             0x080124ed   Thumb Code   556  lv_meter.o(i.draw_needles)
    i.draw_outline                           0x0801271c   Section        0  lv_draw_sw_rect.o(i.draw_outline)
    draw_outline                             0x0801271d   Thumb Code   256  lv_draw_sw_rect.o(i.draw_outline)
    i.draw_part_begin_event_cb               0x0801281c   Section        0  lv_calendar.o(i.draw_part_begin_event_cb)
    draw_part_begin_event_cb                 0x0801281d   Thumb Code   200  lv_calendar.o(i.draw_part_begin_event_cb)
    i.draw_placeholder                       0x080128e4   Section        0  lv_textarea.o(i.draw_placeholder)
    draw_placeholder                         0x080128e5   Thumb Code   174  lv_textarea.o(i.draw_placeholder)
    i.draw_quarter_0                         0x08012992   Section        0  lv_draw_sw_arc.o(i.draw_quarter_0)
    draw_quarter_0                           0x08012993   Thumb Code   584  lv_draw_sw_arc.o(i.draw_quarter_0)
    i.draw_quarter_1                         0x08012bda   Section        0  lv_draw_sw_arc.o(i.draw_quarter_1)
    draw_quarter_1                           0x08012bdb   Thumb Code   594  lv_draw_sw_arc.o(i.draw_quarter_1)
    i.draw_quarter_2                         0x08012e2c   Section        0  lv_draw_sw_arc.o(i.draw_quarter_2)
    draw_quarter_2                           0x08012e2d   Thumb Code   604  lv_draw_sw_arc.o(i.draw_quarter_2)
    i.draw_quarter_3                         0x08013088   Section        0  lv_draw_sw_arc.o(i.draw_quarter_3)
    draw_quarter_3                           0x08013089   Thumb Code   594  lv_draw_sw_arc.o(i.draw_quarter_3)
    i.draw_scrollbar                         0x080132dc   Section        0  lv_obj.o(i.draw_scrollbar)
    draw_scrollbar                           0x080132dd   Thumb Code   172  lv_obj.o(i.draw_scrollbar)
    i.draw_series_bar                        0x0801338c   Section        0  lv_chart.o(i.draw_series_bar)
    draw_series_bar                          0x0801338d   Thumb Code   646  lv_chart.o(i.draw_series_bar)
    i.draw_series_line                       0x08013618   Section        0  lv_chart.o(i.draw_series_line)
    draw_series_line                         0x08013619   Thumb Code  1320  lv_chart.o(i.draw_series_line)
    i.draw_series_scatter                    0x08013b44   Section        0  lv_chart.o(i.draw_series_scatter)
    draw_series_scatter                      0x08013b45   Thumb Code  1142  lv_chart.o(i.draw_series_scatter)
    i.draw_shadow                            0x08013fc0   Section        0  lv_draw_sw_rect.o(i.draw_shadow)
    draw_shadow                              0x08013fc1   Thumb Code  3440  lv_draw_sw_rect.o(i.draw_shadow)
    i.draw_ticks_and_labels                  0x08014d30   Section        0  lv_meter.o(i.draw_ticks_and_labels)
    draw_ticks_and_labels                    0x08014d31   Thumb Code  1366  lv_meter.o(i.draw_ticks_and_labels)
    i.draw_x_ticks                           0x08015288   Section        0  lv_chart.o(i.draw_x_ticks)
    draw_x_ticks                             0x08015289   Thumb Code   954  lv_chart.o(i.draw_x_ticks)
    i.draw_y_ticks                           0x0801564c   Section        0  lv_chart.o(i.draw_y_ticks)
    draw_y_ticks                             0x0801564d   Thumb Code   796  lv_chart.o(i.draw_y_ticks)
    i.elastic_diff                           0x08015970   Section        0  lv_indev_scroll.o(i.elastic_diff)
    elastic_diff                             0x08015971   Thumb Code   472  lv_indev_scroll.o(i.elastic_diff)
    i.enq_lock                               0x08015b48   Section        0  ff.o(i.enq_lock)
    enq_lock                                 0x08015b49   Thumb Code    34  ff.o(i.enq_lock)
    i.event_cb                               0x08015b70   Section        0  ui.o(i.event_cb)
    event_cb                                 0x08015b71   Thumb Code    22  ui.o(i.event_cb)
    i.event_handler                          0x08015b88   Section        0  ui.o(i.event_handler)
    event_handler                            0x08015b89   Thumb Code    48  ui.o(i.event_handler)
    i.event_is_bubbled                       0x08015bbc   Section        0  lv_event.o(i.event_is_bubbled)
    event_is_bubbled                         0x08015bbd   Thumb Code   138  lv_event.o(i.event_is_bubbled)
    i.event_send_core                        0x08015c46   Section        0  lv_event.o(i.event_send_core)
    event_send_core                          0x08015c47   Thumb Code   322  lv_event.o(i.event_send_core)
    i.f_close                                0x08015d88   Section        0  ff.o(i.f_close)
    i.f_closedir                             0x08015db4   Section        0  ff.o(i.f_closedir)
    i.f_lseek                                0x08015dda   Section        0  ff.o(i.f_lseek)
    i.f_mount                                0x0801608c   Section        0  ff.o(i.f_mount)
    i.f_open                                 0x080160ec   Section        0  ff.o(i.f_open)
    i.f_opendir                              0x0801631c   Section        0  ff.o(i.f_opendir)
    i.f_read                                 0x080163aa   Section        0  ff.o(i.f_read)
    i.f_readdir                              0x08016556   Section        0  ff.o(i.f_readdir)
    i.f_sync                                 0x080165a4   Section        0  ff.o(i.f_sync)
    i.f_unlink                               0x08016644   Section        0  ff.o(i.f_unlink)
    i.f_write                                0x080166fa   Section        0  ff.o(i.f_write)
    i.fast_hsv2rgb                           0x080168e8   Section        0  lv_colorwheel.o(i.fast_hsv2rgb)
    fast_hsv2rgb                             0x080168e9   Thumb Code   210  lv_colorwheel.o(i.fast_hsv2rgb)
    i.fill_blended                           0x080169bc   Section        0  lv_draw_sw_blend.o(i.fill_blended)
    fill_blended                             0x080169bd   Thumb Code   356  lv_draw_sw_blend.o(i.fill_blended)
    i.fill_normal                            0x08016b8c   Section        0  lv_draw_sw_blend.o(i.fill_normal)
    fill_normal                              0x08016b8d   Thumb Code   842  lv_draw_sw_blend.o(i.fill_normal)
    i.fill_set_px                            0x08016ed6   Section        0  lv_draw_sw_blend.o(i.fill_set_px)
    fill_set_px                              0x08016ed7   Thumb Code   188  lv_draw_sw_blend.o(i.fill_set_px)
    i.find_item                              0x08016f92   Section        0  lv_draw_sw_gradient.o(i.find_item)
    find_item                                0x08016f93   Thumb Code    22  lv_draw_sw_gradient.o(i.find_item)
    i.find_oldest_item_life                  0x08016fa8   Section        0  lv_draw_sw_gradient.o(i.find_oldest_item_life)
    find_oldest_item_life                    0x08016fa9   Thumb Code    30  lv_draw_sw_gradient.o(i.find_oldest_item_life)
    i.find_scroll_obj                        0x08016fc6   Section        0  lv_indev_scroll.o(i.find_scroll_obj)
    find_scroll_obj                          0x08016fc7   Thumb Code   540  lv_indev_scroll.o(i.find_scroll_obj)
    i.find_snap_point_x                      0x080171e4   Section        0  lv_indev_scroll.o(i.find_snap_point_x)
    find_snap_point_x                        0x080171e5   Thumb Code   302  lv_indev_scroll.o(i.find_snap_point_x)
    i.find_snap_point_y                      0x08017318   Section        0  lv_indev_scroll.o(i.find_snap_point_y)
    find_snap_point_y                        0x08017319   Thumb Code   302  lv_indev_scroll.o(i.find_snap_point_y)
    i.find_track_end                         0x0801744c   Section        0  lv_flex.o(i.find_track_end)
    find_track_end                           0x0801744d   Thumb Code   718  lv_flex.o(i.find_track_end)
    i.find_volume                            0x080177a4   Section        0  ff.o(i.find_volume)
    find_volume                              0x080177a5   Thumb Code   750  ff.o(i.find_volume)
    i.flex_update                            0x08017aa4   Section        0  lv_flex.o(i.flex_update)
    flex_update                              0x08017aa5   Thumb Code   910  lv_flex.o(i.flex_update)
    i.focus_next_core                        0x08017e44   Section        0  lv_group.o(i.focus_next_core)
    focus_next_core                          0x08017e45   Thumb Code   274  lv_group.o(i.focus_next_core)
    i.follow_path                            0x08017f56   Section        0  ff.o(i.follow_path)
    follow_path                              0x08017f57   Thumb Code   162  ff.o(i.follow_path)
    i.fputc                                  0x08017ff8   Section        0  debug_print.o(i.fputc)
    i.free_item                              0x08018014   Section        0  lv_draw_sw_gradient.o(i.free_item)
    free_item                                0x08018015   Thumb Code    84  lv_draw_sw_gradient.o(i.free_item)
    i.fs_close                               0x0801806c   Section        0  lv_fs_fatfs.o(i.fs_close)
    fs_close                                 0x0801806d   Thumb Code    22  lv_fs_fatfs.o(i.fs_close)
    i.fs_dir_close                           0x08018082   Section        0  lv_fs_fatfs.o(i.fs_dir_close)
    fs_dir_close                             0x08018083   Thumb Code    22  lv_fs_fatfs.o(i.fs_dir_close)
    i.fs_dir_open                            0x08018098   Section        0  lv_fs_fatfs.o(i.fs_dir_open)
    fs_dir_open                              0x08018099   Thumb Code    48  lv_fs_fatfs.o(i.fs_dir_open)
    i.fs_dir_read                            0x080180c8   Section        0  lv_fs_fatfs.o(i.fs_dir_read)
    fs_dir_read                              0x080180c9   Thumb Code    98  lv_fs_fatfs.o(i.fs_dir_read)
    i.fs_init                                0x08018134   Section        0  lv_fs_fatfs.o(i.fs_init)
    fs_init                                  0x08018135   Thumb Code     2  lv_fs_fatfs.o(i.fs_init)
    i.fs_open                                0x08018136   Section        0  lv_fs_fatfs.o(i.fs_open)
    fs_open                                  0x08018137   Thumb Code    88  lv_fs_fatfs.o(i.fs_open)
    i.fs_read                                0x0801818e   Section        0  lv_fs_fatfs.o(i.fs_read)
    fs_read                                  0x0801818f   Thumb Code    44  lv_fs_fatfs.o(i.fs_read)
    i.fs_seek                                0x080181ba   Section        0  lv_fs_fatfs.o(i.fs_seek)
    fs_seek                                  0x080181bb   Thumb Code    68  lv_fs_fatfs.o(i.fs_seek)
    i.fs_tell                                0x080181fe   Section        0  lv_fs_fatfs.o(i.fs_tell)
    fs_tell                                  0x080181ff   Thumb Code    10  lv_fs_fatfs.o(i.fs_tell)
    i.fs_write                               0x08018208   Section        0  lv_fs_fatfs.o(i.fs_write)
    fs_write                                 0x08018209   Thumb Code    44  lv_fs_fatfs.o(i.fs_write)
    i.get_angle                              0x08018234   Section        0  lv_colorwheel.o(i.get_angle)
    get_angle                                0x08018235   Thumb Code    78  lv_colorwheel.o(i.get_angle)
    i.get_button_from_point                  0x08018282   Section        0  lv_btnmatrix.o(i.get_button_from_point)
    get_button_from_point                    0x08018283   Thumb Code   508  lv_btnmatrix.o(i.get_button_from_point)
    i.get_button_width                       0x0801847e   Section        0  lv_btnmatrix.o(i.get_button_width)
    get_button_width                         0x0801847f   Thumb Code    16  lv_btnmatrix.o(i.get_button_width)
    i.get_cache_item_size                    0x0801848e   Section        0  lv_draw_sw_gradient.o(i.get_cache_item_size)
    get_cache_item_size                      0x0801848f   Thumb Code    22  lv_draw_sw_gradient.o(i.get_cache_item_size)
    i.get_center                             0x080184a4   Section        0  lv_arc.o(i.get_center)
    get_center                               0x080184a5   Thumb Code   150  lv_arc.o(i.get_center)
    i.get_col_dsc                            0x0801853c   Section        0  lv_grid.o(i.get_col_dsc)
    get_col_dsc                              0x0801853d   Thumb Code    24  lv_grid.o(i.get_col_dsc)
    i.get_col_pos                            0x08018558   Section        0  lv_grid.o(i.get_col_pos)
    get_col_pos                              0x08018559   Thumb Code    26  lv_grid.o(i.get_col_pos)
    i.get_col_span                           0x08018578   Section        0  lv_grid.o(i.get_col_span)
    get_col_span                             0x08018579   Thumb Code    26  lv_grid.o(i.get_col_span)
    i.get_day_of_week                        0x08018598   Section        0  lv_calendar.o(i.get_day_of_week)
    get_day_of_week                          0x08018599   Thumb Code    76  lv_calendar.o(i.get_day_of_week)
    i.get_fat                                0x080185e4   Section        0  ff.o(i.get_fat)
    get_fat                                  0x080185e5   Thumb Code   224  ff.o(i.get_fat)
    i.get_fattime                            0x080186c4   Section        0  fatfs.o(i.get_fattime)
    i.get_fileinfo                           0x080186c8   Section        0  ff.o(i.get_fileinfo)
    get_fileinfo                             0x080186c9   Thumb Code   140  ff.o(i.get_fileinfo)
    i.get_glyph_dsc_id                       0x08018754   Section        0  lv_font_fmt_txt.o(i.get_glyph_dsc_id)
    get_glyph_dsc_id                         0x08018755   Thumb Code   428  lv_font_fmt_txt.o(i.get_glyph_dsc_id)
    i.get_id_on_point                        0x08018904   Section        0  lv_dropdown.o(i.get_id_on_point)
    get_id_on_point                          0x08018905   Thumb Code   106  lv_dropdown.o(i.get_id_on_point)
    i.get_indev                              0x0801896e   Section        0  lv_group.o(i.get_indev)
    get_indev                                0x0801896f   Thumb Code    90  lv_group.o(i.get_indev)
    i.get_index_from_x                       0x080189c8   Section        0  lv_chart.o(i.get_index_from_x)
    get_index_from_x                         0x080189c9   Thumb Code   128  lv_chart.o(i.get_index_from_x)
    i.get_instance_size                      0x08018a48   Section        0  lv_obj_class.o(i.get_instance_size)
    get_instance_size                        0x08018a49   Thumb Code    34  lv_obj_class.o(i.get_instance_size)
    i.get_kern_value                         0x08018a6c   Section        0  lv_font_fmt_txt.o(i.get_kern_value)
    get_kern_value                           0x08018a6d   Thumb Code   202  lv_font_fmt_txt.o(i.get_kern_value)
    i.get_knob_area                          0x08018b40   Section        0  lv_colorwheel.o(i.get_knob_area)
    get_knob_area                            0x08018b41   Thumb Code   160  lv_colorwheel.o(i.get_knob_area)
    i.get_knob_area                          0x08018be0   Section        0  lv_arc.o(i.get_knob_area)
    get_knob_area                            0x08018be1   Thumb Code   302  lv_arc.o(i.get_knob_area)
    i.get_label                              0x08018d0e   Section        0  lv_dropdown.o(i.get_label)
    get_label                                0x08018d0f   Thumb Code    24  lv_dropdown.o(i.get_label)
    i.get_label                              0x08018d26   Section        0  lv_roller.o(i.get_label)
    get_label                                0x08018d27   Thumb Code    14  lv_roller.o(i.get_label)
    i.get_ldnumber                           0x08018d34   Section        0  ff.o(i.get_ldnumber)
    get_ldnumber                             0x08018d35   Thumb Code    72  ff.o(i.get_ldnumber)
    i.get_local_style                        0x08018d7c   Section        0  lv_obj_style.o(i.get_local_style)
    get_local_style                          0x08018d7d   Thumb Code   286  lv_obj_style.o(i.get_local_style)
    i.get_max_row                            0x08018f14   Section        0  lv_refr.o(i.get_max_row)
    get_max_row                              0x08018f15   Thumb Code   144  lv_refr.o(i.get_max_row)
    i.get_month_length                       0x08018fd8   Section        0  lv_calendar.o(i.get_month_length)
    get_month_length                         0x08018fd9   Thumb Code    66  lv_calendar.o(i.get_month_length)
    i.get_next_item                          0x0801901a   Section        0  lv_flex.o(i.get_next_item)
    get_next_item                            0x0801901b   Thumb Code    66  lv_flex.o(i.get_next_item)
    i.get_next_line                          0x0801905c   Section        0  lv_draw_mask.o(i.get_next_line)
    get_next_line                            0x0801905d   Thumb Code    44  lv_draw_mask.o(i.get_next_line)
    i.get_pressed_cell                       0x08019088   Section        0  lv_table.o(i.get_pressed_cell)
    get_pressed_cell                         0x08019089   Thumb Code   298  lv_table.o(i.get_pressed_cell)
    i.get_prop_core                          0x080191b2   Section        0  lv_obj_style.o(i.get_prop_core)
    get_prop_core                            0x080191b3   Thumb Code   330  lv_obj_style.o(i.get_prop_core)
    i.get_rounded_area                       0x080192fc   Section        0  lv_draw_sw_arc.o(i.get_rounded_area)
    get_rounded_area                         0x080192fd   Thumb Code   168  lv_draw_sw_arc.o(i.get_rounded_area)
    i.get_row_dsc                            0x080193a4   Section        0  lv_grid.o(i.get_row_dsc)
    get_row_dsc                              0x080193a5   Thumb Code    24  lv_grid.o(i.get_row_dsc)
    i.get_row_height                         0x080193c0   Section        0  lv_table.o(i.get_row_height)
    get_row_height                           0x080193c1   Thumb Code   338  lv_table.o(i.get_row_height)
    i.get_row_pos                            0x08019514   Section        0  lv_grid.o(i.get_row_pos)
    get_row_pos                              0x08019515   Thumb Code    26  lv_grid.o(i.get_row_pos)
    i.get_row_span                           0x08019534   Section        0  lv_grid.o(i.get_row_span)
    get_row_span                             0x08019535   Thumb Code    26  lv_grid.o(i.get_row_span)
    i.get_sel_area                           0x08019554   Section        0  lv_roller.o(i.get_sel_area)
    get_sel_area                             0x08019555   Thumb Code   134  lv_roller.o(i.get_sel_area)
    i.get_selected_label_width               0x080195da   Section        0  lv_roller.o(i.get_selected_label_width)
    get_selected_label_width                 0x080195db   Thumb Code    98  lv_roller.o(i.get_selected_label_width)
    i.get_tick_gsc                           0x0801963c   Section        0  lv_chart.o(i.get_tick_gsc)
    i.get_trans_style                        0x0801966e   Section        0  lv_obj_style.o(i.get_trans_style)
    get_trans_style                          0x0801966f   Thumb Code   196  lv_obj_style.o(i.get_trans_style)
    i.grey_filter_cb                         0x08019734   Section        0  lv_theme_default.o(i.grey_filter_cb)
    grey_filter_cb                           0x08019735   Thumb Code    78  lv_theme_default.o(i.grey_filter_cb)
    i.grid_align                             0x08019788   Section        0  lv_grid.o(i.grid_align)
    grid_align                               0x08019789   Thumb Code   350  lv_grid.o(i.grid_align)
    i.grid_update                            0x080198e6   Section        0  lv_grid.o(i.grid_update)
    grid_update                              0x080198e7   Thumb Code   268  lv_grid.o(i.grid_update)
    i.has_popovers_in_top_row                0x080199f4   Section        0  lv_btnmatrix.o(i.has_popovers_in_top_row)
    has_popovers_in_top_row                  0x080199f5   Thumb Code    78  lv_btnmatrix.o(i.has_popovers_in_top_row)
    i.hex_char_to_num                        0x08019a48   Section        0  lv_draw_label.o(i.hex_char_to_num)
    hex_char_to_num                          0x08019a49   Thumb Code    80  lv_draw_label.o(i.hex_char_to_num)
    i.highlight_update                       0x08019a98   Section        0  lv_calendar.o(i.highlight_update)
    highlight_update                         0x08019a99   Thumb Code   154  lv_calendar.o(i.highlight_update)
    i.inc_lock                               0x08019b34   Section        0  ff.o(i.inc_lock)
    inc_lock                                 0x08019b35   Thumb Code   182  ff.o(i.inc_lock)
    i.indev_button_proc                      0x08019bf0   Section        0  lv_indev.o(i.indev_button_proc)
    indev_button_proc                        0x08019bf1   Thumb Code   158  lv_indev.o(i.indev_button_proc)
    i.indev_click_focus                      0x08019cd8   Section        0  lv_indev.o(i.indev_click_focus)
    indev_click_focus                        0x08019cd9   Thumb Code   264  lv_indev.o(i.indev_click_focus)
    i.indev_encoder_proc                     0x08019de8   Section        0  lv_indev.o(i.indev_encoder_proc)
    indev_encoder_proc                       0x08019de9   Thumb Code  1036  lv_indev.o(i.indev_encoder_proc)
    i.indev_gesture                          0x0801a1fc   Section        0  lv_indev.o(i.indev_gesture)
    indev_gesture                            0x0801a1fd   Thumb Code   362  lv_indev.o(i.indev_gesture)
    i.indev_keypad_proc                      0x0801a36c   Section        0  lv_indev.o(i.indev_keypad_proc)
    indev_keypad_proc                        0x0801a36d   Thumb Code   650  lv_indev.o(i.indev_keypad_proc)
    i.indev_pointer_proc                     0x0801a600   Section        0  lv_indev.o(i.indev_pointer_proc)
    indev_pointer_proc                       0x0801a601   Thumb Code   340  lv_indev.o(i.indev_pointer_proc)
    i.indev_proc_press                       0x0801a81c   Section        0  lv_indev.o(i.indev_proc_press)
    indev_proc_press                         0x0801a81d   Thumb Code   696  lv_indev.o(i.indev_proc_press)
    i.indev_proc_release                     0x0801aadc   Section        0  lv_indev.o(i.indev_proc_release)
    indev_proc_release                       0x0801aadd   Thumb Code   164  lv_indev.o(i.indev_proc_release)
    i.indev_proc_reset_query_handler         0x0801ab88   Section        0  lv_indev.o(i.indev_proc_reset_query_handler)
    indev_proc_reset_query_handler           0x0801ab89   Thumb Code    74  lv_indev.o(i.indev_proc_reset_query_handler)
    i.indev_reset_check                      0x0801abd8   Section        0  lv_indev.o(i.indev_reset_check)
    indev_reset_check                        0x0801abd9   Thumb Code    24  lv_indev.o(i.indev_reset_check)
    i.inf_normalize                          0x0801abf4   Section        0  lv_roller.o(i.inf_normalize)
    inf_normalize                            0x0801abf5   Thumb Code   174  lv_roller.o(i.inf_normalize)
    i.init_scroll_limits                     0x0801aca4   Section        0  lv_indev_scroll.o(i.init_scroll_limits)
    init_scroll_limits                       0x0801aca5   Thumb Code   416  lv_indev_scroll.o(i.init_scroll_limits)
    i.insert_free_block                      0x0801ae48   Section        0  lv_tlsf.o(i.insert_free_block)
    insert_free_block                        0x0801ae49   Thumb Code   208  lv_tlsf.o(i.insert_free_block)
    i.insert_handler                         0x0801afd0   Section        0  lv_textarea.o(i.insert_handler)
    insert_handler                           0x0801afd1   Thumb Code    70  lv_textarea.o(i.insert_handler)
    i.inv_arc_area                           0x0801b01c   Section        0  lv_arc.o(i.inv_arc_area)
    inv_arc_area                             0x0801b01d   Thumb Code   204  lv_arc.o(i.inv_arc_area)
    i.inv_knob_area                          0x0801b0e8   Section        0  lv_arc.o(i.inv_knob_area)
    inv_knob_area                            0x0801b0e9   Thumb Code    38  lv_arc.o(i.inv_knob_area)
    i.invalidate_button_area                 0x0801b10e   Section        0  lv_btnmatrix.o(i.invalidate_button_area)
    invalidate_button_area                   0x0801b10f   Thumb Code   252  lv_btnmatrix.o(i.invalidate_button_area)
    i.invalidate_knob                        0x0801b20a   Section        0  lv_colorwheel.o(i.invalidate_knob)
    invalidate_knob                          0x0801b20b   Thumb Code    22  lv_colorwheel.o(i.invalidate_knob)
    i.invalidate_point                       0x0801b220   Section        0  lv_chart.o(i.invalidate_point)
    invalidate_point                         0x0801b221   Thumb Code   520  lv_chart.o(i.invalidate_point)
    i.is_leap_year                           0x0801b428   Section        0  lv_calendar.o(i.is_leap_year)
    is_leap_year                             0x0801b429   Thumb Code    42  lv_calendar.o(i.is_leap_year)
    i.item_repos                             0x0801b454   Section        0  lv_grid.o(i.item_repos)
    item_repos                               0x0801b455   Thumb Code   978  lv_grid.o(i.item_repos)
    i.iterate_cache                          0x0801b834   Section        0  lv_draw_sw_gradient.o(i.iterate_cache)
    iterate_cache                            0x0801b835   Thumb Code    64  lv_draw_sw_gradient.o(i.iterate_cache)
    i.kern_pair_16_compare                   0x0801b874   Section        0  lv_font_fmt_txt.o(i.kern_pair_16_compare)
    kern_pair_16_compare                     0x0801b875   Thumb Code    32  lv_font_fmt_txt.o(i.kern_pair_16_compare)
    i.kern_pair_8_compare                    0x0801b894   Section        0  lv_font_fmt_txt.o(i.kern_pair_8_compare)
    kern_pair_8_compare                      0x0801b895   Thumb Code    32  lv_font_fmt_txt.o(i.kern_pair_8_compare)
    i.key_scan                               0x0801b8b4   Section        0  key.o(i.key_scan)
    i.keypad_get_key                         0x0801b93c   Section        0  lv_port_indev_template.o(i.keypad_get_key)
    keypad_get_key                           0x0801b93d   Thumb Code    12  lv_port_indev_template.o(i.keypad_get_key)
    i.keypad_init                            0x0801b948   Section        0  lv_port_indev_template.o(i.keypad_init)
    keypad_init                              0x0801b949   Thumb Code     2  lv_port_indev_template.o(i.keypad_init)
    i.keypad_read                            0x0801b94c   Section        0  lv_port_indev_template.o(i.keypad_read)
    keypad_read                              0x0801b94d   Thumb Code    80  lv_port_indev_template.o(i.keypad_read)
    i.kill_oldest_item                       0x0801b9a0   Section        0  lv_draw_sw_gradient.o(i.kill_oldest_item)
    kill_oldest_item                         0x0801b9a1   Thumb Code    34  lv_draw_sw_gradient.o(i.kill_oldest_item)
    i.label_event_cb                         0x0801b9c2   Section        0  lv_textarea.o(i.label_event_cb)
    label_event_cb                           0x0801b9c3   Thumb Code    62  lv_textarea.o(i.label_event_cb)
    i.layout_update_core                     0x0801ba00   Section        0  lv_obj_pos.o(i.layout_update_core)
    layout_update_core                       0x0801ba01   Thumb Code   132  lv_obj_pos.o(i.layout_update_core)
    i.lcd_clear                              0x0801ba8c   Section        0  lcd.o(i.lcd_clear)
    i.lcd_color_fill                         0x0801bac0   Section        0  lcd.o(i.lcd_color_fill)
    i.lcd_display_dir                        0x0801bb20   Section        0  lcd.o(i.lcd_display_dir)
    i.lcd_draw_point                         0x0801bc8c   Section        0  lcd.o(i.lcd_draw_point)
    i.lcd_ex_ili9341_reginit                 0x0801bcac   Section        0  lcd.o(i.lcd_ex_ili9341_reginit)
    i.lcd_init                               0x0801bed8   Section        0  lcd.o(i.lcd_init)
    i.lcd_opt_delay                          0x0801c0f0   Section        0  lcd.o(i.lcd_opt_delay)
    lcd_opt_delay                            0x0801c0f1   Thumb Code    12  lcd.o(i.lcd_opt_delay)
    i.lcd_rd_data                            0x0801c0fc   Section        0  lcd.o(i.lcd_rd_data)
    lcd_rd_data                              0x0801c0fd   Thumb Code    20  lcd.o(i.lcd_rd_data)
    i.lcd_read_point                         0x0801c114   Section        0  lcd.o(i.lcd_read_point)
    i.lcd_scan_dir                           0x0801c1ac   Section        0  lcd.o(i.lcd_scan_dir)
    i.lcd_set_cursor                         0x0801c3e8   Section        0  lcd.o(i.lcd_set_cursor)
    i.lcd_show_char                          0x0801c508   Section        0  lcd.o(i.lcd_show_char)
    i.lcd_show_string                        0x0801c648   Section        0  lcd.o(i.lcd_show_string)
    i.lcd_wr_data                            0x0801c6b4   Section        0  lcd.o(i.lcd_wr_data)
    i.lcd_wr_regno                           0x0801c6cc   Section        0  lcd.o(i.lcd_wr_regno)
    i.lcd_write_ram_prepare                  0x0801c6e4   Section        0  lcd.o(i.lcd_write_ram_prepare)
    i.lcd_write_reg                          0x0801c6f8   Section        0  lcd.o(i.lcd_write_reg)
    i.ld_clust                               0x0801c70c   Section        0  ff.o(i.ld_clust)
    ld_clust                                 0x0801c70d   Thumb Code    38  ff.o(i.ld_clust)
    i.ld_dword                               0x0801c732   Section        0  ff.o(i.ld_dword)
    ld_dword                                 0x0801c733   Thumb Code    24  ff.o(i.ld_dword)
    i.ld_word                                0x0801c74a   Section        0  ff.o(i.ld_word)
    ld_word                                  0x0801c74b   Thumb Code    12  ff.o(i.ld_word)
    i.line_mask_flat                         0x0801c756   Section        0  lv_draw_mask.o(i.line_mask_flat)
    line_mask_flat                           0x0801c757   Thumb Code   482  lv_draw_mask.o(i.line_mask_flat)
    i.line_mask_steep                        0x0801c938   Section        0  lv_draw_mask.o(i.line_mask_steep)
    line_mask_steep                          0x0801c939   Thumb Code   676  lv_draw_mask.o(i.line_mask_steep)
    i.list_press_handler                     0x0801cbdc   Section        0  lv_dropdown.o(i.list_press_handler)
    list_press_handler                       0x0801cbdd   Thumb Code    74  lv_dropdown.o(i.list_press_handler)
    i.list_release_handler                   0x0801cc26   Section        0  lv_dropdown.o(i.list_release_handler)
    list_release_handler                     0x0801cc27   Thumb Code   152  lv_dropdown.o(i.list_release_handler)
    i.lv_anim_del                            0x0801ccc0   Section        0  lv_anim.o(i.lv_anim_del)
    i.lv_anim_get                            0x0801cd18   Section        0  lv_anim.o(i.lv_anim_get)
    i.lv_anim_init                           0x0801cd50   Section        0  lv_anim.o(i.lv_anim_init)
    i.lv_anim_path_ease_in_out               0x0801cd88   Section        0  lv_anim.o(i.lv_anim_path_ease_in_out)
    i.lv_anim_path_ease_out                  0x0801cdca   Section        0  lv_anim.o(i.lv_anim_path_ease_out)
    i.lv_anim_path_linear                    0x0801ce0e   Section        0  lv_anim.o(i.lv_anim_path_linear)
    i.lv_anim_path_step                      0x0801ce3a   Section        0  lv_anim.o(i.lv_anim_path_step)
    i.lv_anim_set_delay                      0x0801ce4c   Section        0  lv_obj_style.o(i.lv_anim_set_delay)
    lv_anim_set_delay                        0x0801ce4d   Thumb Code     6  lv_obj_style.o(i.lv_anim_set_delay)
    i.lv_anim_set_exec_cb                    0x0801ce52   Section        0  lv_obj_scroll.o(i.lv_anim_set_exec_cb)
    lv_anim_set_exec_cb                      0x0801ce53   Thumb Code     4  lv_obj_scroll.o(i.lv_anim_set_exec_cb)
    i.lv_anim_set_exec_cb                    0x0801ce56   Section        0  lv_obj_style.o(i.lv_anim_set_exec_cb)
    lv_anim_set_exec_cb                      0x0801ce57   Thumb Code     4  lv_obj_style.o(i.lv_anim_set_exec_cb)
    i.lv_anim_set_exec_cb                    0x0801ce5a   Section        0  lv_spinner.o(i.lv_anim_set_exec_cb)
    lv_anim_set_exec_cb                      0x0801ce5b   Thumb Code     4  lv_spinner.o(i.lv_anim_set_exec_cb)
    i.lv_anim_set_exec_cb                    0x0801ce5e   Section        0  lv_label.o(i.lv_anim_set_exec_cb)
    lv_anim_set_exec_cb                      0x0801ce5f   Thumb Code     4  lv_label.o(i.lv_anim_set_exec_cb)
    i.lv_anim_set_exec_cb                    0x0801ce62   Section        0  lv_textarea.o(i.lv_anim_set_exec_cb)
    lv_anim_set_exec_cb                      0x0801ce63   Thumb Code     4  lv_textarea.o(i.lv_anim_set_exec_cb)
    i.lv_anim_set_path_cb                    0x0801ce66   Section        0  lv_obj_scroll.o(i.lv_anim_set_path_cb)
    lv_anim_set_path_cb                      0x0801ce67   Thumb Code     4  lv_obj_scroll.o(i.lv_anim_set_path_cb)
    i.lv_anim_set_path_cb                    0x0801ce6a   Section        0  lv_textarea.o(i.lv_anim_set_path_cb)
    lv_anim_set_path_cb                      0x0801ce6b   Thumb Code     4  lv_textarea.o(i.lv_anim_set_path_cb)
    i.lv_anim_set_playback_time              0x0801ce6e   Section        0  lv_label.o(i.lv_anim_set_playback_time)
    lv_anim_set_playback_time                0x0801ce6f   Thumb Code     4  lv_label.o(i.lv_anim_set_playback_time)
    i.lv_anim_set_ready_cb                   0x0801ce72   Section        0  lv_obj_style.o(i.lv_anim_set_ready_cb)
    lv_anim_set_ready_cb                     0x0801ce73   Thumb Code     4  lv_obj_style.o(i.lv_anim_set_ready_cb)
    i.lv_anim_set_ready_cb                   0x0801ce76   Section        0  lv_textarea.o(i.lv_anim_set_ready_cb)
    lv_anim_set_ready_cb                     0x0801ce77   Thumb Code     4  lv_textarea.o(i.lv_anim_set_ready_cb)
    i.lv_anim_set_repeat_count               0x0801ce7a   Section        0  lv_label.o(i.lv_anim_set_repeat_count)
    lv_anim_set_repeat_count                 0x0801ce7b   Thumb Code     4  lv_label.o(i.lv_anim_set_repeat_count)
    i.lv_anim_set_time                       0x0801ce7e   Section        0  lv_obj_scroll.o(i.lv_anim_set_time)
    lv_anim_set_time                         0x0801ce7f   Thumb Code     4  lv_obj_scroll.o(i.lv_anim_set_time)
    i.lv_anim_set_time                       0x0801ce82   Section        0  lv_obj_style.o(i.lv_anim_set_time)
    lv_anim_set_time                         0x0801ce83   Thumb Code     4  lv_obj_style.o(i.lv_anim_set_time)
    i.lv_anim_set_time                       0x0801ce86   Section        0  lv_label.o(i.lv_anim_set_time)
    lv_anim_set_time                         0x0801ce87   Thumb Code     4  lv_label.o(i.lv_anim_set_time)
    i.lv_anim_set_time                       0x0801ce8a   Section        0  lv_textarea.o(i.lv_anim_set_time)
    lv_anim_set_time                         0x0801ce8b   Thumb Code     4  lv_textarea.o(i.lv_anim_set_time)
    i.lv_anim_set_values                     0x0801ce8e   Section        0  lv_obj_scroll.o(i.lv_anim_set_values)
    lv_anim_set_values                       0x0801ce8f   Thumb Code     8  lv_obj_scroll.o(i.lv_anim_set_values)
    i.lv_anim_set_values                     0x0801ce96   Section        0  lv_obj_style.o(i.lv_anim_set_values)
    lv_anim_set_values                       0x0801ce97   Thumb Code     8  lv_obj_style.o(i.lv_anim_set_values)
    i.lv_anim_set_values                     0x0801ce9e   Section        0  lv_spinner.o(i.lv_anim_set_values)
    lv_anim_set_values                       0x0801ce9f   Thumb Code     8  lv_spinner.o(i.lv_anim_set_values)
    i.lv_anim_set_values                     0x0801cea6   Section        0  lv_label.o(i.lv_anim_set_values)
    lv_anim_set_values                       0x0801cea7   Thumb Code     8  lv_label.o(i.lv_anim_set_values)
    i.lv_anim_set_values                     0x0801ceae   Section        0  lv_textarea.o(i.lv_anim_set_values)
    lv_anim_set_values                       0x0801ceaf   Thumb Code     8  lv_textarea.o(i.lv_anim_set_values)
    i.lv_anim_set_var                        0x0801ceb6   Section        0  lv_obj_style.o(i.lv_anim_set_var)
    lv_anim_set_var                          0x0801ceb7   Thumb Code     4  lv_obj_style.o(i.lv_anim_set_var)
    i.lv_anim_set_var                        0x0801ceba   Section        0  lv_label.o(i.lv_anim_set_var)
    lv_anim_set_var                          0x0801cebb   Thumb Code     4  lv_label.o(i.lv_anim_set_var)
    i.lv_anim_set_var                        0x0801cebe   Section        0  lv_textarea.o(i.lv_anim_set_var)
    lv_anim_set_var                          0x0801cebf   Thumb Code     4  lv_textarea.o(i.lv_anim_set_var)
    i.lv_anim_speed_to_time                  0x0801cec2   Section        0  lv_anim.o(i.lv_anim_speed_to_time)
    i.lv_anim_start                          0x0801cee4   Section        0  lv_anim.o(i.lv_anim_start)
    i.lv_arc_constructor                     0x0801d018   Section        0  lv_arc.o(i.lv_arc_constructor)
    lv_arc_constructor                       0x0801d019   Thumb Code   122  lv_arc.o(i.lv_arc_constructor)
    i.lv_arc_draw                            0x0801d094   Section        0  lv_arc.o(i.lv_arc_draw)
    lv_arc_draw                              0x0801d095   Thumb Code   472  lv_arc.o(i.lv_arc_draw)
    i.lv_arc_event                           0x0801d270   Section        0  lv_arc.o(i.lv_arc_event)
    lv_arc_event                             0x0801d271   Thumb Code  1280  lv_arc.o(i.lv_arc_event)
    i.lv_arc_get_value                       0x0801d770   Section        0  lv_arc.o(i.lv_arc_get_value)
    i.lv_arc_set_angles                      0x0801d77c   Section        0  lv_arc.o(i.lv_arc_set_angles)
    i.lv_arc_set_bg_angles                   0x0801d796   Section        0  lv_arc.o(i.lv_arc_set_bg_angles)
    i.lv_arc_set_bg_end_angle                0x0801d7b0   Section        0  lv_arc.o(i.lv_arc_set_bg_end_angle)
    i.lv_arc_set_bg_start_angle              0x0801d832   Section        0  lv_arc.o(i.lv_arc_set_bg_start_angle)
    i.lv_arc_set_end_angle                   0x0801d8b4   Section        0  lv_arc.o(i.lv_arc_set_end_angle)
    i.lv_arc_set_rotation                    0x0801d940   Section        0  lv_arc.o(i.lv_arc_set_rotation)
    i.lv_arc_set_start_angle                 0x0801d956   Section        0  lv_arc.o(i.lv_arc_set_start_angle)
    i.lv_arc_set_value                       0x0801d9e2   Section        0  lv_arc.o(i.lv_arc_set_value)
    i.lv_area_copy                           0x0801da36   Section        0  lv_obj.o(i.lv_area_copy)
    lv_area_copy                             0x0801da37   Thumb Code    18  lv_obj.o(i.lv_area_copy)
    i.lv_area_copy                           0x0801da48   Section        0  lv_obj_pos.o(i.lv_area_copy)
    lv_area_copy                             0x0801da49   Thumb Code    18  lv_obj_pos.o(i.lv_area_copy)
    i.lv_area_copy                           0x0801da5a   Section        0  lv_refr.o(i.lv_area_copy)
    lv_area_copy                             0x0801da5b   Thumb Code    18  lv_refr.o(i.lv_area_copy)
    i.lv_area_copy                           0x0801da6c   Section        0  lv_draw_sw_rect.o(i.lv_area_copy)
    lv_area_copy                             0x0801da6d   Thumb Code    18  lv_draw_sw_rect.o(i.lv_area_copy)
    i.lv_area_copy                           0x0801da7e   Section        0  lv_draw_img.o(i.lv_area_copy)
    lv_area_copy                             0x0801da7f   Thumb Code    18  lv_draw_img.o(i.lv_area_copy)
    i.lv_area_copy                           0x0801da90   Section        0  lv_draw_mask.o(i.lv_area_copy)
    lv_area_copy                             0x0801da91   Thumb Code    18  lv_draw_mask.o(i.lv_area_copy)
    i.lv_area_copy                           0x0801daa2   Section        0  lv_bar.o(i.lv_area_copy)
    lv_area_copy                             0x0801daa3   Thumb Code    18  lv_bar.o(i.lv_area_copy)
    i.lv_area_copy                           0x0801dab4   Section        0  lv_btnmatrix.o(i.lv_area_copy)
    lv_area_copy                             0x0801dab5   Thumb Code    18  lv_btnmatrix.o(i.lv_area_copy)
    i.lv_area_copy                           0x0801dac6   Section        0  lv_img.o(i.lv_area_copy)
    lv_area_copy                             0x0801dac7   Thumb Code    18  lv_img.o(i.lv_area_copy)
    i.lv_area_copy                           0x0801dad8   Section        0  lv_slider.o(i.lv_area_copy)
    lv_area_copy                             0x0801dad9   Thumb Code    18  lv_slider.o(i.lv_area_copy)
    i.lv_area_copy                           0x0801daea   Section        0  lv_textarea.o(i.lv_area_copy)
    lv_area_copy                             0x0801daeb   Thumb Code    18  lv_textarea.o(i.lv_area_copy)
    i.lv_area_get_height                     0x0801dafc   Section        0  lv_indev_scroll.o(i.lv_area_get_height)
    lv_area_get_height                       0x0801dafd   Thumb Code    14  lv_indev_scroll.o(i.lv_area_get_height)
    i.lv_area_get_height                     0x0801db0a   Section        0  lv_obj_pos.o(i.lv_area_get_height)
    lv_area_get_height                       0x0801db0b   Thumb Code    14  lv_obj_pos.o(i.lv_area_get_height)
    i.lv_area_get_height                     0x0801db18   Section        0  lv_refr.o(i.lv_area_get_height)
    lv_area_get_height                       0x0801db19   Thumb Code    14  lv_refr.o(i.lv_area_get_height)
    i.lv_area_get_height                     0x0801db26   Section        0  lv_draw_sw_blend.o(i.lv_area_get_height)
    lv_area_get_height                       0x0801db27   Thumb Code    14  lv_draw_sw_blend.o(i.lv_area_get_height)
    i.lv_area_get_height                     0x0801db34   Section        0  lv_draw_sw_img.o(i.lv_area_get_height)
    lv_area_get_height                       0x0801db35   Thumb Code    14  lv_draw_sw_img.o(i.lv_area_get_height)
    i.lv_area_get_height                     0x0801db42   Section        0  lv_draw_sw_rect.o(i.lv_area_get_height)
    lv_area_get_height                       0x0801db43   Thumb Code    14  lv_draw_sw_rect.o(i.lv_area_get_height)
    i.lv_area_get_height                     0x0801db50   Section        0  lv_draw_mask.o(i.lv_area_get_height)
    lv_area_get_height                       0x0801db51   Thumb Code    14  lv_draw_mask.o(i.lv_area_get_height)
    i.lv_area_get_height                     0x0801db5e   Section        0  lv_flex.o(i.lv_area_get_height)
    lv_area_get_height                       0x0801db5f   Thumb Code    14  lv_flex.o(i.lv_area_get_height)
    i.lv_area_get_height                     0x0801db6c   Section        0  lv_meter.o(i.lv_area_get_height)
    lv_area_get_height                       0x0801db6d   Thumb Code    14  lv_meter.o(i.lv_area_get_height)
    i.lv_area_get_height                     0x0801db7a   Section        0  lv_area.o(i.lv_area_get_height)
    lv_area_get_height                       0x0801db7b   Thumb Code    14  lv_area.o(i.lv_area_get_height)
    i.lv_area_get_height                     0x0801db88   Section        0  lv_bar.o(i.lv_area_get_height)
    lv_area_get_height                       0x0801db89   Thumb Code    14  lv_bar.o(i.lv_area_get_height)
    i.lv_area_get_height                     0x0801db96   Section        0  lv_btnmatrix.o(i.lv_area_get_height)
    lv_area_get_height                       0x0801db97   Thumb Code    14  lv_btnmatrix.o(i.lv_area_get_height)
    i.lv_area_get_height                     0x0801dba4   Section        0  lv_img.o(i.lv_area_get_height)
    lv_area_get_height                       0x0801dba5   Thumb Code    14  lv_img.o(i.lv_area_get_height)
    i.lv_area_get_height                     0x0801dbb2   Section        0  lv_label.o(i.lv_area_get_height)
    lv_area_get_height                       0x0801dbb3   Thumb Code    14  lv_label.o(i.lv_area_get_height)
    i.lv_area_get_size                       0x0801dbc0   Section        0  lv_area.o(i.lv_area_get_size)
    i.lv_area_get_width                      0x0801dbe2   Section        0  lv_indev_scroll.o(i.lv_area_get_width)
    lv_area_get_width                        0x0801dbe3   Thumb Code    14  lv_indev_scroll.o(i.lv_area_get_width)
    i.lv_area_get_width                      0x0801dbf0   Section        0  lv_obj_pos.o(i.lv_area_get_width)
    lv_area_get_width                        0x0801dbf1   Thumb Code    14  lv_obj_pos.o(i.lv_area_get_width)
    i.lv_area_get_width                      0x0801dbfe   Section        0  lv_refr.o(i.lv_area_get_width)
    lv_area_get_width                        0x0801dbff   Thumb Code    14  lv_refr.o(i.lv_area_get_width)
    i.lv_area_get_width                      0x0801dc0c   Section        0  lv_draw_sw_blend.o(i.lv_area_get_width)
    lv_area_get_width                        0x0801dc0d   Thumb Code    14  lv_draw_sw_blend.o(i.lv_area_get_width)
    i.lv_area_get_width                      0x0801dc1a   Section        0  lv_draw_sw_img.o(i.lv_area_get_width)
    lv_area_get_width                        0x0801dc1b   Thumb Code    14  lv_draw_sw_img.o(i.lv_area_get_width)
    i.lv_area_get_width                      0x0801dc28   Section        0  lv_draw_sw_line.o(i.lv_area_get_width)
    lv_area_get_width                        0x0801dc29   Thumb Code    14  lv_draw_sw_line.o(i.lv_area_get_width)
    i.lv_area_get_width                      0x0801dc36   Section        0  lv_draw_sw_rect.o(i.lv_area_get_width)
    lv_area_get_width                        0x0801dc37   Thumb Code    14  lv_draw_sw_rect.o(i.lv_area_get_width)
    i.lv_area_get_width                      0x0801dc44   Section        0  lv_draw_img.o(i.lv_area_get_width)
    lv_area_get_width                        0x0801dc45   Thumb Code    14  lv_draw_img.o(i.lv_area_get_width)
    i.lv_area_get_width                      0x0801dc52   Section        0  lv_draw_label.o(i.lv_area_get_width)
    lv_area_get_width                        0x0801dc53   Thumb Code    14  lv_draw_label.o(i.lv_area_get_width)
    i.lv_area_get_width                      0x0801dc60   Section        0  lv_draw_mask.o(i.lv_area_get_width)
    lv_area_get_width                        0x0801dc61   Thumb Code    14  lv_draw_mask.o(i.lv_area_get_width)
    i.lv_area_get_width                      0x0801dc6e   Section        0  lv_flex.o(i.lv_area_get_width)
    lv_area_get_width                        0x0801dc6f   Thumb Code    14  lv_flex.o(i.lv_area_get_width)
    i.lv_area_get_width                      0x0801dc7c   Section        0  lv_meter.o(i.lv_area_get_width)
    lv_area_get_width                        0x0801dc7d   Thumb Code    14  lv_meter.o(i.lv_area_get_width)
    i.lv_area_get_width                      0x0801dc8a   Section        0  lv_area.o(i.lv_area_get_width)
    lv_area_get_width                        0x0801dc8b   Thumb Code    14  lv_area.o(i.lv_area_get_width)
    i.lv_area_get_width                      0x0801dc98   Section        0  lv_bar.o(i.lv_area_get_width)
    lv_area_get_width                        0x0801dc99   Thumb Code    14  lv_bar.o(i.lv_area_get_width)
    i.lv_area_get_width                      0x0801dca6   Section        0  lv_btnmatrix.o(i.lv_area_get_width)
    lv_area_get_width                        0x0801dca7   Thumb Code    14  lv_btnmatrix.o(i.lv_area_get_width)
    i.lv_area_get_width                      0x0801dcb4   Section        0  lv_img.o(i.lv_area_get_width)
    lv_area_get_width                        0x0801dcb5   Thumb Code    14  lv_img.o(i.lv_area_get_width)
    i.lv_area_get_width                      0x0801dcc2   Section        0  lv_label.o(i.lv_area_get_width)
    lv_area_get_width                        0x0801dcc3   Thumb Code    14  lv_label.o(i.lv_area_get_width)
    i.lv_area_increase                       0x0801dcd0   Section        0  lv_area.o(i.lv_area_increase)
    i.lv_area_move                           0x0801dcf2   Section        0  lv_area.o(i.lv_area_move)
    i.lv_area_set                            0x0801dd14   Section        0  lv_area.o(i.lv_area_set)
    i.lv_area_set_height                     0x0801dd22   Section        0  lv_area.o(i.lv_area_set_height)
    i.lv_area_set_width                      0x0801dd2e   Section        0  lv_area.o(i.lv_area_set_width)
    i.lv_atan2                               0x0801dd3a   Section        0  lv_math.o(i.lv_atan2)
    i.lv_bar_anim                            0x0801ddf8   Section        0  lv_bar.o(i.lv_bar_anim)
    lv_bar_anim                              0x0801ddf9   Thumb Code    18  lv_bar.o(i.lv_bar_anim)
    i.lv_bar_anim_ready                      0x0801de0a   Section        0  lv_bar.o(i.lv_bar_anim_ready)
    lv_bar_anim_ready                        0x0801de0b   Thumb Code    54  lv_bar.o(i.lv_bar_anim_ready)
    i.lv_bar_constructor                     0x0801de40   Section        0  lv_bar.o(i.lv_bar_constructor)
    lv_bar_constructor                       0x0801de41   Thumb Code    94  lv_bar.o(i.lv_bar_constructor)
    i.lv_bar_destructor                      0x0801de9e   Section        0  lv_bar.o(i.lv_bar_destructor)
    lv_bar_destructor                        0x0801de9f   Thumb Code    30  lv_bar.o(i.lv_bar_destructor)
    i.lv_bar_event                           0x0801debc   Section        0  lv_bar.o(i.lv_bar_event)
    lv_bar_event                             0x0801debd   Thumb Code   246  lv_bar.o(i.lv_bar_event)
    i.lv_bar_get_mode                        0x0801dfb8   Section        0  lv_bar.o(i.lv_bar_get_mode)
    i.lv_bar_get_start_value                 0x0801dfca   Section        0  lv_bar.o(i.lv_bar_get_start_value)
    i.lv_bar_get_value                       0x0801dff0   Section        0  lv_bar.o(i.lv_bar_get_value)
    i.lv_bar_init_anim                       0x0801e006   Section        0  lv_bar.o(i.lv_bar_init_anim)
    lv_bar_init_anim                         0x0801e007   Thumb Code    14  lv_bar.o(i.lv_bar_init_anim)
    i.lv_bar_set_start_value                 0x0801e014   Section        0  lv_bar.o(i.lv_bar_set_start_value)
    i.lv_bar_set_value                       0x0801e080   Section        0  lv_bar.o(i.lv_bar_set_value)
    i.lv_bar_set_value_with_anim             0x0801e0e8   Section        0  lv_bar.o(i.lv_bar_set_value_with_anim)
    lv_bar_set_value_with_anim               0x0801e0e9   Thumb Code   144  lv_bar.o(i.lv_bar_set_value_with_anim)
    i.lv_bezier3                             0x0801e180   Section        0  lv_math.o(i.lv_bezier3)
    i.lv_bmp_init                            0x0801e1e0   Section        0  lv_bmp.o(i.lv_bmp_init)
    i.lv_btn_constructor                     0x0801e21c   Section        0  lv_btn.o(i.lv_btn_constructor)
    lv_btn_constructor                       0x0801e21d   Thumb Code    34  lv_btn.o(i.lv_btn_constructor)
    i.lv_btn_create                          0x0801e240   Section        0  lv_btn.o(i.lv_btn_create)
    i.lv_btnmatrix_clear_btn_ctrl            0x0801e260   Section        0  lv_btnmatrix.o(i.lv_btnmatrix_clear_btn_ctrl)
    i.lv_btnmatrix_clear_btn_ctrl_all        0x0801e2a0   Section        0  lv_btnmatrix.o(i.lv_btnmatrix_clear_btn_ctrl_all)
    i.lv_btnmatrix_constructor               0x0801e2cc   Section        0  lv_btnmatrix.o(i.lv_btnmatrix_constructor)
    lv_btnmatrix_constructor                 0x0801e2cd   Thumb Code    50  lv_btnmatrix.o(i.lv_btnmatrix_constructor)
    i.lv_btnmatrix_create                    0x0801e304   Section        0  lv_btnmatrix.o(i.lv_btnmatrix_create)
    i.lv_btnmatrix_destructor                0x0801e324   Section        0  lv_btnmatrix.o(i.lv_btnmatrix_destructor)
    lv_btnmatrix_destructor                  0x0801e325   Thumb Code    36  lv_btnmatrix.o(i.lv_btnmatrix_destructor)
    i.lv_btnmatrix_event                     0x0801e348   Section        0  lv_btnmatrix.o(i.lv_btnmatrix_event)
    lv_btnmatrix_event                       0x0801e349   Thumb Code  1736  lv_btnmatrix.o(i.lv_btnmatrix_event)
    i.lv_btnmatrix_get_btn_text              0x0801ea10   Section        0  lv_btnmatrix.o(i.lv_btnmatrix_get_btn_text)
    i.lv_btnmatrix_get_selected_btn          0x0801ea70   Section        0  lv_btnmatrix.o(i.lv_btnmatrix_get_selected_btn)
    i.lv_btnmatrix_has_btn_ctrl              0x0801ea7c   Section        0  lv_btnmatrix.o(i.lv_btnmatrix_has_btn_ctrl)
    i.lv_btnmatrix_set_btn_ctrl              0x0801eaa4   Section        0  lv_btnmatrix.o(i.lv_btnmatrix_set_btn_ctrl)
    i.lv_btnmatrix_set_btn_ctrl_all          0x0801eafc   Section        0  lv_btnmatrix.o(i.lv_btnmatrix_set_btn_ctrl_all)
    i.lv_btnmatrix_set_ctrl_map              0x0801eb26   Section        0  lv_btnmatrix.o(i.lv_btnmatrix_set_ctrl_map)
    i.lv_btnmatrix_set_map                   0x0801eb48   Section        0  lv_btnmatrix.o(i.lv_btnmatrix_set_map)
    i.lv_btnmatrix_set_one_checked           0x0801ed38   Section        0  lv_btnmatrix.o(i.lv_btnmatrix_set_one_checked)
    i.lv_btnmatrix_set_selected_btn          0x0801ed52   Section        0  lv_btnmatrix.o(i.lv_btnmatrix_set_selected_btn)
    i.lv_calendar_constructor                0x0801ed84   Section        0  lv_calendar.o(i.lv_calendar_constructor)
    lv_calendar_constructor                  0x0801ed85   Thumb Code   280  lv_calendar.o(i.lv_calendar_constructor)
    i.lv_calendar_get_showed_date            0x0801eeac   Section        0  lv_calendar.o(i.lv_calendar_get_showed_date)
    i.lv_calendar_set_showed_date            0x0801eebc   Section        0  lv_calendar.o(i.lv_calendar_set_showed_date)
    i.lv_calendar_set_today_date             0x0801f040   Section        0  lv_calendar.o(i.lv_calendar_set_today_date)
    i.lv_chart_constructor                   0x0801f06e   Section        0  lv_chart.o(i.lv_chart_constructor)
    lv_chart_constructor                     0x0801f06f   Thumb Code   128  lv_chart.o(i.lv_chart_constructor)
    i.lv_chart_destructor                    0x0801f0ee   Section        0  lv_chart.o(i.lv_chart_destructor)
    lv_chart_destructor                      0x0801f0ef   Thumb Code   120  lv_chart.o(i.lv_chart_destructor)
    i.lv_chart_event                         0x0801f168   Section        0  lv_chart.o(i.lv_chart_event)
    lv_chart_event                           0x0801f169   Thumb Code   454  lv_chart.o(i.lv_chart_event)
    i.lv_chart_get_point_pos_by_id           0x0801f334   Section        0  lv_chart.o(i.lv_chart_get_point_pos_by_id)
    i.lv_checkbox_constructor                0x0801f62c   Section        0  lv_checkbox.o(i.lv_checkbox_constructor)
    lv_checkbox_constructor                  0x0801f62d   Thumb Code    52  lv_checkbox.o(i.lv_checkbox_constructor)
    i.lv_checkbox_destructor                 0x0801f66c   Section        0  lv_checkbox.o(i.lv_checkbox_destructor)
    lv_checkbox_destructor                   0x0801f66d   Thumb Code    38  lv_checkbox.o(i.lv_checkbox_destructor)
    i.lv_checkbox_draw                       0x0801f694   Section        0  lv_checkbox.o(i.lv_checkbox_draw)
    lv_checkbox_draw                         0x0801f695   Thumb Code   606  lv_checkbox.o(i.lv_checkbox_draw)
    i.lv_checkbox_event                      0x0801f8f8   Section        0  lv_checkbox.o(i.lv_checkbox_event)
    lv_checkbox_event                        0x0801f8f9   Thumb Code   316  lv_checkbox.o(i.lv_checkbox_event)
    i.lv_clamp_height                        0x0801fa38   Section        0  lv_obj_pos.o(i.lv_clamp_height)
    i.lv_clamp_width                         0x0801fae6   Section        0  lv_obj_pos.o(i.lv_clamp_width)
    i.lv_color_black                         0x0801fb94   Section        0  lv_draw_label.o(i.lv_color_black)
    lv_color_black                           0x0801fb95   Thumb Code    22  lv_draw_label.o(i.lv_color_black)
    i.lv_color_black                         0x0801fbaa   Section        0  lv_draw_rect.o(i.lv_color_black)
    lv_color_black                           0x0801fbab   Thumb Code    22  lv_draw_rect.o(i.lv_color_black)
    i.lv_color_black                         0x0801fbc0   Section        0  lv_led.o(i.lv_color_black)
    lv_color_black                           0x0801fbc1   Thumb Code    60  lv_led.o(i.lv_color_black)
    i.lv_color_black                         0x0801fbfc   Section        0  lv_color.o(i.lv_color_black)
    lv_color_black                           0x0801fbfd   Thumb Code    22  lv_color.o(i.lv_color_black)
    i.lv_color_brightness                    0x0801fc12   Section        0  lv_led.o(i.lv_color_brightness)
    lv_color_brightness                      0x0801fc13   Thumb Code   126  lv_led.o(i.lv_color_brightness)
    i.lv_color_darken                        0x0801fc90   Section        0  lv_color.o(i.lv_color_darken)
    i.lv_color_fill                          0x0801fcb0   Section        0  lv_color.o(i.lv_color_fill)
    i.lv_color_filter_dsc_init               0x0801fd0c   Section        0  lv_theme_default.o(i.lv_color_filter_dsc_init)
    lv_color_filter_dsc_init                 0x0801fd0d   Thumb Code     4  lv_theme_default.o(i.lv_color_filter_dsc_init)
    i.lv_color_hex                           0x0801fd10   Section        0  lv_theme_default.o(i.lv_color_hex)
    lv_color_hex                             0x0801fd11   Thumb Code    34  lv_theme_default.o(i.lv_color_hex)
    i.lv_color_hsv_to_rgb                    0x0801fd32   Section        0  lv_color.o(i.lv_color_hsv_to_rgb)
    i.lv_color_make                          0x0801fe2a   Section        0  lv_draw_img.o(i.lv_color_make)
    lv_color_make                            0x0801fe2b   Thumb Code    48  lv_draw_img.o(i.lv_color_make)
    i.lv_color_make                          0x0801fe5a   Section        0  lv_draw_label.o(i.lv_color_make)
    lv_color_make                            0x0801fe5b   Thumb Code    48  lv_draw_label.o(i.lv_color_make)
    i.lv_color_make                          0x0801fe8a   Section        0  lv_draw_rect.o(i.lv_color_make)
    lv_color_make                            0x0801fe8b   Thumb Code    48  lv_draw_rect.o(i.lv_color_make)
    i.lv_color_make                          0x0801feba   Section        0  lv_img_decoder.o(i.lv_color_make)
    lv_color_make                            0x0801febb   Thumb Code    48  lv_img_decoder.o(i.lv_color_make)
    i.lv_color_make                          0x0801feea   Section        0  lv_hal_disp.o(i.lv_color_make)
    lv_color_make                            0x0801feeb   Thumb Code    48  lv_hal_disp.o(i.lv_color_make)
    i.lv_color_make                          0x0801ff1a   Section        0  lv_color.o(i.lv_color_make)
    lv_color_make                            0x0801ff1b   Thumb Code    48  lv_color.o(i.lv_color_make)
    i.lv_color_make                          0x0801ff4a   Section        0  lv_style.o(i.lv_color_make)
    lv_color_make                            0x0801ff4b   Thumb Code    48  lv_style.o(i.lv_color_make)
    i.lv_color_mix                           0x0801ff7c   Section        0  lv_draw_sw_blend.o(i.lv_color_mix)
    lv_color_mix                             0x0801ff7d   Thumb Code    64  lv_draw_sw_blend.o(i.lv_color_mix)
    i.lv_color_mix                           0x0801ffc0   Section        0  lv_img_buf.o(i.lv_color_mix)
    lv_color_mix                             0x0801ffc1   Thumb Code    64  lv_img_buf.o(i.lv_color_mix)
    i.lv_color_mix                           0x08020004   Section        0  lv_theme_default.o(i.lv_color_mix)
    lv_color_mix                             0x08020005   Thumb Code    64  lv_theme_default.o(i.lv_color_mix)
    i.lv_color_mix                           0x08020048   Section        0  lv_led.o(i.lv_color_mix)
    lv_color_mix                             0x08020049   Thumb Code    64  lv_led.o(i.lv_color_mix)
    i.lv_color_mix                           0x0802008c   Section        0  lv_color.o(i.lv_color_mix)
    lv_color_mix                             0x0802008d   Thumb Code    64  lv_color.o(i.lv_color_mix)
    i.lv_color_mix_premult                   0x080200d0   Section        0  lv_draw_sw_blend.o(i.lv_color_mix_premult)
    lv_color_mix_premult                     0x080200d1   Thumb Code   126  lv_draw_sw_blend.o(i.lv_color_mix_premult)
    i.lv_color_mix_premult                   0x0802014e   Section        0  lv_draw_sw_img.o(i.lv_color_mix_premult)
    lv_color_mix_premult                     0x0802014f   Thumb Code   126  lv_draw_sw_img.o(i.lv_color_mix_premult)
    i.lv_color_to32                          0x080201cc   Section        0  lv_draw_sw_gradient.o(i.lv_color_to32)
    lv_color_to32                            0x080201cd   Thumb Code    90  lv_draw_sw_gradient.o(i.lv_color_to32)
    i.lv_color_white                         0x08020226   Section        0  lv_draw_rect.o(i.lv_color_white)
    lv_color_white                           0x08020227   Thumb Code    22  lv_draw_rect.o(i.lv_color_white)
    i.lv_color_white                         0x0802023c   Section        0  lv_theme_default.o(i.lv_color_white)
    lv_color_white                           0x0802023d   Thumb Code    60  lv_theme_default.o(i.lv_color_white)
    i.lv_colorwheel_constructor              0x08020278   Section        0  lv_colorwheel.o(i.lv_colorwheel_constructor)
    lv_colorwheel_constructor                0x08020279   Thumb Code    84  lv_colorwheel.o(i.lv_colorwheel_constructor)
    i.lv_colorwheel_event                    0x080202d0   Section        0  lv_colorwheel.o(i.lv_colorwheel_event)
    lv_colorwheel_event                      0x080202d1   Thumb Code  1230  lv_colorwheel.o(i.lv_colorwheel_event)
    i.lv_colorwheel_get_rgb                  0x0802079e   Section        0  lv_colorwheel.o(i.lv_colorwheel_get_rgb)
    i.lv_colorwheel_set_hsv                  0x080207c2   Section        0  lv_colorwheel.o(i.lv_colorwheel_set_hsv)
    i.lv_disp_dpx                            0x08020842   Section        0  lv_theme_default.o(i.lv_disp_dpx)
    lv_disp_dpx                              0x08020843   Thumb Code    56  lv_theme_default.o(i.lv_disp_dpx)
    i.lv_disp_draw_buf_init                  0x0802087a   Section        0  lv_hal_disp.o(i.lv_disp_draw_buf_init)
    i.lv_disp_drv_init                       0x0802089c   Section        0  lv_hal_disp.o(i.lv_disp_drv_init)
    i.lv_disp_drv_register                   0x08020910   Section        0  lv_hal_disp.o(i.lv_disp_drv_register)
    i.lv_disp_flush_ready                    0x08020bac   Section        0  lv_hal_disp.o(i.lv_disp_flush_ready)
    i.lv_disp_get_default                    0x08020bb8   Section        0  lv_hal_disp.o(i.lv_disp_get_default)
    i.lv_disp_get_dpi                        0x08020bc4   Section        0  lv_hal_disp.o(i.lv_disp_get_dpi)
    i.lv_disp_get_draw_buf                   0x08020be0   Section        0  lv_hal_disp.o(i.lv_disp_get_draw_buf)
    i.lv_disp_get_hor_res                    0x08020be8   Section        0  lv_hal_disp.o(i.lv_disp_get_hor_res)
    i.lv_disp_get_layer_sys                  0x08020c20   Section        0  lv_disp.o(i.lv_disp_get_layer_sys)
    i.lv_disp_get_layer_top                  0x08020cb0   Section        0  lv_disp.o(i.lv_disp_get_layer_top)
    i.lv_disp_get_next                       0x08020d40   Section        0  lv_hal_disp.o(i.lv_disp_get_next)
    i.lv_disp_get_scr_act                    0x08020d5c   Section        0  lv_disp.o(i.lv_disp_get_scr_act)
    i.lv_disp_get_scr_prev                   0x08020de0   Section        0  lv_disp.o(i.lv_disp_get_scr_prev)
    i.lv_disp_get_theme                      0x08020e68   Section        0  lv_disp.o(i.lv_disp_get_theme)
    i.lv_disp_get_ver_res                    0x08020e78   Section        0  lv_hal_disp.o(i.lv_disp_get_ver_res)
    i.lv_draw_arc                            0x08020eae   Section        0  lv_draw_arc.o(i.lv_draw_arc)
    i.lv_draw_arc_dsc_init                   0x08020eea   Section        0  lv_draw_arc.o(i.lv_draw_arc_dsc_init)
    i.lv_draw_arc_get_area                   0x08020f42   Section        0  lv_draw_arc.o(i.lv_draw_arc_get_area)
    i.lv_draw_img                            0x08021380   Section        0  lv_draw_img.o(i.lv_draw_img)
    i.lv_draw_img_decoded                    0x08021464   Section        0  lv_draw_img.o(i.lv_draw_img_decoded)
    i.lv_draw_img_dsc_init                   0x08021492   Section        0  lv_draw_img.o(i.lv_draw_img_dsc_init)
    i.lv_draw_init                           0x080214c8   Section        0  lv_draw.o(i.lv_draw_init)
    i.lv_draw_label                          0x080214cc   Section        0  lv_draw_label.o(i.lv_draw_label)
    i.lv_draw_label_dsc_init                 0x08021c9c   Section        0  lv_draw_label.o(i.lv_draw_label_dsc_init)
    i.lv_draw_letter                         0x08021ce8   Section        0  lv_draw_label.o(i.lv_draw_letter)
    i.lv_draw_line                           0x08021d06   Section        0  lv_draw_line.o(i.lv_draw_line)
    i.lv_draw_line_dsc_init                  0x08021d34   Section        0  lv_draw_line.o(i.lv_draw_line_dsc_init)
    i.lv_draw_mask_add                       0x08021d8c   Section        0  lv_draw_mask.o(i.lv_draw_mask_add)
    i.lv_draw_mask_angle                     0x08021e34   Section        0  lv_draw_mask.o(i.lv_draw_mask_angle)
    lv_draw_mask_angle                       0x08021e35   Thumb Code  1070  lv_draw_mask.o(i.lv_draw_mask_angle)
    i.lv_draw_mask_angle_init                0x08022264   Section        0  lv_draw_mask.o(i.lv_draw_mask_angle_init)
    i.lv_draw_mask_apply                     0x08022460   Section        0  lv_draw_mask.o(i.lv_draw_mask_apply)
    i.lv_draw_mask_free_param                0x080224b8   Section        0  lv_draw_mask.o(i.lv_draw_mask_free_param)
    i.lv_draw_mask_is_any                    0x08022500   Section        0  lv_draw_mask.o(i.lv_draw_mask_is_any)
    i.lv_draw_mask_line                      0x0802257c   Section        0  lv_draw_mask.o(i.lv_draw_mask_line)
    lv_draw_mask_line                        0x0802257d   Thumb Code   300  lv_draw_mask.o(i.lv_draw_mask_line)
    i.lv_draw_mask_line_angle_init           0x080226a8   Section        0  lv_draw_mask.o(i.lv_draw_mask_line_angle_init)
    i.lv_draw_mask_line_points_init          0x080226f4   Section        0  lv_draw_mask.o(i.lv_draw_mask_line_points_init)
    i.lv_draw_mask_radius                    0x080228a0   Section        0  lv_draw_mask.o(i.lv_draw_mask_radius)
    lv_draw_mask_radius                      0x080228a1   Thumb Code   846  lv_draw_mask.o(i.lv_draw_mask_radius)
    i.lv_draw_mask_radius_init               0x08022bf0   Section        0  lv_draw_mask.o(i.lv_draw_mask_radius_init)
    i.lv_draw_mask_remove_custom             0x08022e18   Section        0  lv_draw_mask.o(i.lv_draw_mask_remove_custom)
    i.lv_draw_mask_remove_id                 0x08022e4c   Section        0  lv_draw_mask.o(i.lv_draw_mask_remove_id)
    i.lv_draw_rect                           0x08022e70   Section        0  lv_draw_rect.o(i.lv_draw_rect)
    i.lv_draw_rect_dsc_init                  0x08022ea8   Section        0  lv_draw_rect.o(i.lv_draw_rect_dsc_init)
    i.lv_draw_sw_arc                         0x08022f24   Section        0  lv_draw_sw_arc.o(i.lv_draw_sw_arc)
    i.lv_draw_sw_bg                          0x080232ce   Section        0  lv_draw_sw_rect.o(i.lv_draw_sw_bg)
    i.lv_draw_sw_blend                       0x080232ec   Section        0  lv_draw_sw_blend.o(i.lv_draw_sw_blend)
    i.lv_draw_sw_blend_basic                 0x0802331e   Section        0  lv_draw_sw_blend.o(i.lv_draw_sw_blend_basic)
    i.lv_draw_sw_img_decoded                 0x080234c6   Section        0  lv_draw_sw_img.o(i.lv_draw_sw_img_decoded)
    i.lv_draw_sw_init_ctx                    0x080239e8   Section        0  lv_draw_sw.o(i.lv_draw_sw_init_ctx)
    i.lv_draw_sw_letter                      0x08023a44   Section        0  lv_draw_sw_letter.o(i.lv_draw_sw_letter)
    i.lv_draw_sw_line                        0x08023c04   Section        0  lv_draw_sw_line.o(i.lv_draw_sw_line)
    i.lv_draw_sw_polygon                     0x08023e08   Section        0  lv_draw_sw_polygon.o(i.lv_draw_sw_polygon)
    i.lv_draw_sw_rect                        0x0802419c   Section        0  lv_draw_sw_rect.o(i.lv_draw_sw_rect)
    i.lv_draw_sw_wait_for_finish             0x080241d8   Section        0  lv_draw_sw.o(i.lv_draw_sw_wait_for_finish)
    i.lv_dropdown_close                      0x080241da   Section        0  lv_dropdown.o(i.lv_dropdown_close)
    i.lv_dropdown_constructor                0x08024208   Section        0  lv_dropdown.o(i.lv_dropdown_constructor)
    lv_dropdown_constructor                  0x08024209   Thumb Code   122  lv_dropdown.o(i.lv_dropdown_constructor)
    i.lv_dropdown_create                     0x080242a4   Section        0  lv_dropdown.o(i.lv_dropdown_create)
    i.lv_dropdown_destructor                 0x080242c4   Section        0  lv_dropdown.o(i.lv_dropdown_destructor)
    lv_dropdown_destructor                   0x080242c5   Thumb Code    44  lv_dropdown.o(i.lv_dropdown_destructor)
    i.lv_dropdown_event                      0x080242f0   Section        0  lv_dropdown.o(i.lv_dropdown_event)
    lv_dropdown_event                        0x080242f1   Thumb Code   364  lv_dropdown.o(i.lv_dropdown_event)
    i.lv_dropdown_get_selected               0x08024460   Section        0  lv_dropdown.o(i.lv_dropdown_get_selected)
    i.lv_dropdown_get_selected_str           0x0802446c   Section        0  lv_dropdown.o(i.lv_dropdown_get_selected_str)
    i.lv_dropdown_is_open                    0x08024564   Section        0  lv_dropdown.o(i.lv_dropdown_is_open)
    i.lv_dropdown_list_create                0x0802457c   Section        0  lv_dropdown.o(i.lv_dropdown_list_create)
    lv_dropdown_list_create                  0x0802457d   Thumb Code    28  lv_dropdown.o(i.lv_dropdown_list_create)
    i.lv_dropdown_list_event                 0x0802459c   Section        0  lv_dropdown.o(i.lv_dropdown_list_event)
    lv_dropdown_list_event                   0x0802459d   Thumb Code   136  lv_dropdown.o(i.lv_dropdown_list_event)
    i.lv_dropdown_open                       0x08024628   Section        0  lv_dropdown.o(i.lv_dropdown_open)
    i.lv_dropdown_set_options                0x080248cc   Section        0  lv_dropdown.o(i.lv_dropdown_set_options)
    i.lv_dropdown_set_options_static         0x08024a48   Section        0  lv_dropdown.o(i.lv_dropdown_set_options_static)
    i.lv_dropdown_set_selected               0x08024b50   Section        0  lv_dropdown.o(i.lv_dropdown_set_selected)
    i.lv_dropdownlist_constructor            0x08024b82   Section        0  lv_dropdown.o(i.lv_dropdownlist_constructor)
    lv_dropdownlist_constructor              0x08024b83   Thumb Code    58  lv_dropdown.o(i.lv_dropdownlist_constructor)
    i.lv_dropdownlist_destructor             0x08024bbc   Section        0  lv_dropdown.o(i.lv_dropdownlist_destructor)
    lv_dropdownlist_destructor               0x08024bbd   Thumb Code    16  lv_dropdown.o(i.lv_dropdownlist_destructor)
    i.lv_event_get_code                      0x08024bcc   Section        0  lv_event.o(i.lv_event_get_code)
    i.lv_event_get_current_target            0x08024bd6   Section        0  lv_event.o(i.lv_event_get_current_target)
    i.lv_event_get_draw_ctx                  0x08024bdc   Section        0  lv_event.o(i.lv_event_get_draw_ctx)
    i.lv_event_get_indev                     0x08024c7c   Section        0  lv_event.o(i.lv_event_get_indev)
    i.lv_event_get_param                     0x08024d58   Section        0  lv_event.o(i.lv_event_get_param)
    i.lv_event_get_target                    0x08024d5e   Section        0  lv_event.o(i.lv_event_get_target)
    i.lv_event_get_user_data                 0x08024d64   Section        0  lv_event.o(i.lv_event_get_user_data)
    i.lv_event_send                          0x08024d6c   Section        0  lv_event.o(i.lv_event_send)
    i.lv_event_set_ext_draw_size             0x08024dd8   Section        0  lv_event.o(i.lv_event_set_ext_draw_size)
    i.lv_extra_init                          0x08024e6c   Section        0  lv_extra.o(i.lv_extra_init)
    i.lv_flex_init                           0x08024e80   Section        0  lv_flex.o(i.lv_flex_init)
    i.lv_font_get_bitmap_fmt_txt             0x08024ed4   Section        0  lv_font_fmt_txt.o(i.lv_font_get_bitmap_fmt_txt)
    i.lv_font_get_glyph_bitmap               0x08024f5c   Section        0  lv_font.o(i.lv_font_get_glyph_bitmap)
    i.lv_font_get_glyph_dsc                  0x08024ffc   Section        0  lv_font.o(i.lv_font_get_glyph_dsc)
    i.lv_font_get_glyph_dsc_fmt_txt          0x08025104   Section        0  lv_font_fmt_txt.o(i.lv_font_get_glyph_dsc_fmt_txt)
    i.lv_font_get_glyph_width                0x080251cc   Section        0  lv_font.o(i.lv_font_get_glyph_width)
    i.lv_font_get_line_height                0x08025284   Section        0  lv_dropdown.o(i.lv_font_get_line_height)
    lv_font_get_line_height                  0x08025285   Thumb Code     8  lv_dropdown.o(i.lv_font_get_line_height)
    i.lv_font_get_line_height                0x0802528c   Section        0  lv_label.o(i.lv_font_get_line_height)
    lv_font_get_line_height                  0x0802528d   Thumb Code     8  lv_label.o(i.lv_font_get_line_height)
    i.lv_font_get_line_height                0x08025294   Section        0  lv_roller.o(i.lv_font_get_line_height)
    lv_font_get_line_height                  0x08025295   Thumb Code     8  lv_roller.o(i.lv_font_get_line_height)
    i.lv_font_get_line_height                0x0802529c   Section        0  lv_textarea.o(i.lv_font_get_line_height)
    lv_font_get_line_height                  0x0802529d   Thumb Code     8  lv_textarea.o(i.lv_font_get_line_height)
    i.lv_fs_close                            0x080252a4   Section        0  lv_fs.o(i.lv_fs_close)
    i.lv_fs_drv_init                         0x080252ee   Section        0  lv_fs.o(i.lv_fs_drv_init)
    i.lv_fs_drv_register                     0x080252fc   Section        0  lv_fs.o(i.lv_fs_drv_register)
    i.lv_fs_fatfs_init                       0x080253a8   Section        0  lv_fs_fatfs.o(i.lv_fs_fatfs_init)
    i.lv_fs_get_drv                          0x08025414   Section        0  lv_fs.o(i.lv_fs_get_drv)
    i.lv_fs_get_ext                          0x08025444   Section        0  lv_fs.o(i.lv_fs_get_ext)
    i.lv_fs_get_real_path                    0x0802547c   Section        0  lv_fs.o(i.lv_fs_get_real_path)
    lv_fs_get_real_path                      0x0802547d   Thumb Code    12  lv_fs.o(i.lv_fs_get_real_path)
    i.lv_fs_open                             0x08025488   Section        0  lv_fs.o(i.lv_fs_open)
    i.lv_fs_read                             0x08025684   Section        0  lv_fs.o(i.lv_fs_read)
    i.lv_fs_read_cached                      0x080256e4   Section        0  lv_fs.o(i.lv_fs_read_cached)
    lv_fs_read_cached                        0x080256e5   Thumb Code   368  lv_fs.o(i.lv_fs_read_cached)
    i.lv_fs_seek                             0x080258d0   Section        0  lv_fs.o(i.lv_fs_seek)
    i.lv_gradient_calculate                  0x080259a6   Section        0  lv_draw_sw_gradient.o(i.lv_gradient_calculate)
    i.lv_gradient_cleanup                    0x08025ae8   Section        0  lv_draw_sw_gradient.o(i.lv_gradient_cleanup)
    i.lv_gradient_get                        0x08025afc   Section        0  lv_draw_sw_gradient.o(i.lv_gradient_get)
    i.lv_gradient_set_cache_size             0x08025c34   Section        0  lv_draw_sw_gradient.o(i.lv_gradient_set_cache_size)
    i.lv_grid_init                           0x08025d1c   Section        0  lv_grid.o(i.lv_grid_init)
    i.lv_group_add_obj                       0x08025dd4   Section        0  lv_group.o(i.lv_group_add_obj)
    i.lv_group_create                        0x08025efc   Section        0  lv_group.o(i.lv_group_create)
    i.lv_group_focus_next                    0x08025fe0   Section        0  lv_group.o(i.lv_group_focus_next)
    i.lv_group_focus_obj                     0x08025ff8   Section        0  lv_group.o(i.lv_group_focus_obj)
    i.lv_group_focus_prev                    0x080260b0   Section        0  lv_group.o(i.lv_group_focus_prev)
    i.lv_group_get_default                   0x080260c8   Section        0  lv_group.o(i.lv_group_get_default)
    i.lv_group_get_editing                   0x080260d4   Section        0  lv_group.o(i.lv_group_get_editing)
    i.lv_group_get_focused                   0x080260e4   Section        0  lv_group.o(i.lv_group_get_focused)
    i.lv_group_get_obj_count                 0x080260fa   Section        0  lv_group.o(i.lv_group_get_obj_count)
    i.lv_group_refocus                       0x08026106   Section        0  lv_group.o(i.lv_group_refocus)
    lv_group_refocus                         0x08026107   Thumb Code    60  lv_group.o(i.lv_group_refocus)
    i.lv_group_remove_obj                    0x08026142   Section        0  lv_group.o(i.lv_group_remove_obj)
    i.lv_group_send_data                     0x080261fc   Section        0  lv_group.o(i.lv_group_send_data)
    i.lv_group_set_editing                   0x0802621a   Section        0  lv_group.o(i.lv_group_set_editing)
    i.lv_img_buf_get_px_alpha                0x08026274   Section        0  lv_img_buf.o(i.lv_img_buf_get_px_alpha)
    i.lv_img_buf_get_px_color                0x080263b4   Section        0  lv_img_buf.o(i.lv_img_buf_get_px_color)
    i.lv_img_cf_get_px_size                  0x0802654c   Section        0  lv_draw_img.o(i.lv_img_cf_get_px_size)
    i.lv_img_cf_has_alpha                    0x08026598   Section        0  lv_draw_img.o(i.lv_img_cf_has_alpha)
    i.lv_img_cf_is_chroma_keyed              0x080265d2   Section        0  lv_draw_img.o(i.lv_img_cf_is_chroma_keyed)
    i.lv_img_constructor                     0x080265ec   Section        0  lv_img.o(i.lv_img_constructor)
    lv_img_constructor                       0x080265ed   Thumb Code   116  lv_img.o(i.lv_img_constructor)
    i.lv_img_create                          0x08026660   Section        0  lv_img.o(i.lv_img_create)
    i.lv_img_decoder_built_in_close          0x08026680   Section        0  lv_img_decoder.o(i.lv_img_decoder_built_in_close)
    i.lv_img_decoder_built_in_info           0x080266b8   Section        0  lv_img_decoder.o(i.lv_img_decoder_built_in_info)
    i.lv_img_decoder_built_in_line_alpha     0x08026844   Section        0  lv_img_decoder.o(i.lv_img_decoder_built_in_line_alpha)
    lv_img_decoder_built_in_line_alpha       0x08026845   Thumb Code   442  lv_img_decoder.o(i.lv_img_decoder_built_in_line_alpha)
    i.lv_img_decoder_built_in_line_indexed   0x08026a18   Section        0  lv_img_decoder.o(i.lv_img_decoder_built_in_line_indexed)
    lv_img_decoder_built_in_line_indexed     0x08026a19   Thumb Code   404  lv_img_decoder.o(i.lv_img_decoder_built_in_line_indexed)
    i.lv_img_decoder_built_in_line_true_color 0x08026bac   Section        0  lv_img_decoder.o(i.lv_img_decoder_built_in_line_true_color)
    lv_img_decoder_built_in_line_true_color  0x08026bad   Thumb Code   156  lv_img_decoder.o(i.lv_img_decoder_built_in_line_true_color)
    i.lv_img_decoder_built_in_open           0x08026cc4   Section        0  lv_img_decoder.o(i.lv_img_decoder_built_in_open)
    i.lv_img_decoder_built_in_read_line      0x080270bc   Section        0  lv_img_decoder.o(i.lv_img_decoder_built_in_read_line)
    i.lv_img_decoder_close                   0x08027208   Section        0  lv_img_decoder.o(i.lv_img_decoder_close)
    i.lv_img_decoder_create                  0x08027230   Section        0  lv_img_decoder.o(i.lv_img_decoder_create)
    i.lv_img_decoder_get_info                0x080272e8   Section        0  lv_img_decoder.o(i.lv_img_decoder_get_info)
    i.lv_img_decoder_open                    0x08027354   Section        0  lv_img_decoder.o(i.lv_img_decoder_open)
    i.lv_img_decoder_read_line               0x08027510   Section        0  lv_img_decoder.o(i.lv_img_decoder_read_line)
    i.lv_img_decoder_set_close_cb            0x08027544   Section        0  lv_img_decoder.o(i.lv_img_decoder_set_close_cb)
    i.lv_img_decoder_set_info_cb             0x08027548   Section        0  lv_img_decoder.o(i.lv_img_decoder_set_info_cb)
    i.lv_img_decoder_set_open_cb             0x0802754c   Section        0  lv_img_decoder.o(i.lv_img_decoder_set_open_cb)
    i.lv_img_decoder_set_read_line_cb        0x08027550   Section        0  lv_img_decoder.o(i.lv_img_decoder_set_read_line_cb)
    i.lv_img_destructor                      0x08027554   Section        0  lv_img.o(i.lv_img_destructor)
    lv_img_destructor                        0x08027555   Thumb Code    58  lv_img.o(i.lv_img_destructor)
    i.lv_img_event                           0x08027590   Section        0  lv_img.o(i.lv_img_event)
    lv_img_event                             0x08027591   Thumb Code   672  lv_img.o(i.lv_img_event)
    i.lv_img_get_transformed_size            0x08027834   Section        0  lv_img.o(i.lv_img_get_transformed_size)
    lv_img_get_transformed_size              0x08027835   Thumb Code    90  lv_img.o(i.lv_img_get_transformed_size)
    i.lv_img_set_src                         0x08027890   Section        0  lv_img.o(i.lv_img_set_src)
    i.lv_img_src_get_type                    0x08027b64   Section        0  lv_draw_img.o(i.lv_img_src_get_type)
    i.lv_indev_drv_init                      0x08027c00   Section        0  lv_hal_indev.o(i.lv_indev_drv_init)
    i.lv_indev_drv_register                  0x08027c2c   Section        0  lv_hal_indev.o(i.lv_indev_drv_register)
    i.lv_indev_get_act                       0x08027d28   Section        0  lv_indev.o(i.lv_indev_get_act)
    i.lv_indev_get_next                      0x08027d34   Section        0  lv_hal_indev.o(i.lv_indev_get_next)
    i.lv_indev_get_obj_act                   0x08027d50   Section        0  lv_indev.o(i.lv_indev_get_obj_act)
    i.lv_indev_get_point                     0x08027d5c   Section        0  lv_indev.o(i.lv_indev_get_point)
    i.lv_indev_get_scroll_dir                0x08027d8c   Section        0  lv_indev.o(i.lv_indev_get_scroll_dir)
    i.lv_indev_get_scroll_obj                0x08027db2   Section        0  lv_indev.o(i.lv_indev_get_scroll_obj)
    i.lv_indev_get_type                      0x08027dd2   Section        0  lv_indev.o(i.lv_indev_get_type)
    i.lv_indev_get_vect                      0x08027de0   Section        0  lv_indev.o(i.lv_indev_get_vect)
    i.lv_indev_read_timer_cb                 0x08027e08   Section        0  lv_indev.o(i.lv_indev_read_timer_cb)
    i.lv_indev_reset                         0x08027f24   Section        0  lv_indev.o(i.lv_indev_reset)
    i.lv_indev_reset_long_press              0x08027fe0   Section        0  lv_indev.o(i.lv_indev_reset_long_press)
    i.lv_indev_scroll_throw_predict          0x08027ffa   Section        0  lv_indev_scroll.o(i.lv_indev_scroll_throw_predict)
    i.lv_indev_search_obj                    0x08028042   Section        0  lv_indev.o(i.lv_indev_search_obj)
    i.lv_indev_set_group                     0x080280b8   Section        0  lv_indev.o(i.lv_indev_set_group)
    i.lv_indev_wait_release                  0x080280cc   Section        0  lv_indev.o(i.lv_indev_wait_release)
    i.lv_init                                0x080280e0   Section        0  lv_obj.o(i.lv_init)
    i.lv_keyboard_constructor                0x08028244   Section        0  lv_keyboard.o(i.lv_keyboard_constructor)
    lv_keyboard_constructor                  0x08028245   Thumb Code    70  lv_keyboard.o(i.lv_keyboard_constructor)
    i.lv_keyboard_def_event_cb               0x08028290   Section        0  lv_keyboard.o(i.lv_keyboard_def_event_cb)
    i.lv_keyboard_update_ctrl_map            0x08028508   Section        0  lv_keyboard.o(i.lv_keyboard_update_ctrl_map)
    lv_keyboard_update_ctrl_map              0x08028509   Thumb Code   114  lv_keyboard.o(i.lv_keyboard_update_ctrl_map)
    i.lv_keyboard_update_map                 0x08028580   Section        0  lv_keyboard.o(i.lv_keyboard_update_map)
    lv_keyboard_update_map                   0x08028581   Thumb Code    30  lv_keyboard.o(i.lv_keyboard_update_map)
    i.lv_label_constructor                   0x080285a4   Section        0  lv_label.o(i.lv_label_constructor)
    lv_label_constructor                     0x080285a5   Thumb Code   124  lv_label.o(i.lv_label_constructor)
    i.lv_label_create                        0x08028628   Section        0  lv_label.o(i.lv_label_create)
    i.lv_label_destructor                    0x08028648   Section        0  lv_label.o(i.lv_label_destructor)
    lv_label_destructor                      0x08028649   Thumb Code    36  lv_label.o(i.lv_label_destructor)
    i.lv_label_dot_tmp_free                  0x0802866c   Section        0  lv_label.o(i.lv_label_dot_tmp_free)
    lv_label_dot_tmp_free                    0x0802866d   Thumb Code    44  lv_label.o(i.lv_label_dot_tmp_free)
    i.lv_label_event                         0x08028698   Section        0  lv_label.o(i.lv_label_event)
    lv_label_event                           0x08028699   Thumb Code   328  lv_label.o(i.lv_label_event)
    i.lv_label_get_dot_tmp                   0x080287e4   Section        0  lv_label.o(i.lv_label_get_dot_tmp)
    lv_label_get_dot_tmp                     0x080287e5   Thumb Code    24  lv_label.o(i.lv_label_get_dot_tmp)
    i.lv_label_get_letter_on                 0x080287fc   Section        0  lv_label.o(i.lv_label_get_letter_on)
    i.lv_label_get_letter_pos                0x08028aec   Section        0  lv_label.o(i.lv_label_get_letter_pos)
    i.lv_label_get_text                      0x08028d78   Section        0  lv_label.o(i.lv_label_get_text)
    i.lv_label_get_text_selection_end        0x08028d84   Section        0  lv_label.o(i.lv_label_get_text_selection_end)
    i.lv_label_get_text_selection_start      0x08028d90   Section        0  lv_label.o(i.lv_label_get_text_selection_start)
    i.lv_label_ins_text                      0x08028d9c   Section        0  lv_label.o(i.lv_label_ins_text)
    i.lv_label_is_char_under_pos             0x08028ef0   Section        0  lv_label.o(i.lv_label_is_char_under_pos)
    i.lv_label_refr_text                     0x0802917c   Section        0  lv_label.o(i.lv_label_refr_text)
    lv_label_refr_text                       0x0802917d   Thumb Code  1444  lv_label.o(i.lv_label_refr_text)
    i.lv_label_revert_dots                   0x08029728   Section        0  lv_label.o(i.lv_label_revert_dots)
    lv_label_revert_dots                     0x08029729   Thumb Code   108  lv_label.o(i.lv_label_revert_dots)
    i.lv_label_set_dot_tmp                   0x08029798   Section        0  lv_label.o(i.lv_label_set_dot_tmp)
    lv_label_set_dot_tmp                     0x08029799   Thumb Code   114  lv_label.o(i.lv_label_set_dot_tmp)
    i.lv_label_set_long_mode                 0x08029868   Section        0  lv_label.o(i.lv_label_set_long_mode)
    i.lv_label_set_text                      0x080298ec   Section        0  lv_label.o(i.lv_label_set_text)
    i.lv_label_set_text_fmt                  0x08029a3c   Section        0  lv_label.o(i.lv_label_set_text_fmt)
    i.lv_label_set_text_sel_end              0x08029b30   Section        0  lv_label.o(i.lv_label_set_text_sel_end)
    i.lv_label_set_text_sel_start            0x08029b46   Section        0  lv_label.o(i.lv_label_set_text_sel_start)
    i.lv_label_set_text_static               0x08029b5c   Section        0  lv_label.o(i.lv_label_set_text_static)
    i.lv_layout_register                     0x08029b9c   Section        0  lv_obj_pos.o(i.lv_layout_register)
    i.lv_led_constructor                     0x08029c8c   Section        0  lv_led.o(i.lv_led_constructor)
    lv_led_constructor                       0x08029c8d   Thumb Code    30  lv_led.o(i.lv_led_constructor)
    i.lv_led_event                           0x08029cac   Section        0  lv_led.o(i.lv_led_event)
    lv_led_event                             0x08029cad   Thumb Code   546  lv_led.o(i.lv_led_event)
    i.lv_line_constructor                    0x08029ed4   Section        0  lv_line.o(i.lv_line_constructor)
    lv_line_constructor                      0x08029ed5   Thumb Code    36  lv_line.o(i.lv_line_constructor)
    i.lv_line_event                          0x08029ef8   Section        0  lv_line.o(i.lv_line_event)
    lv_line_event                            0x08029ef9   Thumb Code   464  lv_line.o(i.lv_line_event)
    i.lv_list_add_btn                        0x0802a0cc   Section        0  lv_list.o(i.lv_list_add_btn)
    i.lv_list_add_text                       0x0802a144   Section        0  lv_list.o(i.lv_list_add_text)
    i.lv_list_create                         0x0802a180   Section        0  lv_list.o(i.lv_list_create)
    i.lv_list_get_btn_text                   0x0802a1a8   Section        0  lv_list.o(i.lv_list_get_btn_text)
    i.lv_map                                 0x0802a1ec   Section        0  lv_math.o(i.lv_map)
    i.lv_mbox_show                           0x0802a214   Section        0  ui.o(i.lv_mbox_show)
    i.lv_mem_alloc                           0x0802a280   Section        0  lv_mem.o(i.lv_mem_alloc)
    i.lv_mem_buf_free_all                    0x0802a380   Section        0  lv_mem.o(i.lv_mem_buf_free_all)
    i.lv_mem_buf_get                         0x0802a3bc   Section        0  lv_mem.o(i.lv_mem_buf_get)
    i.lv_mem_buf_release                     0x0802a5bc   Section        0  lv_mem.o(i.lv_mem_buf_release)
    i.lv_mem_free                            0x0802a644   Section        0  lv_mem.o(i.lv_mem_free)
    i.lv_mem_init                            0x0802a670   Section        0  lv_mem.o(i.lv_mem_init)
    i.lv_mem_monitor                         0x0802a68c   Section        0  lv_mem.o(i.lv_mem_monitor)
    i.lv_mem_realloc                         0x0802a6f8   Section        0  lv_mem.o(i.lv_mem_realloc)
    i.lv_mem_walker                          0x0802a79c   Section        0  lv_mem.o(i.lv_mem_walker)
    lv_mem_walker                            0x0802a79d   Thumb Code    38  lv_mem.o(i.lv_mem_walker)
    i.lv_memcpy                              0x0802a7c2   Section        0  lv_mem.o(i.lv_memcpy)
    i.lv_memcpy_small                        0x0802aa3a   Section        0  lv_img_buf.o(i.lv_memcpy_small)
    lv_memcpy_small                          0x0802aa3b   Thumb Code    24  lv_img_buf.o(i.lv_memcpy_small)
    i.lv_memcpy_small                        0x0802aa52   Section        0  lv_txt.o(i.lv_memcpy_small)
    lv_memcpy_small                          0x0802aa53   Thumb Code    24  lv_txt.o(i.lv_memcpy_small)
    i.lv_memset                              0x0802aa6a   Section        0  lv_mem.o(i.lv_memset)
    i.lv_memset_00                           0x0802aade   Section        0  lv_mem.o(i.lv_memset_00)
    i.lv_memset_ff                           0x0802ab4c   Section        0  lv_mem.o(i.lv_memset_ff)
    i.lv_menu_back_btn_is_root               0x0802abbe   Section        0  lv_menu.o(i.lv_menu_back_btn_is_root)
    i.lv_menu_back_event_cb                  0x0802abe4   Section        0  lv_menu.o(i.lv_menu_back_event_cb)
    lv_menu_back_event_cb                    0x0802abe5   Thumb Code   154  lv_menu.o(i.lv_menu_back_event_cb)
    i.lv_menu_clear_history                  0x0802ac7e   Section        0  lv_menu.o(i.lv_menu_clear_history)
    i.lv_menu_constructor                    0x0802ac9c   Section        0  lv_menu.o(i.lv_menu_constructor)
    lv_menu_constructor                      0x0802ac9d   Thumb Code   354  lv_menu.o(i.lv_menu_constructor)
    i.lv_menu_cont_constructor               0x0802ae18   Section        0  lv_menu.o(i.lv_menu_cont_constructor)
    lv_menu_cont_constructor                 0x0802ae19   Thumb Code    36  lv_menu.o(i.lv_menu_cont_constructor)
    i.lv_menu_destructor                     0x0802ae3c   Section        0  lv_menu.o(i.lv_menu_destructor)
    lv_menu_destructor                       0x0802ae3d   Thumb Code    32  lv_menu.o(i.lv_menu_destructor)
    i.lv_menu_get_cur_main_page              0x0802ae5c   Section        0  lv_menu.o(i.lv_menu_get_cur_main_page)
    i.lv_menu_get_cur_sidebar_page           0x0802ae68   Section        0  lv_menu.o(i.lv_menu_get_cur_sidebar_page)
    i.lv_menu_page_constructor               0x0802ae74   Section        0  lv_menu.o(i.lv_menu_page_constructor)
    lv_menu_page_constructor                 0x0802ae75   Thumb Code    54  lv_menu.o(i.lv_menu_page_constructor)
    i.lv_menu_page_destructor                0x0802aeaa   Section        0  lv_menu.o(i.lv_menu_page_destructor)
    lv_menu_page_destructor                  0x0802aeab   Thumb Code    24  lv_menu.o(i.lv_menu_page_destructor)
    i.lv_menu_refr_main_header_mode          0x0802aec2   Section        0  lv_menu.o(i.lv_menu_refr_main_header_mode)
    lv_menu_refr_main_header_mode            0x0802aec3   Thumb Code   144  lv_menu.o(i.lv_menu_refr_main_header_mode)
    i.lv_menu_section_constructor            0x0802af52   Section        0  lv_menu.o(i.lv_menu_section_constructor)
    lv_menu_section_constructor              0x0802af53   Thumb Code    24  lv_menu.o(i.lv_menu_section_constructor)
    i.lv_menu_set_page                       0x0802af6a   Section        0  lv_menu.o(i.lv_menu_set_page)
    i.lv_menu_value_changed_event_cb         0x0802b07c   Section        0  lv_menu.o(i.lv_menu_value_changed_event_cb)
    lv_menu_value_changed_event_cb           0x0802b07d   Thumb Code   108  lv_menu.o(i.lv_menu_value_changed_event_cb)
    i.lv_meter_constructor                   0x0802b0e8   Section        0  lv_meter.o(i.lv_meter_constructor)
    lv_meter_constructor                     0x0802b0e9   Thumb Code    38  lv_meter.o(i.lv_meter_constructor)
    i.lv_meter_destructor                    0x0802b10e   Section        0  lv_meter.o(i.lv_meter_destructor)
    lv_meter_destructor                      0x0802b10f   Thumb Code    30  lv_meter.o(i.lv_meter_destructor)
    i.lv_meter_event                         0x0802b12c   Section        0  lv_meter.o(i.lv_meter_event)
    lv_meter_event                           0x0802b12d   Thumb Code   282  lv_meter.o(i.lv_meter_event)
    i.lv_msgbox_close                        0x0802b24c   Section        0  lv_msgbox.o(i.lv_msgbox_close)
    i.lv_msgbox_create                       0x0802b274   Section        0  lv_msgbox.o(i.lv_msgbox_create)
    i.lv_obj_add_event_cb                    0x0802b5d8   Section        0  lv_event.o(i.lv_obj_add_event_cb)
    i.lv_obj_add_flag                        0x0802b700   Section        0  lv_obj.o(i.lv_obj_add_flag)
    i.lv_obj_add_state                       0x0802b77a   Section        0  lv_obj.o(i.lv_obj_add_state)
    i.lv_obj_add_style                       0x0802b79a   Section        0  lv_obj_style.o(i.lv_obj_add_style)
    i.lv_obj_align                           0x0802b85c   Section        0  lv_obj_pos.o(i.lv_obj_align)
    i.lv_obj_align_to                        0x0802b880   Section        0  lv_obj_pos.o(i.lv_obj_align_to)
    i.lv_obj_allocate_spec_attr              0x0802bcf4   Section        0  lv_obj.o(i.lv_obj_allocate_spec_attr)
    i.lv_obj_area_is_visible                 0x0802bddc   Section        0  lv_obj_pos.o(i.lv_obj_area_is_visible)
    i.lv_obj_calculate_ext_draw_size         0x0802bed6   Section        0  lv_obj_draw.o(i.lv_obj_calculate_ext_draw_size)
    i.lv_obj_calculate_style_text_align      0x0802c00c   Section        0  lv_obj_style.o(i.lv_obj_calculate_style_text_align)
    i.lv_obj_center                          0x0802c054   Section        0  ui.o(i.lv_obj_center)
    lv_obj_center                            0x0802c055   Thumb Code    18  ui.o(i.lv_obj_center)
    i.lv_obj_check_type                      0x0802c066   Section        0  lv_obj.o(i.lv_obj_check_type)
    i.lv_obj_class_create_obj                0x0802c07c   Section        0  lv_obj_class.o(i.lv_obj_class_create_obj)
    i.lv_obj_class_init_obj                  0x0802c1f0   Section        0  lv_obj_class.o(i.lv_obj_class_init_obj)
    i.lv_obj_clean                           0x0802c264   Section        0  lv_obj_tree.o(i.lv_obj_clean)
    i.lv_obj_clear_flag                      0x0802c2b8   Section        0  lv_obj.o(i.lv_obj_clear_flag)
    i.lv_obj_clear_state                     0x0802c33a   Section        0  lv_obj.o(i.lv_obj_clear_state)
    i.lv_obj_construct                       0x0802c35a   Section        0  lv_obj_class.o(i.lv_obj_construct)
    lv_obj_construct                         0x0802c35b   Thumb Code    42  lv_obj_class.o(i.lv_obj_construct)
    i.lv_obj_constructor                     0x0802c384   Section        0  lv_obj.o(i.lv_obj_constructor)
